:020000040800F2
:10000000C0560020310300080941000821390008CA
:10001000A1400008710F0008314C000800000000EA
:100020000000000000000000000000007102000855
:10003000B519000800000000CD020008E5450008E1
:100040004B0300084B0300084B0300084B03000858
:100050004B0300084B0300084B0300084B03000848
:100060004B0300084B0300084B0300084B03000838
:100070004B0300084B0300084B0300084B03000828
:10008000D51600084B0300084B0300084B0300087B
:10009000750F00084B0300084B0300084B030008D2
:1000A0004B0300084B0300084B0300084B030008F8
:1000B000B54600084B0300084B0300084B0300083B
:1000C0004B0300084B0300084B0300084B030008D8
:1000D0004B0300084B030008BD4B00084B0300080E
:1000E0004B0300084B0300084B0300084B030008B8
:1000F0004B0300084B0300084B0300084B030008A8
:100100004B0300084B0300084B0300084B03000897
:100110004B0300084B0300084B0300084B03000887
:100120004B0300084B0300084B0300084B03000877
:100130004B0300084B0300084B0300084B03000867
:100140000D1000084B0300084B0300084B03000888
:100150004B0300084B0300084B0300084B03000847
:100160004B0300084B0300084B0300084B03000837
:100170004B0300084B0300084B030008000000007D
:100180004B0300084B03000800F002F800F060F891
:100190000AA090E8000C82448344AAF10107DA45E2
:1001A00001D100F055F8AFF2090EBAE80F0013F0D4
:1001B000010F18BFFB1A43F001031847D4E00000F9
:1001C000F4E000000A444FF0000C10F8013B13F07B
:1001D000070408BF10F8014B1D1108BF10F8015BA0
:1001E000641E05D010F8016B641E01F8016BF9D193
:1001F00013F0080F1EBF10F8014BAD1C0C1B09D1EA
:100200006D1E58BF01F801CBFAD505E014F8016B5B
:1002100001F8016B6D1EF9D59142D6D370470000ED
:100220000023002400250026103A28BF78C1FBD8FF
:10023000520728BF30C148BF0B6070471FB50BF095
:100240003AFE9DE8030000F0FBF91FBD10B510BD9C
:1002500000F062FA1146FFF7F1FF07F001FF00F02E
:1002600080FA03B4FFF7F2FF03BC00F0B1FA00001C
:100270002C4B19680868B0E8F04F80F30988BFF389
:100280006F8F4FF0000080F311887047000000006E
:1002900008480068006880F308884FF0000080F389
:1002A000148862B661B6BFF34F8FBFF36F8F00DF64
:1002B00000BF00BF08ED00E0DFF80C00016841F46A
:1002C00070010160704700BF88ED00E0EFF3098026
:1002D000BFF36F8F134B1A681EF0100F08BF20ED8D
:1002E000108A20E9F04F106009B44FF0500080F3FD
:1002F0001188BFF34F8FBFF36F8F0AF0D9FD4FF016
:10030000000080F3118809BC19680868B0E8F04F54
:100310001EF0100F08BFB0EC108A80F30988BFF3FD
:100320006F8F704734000020EFF3058070470000A6
:100330000948804709480047FEE7FEE7FEE7FEE779
:10034000FEE7FEE7FEE7FEE7FEE7FEE704480549B5
:10035000054A064B70470000A546000889010008C1
:10036000C0500020C0560020C0520020C0520020C3
:1003700070B5064600F048F9056806F10B0020F05C
:100380000704B4429CBF002070BD2B466A68BAB116
:100390001068A04210D304F1080188423CBF5068A5
:1003A000586007D35168101941601168091B01603A
:1003B00058601460101D70BD13465268002AE7D1C2
:1003C0002146284600F028F90028DED170BD70B51E
:1003D0000446051F00F018F90068002C14BF44689B
:1003E00070BD002C18BFAC423CBF20466468F8D3F7
:1003F00001680A18AA4218BF456003D12A68054659
:100400001144016028684119A1421CBF6C6070BD95
:100410006168696021680844286070BD53EA020C75
:1004200000F069802DE9F04B4FF00006002B1FBF54
:10043000B3FA83F503FA05F424FA05F65E4012BF19
:100440001643B2FA82F502FA05F4C5F120051EBF83
:1004500022FA05FC44EA0C04203556EA044C4FEA23
:10046000144418BF641C4FF000084FF0000990427C
:1004700071EB030C39D3002919BFB1FA81F701FAE6
:1004800007F6B0FA80F700FA07F6C7F120071EBF9B
:1004900020FA07FC46EA0C062037B6FBF4FCA7EB73
:1004A0000507103F07F01F0BCBF120060CFA0BFBE2
:1004B0002CFA06F644BFB3460026202FA4BF5E46A2
:1004C0004FF0000B5BEA060C08BF4FF0010B19EB75
:1004D0000B09ABFB027C48EB0608C01B06FB02CCF9
:1004E0000BFB03CC71EB0C01C1E70B460246414606
:1004F0004846BDE8F08B13B54FF000004FF0000107
:10050000AFF30080BDE81C40704710B5203AC0F042
:100510000B80B1E81850203AA0E81850B1E8185004
:10052000A0E81850BFF4F5AF5FEA027C24BFB1E841
:100530001850A0E8185044BF18C918C0BDE81040B2
:100540005FEA827C24BF51F8043B40F8043B08BFBB
:100550007047D20728BF31F8023B48BF11F8012B82
:1005600028BF20F8023B48BF00F8012B70474FF02E
:1005700000020429C0F0128010F0030C00F01B8070
:10058000CCF1040CBCF1020F18BF00F8012BA8BF7E
:1005900020F8022BA1EB0C0100F00DB85FEAC17C42
:1005A00024BF00F8012B00F8012B48BF00F8012BF5
:1005B00070474FF0000200B5134694469646203926
:1005C00022BFA0E80C50A0E80C50B1F12001BFF40C
:1005D000F7AF090728BFA0E80C5048BF0CC05DF872
:1005E00004EB890028BF40F8042B08BF704748BFC0
:1005F00020F8022B11F0804F18BF00F8012B704734
:1006000070477047704700000048704768500020EE
:10061000704770477047704738B504460A46002057
:100620006946AFF30080002808BF38BD0246009934
:10063000204600F04FF8012038BD012000F064B8DA
:10064000F8B5AFF30080054600200C46102000BF2F
:100650000646A819A0420DD9324669460020AFF3DC
:100660000080070008BF00F04FF80098A04218BFB4
:100670000546C419FFF7C8FF05600746F01D20F0C6
:1006800007004619284600F00AF8B44208BFF8BD32
:10069000A21B31463868BDE8F84000F01BB80021C5
:1006A0000160C0E9011070471020704710B500F0DC
:1006B0000DF8006810BD10B5044600F007F804609E
:1006C00010BD00000048704760500020004870478F
:1006D00060500020034640688C46002818BF8842BE
:1006E0003CBF03464068F8D318681844884207D0D6
:1006F0000CF1030020F00700001D411A521A0146B8
:10070000081D0A60FFF763BE10B500F039F8BDE8B8
:10071000104000F02FB870477546FFF7D3FFAE4684
:1007200005006946534620F00700854618B020B5FD
:10073000FFF70CFEBDE820404FF000064FF0000729
:100740004FF000084FF0000B21F00701AC46ACE879
:10075000C009ACE8C009ACE8C009ACE8C0098D46E6
:10076000704710B50446AFF300802046BDE8104046
:10077000FFF777BD002801D000F02AB870470000CD
:1007800010B5012805D0002103A000F027F80120B2
:1007900010BD09A1F8E7000053494752544D454D9B
:1007A0003A204F7574206F662068656170206D6512
:1007B0006D6F7279000000003A2048656170206D0D
:1007C000656D6F727920636F727275707465640005
:1007D00001491820ABBEFEE72600020070B50546B1
:1007E0000C460A2000E06D1C00F011F835B12878A5
:1007F0000028F8D102E0641C00F009F814B1207858
:100800000028F8D1BDE870400A20AFF3008008B599
:1008100069468DF800000320ABBE08BD2DE9F0410C
:1008200016462DED0A8B0F468046B3F90030DDE900
:10083000131000EE103ADDE91152F8EEC00AFE4C3A
:10084000DDF840C0C4ED0E0ABCF9003000EE103AED
:10085000B8EEC00A84ED0F0AB5F90030032593FB0A
:10086000F5F31BB203EB430300EE103AB8EEC00AF7
:1008700084ED100AB2F9002000EE102AB8EEC01A7A
:1008800084ED111AB1F9001000EE101AB8EEC00A8A
:1008900084ED120AB0F9000021EE000A01EE900A80
:1008A000F8EEE11AC4ED131A20EE210AB5EEC00AE3
:1008B000F1EE10FA7DD0E14D297B9FEDE18AFDEE4E
:1008C000E00AB0EE480A10EE900A00B207F03EFBD4
:1008D00084ED0E0AD4ED0F0A297BB0EE480AFDEE36
:1008E000E00A10EE900A00B207F030FB84ED0F0A28
:1008F000D4ED100A297BB0EE480AFDEEE00A10EEB6
:10090000900A00B207F022FB94ED0E1ADFEDCD0A3B
:1009100021EE201A20EE200A84ED0E1A94ED0F1A13
:1009200021EE201A84ED0F1A84ED100AD4ED110A7D
:10093000297BB0EE000AFDEEE00A10EE900A00B24C
:1009400007F018FB84ED110AD4ED120A297BB0EEF2
:10095000000AFDEEE00A10EE900A00B207F00AFB72
:1009600084ED120AD4ED130A297BB0EE000AFDEEE5
:10097000E00A10EE900A00B207F0FCFAF0EE400A2E
:10098000C4ED130A94ED110A94ED121A20EE000A38
:1009900001EE010A00EEA00A07F0C2FA84ED070A90
:1009A000D4ED110A60EE802AC4ED112AD4ED120AAA
:1009B00000E05CE160EE804AB0EE008AC4ED124ACD
:1009C000D4ED130A20EE803A84ED133A94ED040A34
:1009D000D4ED060AD4ED031A94ED051A20EE202A70
:1009E00001EEC12A22EE084A21EE802A84ED084A4F
:1009F00001EE202A22EE085A21EEA12A84ED095A9E
:100A000000EE402A01EE412A00EEA02A84ED0A2AD7
:100A100064EE823A43EE453A23EE043A02EEC23ADD
:100A200062EE852AC4ED0B3A44EEC42A84ED0C3AFA
:100A3000C4ED0D2A94ED142A94ED015A03EE852A93
:100A400084ED142A94ED154A03EE054A84ED154A07
:100A5000D4ED164A42EE854AC4ED164AD4ED0E5A3C
:100A600094ED005A45EE235A35EE822A84ED0E2A83
:100A7000D4ED0F3A45EE033A33EE843A20EE424A83
:100A800084ED0F3AD4ED103A01EE434A61EE835AF9
:100A900045EE223AB0EE615A73EEA42A61EE824A24
:100AA000C4ED102AC4ED171A41EE224A84ED180A4B
:100AB00000EEE24A84ED191AC4ED1A0AD4ED023AA6
:100AC00040EEC34A40EE625A04EE235AB0EE404A6A
:100AD00004EEA34A40EE825A84ED035A84ED044AA0
:100AE00061EEA21AF0EE414A45EEA34A40EE031A27
:100AF00025EE050AC4ED054A04EE040A41EE421A49
:100B000004EEA40A41EEA30AC4ED060A00EEA00A10
:100B100007F006FA84ED070AD4ED030A20EE80BA46
:100B200084ED03BAD4ED040A60EE808AC4ED048A31
:100B3000D4ED050A20EE809A84ED059AD4ED060ADC
:100B400060EE809A2BEE0B0AC4ED069A08EEE80AD6
:100B500009EE490A09EEA90A10EE100A0BF03AF95B
:100B600029EE080A6BEE080A41EC1A0B20EE290A5E
:100B700000EEA80A10EE100A0BF02CF941EC100B55
:100B8000B0EE4A1AF0EE6A1A04F09AFB9FED2EBB03
:100B900051EC100B53EC1B2B0AF05CFE0AF0CEFB61
:100BA000386094ED040AD4ED060A94ED051A20EE9F
:100BB000080A20EE200AD4ED030A60EE880A00EE4F
:100BC000C10A10EE100A0BF005F941EC100B04F00D
:100BD0005BF89FED1F1B51EC100B53EC112B0AF02F
:100BE00039FE0AF0ABFBC8F8000094ED03CAD4ED5F
:100BF000048AD4ED05AA2CEE0C0A94ED06AA08EEA0
:100C0000A80A0AEEEA0A0AEE4A0A10EE100A0BF0E7
:100C1000E1F828EEAA0A41EC190B0CEE0A0A20EEC4
:100C2000080A10EE100A0BF0D5F841EC100BB0EEEC
:100C3000491AF0EE691A0FE054030020F84F002023
:100C40000000FA44728A8E3C0000006066A64C40A8
:100C50000000006066A64CC004F032FB53EC1B2B76
:100C600051EC100B0AF0F6FD0AF068FB3060002032
:100C7000BDEC0A8BBDE8F0812DE9FE4F1546DDE99C
:100C80000C9A0E4607460C221C466946104602F096
:100C9000D9FFBDF80080BDF802C0BDF80430BDF832
:100CA0000620BDF80810BDF80A00A4F80080A9F8D5
:100CB00000C0AAF800303A8031802880BDE8FE8F5D
:100CC00038B5194805F0FAFC05F06CF9164805F03E
:100CD0002DF9044605F066F924BB01208DF80000CB
:100CE0000146114A684605F077FD05F05BF90E48AC
:100CF00003F06EFA00208DF800000B4A01216846CF
:100D000005F06AFD05F04EF9074803F037FA0220B6
:100D10008DF80000044A0121684605F05DFD044697
:100D200005F040F9204638BDF84F00202DE9F04786
:100D3000844C854EDFF81482854D4FF47A7A2DED80
:100D4000028B4FF00109207A002710B1606918B1B9
:100D500005E0A773676173E001F0FAFC606101F0E0
:100D6000F7FC6169401A50456AD36761B06EB0F90B
:100D7000020000EE100AB8EEC00A03F092F910EE7D
:100D8000100A74499FED748A884216DC207BA0B952
:100D90002878401CC0B2287003280ED32F7084F826
:100DA0000C90B06F90ED000A30EE080A80ED000A5A
:100DB0006548D6F8941068308847B06EB0F90200E4
:100DC00000EE100AB8EEC00A03F06BF910EE100A3C
:100DD0006249884203DB207B08B92F70A773B06F8C
:100DE000D0ED028A207B01282AD1B0EE680A03F0F8
:100DF00058F910EE100A404503DC2773A7736F7093
:100E00001EE0207B01281BD1B0EE680A03F049F9EF
:100E100010EE100A404513DD6878401CC0B26870BF
:100E200002280DD36F70A07B78B10020A07300283A
:100E3000B06F90ED000A0AD030EE480A80ED000A4B
:100E4000A07A38B1A06958B10DE00120EEE730EE8C
:100E5000080AF3E7E773A761BDEC028BBDE8F087F2
:100E600001F076FCA06101F073FCA169401A5045C5
:100E7000F2D3A761B06FD0ED028AB0EE680A03F03A
:100E800010F910EE100A36499FED368A8842607BD1
:100E900018DB18BBA878401CC0B2A870032812D376
:100EA000AF70B06FDFED300A90ED000A30EE200A2F
:100EB00080ED000A30EE080AB06F80ED000A84F879
:100EC0000D900EE050B9B0EE680A03F0EAF810EEAB
:100ED000100A2649884201DCAF70E773607B012865
:100EE000BAD1B0EE680A03F0DCF810EE100A404503
:100EF00003DC6773E773EF70AEE7607B0128ABD16B
:100F0000B0EE680A03F0CDF810EE100A4045A3DDFC
:100F1000E878401CC0B2E87002289DD3EF70E07BF7
:100F200058B10020E0730028B06F90ED000A06D0A1
:100F300030EE480A80ED000A8EE70120F2E730EE3D
:100F4000080AF7E7A0470020580200200000FA44F2
:100F5000280300200000A04000B8084700004843D4
:100F600000606A460060EA46002410470000FA4329
:100F7000FEE70000014800F0E8BE0000180600206F
:100F800070B5204CA0F50072013A1AD0A0F500729D
:100F9000023A1CD0A0F50072033A1BD0B0F5017FD5
:100FA00027D0194CA0F50072053A1AD0A0F50072AE
:100FB000063A26D1E26C2046343005469047216D32
:100FC0000DE0A2690F4890470E48E1690EE00D4818
:100FD000E26CF1E70B4854F8802F68300DE02846AA
:100FE00004E0A269084890470748E169BDE87040FD
:100FF0000847044854F8B42F9C3005469047616870
:10100000EDE770BDFC000020F0010020014800F079
:101010009CBE00004006002070B5174CA0F5007281
:10102000013A15D0A0F50072023A17D0A0F500726F
:10103000033A1AD0B0F5017F1CD10F4854F8B42FF1
:101040009C300546904761682846BDE870400847D7
:10105000A269094890470848E169F6E70648E26C4A
:10106000343005469047216DEEE7034854F8802F51
:101070006830E6E770BD00005802002000210160E2
:1010800041608160C160016101224161C0E90612D5
:10109000C0E908217047000000B595B06846FFF729
:1010A000EDFF69460C4800F055FD0AA8FFF7E6FF82
:1010B0000AA90A4800F04EFD0221074800F0D4FCBE
:1010C0000221064800F0D0FC034801F07BF80348F9
:1010D00001F078F815B000BD180600204006002089
:1010E00070B50446016000200821A060C4E9030136
:1010F000115C2318401C19760828F9DB0B4804F111
:101100001805844205D100232A462146084800F0EC
:10111000BDFC06484430844207D12A462146BDE83A
:1011200070400023034800F0B1BC70BD584500205A
:10113000180600204006002070B5274C606810B9E2
:1011400001F006FB606001F003FB6168401AB0F536
:10115000FA7F1CD3214800240246046044604FF407
:10116000007529461E48FFF7BBFF1E48691E024650
:10117000046044601A48FFF7B3FF1B482946024643
:1011800004604460BDE870401848FFF7A9BF1948E3
:101190009FED170A816881ED000AC16B81ED000A9D
:1011A000016F81ED000AD0F8A40080ED000A12481A
:1011B000C16B81ED000A816881ED000A016F81ED4C
:1011C000000AD0F8A40080ED000A00F03DFABDE866
:1011D000704003F0A9B800004C0300209C000020E0
:1011E00058450020A4000020AC0000209C450020B1
:1011F00000000000FC0000205802002070B5134ED3
:1012000000252DED048BB1EE088AB6EE009ADFEDD5
:10121000108A00BF05EB850000EBC50006EB8004DB
:10122000204661698847A06807F06AF8A0686D1CCD
:10123000042D80ED048AA068C0ED058AA06880EDC9
:10124000069AE7DBBDEC048B70BD0000FC000020BB
:10125000CDCC4C3E70B52A4E9FED280A06F1140500
:101260002DED048B86ED000A2868B6EE000A2649AB
:1012700090ED049A90ED068AD0ED0D8A80ED040A77
:10128000B0EE080A80ED060A9FED1E0A80ED0D0AF9
:101290004A79012A28D1CA7989791C4C8A421BD003
:1012A000012A19D1216840F6D17309884A1E9A4251
:1012B00005D89FED170A80ED000A00200AE041F2F0
:1012C0002D02A1F6D371914206D89FED120A80ED4E
:1012D000000A012084F830000C4809F057FBE06850
:1012E00090ED0A0A86ED000A286880ED049A80EDE8
:1012F000068AC0ED0D8ABDEC048B70BD00000000B5
:10130000CC01002000007A44A0470020F00100201A
:10131000002000450010BD45F0B500202DED088BE4
:1013200085B00090019002909FED960A974A039035
:10133000954C136894F83050B3F90610B3F90400D3
:101340007DB1494200EE901AD0F10000F8EEE08A3B
:1013500000EE900A5068B8EEE08A0179012905D0C4
:101360000EE000EE901AF8EEE08AF1E7B3F9001013
:1013700000EE101AB8EEC00ADFED850A20EE200A52
:101380004179012905D18079012849D0814890ED22
:10139000000A78EE880A70EE800A9FED7F9A20EEB0
:1013A000891ADFED7E0A7E4F0024C1EE201A38EE46
:1013B000681A6E4631EE001A21EE091ACDED001AB8
:1013C000C1EE201A38EEC81A31EE001A21EE091AC1
:1013D000CDED011AC1EE201AB1EE681A31EE481AAD
:1013E00031EE000A20EE090A80EE201ACDED021A35
:1013F0008DED031A06EB840595ED000A02F051FE0F
:1014000010EE100AB8427CDD95ED000AB5EEC00A78
:10141000F1EE10FA76D89FED631AC1EE000A8EE065
:10142000206816210088A0F6020090FBF1F100EE82
:10143000101AB0F5805FB8EEC00A03DBDFED5A0A80
:1014400030EE600ADFED590A80EE209A19EE100A9C
:101450000AF0C0FC41EC100B04F08EF8B0EE40AA8C
:10146000F0EE60AA18EE100A0AF0B4FC53EC1A2B46
:101470000AF0F0F941EC1A0B19EE100A0AF0AAFC76
:1014800041EC100B04F014F8B0EE40BAF0EE60BA84
:1014900018EE900A0AF09EFC53EC1B2B0AF0DAF9C6
:1014A00053EC1A2B09F07CFF09F048FF09EE900A73
:1014B00019EE100A0AF08EFC41EC100B03F0F8FF55
:1014C000B0EE40AAF0EE60AA18EE100A0AF082FC14
:1014D00053EC1A2B0AF0BEF941EC1A0B19EE100A64
:1014E0000AF078FC41EC100B04F046F8B0EE40BA7C
:1014F000B1EE680AF0EE60BA10EE100A0AF06AFC6B
:1015000001E020E019E053EC1B2B0AF0A3F953ECA7
:101510001A2B09F045FF09F011FF08EE100A94F8A4
:1015200030009FED230AF0EE698A01287FF431AF85
:10153000F1EE688AB1EE488A2BE7C9EE000A20EE88
:10154000800A85ED000A641C042CFFF653AF19488D
:101550009DED000A816881ED000AC16B9DED010AD5
:1015600081ED000A016F9DED020A81ED000AD0F8BD
:10157000A4009DED030A80ED000A05B0BDEC088BC8
:10158000F0BD000000000000F0010020D4000020A9
:101590009A99193FCC0100200000FA45000025442B
:1015A0000000FA450000FAC50000B44300006442A0
:1015B00000007A43FC00002070B5214809F03AFA97
:1015C0001F4D204CA86890ED0A0ABDEEC00A10EE2F
:1015D000100A0012207010EE100A607005F134003D
:1015E00009F028FAE86B90ED0A0ABDEEC00A10EE89
:1015F000100A0012A07010EE100AE07005F16800E9
:1016000009F018FA286F90ED0A0ABDEEC00A10EE34
:10161000100A0012207110EE100A607105F19C0092
:1016200009F008FAD5F8A40090ED0A0ABDEEC00A48
:1016300010EE100A0012A07110EE100AE07170BDD9
:10164000FC0000209C00002010B5FFF7B5FF054A04
:101650004FF400710448FFF743FD02480021016088
:10166000416010BD9C0000205845002090ED001AFC
:10167000B4EEC01AF1EE10FA02DB80ED000A7047FA
:10168000B4EEE01AF1EE10FAF9D8C0ED000A704796
:101690000421014801F0C6BE680600200149E1208E
:1016A0008863704700000140014932208863704719
:1016B000000001400421014801F018BF6806002025
:1016C0000348007C012801D0FFF7E8BFFFF7ECBF1B
:1016D000A0470020014800F003BE0000C007002022
:1016E0002DE9F04F85680024099E802D18D0894D82
:1016F000C563894D456490F83450012D15D00125FE
:1017000080F8345090F83550012D10D0002180F829
:1017100034100224002180F834102046BDE8F08FF8
:101720004FF4807141650120F8E70220F6E70225B9
:1017300080F835500025456505682F6847F48027F7
:101740002F6005682B6103685E608368402B036827
:101750002AD099600168CA60714D704E704FDFF8F1
:10176000BC81DFF8B891DFF8B8A1DFF8B4B1EA14B2
:10177000DFF8A8E10168183630379302A9F148096B
:101780000AF1600A0BF1180BAEF1300E4FF0006C4D
:1017900041452DD9A94205D0494503D0514501D035
:1017A000B14205D1202220E09A600268D160D3E7DF
:1017B00059451AD0714518D0594D7835A94214D0E1
:1017C000564D3035A94210D0B9420BD0534A183A81
:1017D000914207D0524A9032914203D04F4A483248
:1017E000914201D11A4600E062464C494C392EE044
:1017F000DFF82C8108F1A80841452AD9A94205D073
:10180000494503D0514501D0B14201D120221CE00D
:1018100059451AD0714518D0414D7835A94214D098
:101820003E4D3035A94210D0B9420BD03B4A183A50
:10183000914207D03A4A9032914203D0374A483217
:10184000914201D11A4600E06246344950390A609B
:101850005AE0DFF8CC8008F1480841452AD9A9426E
:1018600005D0494503D0514501D0B14201D12022D4
:101870001CE059451AD0714518D0294D7835A94238
:1018800014D0264D3035A94210D0B9420BD0234A8E
:10189000183A914207D0224A9032914203D01F4A0F
:1018A0004832914201D11A4600E062461C49103983
:1018B000CA6029E0A94205D0494503D0514501D06D
:1018C000B14201D120221CE059451AD0714518D0EF
:1018D000134D7835A94214D0104D3035A94210D09F
:1018E000B9420BD00D4A183A914207D00C4A9032B7
:1018F000914203D0094A4832914201D11A4600E090
:101900006246074910398A6001680A6842F001029C
:101910000A60FFE6296D0008416D00085864024026
:101920001060024001681823CAB2103AB2FBF3F209
:10193000054B6FF30901032A9B5CC36500D9091DA0
:101940008165084670470000ACBF000810B501462D
:1019500000208B698A6A4FF0C07453B1B3F5005F01
:1019600015D072B1012A0CD0022A0AD0032A09D15B
:1019700004E01AB1012A06D0022A03D1C96AC901BA
:1019800000D5012010BDC96AA142FAD010BD002ABD
:10199000F7D0012AF2D0022AF3D0032AF3D010BDE7
:1019A00001680A68D20604D5C968C90601D509F0DC
:1019B00095B87047704772B6FEE700000948427A52
:1019C000094881684AB19FED090A81ED000A9FED3F
:1019D000080AC06B80ED000A70479FED060A81ED92
:1019E000000AF6E7A0470020580200200000FAC4D1
:1019F0000000FA440000000010B502F0B5FB06F04C
:101A000055F906F02BFABDE8104006F0CDBA0000FB
:101A10000A489FED090A006880ED000A07489FED1B
:101A2000080A0838006880ED000A04489FED050A9E
:101A30001C3880ED000A70470080D445E801002082
:101A4000002000450000000010B5054A40F2FF11DB
:101A50000448FFF745FB024800210160416010BDCA
:101A6000A40000205845002090F82020012A07D02B
:101A7000022A05D0416A41F4802141620120704769
:101A8000006842690A43426100207047F0B590F84F
:101A900020500468A468012D05D0022D03D0416AAE
:101AA00041F4802153E014F0406F01D1E5004BD5A3
:101AB000C4F30164022C03D9416A41F4000146E0F9
:101AC0000125A5401D608D684FF4C0739DB1CE689F
:101AD00035434E6845EAC605066803EB0417F55121
:101AE0004FF4C275076805EB04150E697E51097D38
:101AF000012905D009E00E88CD6845EA4655EBE797
:101B000001684E5946F480764E511179D2F805504D
:101B10004FF4C67641EA0525016806EB04168D519F
:101B20001178D2F801204FF4C47541EA022102680D
:101B300005EB04155151006803EB0411425842F0C3
:101B4000010242500020F0BD416A41F4001141629F
:101B50000120F0BD10B590F82020012A07D0022AFC
:101B600005D0416A41F480214162012010BD3B480B
:101B7000D0F8002242F00102C0F80022D0F8002282
:101B800022F47C52C0F80022D0F800224B6A42EACC
:101B90000322C0F800220A7D02F01F0301229A40AE
:101BA000D0F81C329343C0F81C32CB69B3B9D0F8DB
:101BB0000C329343C0F80C328C894B6864F31F439A
:101BC0004C6900EBC404C4F840320C890B6864F320
:101BD0001F434C6900EBC404C4F84432CB69012BA9
:101BE00016D1D0F80C321343C0F80C320C884B6875
:101BF00064F31F434C6900EBC404C4F840320C8901
:101C0000CB6864F31F434C6900EBC404C4F844324E
:101C10008B69002BD0F804320ED01343C0F8043285
:101C20000B69002BD0F8143208D01343C0F81432DB
:101C3000096A012904D008E09343EFE79343F5E7ED
:101C4000D0F81C121143C0F81C12D0F8001221F079
:101C50000101C0F80012002010BD00000064004027
:101C6000704730B590F82040012C05D0022C03D0ED
:101C7000416A41F480215DE00468002955D024695F
:101C8000A40754D04FF4D874056804EB01142D59FF
:101C900015F00405956005682D594ED0ED08556086
:101CA00005682C5904F00204D4604FF4DA74056816
:101CB00004EB01142D5905F00F05156105682D5928
:101CC000C5F30725956105682C59240C54614FF420
:101CD000DC72046802EB0112A4581C700468A4585A
:101CE000240A5C700468A458240C9C700468A258F0
:101CF000120EDA704FF4DE72046802EB0112A4587F
:101D00001C710468A458240A5C710468A458240C4B
:101D10009C710468A258120EDA71006881B10169E1
:101D200041F020010161002030BDE468A8E7416A6C
:101D300041F400114162012030BD6D0D1560AFE727
:101D4000C16841F02001C160EDE72DE9F05F054673
:101D5000006800244669D0F804908768D0F80CB079
:101D6000D0F810A0D0F81880F10748D0F90714D0A7
:101D700001218160B80703D5284600F050FA0CE035
:101D8000780702D54FF4006407E0380702D54FF416
:101D9000805402E0284600F041FAF80516D529687B
:101DA0004FF480708860B80503D5284600F039FAF2
:101DB0000CE0780502D544F4005407E0380502D55C
:101DC00044F4804402E0284600F02AFAF80316D5CD
:101DD00029684FF480308860B80303D5284600F0A6
:101DE00022FA0CE0780302D544F4004407E03803FB
:101DF00002D544F4803402E0284600F013FA30079C
:101E000007D55FEACB6004D52968102044F400743C
:101E1000C86070074FF0080707D55FEA0B7004D55C
:101E20002868C760284600F099F9B00706D52868E9
:101E3000C068800702D0284600F092F9700607D5E6
:101E40005FEACA6004D52968102044F48064086100
:101E5000B00607D55FEA0A7004D5286807612846EE
:101E600000F0ACF9F00606D528680069800702D0BA
:101E7000284600F0A4F9B00308D55FEAC96005D58B
:101E8000296810204860284600F09AF9F00307D529
:101E90005FEA097004D528684760284600F0C4F955
:101EA000300446D55FEA497040D5F00504D55FEAB5
:101EB000C87001D044F00104B00504D55FEA887011
:101EC00001D544F00204700504D55FEA487001D5DD
:101ED00044F00404300529D518F0700F26D008F01E
:101EE0007000402815D006DC102809D020280AD020
:101EF000302816D10AE050280ED0602811D10EE00B
:101F000044F008040DE044F010040AE044F020041A
:101F100007E044F0400404E044F0800401E044F4AD
:101F200080742868816921F070018161296804202A
:101F30004860002C05D0686A204368622846FFF795
:101F40008FFEBDE8F09F70B5040003D094F8200028
:101F500010B104E0012070BD204600F081F8206837
:101F6000016841F00101016000F0F2FB0546052621
:101F700004E000F0EDFB401B0A2811D820684068FF
:101F8000C007F6D02068016821F00201016000F06E
:101F9000DFFB05460BE000F0DBFB401B0A2806D9FF
:101FA000606A40F40030606284F82060D2E7206804
:101FB00040688007EFD4207E0128206801683DD06A
:101FC00021F080010160607E01282068016838D01E
:101FD00021F040010160A07E01282068016833D013
:101FE00021F020010160E07E0128206801682ED0E8
:101FF00041F010010160207F01282068016829D08C
:1020000021F008010160607F01282068016824D068
:1020100021F004010160D4E902010843D4E904126B
:10202000114308436168491E08432168C8610020C4
:102030006062012084F82000002070BD41F0800122
:10204000C0E741F04001C5E741F02001CAE721F0B7
:102050001001CFE741F00801D4E741F00401D9E7CE
:10206000F0B587B0044614216846FEF7A2FA364B55
:102070003648DFF8D0E01968D4F800C0334A0325A9
:102080000226092710300024491CF44522D119608A
:10209000012907D1016841F000710160006800F07A
:1020A00000700590106840F0080010601068CDE9DD
:1020B000005600F00800CDE9047069462448CDE9D7
:1020C000024500F047FA00220521142000F0DEFB53
:1020D000142032E0DFF87CE0F44530D1D0F800C0C5
:1020E0004CF0806CC0F800C0D0F800C001290CF0A2
:1020F000806CCDF814C0196007D1016841F00071FF
:102100000160006800F000700590106840F0020067
:102110001060106802AB00F0020005906020CDE96D
:10212000000683E8B00069460B4800F013FA00226D
:102130000521402000F0AAFB402000F099FB07B0E9
:10214000F0BD000000640040200000203038024054
:10215000000C02400068004000040240704700008C
:1021600070B504460068124988420DD1114B002118
:102170001D46A3F11C022046FFF773FD0D482946BA
:102180001C380068FEF7FCFE0B49206888420ED11F
:10219000084B002144331D46A3F11C022046FFF7E3
:1021A00060FD0448294628300068FEF735FF70BD01
:1021B000006400409445002000680040704770476C
:1021C0007047000070B5044690F82000012804D044
:1021D000606A40F40020606218E0022084F8200069
:1021E0002068016821F00101016000F0B1FA0546A4
:1021F0000EE000BF00F0ACFA401B0A2808D9606A64
:1022000040F400306062052084F82000012070BD99
:1022100020684068C007EDD1606270BD70477047AC
:10222000704770477047704770472DE9F04104468A
:10223000876D00F08DFA064694F8350000250228D7
:1022400006D08020606584F834500120BDE8F0811C
:102250002068016821F0160101602068416921F0C1
:1022600080014161206C08B9A06C20B12068016830
:1022700021F0080101602068016821F0010101607E
:102280000CE000F065FA801B052807D92020606566
:10229000032084F8350084F83450D7E720680068BC
:1022A000C007EED194F85C103F208840B860012050
:1022B00084F8350084F834500020C7E790F83510D2
:1022C000022903D08021416501207047052180F853
:1022D00035100068016821F001010160002070479D
:1022E0002DE9F84304464FF00009CDF8009063480B
:1022F0004FF41651A56D0068B0FBF1F72E6894F805
:102300005C10082000FA01F131420FD021680A6800
:1023100052070BD50A6822F004020A6094F85C1098
:102320008840A860606D40F00100606594F85C1022
:102330004FF0010808FA01F0304208D021684969DD
:10234000090604D5A860606D40F00200606594F84D
:102350005C1004208840304208D021680968890751
:1023600004D5A860606D40F00400606594F85C10CE
:1023700010208840304218D021680968090714D518
:10238000A86020680168490304D50068000308D5E7
:10239000A16C07E00168C90503D4016821F00801B8
:1023A0000160216C09B12046884794F85C10202018
:1023B0008840304231D021680968C9062DD5A8600F
:1023C00094F8350005282068016806D0490347D5F0
:1023D000006800031DD4616C1CE021F0160101604F
:1023E0002068416921F080014161206C08B9A06C2E
:1023F00020B12068016821F00801016094F85C10A8
:102400003F208840A86084F8358084F83490216D9E
:102410001FE0E16B09B120468847606D00282BD092
:10242000606DC00714D0052084F83500206801686D
:1024300021F0010101600098401C0090B84203D8CF
:1024400020680068C007F6D184F8358084F834909D
:10245000E16C002910D001B02046BDE8F0430847E8
:102460000168C905D5D4016821F01001016084F824
:10247000358084F83490CCE7BDE8F8833000002044
:102480002DE9F041044600F063F906465CB10220F4
:1024900084F83500002584F834502068016821F064
:1024A000010101600DE00120BDE8F08100F050F96C
:1024B000801B052805D920206065032084F835009D
:1024C000F2E720680068C007F0D122681168204850
:1024D0000140D4E901031843D4E9033633431843D8
:1024E00063691843A3691843E3691843236A1843CF
:1024F0000843616A042903D1D4E90B131943084343
:10250000106020684069666A20F0070130460E437B
:10251000012704280CD1A06A0643E06A40B1204696
:10252000FFF714FA20B14020606584F83570BAE7EF
:10253000206846612046FFF7F5F994F85C203F21BA
:1025400091408160656584F835700020ACE700003B
:102550003F8010F02DE9F84FDFF8BCA100220125E3
:102560000AF1040B03264FF00F090BF1040E00BF14
:102570000B6805FA02F42340A34270D10F7907F0EB
:102580000307012F01D0022F16D187684FEA4208B6
:1025900006FA08FC27EA0C07D1F80CC00CFA08FC74
:1025A0004CEA070CC0F808C04768A7430C79C4F38D
:1025B000001494403C4344600C79E443A4070AD0DF
:1025C000C4684FEA420C06FA0CF7BC438F6807FA5E
:1025D0000CF72743C7600C7904F00304022C12D1D6
:1025E000D40800EB840CDCF820405707FF0E09FAF2
:1025F00007F824EA0804D1F8108008FA07F848EA36
:102600000408CCF8208004684FEA420C06FA0CF764
:10261000BC430F7907F0030707FA0CF7274307605D
:102620004C6814F4403F70D03C4C276847F4804716
:102630002760246822F0030704F480440094384C97
:1026400007EB040CDCF8084897074FEA177809FAFB
:1026500008F7BC43334FB84202D1002724E054E0CE
:10266000314FB84201D101271EE0304FB84201D1AD
:10267000022719E02E4FB84201D1032714E02D4F55
:10268000B84201D104270FE02B4FB84201D10527F2
:102690000AE02A4FB84201D1062705E0284FB84288
:1026A00001D1072700E0082707FA08F72743CCF8ED
:1026B0000878DAF800405746D1F804C09C435FEA36
:1026C000CC3C00D51C433C60DBF800405F46D1F8B1
:1026D00004C09C435FEA8C3C00D51C433C60DEF8A0
:1026E00000407746D1F804C09C435FEACC2C00D56B
:1026F0001C433C60084F0C373C68D1F804C09C4335
:102700005FEA8C2C00D51C433C60521C102AFFF45D
:102710002FAFBDE8F88F0000003C01404438024074
:102720000030014000000240000402400008024066
:10273000000C024000100240001402400018024049
:10274000001C02400AB1816170470904FBE70000E8
:102750000148806870470000240000200948016893
:10276000094A1278114401604FF08041496A0068BB
:1027700000EB4002C2EBC01001EBC000034908604F
:10278000704700002C00002024000020B40000202E
:102790000B4810B5016841F400710160016841F413
:1027A00080610160016841F480710160032000F0E4
:1027B0008DF80F2000F006F800F03EF8002010BD64
:1027C000003C024010B5014688B000221C2000F0F9
:1027D0005DF81C2000F04CF814480024016841F01A
:1027E00001010160006805A900F00100069068463B
:1027F00000F018F900F036F90D494000B0FBF1F196
:102800000C484FF08042491E026040F2E732C0E9B6
:102810000324C0E9011400F0A1FB10B1012008B0AD
:1028200010BD044800F0DCFBF9E70000403802402E
:1028300040420F00200800200C4882B0016841F49B
:1028400080410160006800F4804000900748001F4C
:10285000016841F0805101600068002200F0805062
:1028600000900F21901E02B000F010B844380240D2
:10287000002809DB00F01F0201219140400980007F
:1028800000F1E020C0F8001170470000F0B40E4BDA
:102890001B680C46C3F30223C3F10705042D00D9BE
:1028A0000425191D072901D2002300E0DB1E0126A3
:1028B00006FA05F1491E214099409E40761E1640B9
:1028C0003143F0BC02F0CDB90CED00E0064900F058
:1028D000070208684FF6FF03184040EA0220034A47
:1028E00010430860704700000CED00E00000FA059E
:1028F0002DE9F0470E46050065D0DFF81481D8F8C1
:102900000000F7B200F00700B04207D288F800706C
:10291000D8F8000000F00700B04254D128683D4CC0
:10292000810712D5400703D5206840F4E0502060AD
:102930002878000703D5206840F4604020602068B4
:10294000A96820F0F000084320602878C0072DD047
:10295000304968680839012812D0022813D00328AA
:1029600011D00968890700292DDA216821F00301B7
:1029700001432160FFF7ECFE814641F2883A0EE008
:1029800009688903EFE709688901ECE7FFF7E0FED2
:10299000A0EB0901514502D90320BDE8F08720686A
:1029A000696800F00C00B0EB810FEFD1D8F800108F
:1029B000404601F00701B14207D90770006800F0F6
:1029C0000700B04201D00120E7E72878400705D58D
:1029D0002068E96820F4E050084320602878000768
:1029E00006D52068296920F4604040EAC1002060D3
:1029F00000F058F82168084AC1F30311515CC8403F
:102A00000649086006480068FFF7DCFE0020C4E7BE
:102A1000003C024008380240B4BF000830000020EB
:102A2000280000200F2202600C4A136803F0030301
:102A30004360136803F0F0038360136803F4E0530A
:102A4000C36012684FF4E05303EAD2020261044803
:102A5000006800F007000860704700000838024076
:102A6000003C02400448054900680968044AC1F373
:102A70008221515CC8407047300000200838024075
:102A8000C4BF00080448054900680968044AC1F346
:102A90004231515CC8407047300000200838024085
:102AA000C4BF0008154810B5006810F00C021448A7
:102AB00013D01449042A0FD0082A0ED10F4C241F1A
:102AC0002268236802F03F025B0207D52068C0F34A
:102AD0008810A0FB010106E0084610BD2168C1F383
:102AE0008811A1FB00010023FDF798FC2168C1F3C8
:102AF0000141491C4900B0FBF1F010BD083802400B
:102B00000024F40040787D012DE9F84F04006ED0D8
:102B10002078DFF84C93C007A9F104054AD009F1E9
:102B200004000168C1F38101012908D00068C0F3E5
:102B3000810002280AD1D9F80000400206D5286891
:102B4000800337D560680028E1D033E06068B0F5D5
:102B5000803F10D0B0F5A02F286810D020F480302E
:102B60002860286820F4802028606068A8B1FFF7FA
:102B7000EFFD06460DE0286840F48030F4E740F4AD
:102B800080202860F7E700BFFFF7E2FD801B642884
:102B900073D828688003F7D50CE0FFF7D9FD064607
:102BA00005E000BFFFF7D4FD801B6428F0D828683B
:102BB0008003F7D42078DFF8AC8280074FF0000A5A
:102BC0003ED5A748001D016811F00C0F08D0006821
:102BD000C0F3810002280BD1D9F80000400207D4CD
:102BE0002868800716D5E068012800D112E033E19B
:102BF000E068B8B10120C8F80000FFF7A9FD06465B
:102C000005E000BFFFF7A4FD801B0228C0D828689C
:102C10008007F7D52868216920F0F80040EAC10054
:102C200028600DE0C8F800A0FFF792FD064604E01A
:102C3000FFF78EFD801B02281FD828688007F7D475
:102C40002078000722D5864F87486169703771B1B7
:102C500001210160FFF77CFD064604E0FFF778FDE7
:102C6000801B022809D838688007F7D50EE0C0F825
:102C700000A0FFF76DFD064605E082E0FFF768FD66
:102C8000801B02287DD838688007F7D42078400759
:102C900068D5DFF8CCB100270BF13C0BDBF8000066
:102CA000C0000BD4DBF8001041F08051CBF80010CD
:102CB000DBF80000012700F0805000906B4E306878
:102CC000C00510D4306840F480703060FFF740FDDC
:102CD000009005E0FFF73CFD0099401A022850D80B
:102CE0003068C005F6D55E4EA0686C3601280FD05E
:102CF0000528306810D020F001003060306820F0E6
:102D000004003060A068B8B1FFF722FD00900FE02A
:102D1000306840F00100F4E740F004003060F7E76D
:102D2000FFF716FD0099411A41F28830814266D8BA
:102D300030688007F4D50EE0FFF70AFD009007E049
:102D4000FFF706FD0099411A41F28830814256D8BA
:102D500030688007F4D42FB1DBF8001021F08051E7
:102D6000CBF80010A069C8B33D49091D0968C1F33B
:102D7000810102294AD00228504607D0C8F86000D5
:102D800000E03CE0FFF7E4FC04463BE04746C8F8BF
:102D90006000FFF7DDFC064605E000BFFFF7D8FC4A
:102DA000801B02282BD828688001F7D4D4E90701BA
:102DB0000843A16A2E4A490802EB0141626A41EACE
:102DC0008211084394F82C1040EA0161C9F8001000
:102DD00001203866FFF7BCFC044606E03EE000BF79
:102DE000FFF7B6FC001B022809D828688001F7D538
:102DF00034E000BFFFF7ACFC001B022802D903201F
:102E0000BDE8F88F28688001F4D427E00128F7D0C6
:102E1000D9F80000E26900F4800191421CD1226AD5
:102E200000F03F01914217D147F6C071626A01403C
:102E3000B1EB821F10D1A26A4FF0FF3300F4403192
:102E400003EB5202B1EB024F06D194F82C1000F0C4
:102E50007060B0EB016F01D00120D1E70020CFE717
:102E60000438024000004742800E47420070004094
:102E70000000FFFF7047704710B590F83C20012A12
:102E800022D0012280F83C20CA688C6822F440726B
:102E900022434C6822F4806222430C6822F40062D0
:102EA00022430C6922F4805222434C6922F40052DE
:102EB0002243C969002322F480420A4301684A641C
:102EC00080F83C30002010BD022010BD70B590F895
:102ED0003C20012A32D0012480F83C40022280F8B4
:102EE0003D2003685A689D6822F070060A683243E4
:102EF0005A60134B02689A4214D0B2F1804F11D03D
:102F0000104B9A420ED0104B9A420BD00F4B9A4264
:102F100008D00F4B9A4205D00E4B9A4202D00E4B6E
:102F20009A4204D1496825F080031943916080F8E2
:102F30003D40002180F83C10084670BD022070BD65
:102F4000000001400004004000080040000C004068
:102F500000040140004001400018004010B504008A
:102F600003D094F83D0010B107E0012010BD00200F
:102F700084F83C00204600F01FF8022084F83D0051
:102F8000211D206801F09CFB012084F8460084F894
:102F90003E0084F83F0084F8400084F8410084F843
:102FA000420084F8430084F8440084F8450084F823
:102FB0003D00002010BD000008B5006806498842A9
:102FC00008D10648016841F001010160006800F085
:102FD0000100009008BD000000000140443802409C
:102FE00090F83D10012901D001207047022180F89E
:102FF0003D100168CA6842F00102CA6000681149C8
:10300000884214D0B0F1804F11D00F4988420ED0C1
:103010000E4988420BD00E49884208D00D4988429B
:1030200005D00D49884202D00C49884204D18168FC
:1030300001F00701062903D0016841F00101016098
:1030400000207047000001400004004000080040DC
:10305000000C004000040140004001400018004006
:1030600070B5044690F83C000025012817D00126D1
:1030700084F83C60022084F83D002068826822F0D9
:10308000770222F47F4282600868502838D00DDC35
:1030900020284FD005DC90B3102811D14AE002203F
:1030A00070BD302846D040280AD13BE060282FD0A0
:1030B00070280DD0B0F5805F03D0B0F5005F12D05E
:1030C000012584F83D60002084F83C00284670BD4E
:1030D000CB68D1E90121206801F063FB2068816899
:1030E00041F0770109E0CB68D1E90121206801F0C6
:1030F00058FB2068816841F480418160E1E719E074
:10310000CA684968206801F021FC5021206806E067
:10311000CA684968206801F02AFC6021206801F033
:103120004AFBCEE7CA684968206801F00FFC4021DD
:103130002068F4E7226801461046F0E7704770B552
:103140000446006801694FF00005C943890715D49A
:10315000C168C943890711D4E91E016101202077A4
:10316000206880698007204602D0FFF7E7FF04E06F
:1031700000F0C2F8204600F054F925772068016974
:10318000C943490717D4C168C943490713D46FF02D
:1031900004010161022020772068806910F4407FDB
:1031A000204602D0FFF7CAFF04E000F0A5F8204651
:1031B00000F037F9257720680169C943090716D45B
:1031C000C168C943090712D46FF0080101610420E6
:1031D00020772068C0698007204602D0FFF7AEFF45
:1031E00004E000F089F8204600F01BF925772068FC
:1031F0000169C943C90617D4C168C943C90613D4B4
:103200006FF010010161082020772068C06910F478
:10321000407F204602D0FFF791FF04E000F06CF8F9
:10322000204600F0FEF8257720680169C943C907E8
:1032300008D1C168C943C90704D1891E016120466C
:1032400000F092F920680169C943090609D4C168F0
:10325000C943090605D46FF0800101612046FFF7DC
:1032600009FE20680169C943490609D4C168C943F8
:10327000490605D46FF040010161204600F07BF95A
:1032800020680169C94389060BD4C168C94389060E
:1032900007D46FF0200101612046BDE87040FFF7C0
:1032A000EABD70BD10B586B0044614216846FDF72E
:1032B00080F90E492068884216D10D480021026825
:1032C00042F010020260006800F0100005904FF418
:1032D000206000900220CDE901010120CDE903101A
:1032E00069460448FFF736F906B010BD00000140FA
:1032F0003038024000100240704770B5044690F824
:103300003C0000260D4601280FD0012084F83C0027
:103310006AB1042A1DD0082A2FD00C2A3FD00126DA
:10332000002084F83C00304670BD022070BD20684B
:1033300001F04AFA2068816941F008018161206842
:10334000816921F004018161206881692A69114342
:1033500011E0206801F068FA2068816941F4006199
:1033600081612068816921F48061816120688169BF
:103370002A6941EA02218161D2E7206801F08AFAD4
:103380002068C16941F00801C1612068C16921F06C
:103390000401C1612068C1692A69114311E02068F4
:1033A00001F0ACFA2068C16941F40061C161206894
:1033B000C16921F48061C1612068C1692A6941EA5B
:1033C0000221C161ACE710B5040003D094F83D00C0
:1033D00010B107E0012010BD002084F83C00204619
:1033E00000F01EF8022084F83D00211D206801F045
:1033F00067F9012084F8460084F83E0084F83F0015
:1034000084F8400084F8410084F8420084F84300C6
:1034100084F8440084F8450084F83D00002010BD85
:103420007047704710B50446022249B104290ED0F6
:10343000082913D094F84100012816D0012010BDAE
:1034400094F83E000128F9D184F83E200FE094F86A
:103450003F000128F2D184F83F2008E094F84000B2
:103460000128EBD184F8402001E084F841200122BA
:10347000206801F089F916492068164A884201D06F
:10348000904203D1436C43F4004343642068884274
:1034900013D0B0F1804F10D00F4988420DD00F49A2
:1034A00088420AD00E49884207D0904205D00D4983
:1034B000884202D00C49884204D1816801F007019A
:1034C000062903D0016841F001010160002010BD10
:1034D00000000140000401400004004000080040DA
:1034E000000C0040004001400018004030B5044688
:1034F0000D460068002201F047F9194B41F2111105
:1035000020688A10984202D0164B984209D1036A6B
:103510000B4206D1036A134203D1436C23F40043E8
:1035200043642068036A0B4206D1016A114203D149
:10353000016821F00101016001203DB1042D08D096
:10354000082D09D084F84100002030BD84F83E00E9
:10355000FAE784F83F00F7E784F84000F4E700005A
:1035600000000140000401400068B0F1804F01D12B
:10357000FFF7F4B87047704770477047F8B50168B7
:1035800004460868CA684B6910F00F0F4FF0000539
:1035900059D003F0010602F49077374365D0C10794
:1035A00005D0D10503D5216C41F00101216441070B
:1035B00005D5D90703D0216C41F0020121648107B0
:1035C00005D5D90703D0216C41F00401216401071E
:1035D00007D502F02001314303D0216C41F00801EE
:1035E0002164216C00293AD0800604D5900602D5CA
:1035F000204601F0FDF920684069216CC0F380107D
:10360000090700D460B3204601F0CBF92068406977
:10361000400621D52068143050E8001F21F04001F9
:1036200040E80012002AF5D1A06BA8B16C490165F1
:10363000A06BFEF743FE002811D0A06B016D01B016
:10364000BDE8F040084783060FD593060DD5204608
:10365000BDE8F84001F0CCB92046FFF78EFFF8BD79
:103660002046FFF78AFF2564F8BD266B2023012E34
:1036700079D1C60677D5D60675D508684868009012
:103680004869400640D5A16B086840680004000CFA
:10369000EAD0A28D8242E7D9E085C869B0F5807F83
:1036A0002DD020680C3050E8001F21F4807140E8D4
:1036B0000012002AF5D12068143050E8001F21F0D4
:1036C000010140E80012002AF5D12068143050E8CA
:1036D000001F21F0400140E80012002AF5D184F8D3
:1036E0003E30256320680C3050E8001F21F01001A7
:1036F00040E80012002AF5D1A06BFEF796FDA08DE0
:10370000E18D401A81B229E0A08DE18D401A81B28D
:10371000E08D0028A8D00029A6D020680C3050E801
:10372000002F22F4907240E80026002EF5D1206888
:10373000143050E8002F22F0010240E80026002E4D
:10374000F5D184F83E30256320680C3050E8002F16
:1037500022F0100240E80023002BF5D12046FFF7AD
:103760000BFFF8BDFFE705062BD5150629D594F804
:103770003D002128F5D1A068B0F5805F01D1206916
:10378000B0B1206A411C2162216800784860E08C59
:10379000401E0004000CE084E3D12068C16821F0E1
:1037A0008001C1602068C16841F04001C160D8E774
:1037B000206A0088C0F308004860206A801C2062EC
:1037C000E5E74006CDD55006CBD5CA68204622F0A5
:1037D0004002CA6084F83D3000F0A1F8C1E7000063
:1037E0009349000870B5040004D094F83D0000250A
:1037F00010B106E0012070BD84F83C50204600F076
:1038000023F8242084F83D002068C16821F4005189
:10381000C160204601F04CF92068016921F4904113
:1038200001612068416921F02A0141612068C16875
:1038300041F40051C1602564202084F83D0084F8E3
:103840003E00002070BD00002DE9F04186B0064624
:1038500014216846FCF7ADFE2A49306888424DD1F4
:1038600029480025016841F40031016000682649BB
:1038700000F4003010390590086840F0010008603D
:10388000086800F001000590086840F00800086032
:103890000868022400F008000590082003274FF074
:1038A00007088DE8B10169461848FEF753FE20204D
:1038B0008DE8B10169461648FEF74CFE164C1548D6
:1038C00020604FF00060C4E901054014C4E90350D2
:1038D00065613804A561C4E9075020466562FEF7BA
:1038E000CFFD08B1FEF767F8B4630022052126205A
:1038F000A663FEF7CBFF2620FEF7BAFF06B0BDE8B1
:10390000F0810000004400404038024000000240C6
:10391000000C024088600240C007002070477047DA
:10392000FEE7000070B50D4C0025C4F8B4520C48F9
:10393000016821F040410160016841F0804101606F
:10394000C4F8BC52022004F52D7403F0E1F9012003
:103950002060022003F0DCF9256070BD0080404249
:103960000004024070B50D4C0025C4F8B4520C4858
:10397000016821F040410160016841F0804101602F
:103980000126C4F8BC62022004F52D7403F0C0F9CE
:103990002660022003F0BCF9256070BD0080404223
:1039A000000402402DE9F0478146164800240168D2
:1039B00021F04041016001680160134E2546274611
:1039C0004FF00108C6F8B472022003F0A1F9C6F85E
:1039D000B4826006040ED6F83C0208B1641CE4B25E
:1039E000012003F095F96D1CEDB2082DEAD3B9F171
:1039F000000F04D0FFF796FF2046BDE8F087FFF7E1
:103A0000B1FFF9E700040240008040422DE9F04197
:103A100006461448016821F040410160016841F008
:103A200080410160104C0027C4F8B4723D464FF04D
:103A30000108F009C4F8BC027006060E022003F06B
:103A400067F9C4F8B482022003F062F9C4F8B472D2
:103A5000022003F05DF96D1CEDB2082DE9D3BDE83D
:103A6000F0810000000402400080404270B50D4823
:103A7000016821F040410160016841F0804101602E
:103A8000094C0120C4F8BC02C4F8B402042004F5B7
:103A90002D7403F03DF90025A560042003F038F9EA
:103AA000256070BD00040240008040420E4810B501
:103AB000016821F040410160016841F080410160EE
:103AC0000A4C0020C4F8B402C4F8BC02042004F577
:103AD0002D7403F01DF901202060A060BDE81040A6
:103AE000042003F015B900000004024000804042A9
:103AF00070B512480024016821F04041016001685E
:103B000001600F4D0126C5F8BC62304603F000F994
:103B1000C5F8B462012003F0FBF807E0641CE4B2CE
:103B2000FA2C03D9FFF7C2FF012070BDD5F83C0283
:103B30000028F3D1C5F8B40270BD000000040240B3
:103B4000008040420B4810B5406B008800EE100A20
:103B50000948B8EE400A006880ED000A00F00EF84F
:103B6000012801D1FDF79AFDFDF774FBBDE8104077
:103B700004F0B0B8F0010020E80100200448806B98
:103B8000E12801D0012070470249002008747047E5
:103B900000000140A0470020074A084992F824008D
:103BA00048700B78984203D020B1012382F8253069
:103BB000087070470023F9E7D40000204C03002070
:103BC0000A4810B590ED000A0948006880ED000A27
:103BD000084890ED000A06480830006880ED000AA9
:103BE000FDF76EFDBDE8104004F05EBA4003002012
:103BF000D00100203803002070B50546FFF736FFDE
:103C00000F4C20784006000EFFF700FFFFF770FF13
:103C10002846FFF7FBFEFFF76BFFFFF727FF207833
:103C2000012101EB4000C0B2FFF7F0FEFFF760FF9B
:103C30000020FFF7B7FE0446FFF738FF204670BDAF
:103C4000C00300202DE9F04116460D460746FFF758
:103C50000DFF134C20784006000EFFF7D7FEFFF74C
:103C600047FF3846FFF7D2FEFFF742FFFFF7FEFEA1
:103C70002078012101EB4000C0B2FFF7C7FEFFF73B
:103C800037FF002406E00120FFF78CFE641C05F8D6
:103C9000010BE4B2B442F6D3BDE8F041FFF706BF32
:103CA000C0030020104810B50E4901600321416097
:103CB00000214FF400228160C0E903124FF440124A
:103CC00042610176012242768176C17601774277A0
:103CD000FEF739F9002803D0BDE81040FDF76BBEB0
:103CE00010BD00000064004018060020104810B508
:103CF0000E4901600321416000214FF400228160E0
:103D0000C0E903124FF4401242610176012242766B
:103D10008176C17601774277FEF715F9002803D046
:103D2000BDE81040FDF747BE10BD00000068004030
:103D300040060020094808B5016841F400110160FF
:103D40000068002200F40010009005211020FEF70A
:103D50009DFDBDE808401020FEF78ABD30380240C6
:103D600010B5B8B01C222C496846FCF7CEFB0021E8
:103D7000684604F09BFA294C27491C2220601C311C
:103D800007A8FCF7C2FB002107A804F08FFA22491C
:103D900060601C2238310EA8FCF7B7FB00210EA88A
:103DA00004F084FA1C49A0601C22543115A8FCF7C9
:103DB000ACFB002115A804F079FA1749E0601C2239
:103DC00070311CA8FCF7A1FB00211CA804F06EFABE
:103DD000114920611C228C3123A8FCF796FB00219D
:103DE00023A804F063FA0C4960611C22A8312AA8B8
:103DF000FCF78BFB00212AA804F058FA0649A061C1
:103E00001C22C43131A8FCF780FB002131A804F04A
:103E10004DFAE06138B010BDCCBE000800000020B3
:103E20002DE9F04186B014216846FCF7C2FB2B480F
:103E30000024016841F004010160016801F00401FF
:103E40000591016841F080010160016801F0800185
:103E50000591016841F001010160016801F0010173
:103E60000591016841F010010160016801F0100145
:103E70000591016841F002010160016801F0020151
:103E80000591016841F0080101600068012200F01D
:103E90000800134F5503059029463846FEF752FC9B
:103EA000DFF840804FF42046012231464046FEF7BD
:103EB00049FC00950125CDE9015469463846039433
:103EC000FEF748FB0320CDE90240CDE900656946D5
:103ED0004046FEF73FFB06B0BDE8F08130380240B7
:103EE000000802400004024010B596B000240F9470
:103EF00010941194129413941C2168461494FCF7A6
:103F000058FB202107A8FCF754FB2D482B490160E2
:103F100040F28F61C0E9011440F2E731C0E90314B7
:103F200044618461FFF71AF808B1FDF744FD4FF4CE
:103F300080500F900FA92248FFF792F808B1FDF7C3
:103F40003AFD1F48FFF73FFA08B1FDF734FD13941F
:103F500013A91B481494FEF7B9FF08B1FDF72BFD18
:103F60006020CDE900040294039404940594002297
:103F7000694613480694FFF7C0F908B1FDF71BFD29
:103F8000042269460E48FFF7B8F908B1FDF713FDA2
:103F90000794089409944FF400500A94CDE90B401B
:103FA00007A907480E94FEF767FF08B1FDF703FD68
:103FB0000348FFF777F916B010BD0000000001407C
:103FC000680600200C4810B50A4901600B494160A1
:103FD000002181600C22C160C0E904128161C161CD
:103FE000FFF700FC002803D0BDE81040FDF7E3BC5C
:103FF00010BD0000004400407C070020A0860100A6
:1040000010B5224C04F13400E16D8847A16A2046C6
:104010008847FDF743FB1E48006890ED020AB5EEA5
:10402000C00AF1EE10FA01DCB1EE400A10EE101AEF
:104030001848814224DC16490839096891ED020AC2
:10404000B5EEC00AF1EE10FA01DCB1EE400A10EE56
:10405000101A814214DC104890ED000A0C48183800
:10406000006880ED000A0D4890ED000A08481038FD
:10407000006880ED000A002084F83000012010BDA7
:1040800004F012F8FDF7E0FC002010BDF001002064
:10409000E8010020000048424003002038030020CF
:1040A000FEE7B5EEC00AF1EE10FA01DAB1EE400A11
:1040B000704790ED001AB1EE602AF0EE001AB4EEEF
:1040C000E01AF1EE10FA02DB00EEE11A06E0B4EEBF
:1040D000C21AF1EE10FA03D800EEA11A80ED001A10
:1040E00031EE400AB4EEE00AF1EE10FA02DB00EE27
:1040F000E10A06E0B4EEC20AF1EE10FA01D800EED1
:10410000A10A81ED000A7047FEE7000010B5FDF737
:104110007FFC0548C169884704480121417001704E
:104120000021817010BD0000D40000204C0300204D
:1041300030EE600AF0EE000A80ED000AB4EEC10A2B
:10414000F1EE10FA02DB01EE600A0AE0F0EE401A2E
:10415000B1EE412AF4EEC21AF1EE10FA03D801EEE4
:10416000200A80ED000A704710B5FDF791FA024968
:104170000020886310BD00000000014070B58EB0C3
:104180000646002502468DF800500121684601F0E0
:10419000F5FF01F007FF32460121042002F0AEFADC
:1041A000044601F0FFFE84B90C208DF802000220C5
:1041B0008DF8030001208DF805508DF804000146AC
:1041C0003246684602F0A4FB04460EB0204670BD9D
:1041D00070B58EB00124064602468DF80040214697
:1041E000684601F0CBFF01F0DDFE324602210420DB
:1041F00002F084FA054601F0D5FE95B90C208DF841
:10420000020000208DF8060002208DF803008DF8D2
:1042100007408DF8044032460121684602F078FBE1
:1042200005460EB0284670BD70B5154CFDF7C6FBAF
:10423000A17A144D012905F1680613D1607B88B974
:10424000E07A01280AD1A86FDFED0F0A90ED000A8D
:1042500030EE200A80ED000A0020E072D5F89410BC
:1042600030468847207A012808D1207B002805D1D4
:104270003046D5F88C10BDE87040084770BD00008E
:10428000A047002058020020002410C770B5224C1F
:1042900000252DED028B00BF05EB850000EBC5006E
:1042A00004EB8006304671698847B06804F028F84E
:1042B0006D1C042DF0DB00209FED188AF2EE040A3D
:1042C000B1EE040A00EB800101EBC00104EB8101B7
:1042D000401C8A68032882ED0D8A8A68C2ED040AB0
:1042E000896881ED060AEDDB206F9FED0D0A80EDF8
:1042F000000AA06F04F004F8A06FB0EE000A80ED91
:10430000040AA06F9FED070A80ED060AA06F80EDFA
:104310000D8ABDEC028B70BD580200200080BB45A9
:104320000000FAC40000484210B500F00FF8054A3A
:104330004FF400710448FCF7D3FE024800210160ED
:10434000416010BDAC0000209C4500202DE9F041EB
:104350002D4E2E4806F06EFB2C4D2D4CA86890ED8E
:104360000A0ABDEEC00A10EE100A0012207010EE0C
:10437000100A607005F1340006F05CFBE86B05F193
:10438000680790ED0A0ABDEEC00A10EE100A00128E
:10439000A07010EE100AE070307A012801D1307B55
:1043A00020B11C4890F8240001280ED1384606F0B0
:1043B00041FB286F90ED0A0ABDEEC00A10EE100A0C
:1043C0000012207110EE100A6071B07A012805D039
:1043D000307B012802D0707B012812D1D5F88C10D7
:1043E00038468847384606F0DCFAA86F90ED0A0A8E
:1043F000BDEEC00A10EE100A0012207110EE100A75
:104400006071BDE8F0810000A04700205802002044
:10441000AC000020D4000020FCF7F0FE064C00BFEA
:1044200094F8240018B9FCF777FFFDF70DF9012087
:1044300003F030FFF4E70000D4000020012003F077
:1044400029FFFBE7FDF7D8FA0D4C0E4E0E4D00BFCD
:1044500094F8240080B9307801280DD168790128BA
:1044600003D02879012803D004E0FFF76BFB01E0BB
:10447000FFF7A6FBFDF7E8FA012003F00BFFE7E7E3
:10448000D40000204E030020A04700202DED028B19
:1044900086B0FCF715FC264E9FED268AB51EAF1E92
:1044A000DFED258AA5F10408A5F10609BC1F204B04
:1044B000CDE900561B1F9A1E911E881EFCF7DCFBDF
:1044C000CDF800901A4BCDE903560A3B03F11402D4
:1044D000CDE90187111F081FFCF7A0F9B4F904000A
:1044E000D4ED060A00EE100AB8EEC00A20EE080A63
:1044F00000EEA80A84ED060ABDEEC00A10EE100A0E
:10450000A080B4F90200D4ED070A00EE100AB8EE5C
:10451000C00A20EE080A00EEA80A84ED070ABDEEE4
:10452000C00A10EE100A6080012003F0B3FEBEE75F
:1045300036030020CDCC4C3ECDCC4C3F054C00BFCB
:1045400094F8240010B9216A02488847012003F03A
:10455000A1FEF5E7D4000020144C2046E16888470E
:104560000125134E0027A16910488847FFF714FB67
:1045700094F8250028B9FFF743FD10B184F82550C1
:10458000B57094F8240048B1FDF794F8FFF7BEFD2C
:10459000FCF7D2FD012003F07DFEE4E7FDF778F89B
:1045A0006169024888477760F4E70000D400002082
:1045B0004C030020FFF76AFE074C00BF94F824006C
:1045C00028B9FFF731FEFCF7B1FBFFF7ADFE012084
:1045D00003F060FEF2E70000D4000020012003F0A9
:1045E00059FEFBE710B5502080F31188BFF34F8FC1
:1045F000BFF36F8F06F0CEFD18B104494FF0805025
:104600000860002080F3118810BD000004ED00E078
:1046100030B593B030216846FBF7CBFF14210CA8CE
:10462000FBF7C7FF1D480025016841F0805101607C
:10463000006800F0805011901948016841F48041F1
:1046400001600068022400F4804011900120039072
:1046500010200490009406940820CDE90750A8206B
:10466000CDE9090404200B906846FEF74DFA08B125
:1046700072B6FEE70CA90F2081E831004FF4A0507C
:104680000F904FF48050109005210CA8FEF730F9E0
:10469000002801D072B6FEE713B030BD40380240AA
:1046A000007000400248016841F4700101607047E9
:1046B00088ED00E00148FEF742BD00002008002020
:1046C000F0B50268254C264D264E274F274B4FF05C
:1046D000804CA04209D0604507D0A84205D0B04226
:1046E00003D0B84201D0984204D122F0700E4A683B
:1046F00042EA0E02A0421BD0604519D0A84217D052
:10470000B04215D0B84213D0984211D0184DA842EB
:104710000ED0184DA8420BD0174DA84208D0174D07
:10472000A84205D0164DA84202D0164DA84203D18A
:1047300022F44075CA682A434D6922F080022A4358
:1047400002608A68C2620A688262A04201D098420E
:1047500001D10969016301214161F0BD00000140FF
:104760000004004000080040000C0040000401402C
:104770000040014000440140004801400018004052
:10478000001C00400020004010B501F01F03012173
:10479000046A99408C430462016A9A4011430162A1
:1047A00010BD10B5846842EA032224F47F440A4312
:1047B0002243826010BD826822F070020A4342F0F8
:1047C0000701816070470000F0B5026A22F0010223
:1047D0000262036A42688469124E24F073050C6811
:1047E0002C4323F002058B682B430D4DA84201D0CA
:1047F000B04205D123F00807CB683B4323F0040304
:10480000A84201D0B04205D14D6922F4407215434F
:104810008A692A4342608461496841630362F0BD4A
:104820000000014000040140F0B5026A22F01002CD
:104830000262026A436884690D6824F4E64444EA2B
:1048400005248D6822F0200242EA05120F4D104E19
:10485000A84201D0B04206D1CF6822F0800242EADD
:10486000071222F04002A84201D0B04207D14D69A0
:1048700023F4406343EA85038D6943EA850343607B
:104880008461496881630262F0BD0000000001405C
:1048900000040140F0B5026A22F480720262026AEA
:1048A0004368C46922F4007224F073050C68124E48
:1048B0002C438D6842EA05220E4DA84201D0B04239
:1048C00006D1CF6822F4006242EA072222F4806215
:1048D000A84201D0B04207D14D6923F4405343EAC6
:1048E00005138D6943EA05134360C4614968C163D8
:1048F0000262F0BD000001400004014030B5026AD0
:1049000022F480520262046A4268C3690D6823F48B
:10491000E64343EA05238D6824F4005444EA053451
:10492000084DA84202D0084DA84204D14D6922F496
:10493000804242EA85124260C361496801640462B0
:1049400030BD0000000001400004014010B5036AC2
:10495000046A24F001040462846924F0F00444EA47
:10496000021423F00A020A438461026210BD10B5EA
:10497000036A23F0100303628369046A23F470431B
:1049800043EA023224F0A00343EA0111826101628A
:1049900010BD10B5806B0021C185C184FEF7EDFD0F
:1049A00010BD01680C3151E8002F22F4907241E8EB
:1049B0000023002BF5D10168143151E8002F22F0BB
:1049C000010241E80023002BF5D1016B012909D137
:1049D00001680C3151E8002F22F0100241E8002359
:1049E000002BF5D1202180F83E1000210163704793
:1049F00008B590F83E10222901D0022008BD826837
:104A00004FF480539A4201D1016921B1816A9A42DF
:104A10001BD04AB10AE00268816A5268C2F30802F8
:104A20000A80816A891C08E0026972B102685268D2
:104A300002F07F020A70816A491C8162C18D491EA1
:104A40000904090CC18503D019E002685268F1E736
:104A50000168CA6822F02002CA600168CA6822F4AC
:104A60008072CA6001684A6922F001024A6120210D
:104A700080F83E10016B012903D0FEF74FFF0020A4
:104A800008BD0021016301680C3151E8002F22F0BC
:104A9000100241E80023002BF5D101680A68D20614
:104AA00002D50A6849680091818DFEF765FDE6E749
:104AB00070B5044600680169E26821F44051114371
:104AC00001612169A068E2690843616911430843F3
:104AD0002168CA6849F20C639A430243CA6020689D
:104AE0004169A26921F44071114341613149206853
:104AF000884202D03049884202D1FDF7C3FF01E06D
:104B0000FDF7B0FFE2690023192164253226B2F5D2
:104B1000004F626828D0A0FB0101930F9200FBF7C1
:104B20007DFC0146B0FBF5F06FF01802504301EB3D
:104B3000800006EB0010B0FBF5F000F0F002B1FBD6
:104B4000F5F002EB0012B1FBF5F06FF018035843DB
:104B500001EB800006EB0010B0FBF5F000F00F0059
:104B600021681044886070BDA0FB010192185B4170
:104B7000FBF754FC0146B0FBF5F00201B1FBF5F088
:104B80006FF01803584301EB800006EBC000B0FB48
:104B9000F5F000F0F80002EB4002B1FBF5F05843ED
:104BA00001EB800006EBC000B0FBF5F000F0070061
:104BB000D6E70000001001400014014010B5044881
:104BC000FCF7EEFEBDE810400148FEF7D7BC000040
:104BD0007C0700200C4808B501680A684A68009202
:104BE000CA6842F01002CA6001684A6942F0400295
:104BF0004A61122100910168044B806BA3F11802F5
:104C0000091DFCF76DFD08BD7C0700205C460020F7
:104C100010B5054C0146204622699047204661693F
:104C2000BDE8104008470000D400002070477047DE
:104C3000FEE703B401984100009850EAC12018BF74
:104C400004204A0D18BF40F0010040F2FF72B2EBA1
:104C5000515F08BF40F00200012808BF052002B0E4
:104C600070470907090E002804DB00F1E02080F8F6
:104C70000014704700F00F0000F1E02080F8141DD0
:104C8000704700000000000070B5C1482DED020B18
:104C90002DED0E8B82B0119D25F000449FEDBEDB03
:104CA0009FEDBFEB84423EDBA4F140511098A1F18F
:104CB0007F6108430FD0BC48844202DC28D11098A1
:104CC00030B39DED100B02B0BDEC0E8B02B0BDE811
:104CD000704001F09DB89DED100B53EC1D2B51EC75
:104CE000100B06F0B7FD9DED100B41EC180B53ECCB
:104CF0001E2B51EC100B06F0ADFD53EC182B06F0FB
:104D00004FFB41EC100B02B0BDEC0E8B02B070BD3E
:104D10000120FBF7D0FC02B0BDEC0E8B02B0BDE869
:104D2000704001F089B8A1489FEDA18B844256DA0A
:104D30009DED100BB4F1795F0ADA51EC100BFFF71F
:104D400078FF042808BF01F087F89DED100BDAE723
:104D500053EC102B51EC100B06F07CFD41EC190BC1
:104D600095480621B0EE490AF0EE690A784400F051
:104D70003BFF53EC192B51EC100B06F06BFD41EC93
:104D80001A0B8E48B0EE490AF0EE690A0421784405
:104D900000F02AFF53EC192B51EC100B06F05AFDD2
:104DA00053EC182B06F0FCFA41EC100B51EC1A0BEB
:104DB00053EC102B06F09CFBCDE900019DED000BA0
:104DC00053EC102B9DED100B51EC100B06F042FD37
:104DD0009DED101B53EC112B06F0E2FAD2E09DED95
:104DE000100B51EC100B01F0D2FF53EC182B06F016
:104DF0002FFE9FED730BCDE9000153EC102B9DEDC1
:104E0000000B51EC100B06F025FD41EC190B6E4820
:104E10000621B0EE490AF0EE690A784400F0E4FE9B
:104E200053EC192B51EC100B06F014FD41EC1B0B4D
:104E30006648B0EE490AF0EE690A0421784400F0B1
:104E4000D3FE53EC192B51EC100B06F003FD53EC81
:104E5000182B06F0A5FA41EC1C0B51EC190B05F0D0
:104E600006FE41EC180B5A489FED5BABA04222DCDA
:104E700053EC1C2B51EC1B0B06F03AFBCDE9000167
:104E80009DED000B51EC180B53EC102B06F0E2FCDF
:104E900053EC182B06F084FA53EC1A2B06F0DAFCCC
:104EA00053EC1D2B06F0ACFE53EC1E2B06F0D0FD90
:104EB00041EC100B5FE08DED008B002000909DED2C
:104EC000000B51EC180B53EC102B06F069FA9DED1A
:104ED000000B41EC1E0B53EC102B51EC100B06F0A9
:104EE000B9FC53EC192B06F0B3FD53EC1E2B06F066
:104EF000FFFA41EC190B53EC1C2B51EC1B0B06F089
:104F0000F7FA41EC1B0B53EC1A2B51EC190B06F082
:104F1000A1FC53EC1D2B06F09BFD41EC190B53EC4F
:104F20001A2B51EC180B06F095FC53EC1B2B06F0DA
:104F300091FC53EC192B06F063FE9DED000B41EC48
:104F4000180B53EC1A2B51EC100B06F083FC9FED61
:104F5000249B53EC192B06F07BFD41EC100B51EC1C
:104F6000180B53EC102B06F04BFE53EC192B06F0EC
:104F70006FFD41EC100B002D3FF7C5AE51EC100B4F
:104F800006F0D0F941EC100BBDE600000000000077
:104F90000000F03F00000000075C143326A6913C9F
:104FA000182D4454FB21F93F0000F07F0000E03F42
:104FB000000000000000F03FA8920000B692000040
:104FC000000000000000E03FFA910000089200009D
:104FD0003333EF3F000000000000000000000040FD
:104FE000182D4454FB21E93F70B59B482DED020B71
:104FF0002DED068B079D25F00044A04218DC974854
:10500000844202DC0AD1069840B19DED060BBDEC4E
:10501000068B02B0BDE8704000F0FABE002DCCBF98
:105020009FED8F0B9FED900BBDEC068B02B070BD1A
:105030008F48A04215DD8F48A042D8BF4FF0FF3403
:1050400058DD9DED060B51EC100BFFF7F2FD042827
:1050500008BF00F001FF9DED060BBDEC068B02B012
:1050600070BD9DED060B51EC100B01F090FECDE9EB
:10507000060181489FED828BA0423CDD8248A04220
:105080001FDD00249FED82AB9DED060B53EC1A2B28
:1050900051EC100B06F084F99DED060B41EC190B59
:1050A00053EC1A2B51EC100B06F0D4FB53EC182BDD
:1050B00006F0A6FD53EC192B06F01AFACDE906010D
:1050C00049E09DED060B012453EC182B51EC100B1D
:1050D00006F066F99DED060B41EC190B53EC182B0D
:1050E00051EC100B06F08CFD53EC192B06F000FA76
:1050F000CDE906012FE06848A0421FDD02249FEDA4
:10510000689B9DED060B53EC192B51EC100B06F030
:10511000A1FB53EC182B06F043F99DED060B41EC77
:10512000180B53EC192B51EC100B06F069FD53ECE6
:10513000182B06F0DDF9CDE906010CE09DED060B1C
:10514000032453EC102B9FED580B51EC100B06F081
:10515000CFF9CDE906019DED060B53EC102B51EC78
:10516000100B06F077FB41EC180B53EC182B06F0F4
:1051700071FB41EC190B4E480621B0EE490AF0EEE6
:10518000690A784400F030FD53EC182B51EC100BF9
:1051900006F060FB41EC180B4648B0EE490AF0EE11
:1051A000690A0521784400F01FFD53EC192B51ECDE
:1051B000100B06F04FFB41EC100B51EC180B53ECAD
:1051C000102B002C0EDA06F0EBF89DED061B53ECCD
:1051D000112B06F03FFB9DED061B53EC112B06F047
:1051E00037FC35E006F0DCF89DED061B53EC112B87
:1051F00006F030FB41EC100B2F48784400EBC40064
:1052000090ED001B51EC100B53EC112B06F0F8FC49
:105210009DED061B53EC112B06F0F2FC41EC100B3C
:105220002648784400EBC40090ED001B51EC100BB5
:1052300053EC112B06F00CFC41EC100B002DA2BF1F
:10524000BDEC068B02B070BD51EC100B06F06AF895
:1052500041EC100B01E70000000010440000F07F5B
:10526000182D4454FB21F93F182D4454FB21F9BF5C
:105270000000DC3F0000203E0000F33F0000000083
:10528000000000000000F03F0000E63F00000000CA
:10529000000000000000004000800340000000000B
:1052A000000000000000F83F000000000000F0BF18
:1052B0004A8F0000008F00008A8E0000428E00009E
:1052C00070B56B4E2DED040B2DED028B82B0DDF829
:1052D0001CC0DDE905235C422CF000411C4341EA7F
:1052E000D474049D22F00040B44205D86C422C4393
:1052F00040EAD474B4420BD99DED061B9DED040B1E
:1053000002B0BDEC028B04B0BDE8704000F08ABD75
:10531000ACF14054A4F17F641C430BD0022404EA96
:10532000AC7444EAD27405439FED538B9FED542B2C
:1053300007D015E09DED040B51EC100B00F0EEFDD5
:1053400042E0002C11BF012C9DED040B02B0BDEC1E
:10535000028B04BF04B070BD022C38D0032C3BD0AC
:105360000B439FED491B9FED4A0B0AD0B14218D168
:10537000B04209D121F0804120F080400791059092
:105380000FE0002A15DA10E0434B7B44002C08BFE5
:1053900093ED000B0DD0012C10D0022C17D0032C54
:1053A0001AD0B0421DD1002A03DAB0EE410AF0EE65
:1053B000610A02B0BDEC028B04B070BD93ED000B2E
:1053C00051EC100B05F0AEFF41EC100BF1E7B0EE25
:1053D000480AF0EE680AECE7B0EE420AF0EE620A24
:1053E000E7E7401A00153C28C8BF8DED000B19DC1B
:1053F000BCF1000FBEBF10F13C0F9FED290B8DEDEE
:10540000000B0FDB9DED060B53EC102B9DED040BF9
:1054100051EC100B06F06CF801F0B9FC00F07EFDC9
:10542000CDE90001002C08BF9DED000BC1D0012C7F
:1054300010D0022C9FED1C0B53EC102B9DED000B9C
:1054400051EC100B0DD006F0DBFB53EC182B06F0E3
:10545000D7FBB9E7019880F0004001909DED000B6B
:10546000A7E706F0CDFB53EC182B06F0F1FAABE7FB
:105470000000F07F00000000182D4454FB2109407B
:10548000182D4454FB2109C0182D4454FB21F9BFA9
:10549000182D4454FB21F93FA28D000000000000AC
:1054A0000000000000000000075C143326A6A13CA9
:1054B00010B52F499FED2C1B2DED020B84B00598E4
:1054C00020F000408842D8BF9DED040B2DDD294916
:1054D000884209D1049840B94FF00100FBF7EBF87E
:1054E00000F0AAFC06B010BD05DB9DED040B00F03A
:1054F0008FFC06B010BD68469DED040B00F0A0F8CF
:1055000010F0030004BF9DED021B9DED000B0CD0BD
:1055100001280ED09DED021B9DED000B022817D037
:10552000012000F0DDFB06B010BD00F0A5FA06B0CA
:1055300010BD9DED021B9DED000B012000F0D0FB86
:1055400051EC100B05F0EEFE06B041EC100B10BD57
:1055500000F092FA51EC100B05F0E4FE06B041ECBD
:10556000100B10BD00000000000000000000000053
:10557000FB21E93F0000F07F10B52F499FED2C1B68
:105580002DED020B84B0059820F000408842DCBF6E
:1055900000209DED040B32DD2849884209D1049892
:1055A00040B94FF00100FBF786F800F045FC06B06B
:1055B00010BD05DB9DED040B00F02AFC06B010BD0C
:1055C00068469DED040B00F03BF810F0030011D08D
:1055D000012818D09DED021B9DED000B02281AD06A
:1055E00000F04AFA51EC100B05F09CFE06B041ECBD
:1055F000100B10BD9DED021B9DED000B012000F076
:105600006FFB06B010BD9DED021B9DED000B00F081
:1056100033FA06B010BD012000F062FB51EC100B14
:1056200005F080FE06B041EC100B10BD000000003C
:105630000000000000000000FB21E93F0000F07FB7
:105640002DE9F14F04462DED020B2DED088B8AB0AC
:105650009FEDE70B80ED020B139EE74826F0004517
:1056600085420ADC9DED120B002084ED000B0AB090
:10567000BDEC088B03B0BDE8F08FE0489FEDE0ABD8
:105680009FEDE1BBA84247DDE14F9FEDE39B9FED1E
:10569000E48B9DED120B53EC1A2B51EC100B002EEA
:1056A0001CDD06F0ADFA41EC100BBD4208D053EC06
:1056B0001B2B51EC100B06F0A3FAC4E900010BE020
:1056C00053EC192B51EC100B06F09AFA53EC182BF3
:1056D00006F096FAC4E900010120C8E705F060FE73
:1056E00041EC100BBD4208D053EC1B2B51EC100BBE
:1056F00005F056FEC4E900010BE053EC192B51EC08
:10570000100B05F04DFE53EC182B05F049FEC4E9D3
:1057100000014FF0FF30AAE7C348A84279DB9DEDB6
:10572000120B51EC100B01F032FB41EC180B9FED0A
:10573000C00B53EC102B06F08DF89FEDBF1B53EC04
:10574000112B05F02DFE06F02BF8074606F057F852
:1057500041EC190B53EC1A2B06F07CF853EC182B88
:1057600006F076F941EC180B53EC1B2B51EC190B9E
:1057700006F070F8DFF8C8A241EC100B4FEA15589C
:105780000125FA4453EC102B51EC180B06F038FAB3
:10579000032DC4E900013DD0C1F30A5005EB4511CA
:1057A000A8EB00001139814234DA0AEB051BB0EE98
:1057B00048AA9BED000BF0EE68AA53EC102B51ECBD
:1057C000190B06F047F841EC1B0B51EC1A0B53EC8C
:1057D0001B2B06F015FA41EC180B51EC1A0B53EC8D
:1057E000182B06F00DFA53EC1B2B06F009FA9BED73
:1057F000020B41EC1A0B53EC102B51EC190B06F079
:1058000029F853EC1A2B06F0FBF941EC100B6D1C38
:10581000B8E70EE0002EA8BF3846BFF628AF94EDDB
:10582000000B51EC100B05F07DFDC4E9000178423E
:105830001DE7C6F3130040F4801EC6F30A50A0F221
:10584000F530471100F01F05C5F12000DDF848B024
:1058500008900020069007900520EC467949002D1D
:1058600007EB0002794408BF51F8221009D051F823
:10587000223001EB8201AB404A68089922FA01F11B
:105880001943A1FB0E26A1FB0B131A449A4234BF05
:105890000123002303EB06080CEB8003D3E901A6E8
:1058A0000E448E4234BF0121002192448A4411B13A
:1058B000924502D903E0924501D2012100E0002186
:1058C000C3E901A641444CF82010011EA0F10100DB
:1058D000C4DC029800F10050850F0298DDE90367EF
:1058E0008000DDF8148005F08AFF41EC1A0B304689
:1058F00005F09CFF9FED541B53EC112B05F0AAFF04
:1059000041EC1B0B384605F091FF9FED511B53EC0A
:10591000112B05F09FFF41EC180B404605F086FF68
:105920009FED4D1B53EC112B05F094FF41EC190B2F
:1059300051EC180B53EC192B05F032FD53EC1B2BDB
:1059400005F02EFD53EC1A2B05F02AFDCDE90801D8
:10595000002008909DED080B53EC1A2B51EC100B16
:1059600006F04EF953EC1B2B06F04AF953EC182BBA
:1059700006F046F953EC192B06F06AF89FED381B38
:1059800053EC112B05F066FF9FED370B41EC180B24
:1059900053EC102B9DED080B51EC100B05F05AFF4A
:1059A00053EC182B05F0FCFC9FED310B41EC180B70
:1059B00053EC102B9DED080B51EC100B05F04AFF3A
:1059C00053EC182B05F0ECFC41EC100B139810F085
:1059D000004F06D06D4251EC100B05F0A3FC41ECDA
:1059E000100B284684ED000B41E60000000000008B
:1059F0000000000000000000FB21E93F7CD90240CC
:105A000000004054FB21F93F3163621A61B4D03D7C
:105A1000FB21F93F000000000000601A61B4D03D96
:105A20007370032E8A19A33BFB213941000000004B
:105A300083C8C96D305FE43F000000000000E03F14
:105A4000B289000000890000000000000000103E44
:105A5000000000000000103C000000000000103AB0
:105A6000182D4454FB21F93D3326A611460B113C59
:105A700000000054FB21F93D10B52DED040B2DED78
:105A8000088B82B0B0EE419AF0EE619A0B9820F04C
:105A900000449FED4BABB4F1795F11DA9DED0A0B39
:105AA00051EC100B05F07CFE002801BFB0EE4A0A55
:105AB000F0EE6A0A02B0BDEC088B04BF04B010BD62
:105AC0009DED0A0B53EC102B51EC100B05F0C2FEB0
:105AD00041EC180B3C480621B0EE480AF0EE680A8B
