:020000040800F2
:10000000805D002031030008D9390008ED32000876
:10001000BD3900083D0B00089945000800000000AC
:100020000000000000000000000000007102000855
:100030000F11000800000000CD020008ED3D00088F
:100040004B0300084B0300084B0300084B03000858
:100050004B0300084B0300084B0300084B03000848
:100060004B0300084B0300084B0300089D0D0008DC
:10007000A90D00084B030008B50D00084B0300084C
:10008000C10D00084B0300084B0300084B03000898
:10009000410B00084B0300084B0300084B0300080A
:1000A0004B0300084B0300084B0300084B030008F8
:1000B000BD3E00084B0300084B0300084B0300083B
:1000C0004B0300084B0300084B0300084B030008D8
:1000D0004B0300084B030008E143000851440008AB
:1000E0004B0300084B0300084B0300084B030008B8
:1000F0004B0300084B0300084B030008CD0D00081C
:100100004B0300084B0300084B0300084B03000897
:100110004B0300089D4100084B0300084B030008F7
:100120004B0300084B0300084B0300084B03000877
:100130004B0300084B0300084B0300084B03000867
:10014000D90B00084B0300084B0300084B030008C1
:100150004B0300084B0300084B0300084B03000847
:100160004B0300084B0300084B0300084B03000837
:100170004B0300084B0300084B030008000000007D
:100180004B0300084B03000800F002F800F060F891
:100190000AA090E8000C82448344AAF10107DA45E2
:1001A00001D100F055F8AFF2090EBAE80F0013F0D4
:1001B000010F18BFFB1A43F00103184758BF000096
:1001C00078BF00000A444FF0000C10F8013B13F018
:1001D000070408BF10F8014B1D1108BF10F8015BA0
:1001E000641E05D010F8016B641E01F8016BF9D193
:1001F00013F0080F1EBF10F8014BAD1C0C1B09D1EA
:100200006D1E58BF01F801CBFAD505E014F8016B5B
:1002100001F8016B6D1EF9D59142D6D370470000ED
:100220000023002400250026103A28BF78C1FBD8FF
:10023000520728BF30C148BF0B6070471FB509F097
:10024000E1FC9DE8030000F03FFA1FBD10B510BDB2
:1002500000F096FA1146FFF7F1FF06F0C5FA00F03C
:10026000B4FA03B4FFF7F2FF03BC00F0E5FA0000B4
:100270002C4B19680868B0E8F04F80F30988BFF389
:100280006F8F4FF0000080F311887047000000006E
:1002900008480068006880F308884FF0000080F389
:1002A000148862B661B6BFF34F8FBFF36F8F00DF64
:1002B00000BF00BF08ED00E0DFF80C00016841F46A
:1002C00070010160704700BF88ED00E0EFF3098026
:1002D000BFF36F8F134B1A681EF0100F08BF20ED8D
:1002E000108A20E9F04F106009B44FF0500080F3FD
:1002F0001188BFF34F8FBFF36F8F09F04BF94FF0A9
:10030000000080F3118809BC19680868B0E8F04F54
:100310001EF0100F08BFB0EC108A80F30988BFF3FD
:100320006F8F70473C000020EFF30580704700009E
:100330000948804709480047FEE7FEE7FEE7FEE779
:10034000FEE7FEE7FEE7FEE7FEE7FEE704480549B5
:10035000054A064B70470000AD3E000889010008C1
:1003600080570020805D00208059002080590020A7
:1003700070B5064600F08CF9056806F10B0020F018
:100380000704B4429CBF002070BD2B466A68BAB116
:100390001068A04210D304F1080188423CBF5068A5
:1003A000586007D35168101941601168091B01603A
:1003B00058601460101D70BD13465268002AE7D1C2
:1003C0002146284600F06CF90028DED170BD70B5DA
:1003D0000446051F00F05CF90068002C14BF446857
:1003E00070BD002C18BFAC423CBF20466468F8D3F7
:1003F00001680A18AA4218BF456003D12A68054659
:100400001144016028684119A1421CBF6C6070BD95
:100410006168696021680844286070BD53EA020C75
:1004200000F069802DE9F04B4FF00006002B1FBF54
:10043000B3FA83F503FA05F424FA05F65E4012BF19
:100440001643B2FA82F502FA05F4C5F120051EBF83
:1004500022FA05FC44EA0C04203556EA044C4FEA23
:10046000144418BF641C4FF000084FF0000990427C
:1004700071EB030C39D3002919BFB1FA81F701FAE6
:1004800007F6B0FA80F700FA07F6C7F120071EBF9B
:1004900020FA07FC46EA0C062037B6FBF4FCA7EB73
:1004A0000507103F07F01F0BCBF120060CFA0BFBE2
:1004B0002CFA06F644BFB3460026202FA4BF5E46A2
:1004C0004FF0000B5BEA060C08BF4FF0010B19EB75
:1004D0000B09ABFB027C48EB0608C01B06FB02CCF9
:1004E0000BFB03CC71EB0C01C1E70B460246414606
:1004F0004846BDE8F08B13B54FF000004FF0000107
:10050000AFF30080BDE81C407047032A40F2308002
:1005100010F0030C00F0158011F8013BBCF1020F44
:10052000624498BF11F801CB00F8013B38BF11F8C5
:10053000013BA2F1040298BF00F801CB38BF00F8DC
:10054000013B11F0030300F02580083AC0F0088059
:1005500051F8043B083A51F804CBA0E80810F5E73D
:10056000121D5CBF51F8043B40F8043BAFF3008020
:10057000D20724BF11F8013B11F801CB48BF11F895
:10058000012B24BF00F8013B00F801CB48BF00F865
:10059000012B704710B5203AC0F00B80B1E818501D
:1005A000203AA0E81850B1E81850A0E81850BFF45D
:1005B000F5AF5FEA027C24BFB1E81850A0E81850FC
:1005C00044BF18C918C0BDE810405FEA827C24BF50
:1005D00051F8043B40F8043B08BF7047D20728BFDE
:1005E00031F8023B48BF11F8012B28BF20F8023B2D
:1005F00048BF00F8012B70474FF000020429C0F0FB
:10060000128010F0030C00F01B80CCF1040CBCF144
:10061000020F18BF00F8012BA8BF20F8022BA1EB96
:100620000C0100F00DB85FEAC17C24BF00F8012B7B
:1006300000F8012B48BF00F8012B70474FF0000273
:1006400000B5134694469646203922BFA0E80C50C8
:10065000A0E80C50B1F12001BFF4F7AF090728BFA3
:10066000A0E80C5048BF0CC05DF804EB890028BF1F
:1006700040F8042B08BF704748BF20F8022B11F048
:10068000804F18BF00F8012B7047704770477047C4
:1006900000487047285700207047704770477047E0
:1006A00038B504460A4600206946AFF300800028AA
:1006B00008BF38BD02460099204600F03FF80120EF
:1006C00038BD012000F054B8F8B5AFF300800546FE
:1006D00000200C46102000BF0646A819A0420DD9E4
:1006E000324669460020AFF30080070008BF00F0E3
:1006F0003FF80098A04218BF0546C419FFF7C8FF8D
:1007000005600746F01D20F007004619284600F056
:100710000AF8B44208BFF8BDA21B31463868BDE8EC
:10072000F84000F00BB800210160C0E901107047EB
:10073000102070470048704720570020034640684B
:100740008C46002818BF88423CBF03464068F8D357
:1007500018681844884207D00CF1030020F0070005
:10076000001D411A521A0146081D0A60FFF72FBEEC
:1007700010B500F039F8BDE8104000F02FB8704710
:100780007546FFF7D7FFAE4605006946534620F091
:100790000700854618B020B5FFF7D8FDBDE820401A
:1007A0004FF000064FF000074FF000084FF0000B2D
:1007B00021F00701AC46ACE8C009ACE8C009ACE8E0
:1007C000C009ACE8C0098D46704710B50446AFF3C8
:1007D00000802046BDE81040FFF743BD002801D04F
:1007E00000F02AB87047000010B5012805D000219C
:1007F00003A000F027F8012010BD09A1F8E70000D0
:1008000053494752544D454D3A204F7574206F66F9
:100810002068656170206D656D6F72790000000061
:100820003A2048656170206D656D6F727920636F45
:10083000727275707465640001491820ABBEFEE7E2
:100840002600020070B505460C460A2000E06D1C2B
:1008500000F011F835B128780028F8D102E0641CC6
:1008600000F009F814B120780028F8D1BDE87040F4
:100870000A20AFF3008008B569468DF80000032018
:10088000ABBE08BD38B5194804F0E6FA03F058FFCE
:10089000164803F019FF044603F052FF24BB012061
:1008A0008DF800000146114A684604F063FB03F02E
:1008B00047FF0E4803F0E2F800208DF800000B4AD5
:1008C0000121684604F056FB03F03AFF074803F0A5
:1008D000ABF802208DF80000044A0121684604F0BC
:1008E00049FB044603F02CFF204638BDB8560020D3
:1008F0002DE9F047854C864E864D4FF47A7A2DEDE2
:10090000028B4FF00109607A002710B1606918B1BD
:1009100005E02774676175E001F044FB606101F058
:1009200041FB6169401A50456CD36761B06EB0F904
:10093000020000EE100AB8EEC00A03F040F810EE14
:10094000100A75499FED758A884216DCA07BA0B914
:100950002878401CC0B2287003280ED32F7084F86A
:100960000E90B06F90ED000A30EE080A80ED000A9C
:100970006748D6F8941068308847B06EB0F9020026
:1009800000EE100AB8EEC00A03F019F810EE100AD3
:100990006349884203DBA07B08B92F702774B06FCE
:1009A000D0ED028AA07B01282CD1B0EE680A03F0BA
:1009B00006F810EE100ADFF86C81404503DCA773DF
:1009C00027746F701EE0A07B01281BD1B0EE680A6F
:1009D00002F0F5FF10EE100A404513DD6878401C68
:1009E000C0B2687002280DD36F70207C78B10020EF
:1009F00020740028B06F90ED000A0AD030EE480A4B
:100A000080ED000AE07A38B1A06958B10DE001200C
:100A1000EEE730EE080AF3E76774A761BDEC028BDE
:100A2000BDE8F08701F0BEFAA06101F0BBFAA16950
:100A3000401A5045F2D3A761B06FD0ED028AB0EEF4
:100A4000680A02F0BCFF10EE100A37499FED378AA2
:100A50008842E07B18DB18BBA878401CC0B2A870A5
:100A6000032812D3AF70B06FDFED310A90ED000AAA
:100A700030EE200A80ED000A30EE080AB06F80EDFB
:100A8000000A84F80F900EE050B9B0EE680A02F048
:100A900096FF10EE100A2749884201DCAF70677498
:100AA000E07B0128BAD1B0EE680A02F088FF10EEB0
:100AB000100ADFF88480404503DCE7736774EF7049
:100AC000ACE7E07B0128A9D1B0EE680A02F077FF1D
:100AD00010EE100A4045A1DDE878401CC0B2E87075
:100AE00002289BD3EF70607C58B10020607400280E
:100AF000B06F90ED000A06D030EE480A80ED000A93
:100B00008CE70120F2E730EE080AF7E7604E00209C
:100B100050020020200300200000A04000401C479D
:100B20000000484300007A4500606A460060EA46DB
:100B3000002410470000FA430000FA44FEE70000DA
:100B4000014800F02CBD00002C07002070B5204C9F
:100B5000A0F50072013A1AD0A0F50072023A1CD03A
:100B6000A0F50072033A1BD0B0F5017F27D0194CD5
:100B7000A0F50072053A1AD0A0F50072063A26D107
:100B8000E26C2046343005469047216D0DE0A269A5
:100B90000F4890470E48E1690EE00D48E26CF1E71E
:100BA0000B4854F8802F68300DE0284604E0A26915
:100BB000084890470748E169BDE870400847044885
:100BC00054F8B42F9C30054690476168EDE770BD3E
:100BD000F4000020E8010020014800F0E0BC000023
:100BE0005407002070B50E46054603F087FC194CEB
:100BF000A5F50070013816D0A5F50070023819D09F
:100C0000A5F5007003381DD0B5F5017F20D111483E
:100C100054F8B42F31469C30054690476168284609
:100C2000BDE870400847A26931460A489047094824
:100C3000E169F5E70748E26C3430314605469047F4
:100C4000216DECE7034854F8802F31466830E3E724
:100C500070BD0000500200200021016041608160F1
:100C6000C160016101224161C0E90612C0E90821A9
:100C70007047000000B595B06846FFF7EDFF694684
:100C80000C4800F091FB0AA8FFF7E6FF0AA90A4802
:100C900000F08AFB0221074800F00FFB0221064802
:100CA00000F00BFB034800F0B7FE034800F0B4FE71
:100CB00015B000BD2C0700205407002070B5044675
:100CC000016000200821A060C4E90301115C231821
:100CD000401C19760828F9DB0B4804F118058442FA
:100CE00005D100232A462146084800F0F8FA0648B4
:100CF0004430844207D12A462146BDE87040002393
:100D0000034800F0ECBA70BD304800202C070020EA
:100D10005407002070B5134E00252DED048BB1EE65
:100D2000088AB6EE009ADFED108A00BF05EB850059
:100D300000EBC50006EB8004204661698847A06887
:100D400005F016FEA0686D1C042D80ED048AA068D5
:100D5000C0ED058AA06880ED069AE7DBBDEC048B48
:100D600070BD0000F4000020CDCC4C3E90ED001A88
:100D7000B4EEC01AF1EE10FA02DB80ED000A704703
:100D8000B4EEE01AF1EE10FAF9D8C0ED000A70479F
:100D90000421014801F070BF7C070020014800F0E9
:100DA000C9BE000018090020014800F0C3BE0000C1
:100DB000380A0020014800F0BDBE0000980A00205B
:100DC000014800F0B7BE0000D8090020014800F03B
:100DD000B1BE0000780900202DE9F04F856800249D
:100DE000099E802D18D0894DC563894D456490F8C2
:100DF0003450012D15D0012580F8345090F835502D
:100E0000012D10D0002180F834100224002180F838
:100E100034102046BDE8F08F4FF480714165012009
:100E2000F8E70220F6E7022580F8355000254565F1
:100E300005682F6847F480272F6005682B610368D9
:100E40005E608368402B03682AD099600168CA609D
:100E5000714D704E704FDFF8BC81DFF8B891DFF84C
:100E6000B8A1DFF8B4B1EA14DFF8A8E101681836D8
:100E700030379302A9F148090AF1600A0BF1180B07
:100E8000AEF1300E4FF0006C41452DD9A94205D08E
:100E9000494503D0514501D0B14205D1202220E07F
:100EA0009A600268D160D3E759451AD0714518D0CD
:100EB000594D7835A94214D0564D3035A94210D03D
:100EC000B9420BD0534A183A914207D0524A903255
:100ED000914203D04F4A4832914201D11A4600E074
:100EE00062464C494C392EE0DFF82C8108F1A80805
:100EF00041452AD9A94205D0494503D0514501D0E1
:100F0000B14201D120221CE059451AD0714518D0B8
:100F1000414D7835A94214D03E4D3035A94210D00C
:100F2000B9420BD03B4A183A914207D03A4A903224
:100F3000914203D0374A4832914201D11A4600E02B
:100F40006246344950390A605AE0DFF8CC8008F133
:100F5000480841452AD9A94205D0494503D0514501
:100F600001D0B14201D120221CE059451AD071456F
:100F700018D0294D7835A94214D0264D3035A942D4
:100F800010D0B9420BD0234A183A914207D0224AD6
:100F90009032914203D01F4A4832914201D11A4601
:100FA00000E062461C491039CA6029E0A94205D018
:100FB000494503D0514501D0B14201D120221CE066
:100FC00059451AD0714518D0134D7835A94214D01F
:100FD000104D3035A94210D0B9420BD00D4A183A05
:100FE000914207D00C4A9032914203D0094A4832CC
:100FF000914201D11A4600E06246074910398A60E1
:1010000001680A6842F001020A60FFE6C554000860
:10101000DD54000858640240106002400168182343
:10102000CAB2103AB2FBF3F2054B6FF30901032A7F
:101030009B5CC36500D9091D8165084670470000A7
:10104000289D000810B5014600208B698A6A4FF080
:10105000C07453B1B3F5005F15D072B1012A0CD042
:10106000022A0AD0032A09D104E01AB1012A06D0C3
:10107000022A03D1C96AC90100D5012010BDC96A7D
:10108000A142FAD010BD002AF7D0012AF2D0022ADC
:10109000F3D0032AF3D010BD70B590F8345000247B
:1010A000012D0CD0012580F8345090F835600025D2
:1010B000012E06D080F834500224204670BD022054
:1010C00070BD022680F83560456505682E6826F4F7
:1010D00080262E6005686B608368402B036808D00B
:1010E00099600168CA600068016841F0010101600F
:1010F000E3E79A600268D160F5E701680A68D20602
:1011000004D5C968C90601D508F01AB870477047F8
:10111000F0B5404890F847100A2945D20122A0F8BE
:101120009C200222A0F89E200322A0F8A0200422E6
:10113000A0F8A2200522A0F8A42040F20117062260
:10114000A0F8A6207E1C0722A0F8A820751C6C1C05
:10115000A0F8AA70A0F8AC60631CA0F8AE50A0F88C
:10116000B0405A1CA0F8B230A0F8B42001290CD02D
:1011700002290DD003290ED004290FD0052910D043
:10118000062901D1A0F8B620F0BDA0F8B670F0BDD8
:10119000A0F8B660F0BDA0F8B650F0BDA0F8B6401B
:1011A000F0BDA0F8B630F0BD6522A0F89C20662204
:1011B000A0F89E206722A0F8A0206822A0F8A22014
:1011C0006922A0F8A42040F265176A22A0F8A620A0
:1011D0007E1C6B22A0F8A820751C6C1CA0F8AA70BD
:1011E000A0F8AC60631CA0F8AE50A0F8B0405A1C48
:1011F000A0F8B230A0F8B4206529C6D06629C7D0BF
:101200006729C8D06829C9D06929CAD06A29B9D044
:10121000F0BD00009C03002072B6FEE70948827A08
:10122000094881684AB19FED090A81ED000A9FEDE6
:10123000080AC06B80ED000A70479FED060A81ED39
:10124000000AF6E7604E0020500200200000FAC4B9
:101250000000FA440000000010B558B1084C491EC7
:101260000BD310F8013B5340DBB234F8133083EA60
:101270001222F4E74FF6FF7010BD104610BD0000BB
:10128000489E000810B5064C04E000BF10F8013B72
:101290005340E25C491E89B2F8D2104610BD0000EE
:1012A000489D000810B502F0B5FB05F0C1F805F047
:1012B000D3F8BDE8104005F03BBA90F82020012A91
:1012C00007D0022A05D0416A41F480214162012001
:1012D0007047006842690A43426100207047F0B5D8
:1012E00090F820500468A468012D05D0022D03D089
:1012F000416A41F4802153E014F0406F01D1E500D0
:101300004BD5C4F30164022C03D9416A41F40001B6
:1013100046E00125A5401D608D684FF4C0739DB166
:10132000CE6835434E6845EAC605066803EB0417E8
:10133000F5514FF4C275076805EB04150E697E512F
:10134000097D012905D009E00E88CD6845EA46559A
:10135000EBE701684E5946F480764E511179D2F888
:1013600005504FF4C67641EA0525016806EB0416E0
:101370008D511178D2F801204FF4C47541EA022151
:10138000026805EB04155151006803EB0411425843
:1013900042F0010242500020F0BD416A41F40011C8
:1013A00041620120F0BD000010B590F82020012A14
:1013B00007D0022A05D0416A41F480214162012010
:1013C00010BD3B48D0F8002242F00102C0F80022D4
:1013D000D0F8002222F47C52C0F80022D0F800227B
:1013E0004B6A42EA0322C0F800220A7D02F01F0382
:1013F00001229A40D0F81C329343C0F81C32CB69CA
:10140000B3B9D0F80C329343C0F80C328C894B68D6
:1014100064F31F434C6900EBC404C4F840320C89E8
:101420000B6864F31F434C6900EBC404C4F84432F6
:10143000CB69012B16D1D0F80C321343C0F80C3213
:101440000C884B6864F31F434C6900EBC404C4F878
:1014500040320C89CB6864F31F434C6900EBC40431
:10146000C4F844328B69002BD0F804320ED01343F9
:10147000C0F804320B69002BD0F8143208D01343A3
:10148000C0F81432096A012904D008E09343EFE759
:101490009343F5E7D0F81C121143C0F81C12D0F8A2
:1014A000001221F00101C0F80012002010BD000060
:1014B00000640040704730B590F82040012C05D002
:1014C000022C03D0416A41F480215DE004680029C8
:1014D00055D02469A40754D04FF4D874056804EBA0
:1014E00001142D5915F00405956005682D594ED04D
:1014F000ED08556005682C5904F00204D4604FF4DF
:10150000DA74056804EB01142D5905F00F05156117
:1015100005682D59C5F30725956105682C59240CDC
:1015200054614FF4DC72046802EB0112A4581C7081
:101530000468A458240A5C700468A458240C9C70A5
:101540000468A258120EDA704FF4DE72046802EBDF
:101550000112A4581C710468A458240A5C71046820
:10156000A458240C9C710468A258120EDA71006809
:1015700081B1016941F020010161002030BDE468C2
:10158000A8E7416A41F400114162012030BD6D0DB0
:101590001560AFE7C16841F02001C160EDE72DE9BA
:1015A000F05F0546006800244669D0F8049087681B
:1015B000D0F80CB0D0F810A0D0F81880F10748D0BF
:1015C000F90714D001218160B80703D5284600F03F
:1015D00050FA0CE0780702D54FF4006407E03807B2
:1015E00002D54FF4805402E0284600F041FAF80595
:1015F00016D529684FF480708860B80503D5284651
:1016000000F039FA0CE0780502D544F4005407E004
:10161000380502D544F4804402E0284600F02AFA56
:10162000F80316D529684FF480308860B80303D5D5
:10163000284600F022FA0CE0780302D544F4004476
:1016400007E0380302D544F4803402E0284600F075
:1016500013FA300707D55FEACB6004D5296810205C
:1016600044F40074C86070074FF0080707D55FEABC
:101670000B7004D52868C760284600F099F9B007B8
:1016800006D52868C068800702D0284600F092F985
:10169000700607D55FEACA6004D52968102044F4B3
:1016A00080640861B00607D55FEA0A7004D528682F
:1016B0000761284600F0ACF9F00606D528680069F5
:1016C000800702D0284600F0A4F9B00308D55FEAED
:1016D000C96005D5296810204860284600F09AF9AD
:1016E000F00307D55FEA097004D5286847602846EB
:1016F00000F0C4F9300446D55FEA497040D5F005E2
:1017000004D55FEAC87001D044F00104B00504D5E7
:101710005FEA887001D544F00204700504D55FEAE1
:10172000487001D544F00404300529D518F0700F35
:1017300026D008F07000402815D006DC102809D00B
:1017400020280AD0302816D10AE050280ED0602870
:1017500011D10EE044F008040DE044F010040AE05A
:1017600044F0200407E044F0400404E044F0800426
:1017700001E044F480742868816921F0700181617E
:10178000296804204860002C05D0686A20436862FC
:101790002846FFF78FFEBDE8F09F70B5040003D028
:1017A00094F8200010B104E0012070BD204600F044
:1017B00081F82068016841F00101016000F0F2FB4E
:1017C0000546052604E000F0EDFB401B0A2811D871
:1017D00020684068C007F6D02068016821F0020147
:1017E000016000F0DFFB05460BE000F0DBFB401B77
:1017F0000A2806D9606A40F40030606284F82060EC
:10180000D2E7206840688007EFD4207E0128206856
:1018100001683DD021F080010160607E01282068D0
:10182000016838D021F040010160A07E01282068C5
:10183000016833D021F020010160E07E012820689A
:1018400001682ED041F010010160207F012820683E
:10185000016829D021F008010160607F012820681B
:10186000016824D021F004010160D4E90201084399
:10187000D4E90412114308436168491E08432168F2
:10188000C86100206062012084F82000002070BD43
:1018900041F08001C0E741F04001C5E741F020017F
:1018A000CAE721F01001CFE741F00801D4E741F089
:1018B0000401D9E7F0B587B0044614216846FEF765
:1018C000BDFE364B3648DFF8D0E01968D4F800C0CA
:1018D000334A03250226092710300024491CF44509
:1018E00022D11960012907D1016841F0007101601E
:1018F000006800F000700590106840F0080010606B
:101900001068CDE9005600F00800CDE90470694682
:101910002448CDE9024500F047FA002205211420B1
:1019200000F0DEFB142032E0DFF87CE0F44530D13B
:10193000D0F800C04CF0806CC0F800C0D0F800C0F7
:1019400001290CF0806CCDF814C0196007D1016832
:1019500041F000710160006800F0007005901068AF
:1019600040F002001060106802AB00F00200059029
:101970006020CDE9000683E8B00069460B4800F01E
:1019800013FA00220521402000F0AAFB402000F0BD
:1019900099FB07B0F0BD0000006400402800002063
:1019A00030380240000C0240006800400004024051
:1019B0007047000070B504460068124988420DD196
:1019C000114B00211D46A3F11C022046FFF773FDB9
:1019D0000D4829461C380068FFF7B8F80B49206805
:1019E00088420ED1084B002144331D46A3F11C024E
:1019F0002046FFF760FD0448294628300068FFF7BD
:101A0000F1F870BD006400406C48002000680040A0
:101A1000704770477047000070B5044690F820008A
:101A2000012804D0606A40F40020606218E00220BF
:101A300084F820002068016821F00101016000F0B5
:101A4000B1FA05460EE000BF00F0ACFA401B0A28D0
:101A500008D9606A40F400306062052084F82000F4
:101A6000012070BD20684068C007EDD1606270BD84
:101A700070477047704770477047704770472DE94F
:101A8000F0410446876D00F08DFA064694F8350063
:101A90000025022806D08020606584F8345001209B
:101AA000BDE8F0812068016821F01601016020681E
:101AB000416921F080014161206C08B9A06C20B11E
:101AC0002068016821F0080101602068016821F0A8
:101AD000010101600CE000F065FA801B052807D9C0
:101AE00020206065032084F8350084F83450D7E75F
:101AF00020680068C007EED194F85C103F20884051
:101B0000B860012084F8350084F834500020C7E71D
:101B100090F83510022903D08021416501207047DB
:101B2000052180F835100068016821F0010101608D
:101B3000002070472DE9F84304464FF00009CDF826
:101B4000009063484FF41651A56D0068B0FBF1F7A3
:101B50002E6894F85C10082000FA01F131420FD091
:101B600021680A6852070BD50A6822F004020A604D
:101B700094F85C108840A860606D40F001006065DA
:101B800094F85C104FF0010808FA01F0304208D0D8
:101B900021684969090604D5A860606D40F002001B
:101BA000606594F85C1004208840304208D02168B9
:101BB0000968890704D5A860606D40F0040060657D
:101BC00094F85C1010208840304218D021680968D1
:101BD000090714D5A86020680168490304D5006886
:101BE000000308D5A16C07E00168C90503D40168AA
:101BF00021F008010160216C09B12046884794F862
:101C00005C1020208840304231D021680968C90624
:101C10002DD5A86094F8350005282068016806D005
:101C2000490347D5006800031DD4616C1CE021F016
:101C3000160101602068416921F080014161206C3A
:101C400008B9A06C20B12068016821F0080101608A
:101C500094F85C103F208840A86084F8358084F8B0
:101C60003490216D1FE0E16B09B120468847606D1B
:101C700000282BD0606DC00714D0052084F83500F3
:101C80002068016821F0010101600098401C00906B
:101C9000B84203D820680068C007F6D184F83580C0
:101CA00084F83490E16C002910D001B02046BDE8E2
:101CB000F04308470168C905D5D4016821F0100137
:101CC000016084F8358084F83490CCE7BDE8F8836F
:101CD000380000202DE9F041044600F063F9064683
:101CE0005CB1022084F83500002584F83450206867
:101CF000016821F0010101600DE00120BDE8F081E3
:101D000000F050F9801B052805D9202060650320CC
:101D100084F83500F2E720680068C007F0D1226837
:101D2000116820480140D4E901031843D4E903367F
:101D30003343184363691843A3691843E36918439D
:101D4000236A18430843616A042903D1D4E90B13B9
:101D500019430843106020684069666A20F0070153
:101D600030460E43012704280CD1A06A0643E06ADE
:101D700040B12046FFF766F920B14020606584F845
:101D80003570BAE7206846612046FFF747F994F8B6
:101D90005C203F2191408160656584F835700020AA
:101DA000ACE700003F8010F02DE9F84FDFF8BCA150
:101DB000002201250AF1040B03264FF00F090BF155
:101DC000040E00BF0B6805FA02F42340A34270D151
:101DD0000F7907F00307012F01D0022F16D1876872
:101DE0004FEA420806FA08FC27EA0C07D1F80CC0B3
:101DF0000CFA08FC4CEA070CC0F808C04768A74377
:101E00000C79C4F3001494403C4344600C79E443DF
:101E1000A4070AD0C4684FEA420C06FA0CF7BC4388
:101E20008F6807FA0CF72743C7600C7904F00304A6
:101E3000022C12D1D40800EB840CDCF820405707A8
:101E4000FF0E09FA07F824EA0804D1F8108008FA0E
:101E500007F848EA0408CCF8208004684FEA420CEE
:101E600006FA0CF7BC430F7907F0030707FA0CF7E3
:101E7000274307604C6814F4403F70D03C4C2768FF
:101E800047F480472760246822F0030704F4804465
:101E90000094384C07EB040CDCF8084897074FEA2D
:101EA000177809FA08F7BC43334FB84202D100272C
:101EB00024E054E0314FB84201D101271EE0304FF9
:101EC000B84201D1022719E02E4FB84201D10327B1
:101ED00014E02D4FB84201D104270FE02B4FB84238
:101EE00001D105270AE02A4FB84201D1062705E0B3
:101EF000284FB84201D1072700E0082707FA08F762
:101F00002743CCF80878DAF800405746D1F804C0E7
:101F10009C435FEACC3C00D51C433C60DBF80040AE
:101F20005F46D1F804C09C435FEA8C3C00D51C435B
:101F30003C60DEF800407746D1F804C09C435FEA7D
:101F4000CC2C00D51C433C60084F0C373C68D1F8C2
:101F500004C09C435FEA8C2C00D51C433C60521C9F
:101F6000102AFFF42FAFBDE8F88F0000003C0140BD
:101F700044380240003001400000024000040240AA
:101F800000080240000C0240001002400014024011
:101F900000180240001C02400AB181617047090428
:101FA000FBE7000001488068704700002C0000201B
:101FB00009480168094A1278114401604FF08041D4
:101FC000496A006800EB4002C2EBC01001EBC000A0
:101FD0000349086070470000340000202C000020F6
:101FE000AC0000200B4810B5016841F4007101609D
:101FF000016841F480610160016841F48071016011
:10200000032000F08DF80F2000F006F800F03EF8F5
:10201000002010BD003C024010B5014688B00022EF
:102020001C2000F05DF81C2000F04CF8144800243F
:10203000016841F001010160006805A900F001009C
:102040000690684600F018F900F036F90D49400096
:10205000B0FBF1F10C484FF08042491E026040F2A3
:10206000E732C0E90324C0E9011400F0A1FB10B17C
:10207000012008B010BD044800F0DCFBF9E70000C7
:102080004038024040420F00F80A00200C4882B05D
:10209000016841F480410160006800F480400090D4
:1020A0000748001F016841F080510160006800226C
:1020B00000F0805000900F21901E02B000F010B888
:1020C00044380240002809DB00F01F020121914042
:1020D0004009800000F1E020C0F8001170470000C6
:1020E000F0B40E4B1B680C46C3F30223C3F1070583
:1020F000042D00D90425191D072901D2002300E071
:10210000DB1E012606FA05F1491E214099409E403A
:10211000761E16403143F0BC02F073BA0CED00E0BD
:10212000064900F0070208684FF6FF03184040EA2E
:102130000220034A10430860704700000CED00E0E5
:102140000000FA052DE9F0470E46050065D0DFF8DE
:102150001481D8F80000F7B200F00700B04207D2AF
:1021600088F80070D8F8000000F00700B04254D1A1
:1021700028683D4C810712D5400703D5206840F4FC
:10218000E05020602878000703D5206840F46040C4
:1021900020602068A96820F0F000084320602878BB
:1021A000C0072DD0304968680839012812D00228AC
:1021B00013D0032811D00968890700292DDA216876
:1021C00021F0030101432160FFF7ECFE814641F25B
:1021D000883A0EE009688903EFE709688901ECE7AE
:1021E000FFF7E0FEA0EB0901514502D90320BDE84D
:1021F000F0872068696800F00C00B0EB810FEFD128
:10220000D8F80010404601F00701B14207D9077025
:10221000006800F00700B04201D00120E7E728780D
:10222000400705D52068E96820F4E05008432060A5
:102230002878000706D52068296920F4604040EA24
:10224000C100206000F058F82168084AC1F303116A
:10225000515CC8400649086006480068FFF7DCFE8C
:102260000020C4E7003C024008380240309D0008CE
:1022700038000020300000200F2202600C4A136852
:1022800003F003034360136803F0F00383601368F3
:1022900003F4E053C36012684FF4E05303EAD20240
:1022A00002610448006800F0070008607047000001
:1022B00008380240003C02400448054900680968AB
:1022C000044AC1F38221515CC840704738000020A5
:1022D00008380240409D0008044805490068096824
:1022E000044AC1F34231515CC840704738000020B5
:1022F00008380240409D0008154810B5006810F0ED
:102300000C02144813D01449042A0FD0082A0ED105
:102310000F4C241F2268236802F03F025B0207D59E
:102320002068C0F38810A0FB010106E0084610BD3C
:102330002168C1F38811A1FB00010023FEF76EF8AC
:102340002168C1F30141491C4900B0FBF1F010BD07
:10235000083802400024F40040787D012DE9F84F50
:1023600004006ED02078DFF84C93C007A9F1040573
:102370004AD009F104000168C1F38101012908D0A4
:102380000068C0F3810002280AD1D9F80000400299
:1023900006D52868800337D560680028E1D033E08F
:1023A0006068B0F5803F10D0B0F5A02F286810D03D
:1023B00020F480302860286820F48020286060683D
:1023C000A8B1FFF7EFFD06460DE0286840F4803025
:1023D000F4E740F480202860F7E700BFFFF7E2FD54
:1023E000801B642873D828688003F7D50CE0FFF7BA
:1023F000D9FD064605E000BFFFF7D4FD801B642829
:10240000F0D828688003F7D42078DFF8AC82800702
:102410004FF0000A3ED5A748001D016811F00C0FCF
:1024200008D00068C0F3810002280BD1D9F8000061
:10243000400207D42868800716D5E068012800D13B
:1024400012E033E1E068B8B10120C8F80000FFF7FE
:10245000A9FD064605E000BFFFF7A4FD801B02288A
:10246000C0D828688007F7D52868216920F0F800CF
:1024700040EAC10028600DE0C8F800A0FFF792FD17
:10248000064604E0FFF78EFD801B02281FD828684F
:102490008007F7D42078000722D5864F87486169E6
:1024A000703771B101210160FFF77CFD064604E041
:1024B000FFF778FD801B022809D838688007F7D518
:1024C0000EE0C0F800A0FFF76DFD064605E082E0D3
:1024D000FFF768FD801B02287DD838688007F7D495
:1024E0002078400768D5DFF8CCB100270BF13C0B12
:1024F000DBF80000C0000BD4DBF8001041F0805185
:10250000CBF80010DBF80000012700F080500090AD
:102510006B4E3068C00510D4306840F48070306075
:10252000FFF740FD009005E0FFF73CFD0099401AE1
:10253000022850D83068C005F6D55E4EA0686C36CB
:1025400001280FD00528306810D020F0010030603D
:10255000306820F004003060A068B8B1FFF722FDB9
:1025600000900FE0306840F00100F4E740F0040014
:102570003060F7E7FFF716FD0099411A41F2883005
:10258000814266D830688007F4D50EE0FFF70AFD77
:10259000009007E0FFF706FD0099411A41F28830EC
:1025A000814256D830688007F4D42FB1DBF8001090
:1025B00021F08051CBF80010A069C8B33D49091D36
:1025C0000968C1F3810102294AD00228504607D088
:1025D000C8F8600000E03CE0FFF7E4FC04463BE0A4
:1025E0004746C8F86000FFF7DDFC064605E000BF7F
:1025F000FFF7D8FC801B02282BD828688001F7D46D
:10260000D4E907010843A16A2E4A490802EB0141B7
:10261000626A41EA8211084394F82C1040EA016191
:10262000C9F8001001203866FFF7BCFC044606E03C
:102630003EE000BFFFF7B6FC001B022809D828685F
:102640008001F7D534E000BFFFF7ACFC001B022887
:1026500002D90320BDE8F88F28688001F4D427E070
:102660000128F7D0D9F80000E26900F48001914216
:102670001CD1226A00F03F01914217D147F6C07188
:10268000626A0140B1EB821F10D1A26A4FF0FF33A2
:1026900000F4403103EB5202B1EB024F06D194F843
:1026A0002C1000F07060B0EB016F01D00120D1E779
:1026B0000020CFE70438024000004742800E474226
:1026C000007000400000FFFF7047704710B590F8A1
:1026D0003C20012A22D0012280F83C20CA688C6864
:1026E00022F4407222434C6822F4806222430C6838
:1026F00022F4006222430C6922F4805222434C6986
:1027000022F400522243C969002322F480420A4382
:1027100001684A6480F83C30002010BD022010BDE2
:1027200070B590F83C20012A32D0012480F83C405A
:10273000022280F83D2003685A689D6822F07006E6
:102740000A6832435A60134B02689A4214D0B2F1BD
:10275000804F11D0104B9A420ED0104B9A420BD0A2
:102760000F4B9A4208D00F4B9A4205D00E4B9A421B
:1027700002D00E4B9A4204D1496825F080031943D8
:10278000916080F83D40002180F83C10084670BD03
:10279000022070BD0000014000040040000800401D
:1027A000000C0040000401400040014000180040BF
:1027B00010B5040003D094F83D0010B107E00120EB
:1027C00010BD002084F83C00204600F01FF80220D5
:1027D00084F83D00211D206801F076FB012084F87B
:1027E000460084F83E0084F83F0084F8400084F8F6
:1027F000410084F8420084F8430084F8440084F8DF
:10280000450084F83D00002010BD000008B50068B8
:102810000649884208D10648016841F0010101607B
:10282000006800F00100009008BD000000000140B9
:102830004438024090F83D10012901D00120704732
:10284000022180F83D100168CA6842F00102CA60A6
:1028500000681149884214D0B0F1804F11D00F495F
:1028600088420ED00E4988420BD00E49884208D0CB
:102870000D49884205D00D49884202D00C49884252
:1028800004D1816801F00701062903D0016841F0F5
:102890000101016000207047000001400004004079
:1028A00000080040000C00400004014000400140CE
:1028B0000018004070B5044690F83C00002501283F
:1028C00017D0012684F83C60022084F83D0020687F
:1028D000826822F0770222F47F42826008685028E2
:1028E00038D00DDC20284FD005DC90B3102811D152
:1028F0004AE0022070BD302846D040280AD13BE093
:1029000060282FD070280DD0B0F5805F03D0B0F5CF
:10291000005F12D0012584F83D60002084F83C005F
:10292000284670BDCB68D1E90121206801F03DFB4C
:102930002068816841F0770109E0CB68D1E9012185
:10294000206801F032FB2068816841F48041816099
:10295000E1E719E0CA684968206801F0FBFB5021F3
:10296000206806E0CA684968206801F004FC60211C
:10297000206801F024FBCEE7CA684968206801F0AE
:10298000E9FB40212068F4E7226801461046F0E7A1
:10299000704770B50446006801694FF00005C943EF
:1029A000890715D4C168C943890711D4E91E01619B
:1029B00001202077206880698007204602D0FFF739
:1029C000E7FF04E000F0C2F8204600F054F9257754
:1029D00020680169C943490717D4C168C943490739
:1029E00013D46FF004010161022020772068806910
:1029F00010F4407F204602D0FFF7CAFF04E000F049
:102A0000A5F8204600F037F9257720680169C94309
:102A1000090716D4C168C943090712D46FF0080129
:102A20000161042020772068C0698007204602D019
:102A3000FFF7AEFF04E000F089F8204600F01BF934
:102A4000257720680169C943C90617D4C168C943FD
:102A5000C90613D46FF010010161082020772068A7
:102A6000C06910F4407F204602D0FFF791FF04E0D8
:102A700000F06CF8204600F0FEF825772068016928
:102A8000C943C90708D1C168C943C90704D1891E10
:102A90000161204600F054F920680169C943090624
:102AA00009D4C168C943090605D46FF080010161EA
:102AB0002046FFF709FE20680169C943490609D489
:102AC000C168C943490605D46FF040010161204641
:102AD00000F03DF920680169C94389060BD4C1683B
:102AE000C943890607D46FF0200101612046BDE883
:102AF0007040FFF7EABD70BD10B586B004461421E2
:102B00006846FDF79BFD0E492068884216D10D48A6
:102B10000021026842F010020260006800F010001C
:102B200005904FF4206000900220CDE901010120C2
:102B3000CDE9031069460448FFF736F906B010BD29
:102B4000000001403038024000100240704770B56C
:102B5000044690F83C0000260D4601280FD00120C5
:102B600084F83C006AB1042A1DD0082A2FD00C2A10
:102B70003FD00126002084F83C00304670BD022082
:102B800070BD206801F024FA2068816941F00801D5
:102B900081612068816921F0040181612068816977
:102BA0002A69114311E0206801F042FA2068816926
:102BB00041F4006181612068816921F48061816153
:102BC000206881692A6941EA02218161D2E720688F
:102BD00001F064FA2068C16941F00801C161206810
:102BE000C16921F00401C1612068C1692A691143EA
:102BF00011E0206801F086FA2068C16941F40061A3
:102C0000C1612068C16921F48061C1612068C16926
:102C10002A6941EA0221C161ACE710B5040003D082
:102C200094F83D0010B107E0012010BD002084F8A9
:102C30003C00204600F01EF8022084F83D00211DD3
:102C4000206801F041F9012084F8460084F83E0034
:102C500084F83F0084F8400084F8410084F8420082
:102C600084F8430084F8440084F8450084F83D006B
:102C7000002010BD7047704710B50446022249B1CC
:102C800004290ED0082913D094F84100012816D049
:102C9000012010BD94F83E000128F9D184F83E20AF
:102CA0000FE094F83F000128F2D184F83F2008E0BB
:102CB00094F840000128EBD184F8402001E084F82A
:102CC00041200122206801F063F916492068164A64
:102CD000884201D0904203D1436C43F400434364E3
:102CE0002068884213D0B0F1804F10D00F4988423D
:102CF0000DD00F4988420AD00E49884207D0904231
:102D000005D00D49884202D00C49884204D181681F
:102D100001F00701062903D0016841F001010160BB
:102D2000002010BD000001400004014000040040EC
:102D300000080040000C0040004001400018004026
:102D40000068B0F1804F01D1FFF732B9704770478A
:102D500070477047F8B5016804460868CA684B694F
:102D600010F00F0F4FF0000559D003F0010602F4E8
:102D70009077374365D0C10705D0D10503D5216CC5
:102D800041F001012164410705D5D90703D0216C29
:102D900041F002012164810705D5D90703D0216CD8
:102DA00041F004012164010707D502F020013143FD
:102DB00003D0216C41F008012164216C00293AD034
:102DC000800604D5900602D5204601F022FA20683C
:102DD0004069216CC0F38010090700D460B320461D
:102DE00001F0F0F920684069400621D520681430D0
:102DF00050E8001F21F0400140E80012002AF5D100
:102E0000A06BA8B16C490165A06BFEF781FE00289C
:102E100011D0A06B016D01B0BDE8F04008478306FA
:102E20000FD593060DD52046BDE8F84001F0F1B965
:102E30002046FFF78EFFF8BD2046FFF78AFF256486
:102E4000F8BD266B2023012E79D1C60677D5D6068C
:102E500075D50868486800904869400640D5A16B60
:102E6000086840680004000CEAD0A28D8242E7D9CD
:102E7000E085C869B0F5807F2DD020680C3050E81F
:102E8000001F21F4807140E80012002AF5D120686B
:102E9000143050E8001F21F0010140E80012002A20
:102EA000F5D12068143050E8001F21F0400140E8BF
:102EB0000012002AF5D184F83E30256320680C30DA
:102EC00050E8001F21F0100140E80012002AF5D15F
:102ED000A06BFEF7D4FDA08DE18D401A81B229E0F0
:102EE000A08DE18D401A81B2E08D0028A8D0002984
:102EF000A6D020680C3050E8002F22F4907240E8F1
:102F00000026002EF5D12068143050E8002F22F062
:102F1000010240E80026002EF5D184F83E302563FA
:102F200020680C3050E8002F22F0100240E8002307
:102F3000002BF5D12046FFF70BFFF8BDFFE7050694
:102F40002BD5150629D594F83D002128F5D1A06888
:102F5000B0F5805F01D12069B0B1206A411C2162C7
:102F6000216800784860E08C401E0004000CE0847A
:102F7000E3D12068C16821F08001C1602068C16888
:102F800041F04001C160D8E7206A0088C0F3080022
:102F90004860206A801C2062E5E74006CDD55006D7
:102FA000CBD5CA68204622F04002CA6084F83D3082
:102FB00000F09BF9C1E70000B541000870B50400BE
:102FC00004D094F83D00002510B106E0012070BD4A
:102FD00084F83C50204600F023F8242084F83D007B
:102FE0002068C16821F40051C160204601F072F9E7
:102FF0002068016921F4904101612068416921F054
:103000002A0141612068C16841F40051C160256412
:10301000202084F83D0084F83E00002070BD0000B0
:103020002DE9F04F87B0054614216846FDF706FBF1
:10303000A348A349DFF884821038D5F800C00222E3
:10304000032300244E0507154FF0080EC44574D124
:10305000D1F800C0A3464CF4801CC1F800C0096838
:1030600001F480110591016841F0040101600168DB
:1030700001F004010591016841F008010160006858
:10308000CDE9024300F008000590D002CDE900022E
:1030900090469A46F1466946CDF810E08948FEF719
:1030A00083FE0420CDE90008CDE9024A6946CDF847
:1030B00010908548FEF778FEDFF814828349404679
:1030C000C8F80010C0E90164C0E90347B1464FF4F5
:1030D0004036C8F820608915C8F81440C8E9064190
:1030E000C8F82440FEF7F6FD08B1FEF795F8784CD5
:1030F0007648C5F838806034A830C8F83850C4E93C
:1031000000094020A060C4E903B7C4F814B0C4F8B3
:1031100018B0C4E907B62046C4F824B0FEF7DAFDBB
:1031200008B1FEF779F86C63002205213520A5630C
:10313000FEF7D6FF35205CE0FFE7DFF898814FF01F
:103140000709C4455AD1D1F800C04CF4003CC1F87D
:1031500000C0096801F400310591016841F00101E6
:103160000160016801F001010591016841F0080169
:1031700001600068CDE9024300F00800CDE9049049
:10318000CDE900E290469A4669465348FEF70CFEA8
:103190002020CDE90008CDE9024A6946CDF810901B
:1031A0004948FEF701FEDFF82881484908F1C008C8
:1031B00078314046C8F80010C0E90164C0E903470F
:1031C000C8F814404FF44031C8F81840C8E9074126
:1031D000C8F82440FEF77EFD08B1FEF71DF8C5F8DB
:1031E0003880002205212620C8F83850FEF778FFE5
:1031F0002620FEF767FF07B0BDE8F08FDFF8DC8020
:10320000C445F8D1D1F800C04CF4802CC1F800C0FE
:10321000096801F480210591016841F00201016013
:103220000068694600F0020005904FF440608DE8A8
:103230001500CDE903392A48FEF7B6FD2349DFF82A
:10324000A48018314046C8F80010C0E90164C0E904
:1032500003474FF4003AC8F820A08915C8F8144075
:10326000C8E90641B946C8F82440FEF733FD08B165
:10327000FDF7D2FF1B4F1548C5F83880603748303E
:10328000C8F83850E7E802064020A7E811021548C0
:1032900047F814496030BC61C7E9074A7C62FEF711
:1032A00019FD08B1FDF7B8FF6F6300220521272043
:1032B000BD63FEF715FF27209BE70000005000408C
:1032C0004038024000080240000C024010600240FA
:1032D000180900200044004000000240004800405F
:1032E00000040240380A002070477047FEE70000E3
:1032F00070B50D4C0025C4F8B4520C48016821F09B
:1033000040410160016841F080410160C4F8BC5255
:10331000022004F52D7402F0C9F80120206002207B
:1033200002F0C4F8256070BD0080404200040240F5
:1033300070B50D4C0025C4F8B4520C48016821F05A
:1033400040410160016841F0804101600126C4F8FC
:10335000BC62022004F52D7402F0A8F82660022059
:1033600002F0A4F8256070BD0080404200040240D5
:103370002DE9F047814616480024016821F04041BC
:10338000016001680160134E254627464FF0010891
:10339000C6F8B472022002F089F8C6F8B48260065A
:1033A000040ED6F83C0208B1641CE4B2012002F01D
:1033B0007DF86D1CEDB2082DEAD3B9F1000F04D0F1
:1033C000FFF796FF2046BDE8F087FFF7B1FFF9E76A
:1033D00000040240008040422DE9F04106461448B6
:1033E000016821F040410160016841F080410160C5
:1033F000104C0027C4F8B4723D464FF00108F009A4
:10340000C4F8BC027006060E022002F04FF8C4F8A1
:10341000B482022002F04AF8C4F8B472022002F02A
:1034200045F86D1CEDB2082DE9D3BDE8F081000030
:10343000000402400080404270B50D48016821F050
:1034400040410160016841F080410160094C012068
:10345000C4F8BC02C4F8B402042004F52D7402F0D0
:1034600025F80025A560042002F020F8256070BD35
:1034700000040240008040420E4810B5016821F06F
:1034800040410160016841F0804101600A4C002028
:10349000C4F8B402C4F8BC02042004F52D7402F090
:1034A00005F801202060A060BDE81040042001F074
:1034B000FDBF0000000402400080404270B5124889
:1034C0000024016821F040410160016801600F4D56
:1034D0000126C5F8BC62304601F0E8FFC5F8B462C9
:1034E000012001F0E3FF07E0641CE4B2FA2C03D9E9
:1034F000FFF7C2FF012070BDD5F83C020028F3D1D0
:10350000C5F8B40270BD00000004024000804042D3
:10351000074A084992F8240048700B78984203D073
:1035200020B1012382F82530087070470023F9E7A5
:10353000CC000020CC04002070B50546FFF77CFFCE
:103540000F4C20784006000EFFF746FFFFF7B6FF4E
:103550002846FFF741FFFFF7B1FFFFF76DFF207827
:10356000012101EB4000C0B2FFF736FFFFF7A6FFD5
:103570000020FFF7FDFE0446FFF77EFF204670BDEA
:10358000D4040020104810B50E49016003214160A9
:1035900000214FF400228160C0E903124FF4401271
:1035A00042610176012242768176C17601774277C7
:1035B000FEF7F3F8002803D0BDE81040FDF72CBE5D
:1035C00010BD0000006400402C070020104810B51A
:1035D0000E4901600321416000214FF40022816007
:1035E000C0E903124FF44012426101760122427693
:1035F0008176C17601774277FEF7CFF8002803D0B5
:10360000BDE81040FDF708BE10BD00000068004096
:1036100054070020194808B5016841F40011016001
:103620000068002200F40010009005210B20FEF736
:1036300057FD0B20FEF746FD002205210C20FEF76A
:103640004FFD0C20FEF73EFD002205210E20FEF767
:1036500047FD0E20FEF736FD002205211020FEF763
:103660003FFD1020FEF72EFD002205212F20FEF742
:1036700037FDBDE808402F20FEF724BD303802405A
:1036800010B5C6B01C2237496846FCF783FF0021FD
:10369000684603F043F9344C32491C2220601C3147
:1036A00007A8FCF777FF002107A803F037F92D4999
:1036B00060601C2238310EA8FCF76CFF00210EA8B8
:1036C00003F02CF92749A0601C22543115A8FCF7FF
:1036D00061FF002115A803F021F92249E0601C22B6
:1036E00070311CA8FCF756FF00211CA803F016F946
:1036F0001C4920611C228C3123A8FCF74BFF0021C0
:1037000023A803F00BF9174960611C22A8312AA8ED
:10371000FCF740FF00212AA803F000F91149A0613D
:103720001C22C43131A8FCF735FF002131A803F079
:10373000F5F80C49E0611C22E03138A8FCF72AFFBB
:10374000002138A803F0EAF8064920621C22FC3167
:103750003FA8FCF71FFF00213FA803F0DFF86062DD
:1037600046B010BD109C0008000000202DE9F0417B
:1037700086B014216846FCF761FF2B4800240168DD
:1037800041F004010160016801F004010591016844
:1037900041F080010160016801F08001059101683C
:1037A00041F001010160016801F00101059101682A
:1037B00041F010010160016801F0100105910168FC
:1037C00041F002010160016801F002010591016808
:1037D00041F0080101600068012200F00800134F69
:1037E0005503059029463846FEF7D6FBDFF84080A2
:1037F0004FF42046012231464046FEF7CDFB0095AE
:103800000125CDE90154694638460394FEF7CCFA08
:103810000320CDE90240CDE9006569464046FEF748
:10382000C3FA06B0BDE8F08130380240000802401B
:103830000004024010B596B000240F941094119427
:10384000129413941C2168461494FCF7F7FE20216F
:1038500007A8FCF7F3FE2D482B49016040F28F6169
:10386000C0E9011440F2E731C0E903144461846106
:10387000FEF79EFF08B1FDF7CFFC4FF480500F908C
:103880000FA92248FFF716F808B1FDF7C5FC1F483D
:10389000FFF7C3F908B1FDF7BFFC139413A91B4848
:1038A0001494FEF73DFF08B1FDF7B6FC6020CDE9AA
:1038B000000402940394049405940022694613487A
:1038C0000694FFF744F908B1FDF7A6FC0422694607
:1038D0000E48FFF73CF908B1FDF79EFC07940894E9
:1038E00009944FF400500A94CDE90B4007A907480A
:1038F0000E94FEF7EBFE08B1FDF78EFC0348FFF7D0
:10390000FBF816B010BD0000000001407C0700204D
:103910000C4810B50A4901604FF4E13141600021C3
:1039200081600C22C160C0E904128161C161FFF7AE
:1039300045FB002803D0BDE81040FDF76DBC10BD6D
:10394000005000404C0800200C4810B50A490160A6
:103950000B494160002181600C22C160C0E9041262
:103960008161C161FFF72AFB002803D0BDE8104048
:10397000FDF752BC10BD000000440040900800203C
:10398000A08601000C4810B50A4901604FF4E131EE
:103990004160002181600C22C160C0E90412816194
:1039A000C161FFF70BFB002803D0BDE81040FDF715
:1039B00033BC10BD00480040D4080020FEE7B5EE3F
:1039C000C00AF1EE10FA01DAB1EE400A70470028A1
:1039D00001DA404200B27047FEE730EE600AF0EED6
:1039E000000A80ED000AB4EEC10AF1EE10FA02DB23
:1039F00001EE600A0AE0F0EE401AB1EE412AF4EE60
:103A0000C21AF1EE10FA03D801EE200A80ED000A86
:103A10007047000010B5FDF7BBF90249002088632C
:103A200010BD00000000014070B58EB006460025B4
:103A300002468DF800500121684600F06DFF00F04D
:103A40007FFE32460121042001F026FA044600F0F0
:103A500077FE84B90C208DF8020002208DF8030057
:103A600001208DF805508DF8040001463246684665
:103A700001F01CFB04460EB0204670BD70B58EB040
:103A80000124064602468DF800402146684600F0B3
:103A900043FF00F055FE32460221042001F0FCF9FC
:103AA000054600F04DFE95B90C208DF8020000206F
:103AB0008DF8060002208DF803008DF807408DF880
:103AC000044032460121684601F0F0FA05460EB086
:103AD000284670BD70B51E4CFDF7A0FB00F092F8B3
:103AE0001C49087100F08EF81B4D012805D0286F85
:103AF0009FED1A0A80ED000A70BD174EE07A683615
:103B0000012813D1E07B88B9607B01280AD1A86F16
:103B1000DFED130A90ED000A30EE200A80ED000A76
:103B200000206073D5F8941030468847607A0128E9
:103B3000E2D1A07B0028DFD1286F9FED0A0A80ED3B
:103B4000000A3046D5F88C10BDE8704008470000E8
:103B5000604E0020200300205002002000000000E2
:103B6000002410C70000FAC470B5224C00252DEDCA
:103B7000028B00BF05EB850000EBC50004EB80065F
:103B8000304671698847B06802F0F2FE6D1C042D62
:103B9000F0DB00209FED188AF2EE040AB1EE040A71
:103BA00000EB800101EBC00104EB8101401C8A683D
:103BB000032882ED0D8A8A68C2ED040A896881EDC6
:103BC000060AEDDB206F9FED0D0A80ED000AA06F65
:103BD00002F0CEFEA06FB0EE000A80ED040AA06FE6
:103BE0009FED070A80ED060AA06F80ED0D8ABDECFF
:103BF000028B70BD500200200080BB450000FAC45B
:103C0000000048420E4810B50068B0F86C10B0F8DB
:103C10004F0000EE101AF8EE400A00EE100AB8EE5F
:103C2000400A30EEC00ABDEEC00A10EE100A00B223
:103C3000FFF7CDFE0A2801DC002010BD012010BDD9
:103C40005C04002010B500F00FF8054A4FF4007135
:103C50000448FDF733F8024800210160416010BDBF
:103C6000A4000020744800202DE9F0412D4E2E487C
:103C700005F02FFA2C4D2D4CA86890ED0A0ABDEEE8
:103C8000C00A10EE100A0012207010EE100A6070C8
:103C900005F1340005F01DFAE86B05F1680790EDB9
:103CA0000A0ABDEEC00A10EE100A0012A07010EE53
:103CB000100AE070707A012801D1B07B20B11C4855
:103CC00090F8240001280ED1384605F002FA286F3A
:103CD00090ED0A0ABDEEC00A10EE100A0012207123
:103CE00010EE100A6071F07A012805D0B07B01282F
:103CF00002D0F07B012812D1D5F88C1038468847C5
:103D0000384605F09DF9A86F90ED0A0ABDEEC00A8D
:103D100010EE100A0012207110EE100A6071BDE85A
:103D2000F0810000604E002050020020A40000201E
:103D3000CC000020FCF7EEFF012002F0E3FDFBE7E2
:103D4000012002F0DFFDFBE7FDF7ACFA012002F0F5
:103D5000D9FDFBE7FCF796FD012002F0D3FDFBE760
:103D6000044C04486169884705F0BEF9012002F05F
:103D7000C9FDF6E75C040020054C00BF94F8240060
:103D800010B9216A02488847012002F0BBFDF5E71F
:103D9000CC000020064C2046E1688847A169044811
:103DA0008847FFF7B5FB012002F0ACFDF6E7000005
:103DB000CC000020FFF7D8FE074C00BF94F8240089
:103DC00028B9FFF787FEFCF793FDFFF73BFF0120C3
:103DD00002F098FDF2E70000CC000020012002F084
:103DE00091FDFBE7012002F08DFDFBE710B55020AF
:103DF00080F31188BFF34F8FBFF36F8F05F03AFE4A
:103E000018B104494FF080500860002080F31188F9
:103E100010BD000004ED00E030B593B030216846DD
:103E2000FCF70CFC14210CA8FCF708FC1D4800252D
:103E3000016841F080510160006800F080501190ED
:103E40001948016841F4804101600068022400F4CF
:103E5000804011900120039010200490009406945B
:103E60000820CDE90750A820CDE9090404200B90D3
:103E70006846FEF773FA08B172B6FEE70CA90F2088
:103E800081E831004FF4A0500F904FF48050109013
:103E900005210CA8FEF756F9002801D072B6FEE7FE
:103EA00013B030BD40380240007000400248016845
:103EB00041F470010160704788ED00E00148FEF7B1
:103EC00068BD0000F80A0020F0B50268254C264DB8
:103ED000264E274F274B4FF0804CA04209D060451B
:103EE00007D0A84205D0B04203D0B84201D09842D2
:103EF00004D122F0700E4A6842EA0E02A0421BD0A2
:103F0000604519D0A84217D0B04215D0B84213D09E
:103F1000984211D0184DA8420ED0184DA8420BD08F
:103F2000174DA84208D0174DA84205D0164DA842FB
:103F300002D0164DA84203D122F44075CA682A4324
:103F40004D6922F080022A4302608A68C2620A68D0
:103F50008262A04201D0984201D109690163012126
:103F60004161F0BD00000140000400400008004035
:103F7000000C0040000401400040014000440140AA
:103F80000048014000180040001C00400020004094
:103F900010B501F01F030121046A99408C430462AB
:103FA000016A9A401143016210BD10B5846842EA6B
:103FB000032224F47F440A432243826010BD8268B6
:103FC00022F070020A4342F007018160704700004E
:103FD000F0B5026A22F001020262036A4268846953
:103FE000124E24F073050C682C4323F002058B68F5
:103FF0002B430D4DA84201D0B04205D123F0080754
:10400000CB683B4323F00403A84201D0B04205D162
:104010004D6922F4407215438A692A4342608461E3
:10402000496841630362F0BD0000014000040140A3
:10403000F0B5026A22F010020262026A43688469E3
:104040000D6824F4E64444EA05248D6822F0200239
:1040500042EA05120F4D104EA84201D0B04206D1DF
:10406000CF6822F0800242EA071222F04002A84202
:1040700001D0B04207D14D6923F4406343EA850380
:104080008D6943EA85034360846149688163026204
:10409000F0BD00000000014000040140F0B5026ADC
:1040A00022F480720262026A4368C46922F40072D8
:1040B00024F073050C68124E2C438D6842EA0522E9
:1040C0000E4DA84201D0B04206D1CF6822F4006262
:1040D00042EA072222F48062A84201D0B04207D10E
:1040E0004D6923F4405343EA05138D6943EA0513F0
:1040F0004360C4614968C1630262F0BD00000140D1
:104100000004014030B5026A22F480520262046A5F
:104110004268C3690D6823F4E64343EA05238D68CA
:1041200024F4005444EA0534084DA84202D0084D56
:10413000A84204D14D6922F4804242EA85124260CD
:10414000C36149680164046230BD000000000140A1
:104150000004014010B5036A046A24F001040462FB
:10416000846924F0F00444EA021423F00A020A43AA
:104170008461026210BD10B5036A23F0100303626C
:104180008369046A23F4704343EA023224F0A003F3
:1041900043EA01118261016210BD000010B50448BC
:1041A000FCF7ABFFBDE810400148FEF7D3BD0000AF
:1041B0004C08002010B5806B0021C185C184FEF73A
:1041C000C8FD10BD01680C3151E8002F22F4907237
:1041D00041E80023002BF5D10168143151E8002F8C
:1041E00022F0010241E80023002BF5D1016B0129E7
:1041F00009D101680C3151E8002F22F0100241E88A
:104200000023002BF5D1202180F83E10002101630E
:10421000704708B590F83E10222901D0022008BD51
:1042200082684FF480539A4201D1016921B1816AB9
:104230009A421BD04AB10AE00268816A5268C2F30E
:1042400008020A80816A891C08E0026972B102686A
:10425000526802F07F020A70816A491C8162C18D36
:10426000491E0904090CC18503D019E0026852688F
:10427000F1E70168CA6822F02002CA600168CA68D2
:1042800022F48072CA6001684A6922F001024A6120
:10429000202180F83E10016B012903D0FFF724F89C
:1042A000002008BD0021016301680C3151E8002F96
:1042B00022F0100241E80023002BF5D101680A68C2
:1042C000D20602D50A6849680091818DFEF740FD4B
:1042D000E6E7000070B5044600680169E26821F471
:1042E0004051114301612169A068E2690843616995
:1042F000114308432168CA6849F20C639A43024398
:10430000CA6020684169A26921F44071114341618A
:1043100031492068884202D03049884202D1FDF7F5
:10432000DBFF01E0FDF7C8FFE269002319216425E6
:104330003226B2F5004F626828D0A0FB0101930F2E
:104340009200FCF76BF80146B0FBF5F06FF0180235
:10435000504301EB800006EB0010B0FBF5F000F0DD
:10436000F002B1FBF5F002EB0012B1FBF5F06FF0DB
:104370001803584301EB800006EB0010B0FBF5F08A
:1043800000F00F0021681044886070BDA0FB01019F
:1043900092185B41FCF742F80146B0FBF5F00201D0
:1043A000B1FBF5F06FF01803584301EB800006EB0A
:1043B000C000B0FBF5F000F0F80002EB4002B1FBEA
:1043C000F5F0584301EB800006EBC000B0FBF5F0C0
:1043D00000F00700D6E70000001001400014014083
:1043E00010B50448FCF789FEBDE810400148FEF70F
:1043F000B1BC0000900800200C4808B501680A68AC
:104400004A680092CA6842F01002CA6001684A69AC
:1044100042F040024A61122100910168044B806B16
:10442000A3F11802091DFCF7D7FC08BD9008002075
:104430002E4A002010B5054C0146204622699047BF
:1044400020466169BDE8104008470000CC0000200C
:1044500010B50448FCF751FEBDE810400148FEF7D6
:1044600079BC0000D40800200B4882B001680A68BB
:104470004A680092CA6842F01002CA6001684A693C
:1044800042F040024A610168806B4FF4AF73034A07
:10449000091D02B0FCF700BED4080020024D002028
:1044A00010B5054C01462046E26890472046216938
:1044B000BDE810400847000080030020704700005E
:1044C0000B4882B001680A684A680092CA6842F0E4
:1044D0001002CA6001684A6942F040024A610168FC
:1044E000806B4FF4AF73034A091D02B0FCF7D4BDD3
:1044F0004C080020A44B00207047000030B5244A2F
:10450000244D002412682860A0F5807005F1100386
:1045100001381BD0012826D0A0F58070FF3830D09C
:10452000022812D10868A8614868E8619889A2F851
:104530005F001889A2F84F005889A2F85100987BB3
:1045400002F8470FA2F875405C8530BD0868286105
:104550004968696142F8660F98889080D888D08051
:10456000A2F85640F0E70868686388882887998C25
:10457000A2F86E10D98C22F8551F5080A2F867401F
:10458000E2E70868286248686862C2F88800DBE7EA
:104590005C04002080040020FEE7000030B50C46DB
:1045A000050014D0022C12D90A48A11E0288284600
:1045B000FCF752FE2919C2B211F8023C9A4206D108
:1045C00011F8011CB1EB102F01D1012030BD0020EA
:1045D00030BD0000C004002030B50C4605000ED0F0
:1045E000022C0CD9601E81B2FF222846FCF74AFE3D
:1045F000291911F8011C814201D1012030BD002090
:1046000030BD0907090E002804DB00F1E02080F826
:104610000014704700F00F0000F1E02080F8141D36
:104620007047000001689FED0A1A098800EE101A11
:10463000C168B8EE400A81ED010A01680A880A8162
:10464000C16801F1080091EC020AFFF7C6B9000049
:104650000000804538B59FED1A0A04468DED000A2A
:1046600000689FED181A0189008800EE101AF8EE14
:10467000400A00EE100A6846B8EE400AFFF7ADF9AE
:104680002068DDED000A90ED030AB8EEC00A30EEB6
:10469000200ABDEEC00A80ED030A2068018801816E
:1046A000206890ED030A2069B8EEC00A80ED010A87
:1046B0002069D0ED000A30EEC00A80ED020A38BD54
:1046C000000000000000804510B504004FF0FF30EE
:1046D00030D0A16C00292DD0E16C00292AD0216DA9
:1046E000002927D0242020704FF40050A4F85A004D
:1046F0000320A4F85800607A20B10020E0722069FD
:1047000010B103E00120F9E70B482061204600F0DA
:10471000FFFB00280ED10948E061303020620820FC
:104720002075102060750720A0752046BDE8104058
:1047300000F072B810BD00004EA000084EC0000886
:104740007047F0B5044600231846557D11E0D66940
:1047500003EB4307F65D8E4209D1D06903EB4301B9
:104760000844018821808078A0700120F0BD5B1C86
:10477000DBB29D42EBD8F0BD2DE9F7434FF00005C9
:1047800014465FEA01094FF010064FF030082F463B
:1047900026D02CB3207D9DF80010884239D91346CD
:1047A000012269462F2000F033FC00281AD1E0894D
:1047B000102827D2C10701D0401EE081E28909EB11
:1047C0000701B24223460FD8404600F05BF8A17BB8
:1047D000CA19D7B201EB080202F0FF08294408E029
:1047E0004FF0FF30BDE8FE833246404600F04AF805
:1047F000A919CDB2C5F11001CEB20028F2D1002E18
:10480000DCD1EFE7234610224946302000F03AF889
:10481000E8E76FF00900E5E71FB50446002094F8CB
:104820005810890705D5204602F060F818B14FF0FE
:10483000FF3004B010BD28208DF800002246012171
:10484000684600F086F90028F3D1BDF80410A4F8FA
:104850005410EEE770B505460C46084602F046F8DF
:1048600068B965B1226D44F62060616890472346BF
:104870002946BDE870400122212000F003B84FF026
:10488000FF3070BD2DE9F05F824617468B461C460F
:104890000025184602F02AF8060037D1BBF1000FB8
:1048A00034D0E07A384480B28046FBF761FD81461F
:1048B000607A08B94AF0800A94F85700D4F848C0E2
:1048C000012863684246494650460DD0E047A07231
:1048D000226D142061689047A07AA0B16FF00106A4
:1048E0004846FBF774FD13E0E047A0724FF4E17017
:1048F000226D6168EFE7E17A09EB0500095C0BF8CE
:1049000005106D1CADB2BD42F5D3E9E74FF0FF369F
:104910003046BDE8F09F00002DE9F047044686B020
:1049200088469246104601F0E1FF002875D1002C20
:1049300073D09AF8577000266FF00709F6E000BFB1
:1049400006EB860000EBC60514F82500042801D20A
:10495000022807D1012F05D15146002000F026FB87
:10496000002870D114F825001D286DD2DFE800F072
:104970000F161D242B32404040474E565D646D7427
:104980007B82899097A59EACD2646464390004EB65
:1049900085005146801C00F0D8FDC1E004EB850085
:1049A0005146801C00F0A2FFBAE004EB850051469E
:1049B000801C00F06AFEB3E004EB85005146801CC9
:1049C00001F05BFAACE004EB85005146801C00F07E
:1049D00017FEA5E004EB85005146801C01F002F9AA
:1049E0009EE004EB85005146801C01F0EAFA97E056
:1049F00004EB85005146801C01F09EFA90E004EB28
:104A000085005146801C00F0D9FF89E004EB850049
:104A10005146801C01F061FB82E095E004EB8500CB
:104A20005146801C01F085FB7AE004EB850051467D
:104A3000801C00F02FFF73E004EB85005146801CC2
:104A400001F0A3FB6CE081E06CE004EB85005146D3
:104A5000801C01F0A1F963E004EB85005146801C45
:104A600001F025F85CE004EB85005146801C01F064
:104A700070F855E004EB85005146801C00F086FE7E
:104A80004EE004EB85005146801C00F053FE47E0E9
:104A900004EB85005146801C01F0B5FB40E004EBBF
:104AA00085005146801C01F02EFC39E004EB8500A6
:104AB0005146801C01F0E2FB32E004EB85005146D8
:104AC000801C01F067FC2BE0002004EB85050090C2
:104AD00001900290039004905246172104A8AD1C47
:104AE000FFF72FFEF0B19DF8110052466946FFF71F
:104AF00043FEF0B99DF812101DF8011001F00102FB
:104B00002A70C1F341026A70C1F38012EA70C909C8
:104B1000297109E004EB85005146801C00F079FE04
:104B200038B901E0484604E0761CF6B24645FFF489
:104B300007AF012F0AD1002808D106B05146BDE8C1
:104B4000F047012000F032BA4FF0FF3006B0BDE868
:104B5000F0872DE9F74F86B082468B46089801F022
:104B6000C5FE040078D1BAF1000F75D0089800276F
:104B70006FF0070690F8579050E10AEB0715287878
:104B8000042807D3B9F1010F04D10020089900F0DF
:104B90000DFA0446002C52D128780F2870D00FDC73
:104BA000072871D005DCE0B101282ED0022869D198
:104BB00046E008286DD0092877D00E28F7D179E093
:104BC000262873D006DC132871D01628FCD02028A4
:104BD000EDD10FE127286BD028286AD02D28E6D107
:104BE0000DE105F104080021089D009101910C20C0
:104BF0002B4606226946FFF745FE20B96946404626
:104C000000F093FC17E004460EE105F104080021D2
:104C1000089D0091019112202B4606226946FFF75C
:104C200031FE0028EFD16946404600F07EFC29465F
:104C3000404600F0C0FB2946404601F0F3F8D0E0C2
:104C400005F104080025089B00950195D87D2C46A8
:104C500018B16FF00D00D6E7E4E0082269460420A1
:104C6000FFF710FE0028CED169460B5D08F805302D
:104C7000641C6D1CEDB2E4B2082DF6D30446B0E01E
:104C80003DE001E089E004E0281D089901F0EEF91B
:104C900056E0002005F10408089D00900190029064
:104CA00003902A460821049089E045E04BE07BE030
:104CB0004EE09AE00020DDF8208000900190029004
:104CC0000390049042460E2104A82D1D00F012FC12
:104CD000002862D09DF8110042466946FFF74CFD5E
:104CE000002890D19DF812001DF8002002F0030268
:104CF0002A701DF80000C0F38000687071E0002089
:104D0000DDF82080009001900290039004904246CC
:104D10000F2104A82D1D00F0EDFBF0B39DF811004C
:104D200042466946FFF728FD002894D19DF81200FD
:104D30001DF80000287054E0281D089900F083FE3B
:104D4000040071D14DE0281D089900F090FFF7E7AD
:104D50000020DDF8208000900190029003900490E4
:104D60004246272104A82D1D00F0C4FBA8B19DF8E0
:104D7000110042466946FFF7FFFC0028B1D19DF8BB
:104D80001200401CC0B21DF80020C2F340122A706D
:104D90001DF80020C2F3801200E035E06A701DF8B3
:104DA0000000C009A8701CE0002005F10408089D5F
:104DB00000900190029003902A461321049004A8C9
:104DC00000F098FB00B39DF811002A466946FFF7F2
:104DD000D3FC002885D19DF812001DF8001088F83A
:104DE0000010B9F1010F11D016E0281D089900F04C
:104DF000ACFDA5E7281D089900F0CEFBA0E7281D13
:104E0000089900F06FFF9BE734460DE024B90120BC
:104E1000089900F0CBF804467F1CFFB25F45FFF411
:104E2000ACAE01E04FF0FF3409B02046BDE8F08F92
:104E300070B504460D46084601F058FD40B93CB136
:104E40002B462146BDE8704001220320FFF71ABD22
:104E50004FF0FF3070BD0000002188B101220A4BE5
:104E6000427269225A70094A8264094AC2645A1C11
:104E70004260084A02650822C2810022026101E004
:104E80004FF0FF3108467047D404002079920008A3
:104E90009D92000875920008F8B504460007060EBA
:104EA00000200D4617468DF8000013460122694682
:104EB0005820FFF7E7FC002821D1042D24D2200739
:104EC00044EA106035B1012D0AD0022D0CD0032D1B
:104ED0000FD115E09DF8001081438DF8001008E017
:104EE0009DF80000204302E09DF8000030438DF85B
:104EF00000003B4601226946582000F089F8F8BDC1
:104F00009DF800100843F2E76FF00B00F8BD0000B9
:104F10003EB50446164900208DF80000D1E9000195
:104F2000CDE90101204601F0E1FC00281BD120461B
:104F300000F0AFF9002816D1234601226946FFF799
:104F4000A1FC00280FD122789DF800108A420BD1D5
:104F5000102121730121E1750199C4F83510BDF8C4
:104F60000810A4F839103EBD21706FF002003EBD5C
:104F700048A000087CB504460020CDE900000E469C
:104F80001546104601F0B2FC68B964B16A46314674
:104F9000204602F09AF8002804D1DDE900012A46F3
:104FA00002F03AF97CBD4FF0FF307CBDF8B5064603
:104FB00000208DF800000D46084601F097FC040023
:104FC00023D12B46012269467C20FFF75BFC0400BD
:104FD0001BD19DF800002B4666F300008DF8000001
:104FE000012269467C2000F013F804462A6D4FF434
:104FF000FA706968904714B16FF00C0405E09DF8F1
:10500000000000F0010085F857002046F8BD0000C0
:105010002DE9F0470746914688461C46002518466C
:1050200001F064FC06003CD1B8F1000F39D0607A81
:1050300008B907F07F0794F85700012822D0E56CE3
:105040004A46414638466368A847A072226D14203C
:10505000616890477C2F18D01EE000BF7819D4F803
:105060004CC008EB0501C0B201226368E047A072A2
:10507000226D4FF4E17061689047A07A0028E9D171
:105080006D1CADB24D45E9D3E4E798F80000C007C8
:1050900000D0012084F85700A07A20B16FF00106FB
:1050A00001E04FF0FF363046BDE8F0872DE9F041D2
:1050B00004460F469046104601F018FC002873D1B4
:1050C000002C71D098F857600025D1E0012E05D151
:1050D00041460020FFF76AFF002874D105EB8500E8
:1050E00000EBC50014F820101D296DD2DFE801F097
:1050F0000F161D32242B404040474E555D646D74A1
:105100007B82899097A59EACB3646464390004EBFC
:1051100080004146801C02F061FAA2E004EB8000AE
:105120004146801C02F010FE9BE004EB80004146EB
:10513000801C02F05AFB94E004EB80004146801C86
:1051400002F0F0FA8DE004EB80004146801C03F091
:105150004BF886E004EB80004146801C03F0B1F977
:105160007FE004EB80004146801C03F0C1FA78E048
:1051700004EB80004146801C03F05AFA71E004EB16
:1051800080004146801C02F08DFE6AE004EB800046
:105190004146801C03F09BFB63E004EB800041462A
:1051A000801C03F031FC5CE06FE004EB80004146C2
:1051B000801C02F057FD54E004EB80004146801C47
:1051C00003F094FC4DE062E04DE004EB80004146CA
:1051D000801C03F06CF844E004EB80004146801C26
:1051E00002F0DEFE3DE004EB80004146801C02F050
:1051F00071FF36E004EB80004146801C02F055FC54
:105200002FE004EB80004146801C02F0A7FB28E061
:1052100004EB80004146801C03F0C6FC21E004EB57
:1052200080004146801C03F0FFFD1AE004EB800083
:105230004146801C03F013FD13E004EB800041465F
:10524000801C03F080FE0CE004EB80004146801CD3
:1052500003F0BBF805E004EB80004146801C02F03F
:10526000ADFC40B902E06FF0070004E06D1CEDB248
:10527000BD42FFF42BAF012E09D1002807D14146D2
:10528000BDE8F0410120FFF791BE4FF0FF30BDE8CF
:10529000F0817CB50546B6208DF8000000208DF821
:1052A0000400284601F022FB040020D12B460122F5
:1052B00069467E20FFF7ACFE04462A6D4FF4FA6083
:1052C00069689047012085F8570084B9687A38B931
:1052D0002B46012201A90020FFF7D4FA040006D1D1
:1052E000284600F006F8040001D1C5E91000204668
:1052F0007CBD38B5044600208DF80000204601F042
:10530000F5FAF0B9B4F85A00D8B1E089C10701D074
:10531000401EE08180B2022801D20220E0812046B6
:1053200004F05CFA00280BD121466846FFF792FA98
:105330009DF8001001F00101014301D16FF0080058
:1053400038BD4FF0FF3038BD08B50346012269462D
:105350001B20FFF797FA00280ED19DF80010C1F32B
:1053600082018DF80010002906D0012905D00229FC
:1053700006D0032900D1C01F08BD6FF0040008BD8E
:105380006FF0050008BD30B5002480B105788D426E
:1053900004D20170197A41F0010119720178914229
:1053A00007D90270187A40F00200187201E04FF03D
:1053B000FF34204630BDB1F85410828811FB02F151
:1053C0000288CB1701EBD351A2EB6121018070471A
:1053D0002DE9FC414FF0000805460C460B46CDF880
:1053E00000808DF804804746022269464B20FFF773
:1053F00049FA060032D1E9799DF8000042F21076B0
:1054000061F347008DF8000069789DF8010061F3B1
:10541000C7108DF80100A97861F386108DF801009E
:10542000E97861F383008DF80100297961F30100C7
:105430008DF80100214601A8FFF7FAFC9DF8041041
:1054400001F0040101430CD0226D304661689047A1
:105450007F1CFFB2142FEDD96FF00E063046BDE869
:10546000FC812346022269464B20FFF7D1FD064608
:105470004FF47A77226D384661689047002EEDD15F
:10548000687820B10120E075E8782076E6E784F8B6
:1054900017802346012205F108014D20FFF7B8FDD2
:1054A0000646226D384661689047D7E710B5044636
:1054B00001F0D0F94FEA000301F0CCF9C01AA04284
:1054C000FAD310BD10B50068016841F400210160F5
:1054D0000148FEF7AFFF10BD164A002010B5006866
:1054E000016821F4002101600148FEF7A3FF10BD0F
:1054F0002E4A0020F0B5044600231846957D11E0A1
:10550000166A03EB4307F65D8E4209D1106A03EB7E
:1055100043010844018821808078A0700120F0BDFB
:105520005B1CDBB29D42EBD8F0BD0B784A7843EAB6
:10553000022202808B78CA7843EA022242800A79EA
:10554000497942EA01218180704738B5044600203C
:1055500000900D46084601F0C9F9D0B9CCB12B46F0
:10556000022269464020FFF78DF9002810D19DF8EE
:105570000010CA09A270C1F3021161709DF80010F9
:1055800001F00F0121709DF8011001F00301E1709D
:1055900038BD4FF0FF3038BD30B585B0044600202F
:1055A0000D4600900190029003900A46049020213D
:1055B00004A8FFF79FFFF0B19DF811002A46694645
:1055C000FFF7DAF8010018D19DF812001DF800303D
:1055D00003F0010323701DF80030C3F34003637030
:1055E0001DF80030C3F38003A3701DF80000C0F362
:1055F000C000E07001E06FF0070105B0084630BD63
:10560000F0B585B0044600200D4600900190029050
:1056100003900A460490042104A8FFF792F870B39F
:105620009DF811002A466946FFF7A6F8010029D126
:105630009DF812006A461DF80030401CC0B21DF8EB
:105640000060401C3702C6B23B43C3F30C0020800D
:10565000C3F34030A080C3F38030E080D80B2081BA
:10566000905D761CF3B2D25C40EA0220C0F30A02DD
:105670006280C0F3C320608185F8250002E0FFE767
:105680006FF0070105B00846F0BD38B504460D4679
:10569000084601F02BF9E8BBE4B32B46012269462A
:1056A0006B20FFF7EFF8002840D19DF800002B4653
:1056B000C0F34011217000200090022269464B2067
:1056C000FFF7E0F8F8B99DF800004108E1719DF896
:1056D0000100C10961709DF80100C0F38011A17043
:1056E0009DF80100C0F38101E1709DF8010000F018
:1056F00003012171607840B92B46012204F10801B1
:105700004D20FFF7BFF8002810D101222B46694633
:10571000442000E00BE0FFF7B5F8002806D19DF823
:1057200000100A09A27101F00F01617138BD4FF03C
:10573000FF3038BD30B585B0054600200C460090DE
:105740000190029003900A460490122104A8FEF7EB
:10575000F8FFC0B19DF8110022466946FFF70CF82A
:1057600000280ED19DF812101DF80130491CC9B255
:105770001DF8011043EA0123C3F34301298084F893
:10578000311005B030BD6FF00700FAE7F0B585B015
:10579000044600200D4600900190029003900A46B6
:1057A0000490112104A8FEF7CCFF68B39DF8110006
:1057B0002A466946FEF7E0FF010027D19DF8120056
:1057C0006A461DF80030401CC0B21DF80060401C45
:1057D0003702C6B23B43C3F345002080C3F3C11078
:1057E0006080C3F3432323811DF80600761CF6B2C4
:1057F000925D40EA022000F03F02A280C0F38710D1
:10580000E08085F8303001E06FF0070105B0084610
:10581000F0BDF0B585B0054600200E460090019021
:10582000029003900A460490182104A8FEF789FF0D
:1058300058B39DF8110032466946FEF79DFF0200FD
:1058400025D19DF812006B461DF80010401CC0B217
:105850001DF80040401C41EA0421C1F34301C0B2DD
:1058600029800024195C401CC0B21F5C401C41EA26
:10587000072105EB4407641CE4B2C0B27980072C11
:10588000F0D3287886F8340001E06FF0070205B005
:105890001046F0BD30B585B0054600200C4600909E
:1058A0000190029003900A4604900C2104A8FEF790
:1058B00048FFC0B19DF8110022466946FEF75CFF23
:1058C00000280ED19DF812101DF80130491CC9B2F4
:1058D0001DF8011043EA0123C3F34301298084F832
:1058E0002B1005B030BD6FF00700FAE738B504465D
:1058F000002000900D46084600F0F8FF10BB0CB3E6
:105900002B46022269464220FEF7BCFF002818D130
:105910009DF80010CA09A270C1F380126271C1F330
:10592000011161709DF8001001F00F0121709DF8C8
:105930000110C1F3C001E1709DF8011001F00701F1
:10594000217138BD4FF0FF3038BD30B587B0044607
:1059500000200190009002900390069091F858006A
:105960000D4680060DD50B46012204A91E20FEF728
:1059700089FF002803D19DF8101018E0218007B09E
:1059800030BD0A46282106A8FFF7B4FD98B19DF85E
:1059900019002A466946FEF7EFFE0028EFD19DF870
:1059A0001A301DF8031001F07F010DF803104A06AC
:1059B000E4D58039E2E76FF00700E0E770B586B024
:1059C000044600200D4600900190029003900A4684
:1059D0000490092104A8FEF7B4FE70B39DF81100ED
:1059E0002A466946FEF7C8FE030029D19DF8120039
:1059F00069461DF80020401CC0B21DF80050401C34
:105A000042EA0522C0B2C2F30A0222801DF8002039
:105A1000401CC0B21DF80050401C2E02C5B23243DB
:105A2000C2F30A006080485D6D1CEAB2895C40EAFE
:105A30000120C0F30A00A08002E0FFE76FF0070337
:105A400006B0184670BD30B585B0044600200D463E
:105A500000900190029003900A460490092104A846
:105A6000FFF748FDF0B19DF811002A466946FEF7A0
:105A700083FE010018D19DF812001DF8003003F0DC
:105A8000010323701DF80030C3F3400363701DF859
:105A90000030C3F38003A3701DF80000C0F3C20000
:105AA000E07001E06FF0070105B0084630BD70B549
:105AB00086B0044600200D460090019002900390AD
:105AC0000A4604900F2104A8FEF73BFED8B39DF8C8
:105AD00011002A466946FEF74FFE010036D19DF8B7
