:020000040800F2
:10000000B0510020310300081F340008312E0008D1
:100010001D3400082D0D00084D3B000800000000B5
:100020000000000000000000000000007102000855
:10003000A513000800000000CD02000809370008E1
:100040004B0300084B0300084B0300084B03000858
:100050004B0300084B0300084B0300084B03000848
:100060004B0300084B0300084B0300084B03000838
:100070004B0300084B0300084B0300084B03000828
:10008000C51000084B0300084B0300084B03000891
:10009000310D00084B0300084B0300084B03000818
:1000A0004B0300084B0300084B0300084B030008F8
:1000B000D93700084B0300084B0300084B03000826
:1000C0004B0300084B0300084B0300084B030008D8
:1000D0004B0300084B030008D93A00084B03000803
:1000E0004B0300084B0300084B0300084B030008B8
:1000F0004B0300084B0300084B0300084B030008A8
:100100004B0300084B0300084B0300084B03000897
:100110004B0300084B0300084B0300084B03000887
:100120004B0300084B0300084B0300084B03000877
:100130004B0300084B0300084B0300084B03000867
:10014000C90D00084B0300084B0300084B030008CF
:100150004B0300084B0300084B0300084B03000847
:100160004B0300084B0300084B0300084B03000837
:100170004B0300084B0300084B030008000000007D
:100180004B0300084B03000800F002F800F060F891
:100190000AA090E8000C82448344AAF10107DA45E2
:1001A00001D100F055F8AFF2090EBAE80F0013F0D4
:1001B000010F18BFFB1A43F00103184784CB00005E
:1001C000A4CB00000A444FF0000C10F8013B13F0E0
:1001D000070408BF10F8014B1D1108BF10F8015BA0
:1001E000641E05D010F8016B641E01F8016BF9D193
:1001F00013F0080F1EBF10F8014BAD1C0C1B09D1EA
:100200006D1E58BF01F801CBFAD505E014F8016B5B
:1002100001F8016B6D1EF9D59142D6D370470000ED
:100220000023002400250026103A28BF78C1FBD8FF
:10023000520728BF30C148BF0B6070471FB50AF096
:10024000A6FB9DE8030000F0FBF91FBD10B510BD33
:1002500000F062FA1146FFF7F1FF06F06DFD00F0C5
:1002600080FA03B4FFF7F2FF03BC00F0B1FA00001C
:100270002C4B19680868B0E8F04F80F30988BFF389
:100280006F8F4FF0000080F311887047000000006E
:1002900008480068006880F308884FF0000080F389
:1002A000148862B661B6BFF34F8FBFF36F8F00DF64
:1002B00000BF00BF08ED00E0DFF80C00016841F46A
:1002C00070010160704700BF88ED00E0EFF3098026
:1002D000BFF36F8F134B1A681EF0100F08BF20ED8D
:1002E000108A20E9F04F106009B44FF0500080F3FD
:1002F0001188BFF34F8FBFF36F8F09F045FB4FF0AD
:10030000000080F3118809BC19680868B0E8F04F54
:100310001EF0100F08BFB0EC108A80F30988BFF3FD
:100320006F8F704730000020EFF3058070470000AA
:100330000948804709480047FEE7FEE7FEE7FEE779
:10034000FEE7FEE7FEE7FEE7FEE7FEE704480549B5
:10035000054A064B70470000C937000889010008AC
:10036000B04B0020B0510020B04D0020B04D002017
:1003700070B5064600F048F9056806F10B0020F05C
:100380000704B4429CBF002070BD2B466A68BAB116
:100390001068A04210D304F1080188423CBF5068A5
:1003A000586007D35168101941601168091B01603A
:1003B00058601460101D70BD13465268002AE7D1C2
:1003C0002146284600F028F90028DED170BD70B51E
:1003D0000446051F00F018F90068002C14BF44689B
:1003E00070BD002C18BFAC423CBF20466468F8D3F7
:1003F00001680A18AA4218BF456003D12A68054659
:100400001144016028684119A1421CBF6C6070BD95
:100410006168696021680844286070BD53EA020C75
:1004200000F069802DE9F04B4FF00006002B1FBF54
:10043000B3FA83F503FA05F424FA05F65E4012BF19
:100440001643B2FA82F502FA05F4C5F120051EBF83
:1004500022FA05FC44EA0C04203556EA044C4FEA23
:10046000144418BF641C4FF000084FF0000990427C
:1004700071EB030C39D3002919BFB1FA81F701FAE6
:1004800007F6B0FA80F700FA07F6C7F120071EBF9B
:1004900020FA07FC46EA0C062037B6FBF4FCA7EB73
:1004A0000507103F07F01F0BCBF120060CFA0BFBE2
:1004B0002CFA06F644BFB3460026202FA4BF5E46A2
:1004C0004FF0000B5BEA060C08BF4FF0010B19EB75
:1004D0000B09ABFB027C48EB0608C01B06FB02CCF9
:1004E0000BFB03CC71EB0C01C1E70B460246414606
:1004F0004846BDE8F08B13B54FF000004FF0000107
:10050000AFF30080BDE81C40704710B5203AC0F042
:100510000B80B1E81850203AA0E81850B1E8185004
:10052000A0E81850BFF4F5AF5FEA027C24BFB1E841
:100530001850A0E8185044BF18C918C0BDE81040B2
:100540005FEA827C24BF51F8043B40F8043B08BFBB
:100550007047D20728BF31F8023B48BF11F8012B82
:1005600028BF20F8023B48BF00F8012B70474FF02E
:1005700000020429C0F0128010F0030C00F01B8070
:10058000CCF1040CBCF1020F18BF00F8012BA8BF7E
:1005900020F8022BA1EB0C0100F00DB85FEAC17C42
:1005A00024BF00F8012B00F8012B48BF00F8012BF5
:1005B00070474FF0000200B5134694469646203926
:1005C00022BFA0E80C50A0E80C50B1F12001BFF40C
:1005D000F7AF090728BFA0E80C5048BF0CC05DF872
:1005E00004EB890028BF40F8042B08BF704748BFC0
:1005F00020F8022B11F0804F18BF00F8012B704734
:10060000704770477047000000487047584B002003
:10061000704770477047704738B504460A46002057
:100620006946AFF30080002808BF38BD0246009934
:10063000204600F04FF8012038BD012000F064B8DA
:10064000F8B5AFF30080054600200C46102000BF2F
:100650000646A819A0420DD9324669460020AFF3DC
:100660000080070008BF00F04FF80098A04218BFB4
:100670000546C419FFF7C8FF05600746F01D20F0C6
:1006800007004619284600F00AF8B44208BFF8BD32
:10069000A21B31463868BDE8F84000F01BB80021C5
:1006A0000160C0E9011070471020704710B500F0DC
:1006B0000DF8006810BD10B5044600F007F804609E
:1006C00010BD000000487047504B002000487047A4
:1006D000504B0020034640688C46002818BF8842D3
:1006E0003CBF03464068F8D318681844884207D0D6
:1006F0000CF1030020F00700001D411A521A0146B8
:10070000081D0A60FFF763BE10B500F039F8BDE8B8
:10071000104000F02FB870477546FFF7D3FFAE4684
:1007200005006946534620F00700854618B020B5FD
:10073000FFF70CFEBDE820404FF000064FF0000729
:100740004FF000084FF0000B21F00701AC46ACE879
:10075000C009ACE8C009ACE8C009ACE8C0098D46E6
:10076000704710B50446AFF300802046BDE8104046
:10077000FFF777BD002801D000F02AB870470000CD
:1007800010B5012805D0002103A000F027F80120B2
:1007900010BD09A1F8E7000053494752544D454D9B
:1007A0003A204F7574206F662068656170206D6512
:1007B0006D6F7279000000003A2048656170206D0D
:1007C000656D6F727920636F727275707465640005
:1007D00001491820ABBEFEE72600020070B50546B1
:1007E0000C460A2000E06D1C00F011F835B12878A5
:1007F0000028F8D102E0641C00F009F814B1207858
:100800000028F8D1BDE870400A20AFF3008008B599
:1008100069468DF800000320ABBE08BD2DE9F0410C
:1008200016462DED0A8B0F468046B3F90030DDE900
:10083000131000EE103ADDE91152F8EEC00AFE4C3A
:10084000DDF840C0C4ED0E0ABCF9003000EE103AED
:10085000B8EEC00A84ED0F0AB5F90030032593FB0A
:10086000F5F31BB203EB430300EE103AB8EEC00AF7
:1008700084ED100AB2F9002000EE102AB8EEC01A7A
:1008800084ED111AB1F9001000EE101AB8EEC00A8A
:1008900084ED120AB0F9000021EE000A01EE900A80
:1008A000F8EEE11AC4ED131A20EE210AB5EEC00AE3
:1008B000F1EE10FA7DD0E14D297B9FEDE18AFDEE4E
:1008C000E00AB0EE480A10EE900A00B206F0ACF969
:1008D00084ED0E0AD4ED0F0A297BB0EE480AFDEE36
:1008E000E00A10EE900A00B206F09EF984ED0F0ABD
:1008F000D4ED100A297BB0EE480AFDEEE00A10EEB6
:10090000900A00B206F090F994ED0E1ADFEDCD0AD0
:1009100021EE201A20EE200A84ED0E1A94ED0F1A13
:1009200021EE201A84ED0F1A84ED100AD4ED110A7D
:10093000297BB0EE000AFDEEE00A10EE900A00B24C
:1009400006F086F984ED110AD4ED120A297BB0EE87
:10095000000AFDEEE00A10EE900A00B206F078F907
:1009600084ED120AD4ED130A297BB0EE000AFDEEE5
:10097000E00A10EE900A00B206F06AF9F0EE400AC2
:10098000C4ED130A94ED110A94ED121A20EE000A38
:1009900001EE010A00EEA00A06F030F984ED070A24
:1009A000D4ED110A60EE802AC4ED112AD4ED120AAA
:1009B00000E05CE160EE804AB0EE008AC4ED124ACD
:1009C000D4ED130A20EE803A84ED133A94ED040A34
:1009D000D4ED060AD4ED031A94ED051A20EE202A70
:1009E00001EEC12A22EE084A21EE802A84ED084A4F
:1009F00001EE202A22EE085A21EEA12A84ED095A9E
:100A000000EE402A01EE412A00EEA02A84ED0A2AD7
:100A100064EE823A43EE453A23EE043A02EEC23ADD
:100A200062EE852AC4ED0B3A44EEC42A84ED0C3AFA
:100A3000C4ED0D2A94ED142A94ED015A03EE852A93
:100A400084ED142A94ED154A03EE054A84ED154A07
:100A5000D4ED164A42EE854AC4ED164AD4ED0E5A3C
:100A600094ED005A45EE235A35EE822A84ED0E2A83
:100A7000D4ED0F3A45EE033A33EE843A20EE424A83
:100A800084ED0F3AD4ED103A01EE434A61EE835AF9
:100A900045EE223AB0EE615A73EEA42A61EE824A24
:100AA000C4ED102AC4ED171A41EE224A84ED180A4B
:100AB00000EEE24A84ED191AC4ED1A0AD4ED023AA6
:100AC00040EEC34A40EE625A04EE235AB0EE404A6A
:100AD00004EEA34A40EE825A84ED035A84ED044AA0
:100AE00061EEA21AF0EE414A45EEA34A40EE031A27
:100AF00025EE050AC4ED054A04EE040A41EE421A49
:100B000004EEA40A41EEA30AC4ED060A00EEA00A10
:100B100006F074F884ED070AD4ED030A20EE80BADB
:100B200084ED03BAD4ED040A60EE808AC4ED048A31
:100B3000D4ED050A20EE809A84ED059AD4ED060ADC
:100B400060EE809A2BEE0B0AC4ED069A08EEE80AD6
:100B500009EE490A09EEA90A10EE100A09F0A6FEEC
:100B600029EE080A6BEE080A41EC1A0B20EE290A5E
:100B700000EEA80A10EE100A09F098FE41EC100BE6
:100B8000B0EE4A1AF0EE6A1A03F026FB9FED2EBB78
:100B900051EC100B53EC1B2B09F0C8FB09F03AF990
:100BA000386094ED040AD4ED060A94ED051A20EE9F
:100BB000080A20EE200AD4ED030A60EE880A00EE4F
:100BC000C10A10EE100A09F071FE41EC100B02F0A0
:100BD000E7FF9FED1F1B51EC100B53EC112B09F09D
:100BE000A5FB09F017F9C8F8000094ED03CAD4ED8D
:100BF000048AD4ED05AA2CEE0C0A94ED06AA08EEA0
:100C0000A80A0AEEEA0A0AEE4A0A10EE100A09F0E9
:100C10004DFE28EEAA0A41EC190B0CEE0A0A20EE52
:100C2000080A10EE100A09F041FE41EC100BB0EE7C
:100C3000491AF0EE691A0FE02C020020E84A002061
:100C40000000FA44728A8E3C0000006066A64C40A8
:100C50000000006066A64CC003F0BEFA53EC1B2BEC
:100C600051EC100B09F062FB09F0D4F83060002061
:100C7000BDEC0A8BBDE8F0812DE9FE4F1546DDE99C
:100C80000C9A0E4607460C221C466946104602F096
:100C900019FABDF80080BDF802C0BDF80430BDF8F7
:100CA0000620BDF80810BDF80A00A4F80080A9F8D5
:100CB00000C0AAF800303A8031802880BDE8FE8F5D
:100CC00038B5194804F0D0FB04F042F8164804F097
:100CD00003F8044604F03CF824BB01208DF8000022
:100CE0000146114A684604F04DFC04F031F80E4804
:100CF00002F0FCFB00208DF800000B4A0121684641
:100D000004F040FC04F024F8074802F0C5FB022080
:100D10008DF80000044A0121684604F033FC0446C3
:100D200004F016F8204638BDE84A0020FEE700002F
:100D3000014800F0E6BC0000F004002070B5204C33
:100D4000A0F50072013A1AD0A0F50072023A1CD048
:100D5000A0F50072033A1BD0B0F5017F28D0194CE2
:100D6000A0F50072053A1BD0A0F50072063A26D114
:100D7000A26A2046183005469047E16A0EE02269D3
:100D80000F4890470E4861690FE00D48A26AF1E7ED
:100D90000B48226C303005469047616C284604E0D1
:100DA00022690848904707486169BDE870400847D4
:100DB0000348A26D483005469047E16DEEE770BDEF
:100DC000EC0000206C010020014800F09ABC0000FB
:100DD0001805002070B5174CA0F50072013A11D02B
:100DE000A0F50072023A14D0A0F50072033A18D0B0
:100DF000B0F5017F1DD104F14800A26D0546904772
:100E0000E16D0CE00B48226C303005469047616C78
:100E100005E00848A26A183005469047E16A28466E
:100E200004E022690348904702486169BDE87040C8
:100E3000084770BD9C010020002101604160816075
:100E4000C160016101224161C0E90612C0E90821C7
:100E50007047000000B595B06846FFF7EDFF6946A2
:100E60000C4800F053FB0AA8FFF7E6FF0AA90A485E
:100E700000F04CFB0221074800F0D2FA022106489C
:100E800000F0CEFA034800F079FE034800F076FE49
:100E900015B000BDF00400201805002070B5044610
:100EA000016000200821A060C4E90301115C23183F
:100EB000401C19760828F9DB0B4804F11805844218
:100EC00005D100232A462146084800F0BBFA06480F
:100ED0004430844207D12A462146BDE870400023B1
:100EE000034800F0AFBA70BDE8430020F0040020D2
:100EF0001805002010B51A4C606810B901F004F90B
:100F0000606001F001F96168401AB0F5FA7F14D30E
:100F1000144800240246046044604FF400711248F3
:100F2000FFF7BCFF114840F2FF1102460460446025
:100F3000BDE810400C48FFF7B1BF0E489FED0C0A0A
:100F4000416881ED000AC16981ED000A416B81EDC4
:100F5000000AC06C80ED000ABDE8104000F036B811
:100F60001C02002098000020E8430020A000002080
:100F700000000000EC00002070B5124E00252DEDA1
:100F8000048BB1EE088AB6EE009ADFED0F8A00BF3F
:100F900005EB450006EBC0042046E1688847606821
:100FA00005F0B6FF60686D1C042D80ED048A606852
:100FB000C0ED058A606880ED069AE9DBBDEC048B24
:100FC00070BD0000EC000020CDCC4C3E70B53A4C1A
:100FD00021686068B1F90210D0ED000A00EE101A25
:100FE000B8EEC00A30EEC00A08F062FA6068334D0D
:100FF00090ED0A0ABDEEC00A10EE100A0012287029
:1010000010EE100A6870A169E069B1F90210D0ED24
:10101000000A00EE101AB8EEC00A30EEC00A08F05E
:1010200047FAE06990ED0A0ABDEEC00A10EE100A18
:101030000012A87010EE100AE870216B606BB1F915
:101040000210D0ED000A00EE101AB8EEC00A30EE21
:10105000C00A08F02DFA606B90ED0A0ABDEEC00AD6
:1010600010EE100A0012287110EE100A6871A16CBF
:10107000E06CB1F90210D0ED000A00EE101AB8EEE3
:10108000C00A30EEC00A08F013FAE06C2A464FF4AA
:10109000007190ED0A0ABDEEC00A10EE100A0012AF
:1010A000A87110EE100AE8710548FFF7F7FE00205E
:1010B0002860686070BD0000EC00002098000020EF
:1010C000E8430020014800F0E7BD00005006002082
:1010D0002DE9F04F85680024099E802D18D0894D98
:1010E000C563894D456490F83450012D15D0012514
:1010F00080F8345090F83550012D10D0002180F840
:1011000034100224002180F834102046BDE8F08F0E
:101110004FF4807141650120F8E70220F6E70225CF
:1011200080F835500025456505682F6847F480270D
:101130002F6005682B6103685E608368402B03683D
:101140002AD099600168CA60714D704E704FDFF807
:10115000BC81DFF8B891DFF8B8A1DFF8B4B1EA14C8
:10116000DFF8A8E10168183630379302A9F1480981
:101170000AF1600A0BF1180BAEF1300E4FF0006C63
:1011800041452DD9A94205D0494503D0514501D04B
:10119000B14205D1202220E09A600268D160D3E7F5
:1011A00059451AD0714518D0594D7835A94214D0F7
:1011B000564D3035A94210D0B9420BD0534A183A97
:1011C000914207D0524A9032914203D04F4A48325E
:1011D000914201D11A4600E062464C494C392EE05A
:1011E000DFF82C8108F1A80841452AD9A94205D089
:1011F000494503D0514501D0B14201D120221CE024
:1012000059451AD0714518D0414D7835A94214D0AE
:101210003E4D3035A94210D0B9420BD03B4A183A66
:10122000914207D03A4A9032914203D0374A48322D
:10123000914201D11A4600E06246344950390A60B1
:101240005AE0DFF8CC8008F1480841452AD9A94284
:1012500005D0494503D0514501D0B14201D12022EA
:101260001CE059451AD0714518D0294D7835A9424E
:1012700014D0264D3035A94210D0B9420BD0234AA4
:10128000183A914207D0224A9032914203D01F4A25
:101290004832914201D11A4600E062461C49103999
:1012A000CA6029E0A94205D0494503D0514501D083
:1012B000B14201D120221CE059451AD0714518D005
:1012C000134D7835A94214D0104D3035A94210D0B5
:1012D000B9420BD00D4A183A914207D00C4A9032CD
:1012E000914203D0094A4832914201D11A4600E0A6
:1012F0006246074910398A6001680A6842F00102B3
:101300000A60FFE6455B00085D5B00085864024028
:101310001060024001681823CAB2103AB2FBF3F21F
:10132000054B6FF30901032A9B5CC36500D9091DB6
:10133000816508467047000068AA000810B501469C
:1013400000208B698A6A4FF0C07453B1B3F5005F17
:1013500015D072B1012A0CD0022A0AD0032A09D171
:1013600004E01AB1012A06D0022A03D1C96AC901D0
:1013700000D5012010BDC96AA142FAD010BD002AD3
:10138000F7D0012AF2D0022AF3D0032AF3D010BDFD
:1013900001680A68D20604D5C968C90601D508F0F3
:1013A00009B97047704772B6FEE7000010B5124CDD
:1013B0002DED028B2046E1688847606805F0A8FDA6
:1013C00060689FED0E8AB6EE000A80ED0D8A80ED12
:1013D000040A6068B0EE040A80ED060A616A04F14E
:1013E00018008847E06905F093FDE06980ED0D8AFB
:1013F000BDEC028B10BD00006C0100200060EA46CD
:1014000010B5054A40F2FF110448FFF747FD0248B6
:1014100000210160416010BDA0000020E8430020D1
:1014200090F82020012A07D0022A05D0416A41F411
:101430008021416201207047006842690A4342618D
:1014400000207047F0B590F820500468A468012D82
:1014500005D0022D03D0416A41F4802153E014F0FD
:10146000406F01D1E5004BD5C4F30164022C03D9D0
:10147000416A41F4000146E00125A5401D608D68E8
:101480004FF4C0739DB1CE6835434E6845EAC6053A
:10149000066803EB0417F5514FF4C275076805EBB6
:1014A00004150E697E51097D012905D009E00E88D9
:1014B000CD6845EA4655EBE701684E5946F480761B
:1014C0004E511179D2F805504FF4C67641EA052500
:1014D000016806EB04168D511178D2F801204FF403
:1014E000C47541EA0221026805EB041551510068F8
:1014F00003EB0411425842F0010242500020F0BDBB
:10150000416A41F4001141620120F0BD10B590F82C
:101510002020012A07D0022A05D0416A41F4802107
:101520004162012010BD3B48D0F8002242F0010288
:10153000C0F80022D0F8002222F47C52C0F8002229
:10154000D0F800224B6A42EA0322C0F800220A7D4A
:1015500002F01F0301229A40D0F81C329343C0F8D6
:101560001C32CB69B3B9D0F80C329343C0F80C32BB
:101570008C894B6864F31F434C6900EBC404C4F8C6
:1015800040320C890B6864F31F434C6900EBC404C0
:10159000C4F84432CB69012B16D1D0F80C32134376
:1015A000C0F80C320C884B6864F31F434C6900EBA5
:1015B000C404C4F840320C89CB6864F31F434C69FF
:1015C00000EBC404C4F844328B69002BD0F8043219
:1015D0000ED01343C0F804320B69002BD0F814323C
:1015E00008D01343C0F81432096A012904D008E076
:1015F0009343EFE79343F5E7D0F81C121143C0F88B
:101600001C12D0F8001221F00101C0F800120020D5
:1016100010BD000000640040704730B590F82040D5
:10162000012C05D0022C03D0416A41F480215DE0F9
:101630000468002955D02469A40754D04FF4D87405
:10164000056804EB01142D5915F004059560056833
:101650002D594ED0ED08556005682C5904F0020450
:10166000D4604FF4DA74056804EB01142D5905F0C9
:101670000F05156105682D59C5F3072595610568A6
:101680002C59240C54614FF4DC72046802EB0112F3
:10169000A4581C700468A458240A5C700468A458F8
:1016A000240C9C700468A258120EDA704FF4DE729B
:1016B000046802EB0112A4581C710468A458240A9F
:1016C0005C710468A458240C9C710468A258120E22
:1016D000DA71006881B1016941F0200101610020E7
:1016E00030BDE468A8E7416A41F40011416201207D
:1016F00030BD6D0D1560AFE7C16841F02001C160DC
:10170000EDE72DE9F05F0546006800244669D0F852
:1017100004908768D0F80CB0D0F810A0D0F81880EA
:10172000F10748D0F90714D001218160B80703D52B
:10173000284600F050FA0CE0780702D54FF4006418
:1017400007E0380702D54FF4805402E0284600F045
:1017500041FAF80516D529684FF480708860B805FD
:1017600003D5284600F039FA0CE0780502D544F498
:10177000005407E0380502D544F4804402E02846CE
:1017800000F02AFAF80316D529684FF480308860F3
:10179000B80303D5284600F022FA0CE0780302D5FE
:1017A00044F4004407E0380302D544F4803402E0F6
:1017B000284600F013FA300707D55FEACB6004D55E
:1017C0002968102044F40074C86070074FF00807BF
:1017D00007D55FEA0B7004D52868C760284600F07B
:1017E00099F9B00706D52868C068800702D0284656
:1017F00000F092F9700607D55FEACA6004D529683F
:10180000102044F480640861B00607D55FEA0A70CE
:1018100004D528680761284600F0ACF9F00606D523
:1018200028680069800702D0284600F0A4F9B003B8
:1018300008D55FEAC96005D52968102048602846A8
:1018400000F09AF9F00307D55FEA097004D528681B
:101850004760284600F0C4F9300446D55FEA497075
:1018600040D5F00504D55FEAC87001D044F001040A
:10187000B00504D55FEA887001D544F00204700514
:1018800004D55FEA487001D544F00404300529D539
:1018900018F0700F26D008F07000402815D006DC34
:1018A000102809D020280AD0302816D10AE0502864
:1018B0000ED0602811D10EE044F008040DE044F091
:1018C00010040AE044F0200407E044F0400404E07F
:1018D00044F0800401E044F480742868816921F0B8
:1018E00070018161296804204860002C05D0686A75
:1018F000204368622846FFF78FFEBDE8F09F70B571
:10190000040003D094F8200010B104E0012070BD61
:10191000204600F081F82068016841F00101016073
:1019200000F0F2FB0546052604E000F0EDFB401B4D
:101930000A2811D820684068C007F6D020680168DE
:1019400021F00201016000F0DFFB05460BE000F032
:10195000DBFB401B0A2806D9606A40F40030606255
:1019600084F82060D2E7206840688007EFD4207EAA
:101970000128206801683DD021F080010160607E6F
:1019800001282068016838D021F040010160A07E64
:1019900001282068016833D021F020010160E07E39
:1019A0000128206801682ED041F010010160207FDD
:1019B00001282068016829D021F008010160607FBA
:1019C00001282068016824D021F004010160D4E9D5
:1019D00002010843D4E90412114308436168491E17
:1019E00008432168C86100206062012084F820005B
:1019F000002070BD41F08001C0E741F04001C5E723
:101A000041F02001CAE721F01001CFE741F00801C1
:101A1000D4E741F00401D9E7F0B587B004461421BA
:101A20006846FEF7C6FD364B3648DFF8D0E0196849
:101A3000D4F800C0334A03250226092710300024B9
:101A4000491CF44522D11960012907D1016841F0F0
:101A500000710160006800F000700590106840F0AF
:101A6000080010601068CDE9005600F00800CDE9CC
:101A7000047069462448CDE9024500F047FA002287
:101A80000521142000F0DEFB142032E0DFF87CE0BA
:101A9000F44530D1D0F800C04CF0806CC0F800C0E4
:101AA000D0F800C001290CF0806CCDF814C019608A
:101AB00007D1016841F000710160006800F000701A
:101AC0000590106840F002001060106802AB00F052
:101AD000020005906020CDE9000683E8B000694669
:101AE0000B4800F013FA00220521402000F0AAFB69
:101AF000402000F099FB07B0F0BD000000640040FA
:101B00001C00002030380240000C024000680040F9
:101B1000000402407047000070B504460068124996
:101B200088420DD1114B00211D46A3F11C02204615
:101B3000FFF773FD0D4829461C380068FFF7FEF8D3
:101B40000B49206888420ED1084B002144331D46C2
:101B5000A3F11C022046FFF760FD04482946283007
:101B60000068FFF737F970BD00640040244400208E
:101B700000680040704770477047000070B5044629
:101B800090F82000012804D0606A40F400206062D0
:101B900018E0022084F820002068016821F001018B
:101BA000016000F0B1FA05460EE000BF00F0ACFAAB
:101BB000401B0A2808D9606A40F4003060620520A2
:101BC00084F82000012070BD20684068C007EDD176
:101BD000606270BD704770477047704770477047CC
:101BE00070472DE9F0410446876D00F08DFA0646F6
:101BF00094F835000025022806D08020606584F81E
:101C000034500120BDE8F0812068016821F0160100
:101C100001602068416921F080014161206C08B9B0
:101C2000A06C20B12068016821F0080101602068E3
:101C3000016821F0010101600CE000F065FA801BF1
:101C4000052807D920206065032084F8350084F832
:101C50003450D7E720680068C007EED194F85C10D4
:101C60003F208840B860012084F8350084F8345063
:101C70000020C7E790F83510022903D08021416584
:101C800001207047052180F835100068016821F0B7
:101C900001010160002070472DE9F84304464FF030
:101CA0000009CDF8009063484FF41651A56D006807
:101CB000B0FBF1F72E6894F85C10082000FA01F1EF
:101CC00031420FD021680A6852070BD50A6822F00A
:101CD00004020A6094F85C108840A860606D40F0CF
:101CE0000100606594F85C104FF0010808FA01F0FB
:101CF000304208D021684969090604D5A860606DA2
:101D000040F00200606594F85C1004208840304286
:101D100008D021680968890704D5A860606D40F083
:101D20000400606594F85C1010208840304218D0A0
:101D300021680968090714D5A8602068016849036B
:101D400004D50068000308D5A16C07E00168C90547
:101D500003D4016821F008010160216C09B120461B
:101D6000884794F85C1020208840304231D02168A8
:101D70000968C9062DD5A86094F8350005282068A3
:101D8000016806D0490347D5006800031DD4616C83
:101D90001CE021F0160101602068416921F08001FA
:101DA0004161206C08B9A06C20B12068016821F065
:101DB0000801016094F85C103F208840A86084F816
:101DC000358084F83490216D1FE0E16B09B1204625
:101DD0008847606D00282BD0606DC00714D00520A7
:101DE00084F835002068016821F001010160009845
:101DF000401C0090B84203D820680068C007F6D1A4
:101E000084F8358084F83490E16C002910D001B05A
:101E10002046BDE8F04308470168C905D5D40168EC
:101E200021F01001016084F8358084F83490CCE70B
:101E3000BDE8F8832C0000202DE9F041044600F0B5
:101E400063F906465CB1022084F83500002584F869
:101E500034502068016821F0010101600DE001208B
:101E6000BDE8F08100F050F9801B052805D920203D
:101E70006065032084F83500F2E720680068C00739
:101E8000F0D12268116820480140D4E901031843C9
:101E9000D4E903363343184363691843A3691843ED
:101EA000E3691843236A18430843616A042903D18C
:101EB000D4E90B1319430843106020684069666A2F
:101EC00020F0070130460E43012704280CD1A06AF8
:101ED0000643E06A40B12046FFF730FA20B14020C7
:101EE000606584F83570BAE7206846612046FFF7E0
:101EF00011FA94F85C203F2191408160656584F877
:101F000035700020ACE700003F8010F02DE9F84F5D
:101F1000DFF8BCA1002201250AF1040B03264FF0D3
:101F20000F090BF1040E00BF0B6805FA02F4234001
:101F3000A34270D10F7907F00307012F01D0022FC0
:101F400016D187684FEA420806FA08FC27EA0C0710
:101F5000D1F80CC00CFA08FC4CEA070CC0F808C019
:101F60004768A7430C79C4F3001494403C43446091
:101F70000C79E443A4070AD0C4684FEA420C06FA7D
:101F80000CF7BC438F6807FA0CF72743C7600C793E
:101F900004F00304022C12D1D40800EB840CDCF80A
:101FA00020405707FF0E09FA07F824EA0804D1F881
:101FB000108008FA07F848EA0408CCF82080046882
:101FC0004FEA420C06FA0CF7BC430F7907F00307FF
:101FD00007FA0CF7274307604C6814F4403F70D0B1
:101FE0003C4C276847F480472760246822F00307A9
:101FF00004F480440094384C07EB040CDCF80848E7
:1020000097074FEA177809FA08F7BC43334FB842ED
:1020100002D1002724E054E0314FB84201D101271A
:102020001EE0304FB84201D1022719E02E4FB842CE
:1020300001D1032714E02D4FB84201D104270FE04E
:102040002B4FB84201D105270AE02A4FB84201D1EF
:10205000062705E0284FB84201D1072700E00827EE
:1020600007FA08F72743CCF80878DAF80040574613
:10207000D1F804C09C435FEACC3C00D51C433C60D3
:10208000DBF800405F46D1F804C09C435FEA8C3C1B
:1020900000D51C433C60DEF800407746D1F804C010
:1020A0009C435FEACC2C00D51C433C60084F0C37A6
:1020B0003C68D1F804C09C435FEA8C2C00D51C43DB
:1020C0003C60521C102AFFF42FAFBDE8F88F0000CF
:1020D000003C014044380240003001400000024012
:1020E0000004024000080240000C024000100240C0
:1020F0000014024000180240001C02400AB1816135
:1021000070470904FBE70000014880687047000041
:102110002000002009480168094A12781144016032
:102120004FF08041496A006800EB4002C2EBC010EA
:1021300001EBC00003490860704700002800002040
:1021400020000020B00000200B4810B5016841F4C9
:1021500000710160016841F480610160016841F42F
:1021600080710160032000F08DF80F2000F006F868
:1021700000F03EF8002010BD003C024010B50146C2
:1021800088B000221C2000F05DF81C2000F04CF804
:1021900014480024016841F001010160006805A9AC
:1021A00000F001000690684600F018F900F036F9DA
:1021B0000D494000B0FBF1F10C484FF08042491E40
:1021C000026040F2E732C0E90324C0E9011400F0E4
:1021D0002FFB10B1012008B010BD044800F056FBE1
:1021E000F9E700004038024040420F00B0060020EE
:1021F0000C4882B0016841F480410160006800F43D
:10220000804000900748001F016841F08051016044
:102210000068002200F0805000900F21901E02B054
:1022200000F010B844380240002809DB00F01F021B
:10223000012191404009800000F1E020C0F8001128
:1022400070470000F0B40E4B1B680C46C3F302232A
:10225000C3F10705042D00D90425191D072901D252
:10226000002300E0DB1E012606FA05F1491E21408D
:1022700099409E40761E16403143F0BC01F07FBC71
:102280000CED00E0064900F0070208684FF6FF0376
:10229000184040EA0220034A1043086070470000DB
:1022A0000CED00E00000FA052DE9F0470E460500B0
:1022B00065D0DFF81481D8F80000F7B200F007000D
:1022C000B04207D288F80070D8F8000000F007008C
:1022D000B04254D128683D4C810712D5400703D540
:1022E000206840F4E05020602878000703D520687B
:1022F00040F4604020602068A96820F0F0000843A6
:1023000020602878C0072DD0304968680839012836
:1023100012D0022813D0032811D009688907002998
:102320002DDA216821F0030101432160FFF7ECFE63
:10233000814641F2883A0EE009688903EFE70968AF
:102340008901ECE7FFF7E0FEA0EB0901514502D956
:102350000320BDE8F0872068696800F00C00B0EB4E
:10236000810FEFD1D8F80010404601F00701B142CB
:1023700007D90770006800F00700B04201D00120C3
:10238000E7E72878400705D52068E96820F4E050A1
:10239000084320602878000706D52068296920F4C2
:1023A000604040EAC100206000F058F82168084A07
:1023B000C1F30311515CC840064908600648006833
:1023C000FFF7DCFE0020C4E7003C02400838024072
:1023D00070AA00082C000020240000200F220260B8
:1023E0000C4A136803F003034360136803F0F0031F
:1023F0008360136803F4E053C36012684FF4E05342
:1024000003EAD20202610448006800F00700086095
:102410007047000008380240003C0240044805496B
:1024200000680968044AC1F38221515CC8407047C2
:102430002C0000200838024080AA00080448054902
:1024400000680968044AC1F34231515CC8407047D2
:102450002C0000200838024080AA0008154810B55A
:10246000006810F00C02144813D01449042A0FD04D
:10247000082A0ED10F4C241F2268236802F03F0265
:102480005B0207D52068C0F38810A0FB010106E0BD
:10249000084610BD2168C1F38811A1FB000100238B
:1024A000FDF7BCFF2168C1F30141491C4900B0FBA5
:1024B000F1F010BD083802400024F40040787D019E
:1024C0002DE9F84F04006ED02078DFF84C93C00758
:1024D000A9F104054AD009F104000168C1F38101A2
:1024E000012908D00068C0F3810002280AD1D9F878
:1024F0000000400206D52868800337D560680028B0
:10250000E1D033E06068B0F5803F10D0B0F5A02F87
:10251000286810D020F480302860286820F48020BB
:1025200028606068A8B1FFF7EFFD06460DE0286857
:1025300040F48030F4E740F480202860F7E700BFE3
:10254000FFF7E2FD801B642873D828688003F7D565
:102550000CE0FFF7D9FD064605E000BFFFF7D4FD0C
:10256000801B6428F0D828688003F7D42078DFF82F
:10257000AC8280074FF0000A3ED5A748001D0168D5
:1025800011F00C0F08D00068C0F3810002280BD1B5
:10259000D9F80000400207D42868800716D5E06803
:1025A000012800D112E033E1E068B8B10120C8F899
:1025B0000000FFF7A9FD064605E000BFFFF7A4FDF8
:1025C000801B0228C0D828688007F7D528682169B1
:1025D00020F0F80040EAC10028600DE0C8F800A033
:1025E000FFF792FD064604E0FFF78EFD801B0228F0
:1025F0001FD828688007F7D42078000722D5864F97
:1026000087486169703771B101210160FFF77CFD76
:10261000064604E0FFF778FD801B022809D83868D9
:102620008007F7D50EE0C0F800A0FFF76DFD064665
:1026300005E082E0FFF768FD801B02287DD838683E
:102640008007F7D42078400768D5DFF8CCB10027A1
:102650000BF13C0BDBF80000C0000BD4DBF80010E2
:1026600041F08051CBF80010DBF80000012700F0AA
:10267000805000906B4E3068C00510D4306840F434
:1026800080703060FFF740FD009005E0FFF73CFDF3
:102690000099401A022850D83068C005F6D55E4E21
:1026A000A0686C3601280FD00528306810D020F0C3
:1026B00001003060306820F004003060A068B8B1DC
:1026C000FFF722FD00900FE0306840F00100F4E7D2
:1026D00040F004003060F7E7FFF716FD0099411A5B
:1026E00041F28830814266D830688007F4D50EE028
:1026F000FFF70AFD009007E0FFF706FD0099411A79
:1027000041F28830814256D830688007F4D42FB126
:10271000DBF8001021F08051CBF80010A069C8B39D
:102720003D49091D0968C1F3810102294AD00228E7
:10273000504607D0C8F8600000E03CE0FFF7E4FC3A
:1027400004463BE04746C8F86000FFF7DDFC06465C
:1027500005E000BFFFF7D8FC801B02282BD82868B3
:102760008001F7D4D4E907010843A16A2E4A490839
:1027700002EB0141626A41EA8211084394F82C108D
:1027800040EA0161C9F8001001203866FFF7BCFC7F
:10279000044606E03EE000BFFFF7B6FC001B02283F
:1027A00009D828688001F7D534E000BFFFF7ACFCFA
:1027B000001B022802D90320BDE8F88F2868800199
:1027C000F4D427E00128F7D0D9F80000E26900F43A
:1027D000800191421CD1226A00F03F01914217D141
:1027E00047F6C071626A0140B1EB821F10D1A26A44
:1027F0004FF0FF3300F4403103EB5202B1EB024FD4
:1028000006D194F82C1000F07060B0EB016F01D08D
:102810000120D1E70020CFE7043802400000474202
:10282000800E4742007000400000FFFF7047704775
:1028300010B5040003D094F83D0010B107E001206A
:1028400010BD002084F83C00204600F01EF8022055
:1028500084F83D00211D206800F0C4FF012084F8A9
:10286000460084F83E0084F83F0084F8400084F875
:10287000410084F8420084F8430084F8440084F85E
:10288000450084F83D00002010BD704790F83D10D1
:10289000012901D001207047022180F83D10016814
:1028A000CA6842F00102CA6000681149884214D027
:1028B000B0F1804F11D00F4988420ED00E498842A6
:1028C0000BD00E49884208D00D49884205D00D49E9
:1028D000884202D00C49884204D1816801F0070186
:1028E000062903D0016841F0010101600020704712
:1028F000000001400004004000080040000C0040BF
:10290000000401400040014000180040704770B5CD
:102910000446006801694FF00005C943890715D4D2
:10292000C168C943890711D4E91E016101202077DC
:10293000206880698007204602D0FFF7E7FF04E0A7
:1029400000F098F8204600F096F825772068016995
:10295000C943490717D4C168C943490713D46FF065
:1029600004010161022020772068806910F4407F13
:10297000204602D0FFF7CAFF04E000F07BF82046B3
:1029800000F079F8257720680169C943090716D452
:10299000C168C943090712D46FF00801016104201E
:1029A00020772068C0698007204602D0FFF7AEFF7D
:1029B00004E000F05FF8204600F05DF8257720681D
:1029C0000169C943C90617D4C168C943C90613D4EC
:1029D0006FF010010161082020772068C06910F4B1
:1029E000407F204602D0FFF791FF04E000F042F85C
:1029F000204600F040F8257720680169C943C907DF
:102A000008D1C168C943C90704D1891E01612046A4
:102A100000F032F820680169C943090609D4C16889
:102A2000C943090605D46FF0800101612046FFF714
:102A3000FDFE20680169C943490609D4C168C9433C
:102A4000490605D46FF040010161204600F01BF8F3
:102A500020680169C94389060BD4C168C943890646
:102A600007D46FF0200101612046BDE87040FFF7F8
:102A7000DEBE70BD704770470068B0F1804F01D175
:102A8000FFF748BB7047704770477047F8B501685B
:102A900004460868CA684B6910F00F0F4FF0000534
:102AA00059D003F0010602F49077374365D0C1078F
:102AB00005D0D10503D5216C41F001012164410706
:102AC00005D5D90703D0216C41F0020121648107AB
:102AD00005D5D90703D0216C41F004012164010719
:102AE00007D502F02001314303D0216C41F00801E9
:102AF0002164216C00293AD0800604D5900602D5C5
:102B0000204600F002FF20684069216CC0F380106D
:102B1000090700D460B3204600F0D0FE2068406969
:102B2000400621D52068143050E8001F21F04001F4
:102B300040E80012002AF5D1A06BA8B16C490165EC
:102B4000A06BFFF797F8002811D0A06B016D01B0C2
:102B5000BDE8F040084783060FD593060DD5204603
:102B6000BDE8F84000F0D1BE2046FFF78EFFF8BD6B
:102B70002046FFF78AFF2564F8BD266B2023012E2F
:102B800079D1C60677D5D60675D50868486800900D
:102B90004869400640D5A16B086840680004000CF5
:102BA000EAD0A28D8242E7D9E085C869B0F5807F7E
:102BB0002DD020680C3050E8001F21F4807140E8CF
:102BC0000012002AF5D12068143050E8001F21F0CF
:102BD000010140E80012002AF5D12068143050E8C5
:102BE000001F21F0400140E80012002AF5D184F8CE
:102BF0003E30256320680C3050E8001F21F01001A2
:102C000040E80012002AF5D1A06BFEF7EAFFA08D84
:102C1000E18D401A81B229E0A08DE18D401A81B288
:102C2000E08D0028A8D00029A6D020680C3050E8FC
:102C3000002F22F4907240E80026002EF5D1206883
:102C4000143050E8002F22F0010240E80026002E48
:102C5000F5D184F83E30256320680C3050E8002F11
:102C600022F0100240E80023002BF5D12046FFF7A8
:102C70000BFFF8BDFFE705062BD5150629D594F8FF
:102C80003D002128F5D1A068B0F5805F01D1206911
:102C9000B0B1206A411C2162216800784860E08C54
:102CA000401E0004000CE084E3D12068C16821F0DC
:102CB0008001C1602068C16841F04001C160D8E76F
:102CC000206A0088C0F308004860206A801C2062E7
:102CD000E5E74006CDD55006CBD5CA68204622F0A0
:102CE0004002CA6084F83D3000F0A1F8C1E700005E
:102CF000AD38000870B5040004D094F83D000025FC
:102D000010B106E0012070BD84F83C50204600F070
:102D100023F8242084F83D002068C16821F4005184
:102D2000C160204600F052FE2068016921F4904104
:102D300001612068416921F02A0141612068C16870
:102D400041F40051C1602564202084F83D0084F8DE
:102D50003E00002070BD00002DE9F04186B006461F
:102D600014216846FDF725FC2A49306888424DD178
:102D700029480025016841F40031016000682649B6
:102D800000F4003010390590086840F00100086038
:102D9000086800F001000590086840F0080008602D
:102DA0000868022400F008000590082003274FF06F
:102DB00007088DE8B10169461848FFF7A7F82020F9
:102DC0008DE8B10169461648FFF7A0F8164C154882
:102DD00020604FF00060C4E901054014C4E90350CD
:102DE00065613804A561C4E9075020466562FFF7B4
:102DF00023F808B1FEF7D7FAB46300220521262094
:102E0000A663FFF71FFA2620FFF70EFA06B0BDE80B
:102E1000F0810000004400404038024000000240C1
:102E2000000C024088600240500600207047704746
:102E3000FEE7000070B50D4C0025C4F8B4520C48F4
:102E4000016821F040410160016841F0804101606A
:102E5000C4F8BC52022004F52D7402F067FE012074
:102E60002060022002F062FE256070BD00804042BA
:102E70000004024070B50D4C0025C4F8B4520C4853
:102E8000016821F040410160016841F0804101602A
:102E90000126C4F8BC62022004F52D7402F046FE3F
:102EA0002660022002F042FE256070BD0080404294
:102EB000000402402DE9F0478146164800240168CD
:102EC00021F04041016001680160134E254627460C
:102ED0004FF00108C6F8B472022002F027FEC6F8CF
:102EE000B4826006040ED6F83C0208B1641CE4B259
:102EF000012002F01BFE6D1CEDB2082DEAD3B9F1E2
:102F0000000F04D0FFF796FF2046BDE8F087FFF7DB
:102F1000B1FFF9E700040240008040422DE9F04192
:102F200006461448016821F040410160016841F003
:102F300080410160104C0027C4F8B4723D464FF048
:102F40000108F009C4F8BC027006060E022002F067
:102F5000EDFDC4F8B482022002F0E8FDC4F8B472BA
:102F6000022002F0E3FD6D1CEDB2082DE9D3BDE8AF
:102F7000F0810000000402400080404270B50D481E
:102F8000016821F040410160016841F08041016029
:102F9000094C0120C4F8BC02C4F8B402042004F5B2
:102FA0002D7402F0C3FD0025A560042002F0BEFDD3
:102FB000256070BD00040240008040420E4810B5FC
:102FC000016821F040410160016841F080410160E9
:102FD0000A4C0020C4F8B402C4F8BC02042004F572
:102FE0002D7402F0A3FD01202060A060BDE8104018
:102FF000042002F09BBD000000040240008040421B
:1030000070B512480024016821F040410160016858
:1030100001600F4D0126C5F8BC62304602F086FD06
:10302000C5F8B462012002F081FD07E0641CE4B23F
:10303000FA2C03D9FFF7C2FF012070BDD5F83C027E
:103040000028F3D1C5F8B40270BD000000040240AE
:1030500000804042064A0749107E48700B7898422B
:1030600002D018B101235376087070470023FAE7A5
:10307000D00000201C02002070B50546FFF77EFF3F
:103080000F4C20784006000EFFF748FFFFF7B8FF0F
:103090002846FFF743FFFFF7B3FFFFF76FFF2078E6
:1030A000012101EB4000C0B2FFF738FFFFF7A8FF96
:1030B0000020FFF7FFFE0446FFF780FF204670BDAB
:1030C000980200202DE9F04116460D460746FFF70D
:1030D00055FF134C20784006000EFFF71FFFFFF747
:1030E0008FFF3846FFF71AFFFFF78AFFFFF746FF0B
:1030F0002078012101EB4000C0B2FFF70FFFFFF77E
:103100007FFF002406E00120FFF7D4FE641C05F8D1
:10311000010BE4B2B442F6D3BDE8F041FFF74EBF75
:1031200098020020104810B50E490160032141604B
:1031300000214FF400228160C0E903124FF44012D5
:1031400042610176012242768176C176017742772B
:10315000FEF7D5FB002803D0BDE81040FEF723B9E9
:1031600010BD000000640040F0040020104810B5BD
:103170000E4901600321416000214FF4002281606B
:10318000C0E903124FF440124261017601224276F7
:103190008176C17601774277FEF7B1FB002803D034
:1031A000BDE81040FEF7FFB810BD00000068004009
:1031B00018050020094808B5016841F400110160B4
:1031C0000068002200F40010009005211020FFF795
:1031D00039F8BDE808401020FFF726B83038024023
:1031E00010B5B2B01C2227496846FDF78EF90021C0
:1031F000684603F063FE244C22491C2220601C31E7
:1032000007A8FDF782F9002107A803F057FE1D4922
:1032100060601C2238310EA8FDF777F900210EA856
:1032200003F04CFE1749A0601C22543115A8FDF78D
:103230006CF9002115A803F041FE1249E0601C2240
:1032400070311CA8FDF761F900211CA803F036FEBF
:103250000C4920611C228C3123A8FDF756F900216E
:1032600023A803F02BFE074960611C22A8312AA87D
:10327000FDF74BF900212AA803F020FEA06132B02F
:1032800010BD0000A4A90008000000202DE9F041B5
:1032900086B014216846FDF78CF9274800240168A0
:1032A00041F004010160016801F004010591016829
:1032B00041F080010160016801F080010591016821
:1032C00041F001010160016801F00101059101680F
:1032D00041F002010160016801F0020105910168FD
:1032E00041F0080101600068012200F00800134F5E
:1032F0005503059029463846FEF700FFDFF8408069
:103300004FF42046012231464046FEF7F7FE009575
:103310000125CDE90154694638460394FEF7F6FDD0
:103320000320CDE90240CDE9006569464046FEF73D
:10333000EDFD06B0BDE8F0813038024000080240E3
:10334000000402400C4810B50A4901600B49416075
:10335000002181600C22C160C0E904128161C16159
:10336000FFF7C8FC002803D0BDE81040FEF71BB8EB
:1033700010BD0000004400400C060020A0860100A3
:1033800070B5214941F69022204C8869A4F10805C6
:103390009FED1F1A0088101A00EE100A2068B8EE80
:1033A000C00A80ED020A096828680988083000EE22
:1033B000101AF8EE400A9FED170A00F051F8206845
:1033C00090ED020AB5EEC00AF1EE10FA01DCB1EEA2
:1033D000400A10EE101A104881420FDC296891ED66
:1033E000020AB5EEC00AF1EE10FA01DCB1EE400AB5
:1033F00010EE101A814201DC012070BD03F0BEFC0A
:10340000FDF7FEFF002070BD6C010020640100206C
:10341000000080450020004500004842FEE7FEE72E
:103420000A489FED090A0121006880ED000A08485A
:1034300041700170002181700648017006480170DA
:1034400006480170704700000080D44564010020E8
:103450001C02002026020020250200202402002059
:1034600030EE600AF0EE000A80ED000AB4EEC10A08
:10347000F1EE10FA02DB01EE600A0AE0F0EE401A0B
:10348000B1EE412AF4EEC21AF1EE10FA03D801EEC1
:10349000200A80ED000A704770B58EB00646002500
:1034A00002468DF800500121684601F03DFD01F013
:1034B0004FFC32460121042001F0F6FF044601F0E2
:1034C00047FC84B90C208DF8020002208DF803001F
:1034D00001208DF805508DF80400014632466846FB
:1034E00002F0ECF804460EB0204670BD70B58EB008
:1034F0000124064602468DF800402146684601F048
:1035000013FD01F025FC32460221042001F0CCFF1E
:10351000054601F01DFC95B90C208DF80200002035
:103520008DF8060002208DF803008DF807408DF815
:10353000044032460121684602F0C0F805460EB04C
:10354000284670BD012003F0ADFCFBE72DED028B9A
:1035500086B0FDF7B5FB264E9FED268AB51EAF1E41
:10356000DFED258AA5F10408A5F10609BC1F204B53
:10357000CDE900561B1F9A1E911E881EFDF77CFB8D
:10358000CDF800901A4BCDE903560A3B03F1140223
:10359000CDE90187111F081FFDF740F9B4F90400B8
:1035A000D4ED060A00EE100AB8EEC00A20EE080AB2
:1035B00000EEA80A84ED060ABDEEC00A10EE100A5D
:1035C000A080B4F90200D4ED070A00EE100AB8EEAC
:1035D000C00A20EE080A00EEA80A84ED070ABDEE34
:1035E000C00A10EE100A6080012003F05BFCBEE709
:1035F00006020020CDCC4C3ECDCC4C3FFDF7BCFCB0
:10360000FDF7D4FE03F098FA03F03CFB012003F031
:1036100049FCFBE70126104F104C4FF4A57800251C
:103620003968087A022804D0032804D001280CD075
:103630000EE026700AE0B1F91400404501DBA670E7
:1036400000E0A5702570667002E025706570A570B9
:10365000012003F027FCE3E7D00000202402002033
:10366000104C2046A168884701250F4E002761694C
:103670000C488847FFF7EEFC607E20B9FFF780FE1C
:1036800008B16576B570207E38B1FFF7C9FEFDF749
:1036900031FC012003F006FCE9E721690148884775
:1036A0007760F6E7D00000201C020020114D124C7C
:1036B00000264FF47A774FF4007828880E4A401C91
:1036C00000B290FBF7F107FB110028800112217076
:1036D000607040420112A170E0702171607141463A
:1036E0000648FDF7DBFB26606660012003F0DAFB8D
:1036F000E3E7000028020020A80000202C4400205E
:10370000012003F0CFFBFBE710B5502080F31188B8
:10371000BFF34F8FBFF36F8F06F0A8FA18B10449BB
:103720004FF080500860002080F3118810BD000029
:1037300004ED00E030B593B030216846FCF739FF66
:1037400014210CA8FCF735FF1D480025016841F045
:1037500080510160006800F08050119019480168A4
:1037600041F4804101600068022400F4804011901F
:103770000120039010200490009406940820CDE9C5
:103780000750A820CDE9090404200B906846FEF7F5
:1037900097FE08B172B6FEE70CA90F2081E8310050
:1037A0004FF4A0500F904FF48050109005210CA8BA
:1037B000FEF77AFD002801D072B6FEE713B030BDE7
:1037C00040380240007000400248016841F4700136
:1037D0000160704788ED00E00148FFF798B80000ED
:1037E000B0060020F0B50268254C264D264E274F26
:1037F000274B4FF0804CA04209D0604507D0A8422B
:1038000005D0B04203D0B84201D0984204D122F092
:10381000700E4A6842EA0E02A0421BD0604519D0E1
:10382000A84217D0B04215D0B84213D0984211D058
:10383000184DA8420ED0184DA8420BD0174DA842E3
:1038400008D0174DA84205D0164DA84202D0164DFB
:10385000A84203D122F44075CA682A434D6922F078
:1038600080022A4302608A68C2620A688262A042B9
:1038700001D0984201D10969016301214161F0BD84
:10388000000001400004004000080040000C00401F
:103890000004014000400140004401400048014054
:1038A00000180040001C00400020004010B5806B54
:1038B0000021C185C184FFF7E8F810BD01680C3113
:1038C00051E8002F22F4907241E80023002BF5D13B
:1038D0000168143151E8002F22F0010241E8002371
:1038E000002BF5D1016B012909D101680C3151E898
:1038F000002F22F0100241E80023002BF5D12021F7
:1039000080F83E1000210163704708B590F83E1022
:10391000222901D0022008BD82684FF480539A42C8
:1039200001D1016921B1816A9A421BD04AB10AE0F2
:103930000268816A5268C2F308020A80816A891C9F
:1039400008E0026972B10268526802F07F020A70F0
:10395000816A491C8162C18D491E0904090CC18517
:1039600003D019E002685268F1E70168CA6822F0E2
:103970002002CA600168CA6822F48072CA600168C5
:103980004A6922F001024A61202180F83E10016B51
:10399000012903D0FFF74AFA002008BD0021016386
:1039A00001680C3151E8002F22F0100241E8002399
:1039B000002BF5D101680A68D20602D50A68496869
:1039C0000091818DFFF760F8E6E7000070B50446CE
:1039D00000680169E26821F44051114301612169E5
:1039E000A068E26908436169114308432168CA6815
:1039F00049F20C639A430243CA6020684169A26994
:103A000021F440711143416131492068884202D05C
:103A10003049884202D1FEF711FD01E0FEF7FEFCBD
:103A2000E2690023192164253226B2F5004F62684D
:103A300028D0A0FB0101930F9200FCF7EFFC014698
:103A4000B0FBF5F06FF01802504301EB800006EB7D
:103A50000010B0FBF5F000F0F002B1FBF5F002EB66
:103A60000012B1FBF5F06FF01803584301EB800032
:103A700006EB0010B0FBF5F000F00F0021681044D9
:103A8000886070BDA0FB010192185B41FCF7C6FC89
:103A90000146B0FBF5F00201B1FBF5F06FF0180341
:103AA000584301EB800006EBC000B0FBF5F000F0DE
:103AB000F80002EB4002B1FBF5F0584301EB800047
:103AC00006EBC000B0FBF5F000F00700D6E7000001
:103AD000001001400014014010B50448FDF758FCE7
:103AE000BDE810400148FEF7D1BF00000C060020E1
:103AF0000C4808B501680A684A680092CA6842F032
:103B00001002CA6001684A6942F040024A6112210B
:103B100000910168044B806BA3F11802091DFDF7A9
:103B2000D7FA08BD0C060020EC44002010B5054C67
:103B300001462046E268904720462169BDE81040D2
:103B400008470000D000002070477047FEE703B42C
:103B500001984100009850EAC12018BF04204A0D86
:103B600018BF40F0010040F2FF72B2EB515F08BF96
:103B700040F00200012808BF052002B07047090785
:103B8000090E002804DB00F1E02080F800147047E3
:103B900000F00F0000F1E02080F8141D70470000D5
:103BA00070B5C1482DED020B2DED0E8B82B0119D2D
:103BB00025F000449FEDBEDB9FEDBFEB84423EDB72
:103BC000A4F140511098A1F17F6108430FD0BC4887
:103BD000844202DC28D1109830B39DED100B02B066
:103BE000BDEC0E8B02B0BDE8704001F039B89DED20
:103BF000100B53EC1D2B51EC100B06F097FB9DEDB9
:103C0000100B41EC180B53EC1E2B51EC100B06F073
:103C10008DFB53EC182B06F02FF941EC100B02B082
:103C2000BDEC0E8B02B070BD0120FCF744FD02B06C
:103C3000BDEC0E8B02B0BDE8704001F025B8A14884
:103C40009FEDA18B844256DA9DED100BB4F1795FA4
:103C50000ADA51EC100BFFF77AFF042808BF01F0D5
:103C600023F89DED100BDAE753EC102B51EC100B01
:103C700006F05CFB41EC190B95480621B0EE490AB1
:103C8000F0EE690A784400F0D7FE53EC192B51ECA2
:103C9000100B06F04BFB41EC1A0B8E48B0EE490AB4
:103CA000F0EE690A0421784400F0C6FE53EC192BAB
:103CB00051EC100B06F03AFB53EC182B06F0DCF835
:103CC00041EC100B51EC1A0B53EC102B06F07CF965
:103CD000CDE900019DED000B53EC102B9DED100B79
:103CE00051EC100B06F022FB9DED101B53EC112B39
:103CF00006F0C2F8D2E09DED100B51EC100B01F074
:103D000054FF53EC182B06F00FFC9FED730BCDE91D
:103D1000000153EC102B9DED000B51EC100B06F045
:103D200005FB41EC190B6E480621B0EE490AF0EE96
:103D3000690A784400F080FE53EC192B51EC100B0B
:103D400006F0F4FA41EC1B0B6648B0EE490AF0EEBF
:103D5000690A0421784400F06FFE53EC192B51ECF2
:103D6000100B06F0E3FA53EC182B06F085F841EC43
:103D70001C0B51EC190B05F0E6FB41EC180B5A48F3
:103D80009FED5BABA04222DC53EC1C2B51EC1B0BD8
:103D900006F01AF9CDE900019DED000B51EC180B6E
:103DA00053EC102B06F0C2FA53EC182B06F064F813
:103DB00053EC1A2B06F0BAFA53EC1D2B06F08CFCD0
:103DC00053EC1E2B06F0B0FB41EC100B5FE08DEDC9
:103DD000008B002000909DED000B51EC180B53EC74
:103DE000102B06F049F89DED000B41EC1E0B53EC37
:103DF000102B51EC100B06F099FA53EC192B06F02E
:103E000093FB53EC1E2B06F0DFF841EC190B53EC3F
:103E10001C2B51EC1B0B06F0D7F841EC1B0B53ECA1
:103E20001A2B51EC190B06F081FA53EC1D2B06F0FE
:103E30007BFB41EC190B53EC1A2B51EC180B06F0E1
:103E400075FA53EC1B2B06F071FA53EC192B06F0A4
:103E500043FC9DED000B41EC180B53EC1A2B51EC7D
:103E6000100B06F063FA9FED249B53EC192B06F020
:103E70005BFB41EC100B51EC180B53EC102B06F0D4
:103E80002BFC53EC192B06F04FFB41EC100B002DD3
:103E90003FF7C5AE51EC100B05F0B0FF41EC100B35
:103EA000BDE60000000000000000F03F0000000040
:103EB000075C143326A6913C182D4454FB21F93F8E
:103EC0000000F07F0000E03F000000000000F03F35
:103ED000508E00005E8E0000000000000000E03FF9
:103EE000A28D0000B08D00003333EF3F00000000D2
:103EF0000000000000000040182D4454FB21E93F61
:103F000070B59B482DED020B2DED068B079D25F01E
:103F10000044A04218DC9748844202DC0AD106988B
:103F200040B19DED060BBDEC068B02B0BDE87040C4
:103F300000F096BE002DCCBF9FED8F0B9FED900B38
:103F4000BDEC068B02B070BD8F48A04215DD8F48D6
:103F5000A042D8BF4FF0FF3458DD9DED060B51EC69
:103F6000100BFFF7F4FD042808BF00F09DFE9DED47
:103F7000060BBDEC068B02B070BD9DED060B51EC3F
:103F8000100B01F012FECDE9060181489FED828BF6
:103F9000A0423CDD8248A0421FDD00249FED82ABA1
:103FA0009DED060B53EC1A2B51EC100B05F064FF42
:103FB0009DED060B41EC190B53EC1A2B51EC100B39
:103FC00006F0B4F953EC182B06F086FB53EC192BD2
:103FD00005F0FAFFCDE9060149E09DED060B01244D
:103FE00053EC182B51EC100B05F046FF9DED060B22
:103FF00041EC190B53EC182B51EC100B06F06CFB39
:1040000053EC192B05F0E0FFCDE906012FE06848DD
:10401000A0421FDD02249FED689B9DED060B53EC33
:10402000192B51EC100B06F081F953EC182B05F00D
:1040300023FF9DED060B41EC180B53EC192B51ECB3
:10404000100B06F049FB53EC182B05F0BDFFCDE932
:1040500006010CE09DED060B032453EC102B9FEDA5
:10406000580B51EC100B05F0AFFFCDE906019DEDAB
:10407000060B53EC102B51EC100B06F057F941ECEA
:10408000180B53EC182B06F051F941EC190B4E4864
:104090000621B0EE490AF0EE690A784400F0CCFC43
:1040A00053EC182B51EC100B06F040F941EC180BB7
:1040B0004648B0EE490AF0EE690A0521784400F05E
:1040C000BBFC53EC192B51EC100B06F02FF941EC13
:1040D000100B51EC180B53EC102B002C0EDA05F0E2
:1040E000CBFE9DED061B53EC112B06F01FF99DED49
:1040F000061B53EC112B06F017FA35E005F0BCFE59
:104100009DED061B53EC112B06F010F941EC100B42
:104110002F48784400EBC40090ED001B51EC100BCD
:1041200053EC112B06F0D8FA9DED061B53EC112B26
:1041300006F0D2FA41EC100B2648784400EBC4009C
:1041400090ED001B51EC100B53EC112B06F0ECF929
:1041500041EC100B002DA2BFBDEC068B02B070BD70
:1041600051EC100B05F04AFE41EC100B01E700008A
:10417000000010440000F07F182D4454FB21F93F4B
:10418000182D4454FB21F9BF0000DC3F0000203E05
:104190000000F33F00000000000000000000F03FBE
:1041A0000000E63F000000000000000000000040AA
:1041B0000080034000000000000000000000F83F05
:1041C000000000000000F0BFF28A0000A88A000092
:1041D000328A0000EA89000070B56B4E2DED040BA9
:1041E0002DED028B82B0DDF81CC0DDE905235C42B9
:1041F0002CF000411C4341EAD474049D22F000409D
:10420000B44205D86C422C4340EAD474B4420BD972
:104210009DED061B9DED040B02B0BDEC028B04B0BE
:10422000BDE8704000F026BDACF14054A4F17F64BD
:104230001C430BD0022404EAAC7444EAD274054354
:104240009FED538B9FED542B07D015E09DED040B94
:1042500051EC100B00F038FD42E0002C11BF012C96
:104260009DED040B02B0BDEC028B04BF04B070BD29
:10427000022C38D0032C3BD00B439FED491B9FED04
:104280004A0B0AD0B14218D1B04209D121F0804185
:1042900020F08040079105900FE0002A15DA10E029
:1042A000434B7B44002C08BF93ED000B0DD0012C39
:1042B00010D0022C17D0032C1AD0B0421DD1002AE6
:1042C00003DAB0EE410AF0EE610A02B0BDEC028BF7
:1042D00004B070BD93ED000B51EC100B05F08EFD9A
:1042E00041EC100BF1E7B0EE480AF0EE680AECE79B
:1042F000B0EE420AF0EE620AE7E7401A00153C28E9
:10430000C8BF8DED000B19DCBCF1000FBEBF10F172
:104310003C0F9FED290B8DED000B0FDB9DED060B88
:1043200053EC102B9DED040B51EC100B05F04CFEE3
:1043300001F03BFC00F0C8FCCDE90001002C08BFF7
:104340009DED000BC1D0012C10D0022C9FED1C0B59
:1043500053EC102B9DED000B51EC100B0DD006F023
:10436000BBF953EC182B06F0B7F9B9E7019880F0C8
:10437000004001909DED000BA7E706F0ADF953EC6E
:10438000182B06F0D1F8ABE70000F07F000000002A
:10439000182D4454FB210940182D4454FB2109C019
:1043A000182D4454FB21F9BF182D4454FB21F93F2B
:1043B0004A8900000000000000000000000000002A
:1043C000075C143326A6A13C10B52F499FED2C1B8A
:1043D0002DED020B84B0059820F000408842D8BF34
:1043E0009DED040B2DDD2949884209D1049840B97F
:1043F0004FF00100FCF75FF900F046FC06B010BD7D
:1044000005DB9DED040B00F02BFC06B010BD6846EB
:104410009DED040B00F03CF810F0030004BF9DED8F
:10442000021B9DED000B0CD001280ED09DED021B50
:104430009DED000B022817D0012000F079FB06B09B
:1044400010BD00F041FA06B010BD9DED021B9DEDC0
:10445000000B012000F06CFB51EC100B05F0CEFCC2
:1044600006B041EC100B10BD00F02EFA51EC100B11
:1044700005F0C4FC06B041EC100B10BD00000000BC
:104480000000000000000000FB21E93F0000F07F79
:104490002DE9F14F04462DED020B2DED088B8AB06E
:1044A0009FEDE70B80ED020B139EE74826F00045D9
:1044B00085420ADC9DED120B002084ED000B0AB052
:1044C000BDEC088B03B0BDE8F08FE0489FEDE0AB9A
:1044D0009FEDE1BBA84247DDE14F9FEDE39B9FEDE0
:1044E000E48B9DED120B53EC1A2B51EC100B002EAC
:1044F0001CDD06F0F1F841EC100BBD4208D053EC86
:104500001B2B51EC100B06F0E7F8C4E900010BE09F
:1045100053EC192B51EC100B06F0DEF853EC182B72
:1045200006F0DAF8C4E900010120C8E705F0A4FCB0
:1045300041EC100BBD4208D053EC1B2B51EC100B7F
:1045400005F09AFCC4E900010BE053EC192B51EC87
:10455000100B05F091FC53EC182B05F08DFCC4E911
:1045600000014FF0FF30AAE7C348A84279DB9DED78
:10457000120B51EC100B01F018FB41EC180B9FEDE6
:10458000C00B53EC102B05F0D1FE9FEDBF1B53EC7D
:10459000112B05F071FC05F06FFE074605F09BFE40
:1045A00041EC190B53EC1A2B05F0C0FE53EC182B01
:1045B00005F0BAFF41EC180B53EC1B2B51EC190B17
:1045C00005F0B4FEDFF8C8A241EC100B4FEA155815
:1045D0000125FA4453EC102B51EC180B06F07CF833
:1045E000032DC4E900013DD0C1F30A5005EB45118C
:1045F000A8EB00001139814234DA0AEB051BB0EE5A
:1046000048AA9BED000BF0EE68AA53EC102B51EC7E
:10461000190B05F08BFE41EC1B0B51EC1A0B53EC04
:104620001B2B06F059F841EC180B51EC1A0B53EC0C
:10463000182B06F051F853EC1B2B06F04DF89BEDB0
:10464000020B41EC1A0B53EC102B51EC190B05F03B
:104650006DFE53EC1A2B06F03FF841EC100B6D1C6D
:10466000B8E70EE0002EA8BF3846BFF628AF94ED9D
:10467000000B51EC100B05F0C1FBC4E900017842BE
:104680001DE7C6F3130040F4801EC6F30A50A0F2E3
:10469000F530471100F01F05C5F12000DDF848B0E6
:1046A00008900020069007900520EC467949002DDF
:1046B00007EB0002794408BF51F8221009D051F8E5
:1046C000223001EB8201AB404A68089922FA01F1DD
:1046D0001943A1FB0E26A1FB0B131A449A4234BFC7
:1046E0000123002303EB06080CEB8003D3E901A6AA
:1046F0000E448E4234BF0121002192448A4411B1FC
:10470000924502D903E0924501D2012100E0002147
:10471000C3E901A641444CF82010011EA0F101009C
:10472000C4DC029800F10050850F0298DDE90367B0
:104730008000DDF8148005F0CEFD41EC1A0B304608
:1047400005F0E0FD9FED541B53EC112B05F0EEFD41
:1047500041EC1B0B384605F0D5FD9FED511B53EC8A
:10476000112B05F0E3FD41EC180B404605F0CAFDA6
:104770009FED4D1B53EC112B05F0D8FD41EC190BAF
:1047800051EC180B53EC192B05F076FB53EC1B2B5B
:1047900005F072FB53EC1A2B05F06EFBCDE9080116
:1047A000002008909DED080B53EC1A2B51EC100BD8
:1047B00005F092FF53EC1B2B05F08EFF53EC182BEA
:1047C00005F08AFF53EC192B05F0AEFE9FED381B68
:1047D00053EC112B05F0AAFD9FED370B41EC180BA4
:1047E00053EC102B9DED080B51EC100B05F09EFDCA
:1047F00053EC182B05F040FB9FED310B41EC180BEF
:1048000053EC102B9DED080B51EC100B05F08EFDB9
:1048100053EC182B05F030FB41EC100B139810F003
:10482000004F06D06D4251EC100B05F0E7FA41EC59
:10483000100B284684ED000B41E60000000000004C
:104840000000000000000000FB21E93F7CD902408D
:1048500000004054FB21F93F3163621A61B4D03D3E
:10486000FB21F93F000000000000601A61B4D03D58
:104870007370032E8A19A33BFB213941000000000D
:1048800083C8C96D305FE43F000000000000E03FD6
:104890002286000070850000000000000000103E2D
:1048A000000000000000103C000000000000103A72
:1048B000182D4454FB21F93D3326A611460B113C1B
:1048C00000000054FB21F93D10B52DED040B2DED3A
:1048D000088B82B0B0EE419AF0EE619A0B9820F00E
:1048E00000449FED4BABB4F1795F11DA9DED0A0BFB
:1048F00051EC100B05F0C0FC002801BFB0EE4A0AD5
:10490000F0EE6A0A02B0BDEC088B04BF04B010BD23
:104910009DED0A0B53EC102B51EC100B05F006FD2E
:1049200041EC180B3C480621B0EE480AF0EE680A4C
:10493000784400F081F853EC182B51EC100B05F083
:10494000F5FC9DED0A0B41EC1B0B53EC192B51ECC4
:10495000100B05F0EBFC41EC190B53EC1B2B51EC4D
:10496000180B05F0E3FC53EC192B05F0B5FE9FED99
:104970002C0B41EC190B53EC102B51EC180B05F0E0
:10498000D5FC41EC100B2848844210DA53EC192B6B
:1049900051EC100B05F0A0FE53EC1A2B05F0C4FDF2
:1049A00041EC100B02B0BDEC088B04B010BD1F48E9
:1049B000A042BCBF9FED1E1B8DED001B06DBA4F5C6
:1049C00000100190002000909DED001B51EC100B99
:1049D00053EC112B05F080FE9DED000B41EC180B04
:1049E00053EC102B51EC1A0B05F076FE41EC1A0B30
:1049F00053EC192B51EC180B05F06EFE53EC1A2BEF
:104A000005F092FD41EC100BCCE700000000000027
:104A1000000000000000F03F8C8200000000000059
:104A2000000000000000E03F3333D33F0000E93FC7
:104A3000000000000000D23F70B504462DED028B4F
:104A40004D1E00EBC500B0EE408AF0EE608A90ED9E
:104A5000000B35F0060017D053EC182B51EC100B5F
:104A600005F064FC41EC100B6D1E04EBC50090EDED
:104A7000001B51EC100B53EC112B05F0FDF941EC30
:104A8000100B35F00600E7D1022D36D0042D1CD0D6
:104A9000062D1CBFBDEC028B70BD53EC182B51ECE6
:104AA000100B05F043FC94ED0A1B53EC112B05F0A1
:104AB000E3F953EC182B05F039FC94ED081B53EC8B
:104AC000112B05F0D9F941EC100B53EC182B51ECDC
:104AD000100B05F02BFC94ED061B53EC112B05F08D
:104AE000CBF953EC182B05F021FC94ED040B53EC9F
:104AF000102B05F0C1F941EC100B53EC182B51ECC5
:104B0000100B05F013FC94ED021B53EC112B05F078
:104B1000B3F953EC182B05F009FC94ED001B53EC92
:104B2000112B05F0A9F9BDEC028B41EC100B70BD07
:104B300031B504462DED040B2DED0A8BB0EE41BAD4
:104B4000F0EE61BA0B989DED0A0B20F00040B0F139
:104B5000795F0DDA51EC100BFEF7F9FF042808BF5E
:104B600000F0A2F89DED0A0BBDEC0A8B05B030BD3C
:104B700053EC102B51EC100B05F0D8FB41EC180B4B
:104B80009DED0A0B53EC182B51EC100B05F0CEFBEE
:104B900041EC190B2C48B0EE480AF0EE680A0521EA
:104BA0007844FFF749FF9FED2ACBB0EE40AAF0EE24
:104BB00060AA9CB353EC1C2B51EC190B05F0B6FB0F
:104BC00041EC1C0B53EC1A2B51EC190B05F0AEFB0E
:104BD0009FED210B41EC190B53EC102B51EC1B0BEF
:104BE00005F0A4FB53EC192B05F076FD53EC182BC4
:104BF00005F09CFB53EC1B2B05F06EFD53EC1C2BBE
:104C000005F06AFD9DED0A1B53EC112B05F08CFCA1
:104C1000BDEC0A8B05B041EC100B30BDFFE753EC47
:104C20001A2B51EC180B05F081FB53EC1C2B05F0F3
:104C300023F953EC192B05F079FB9DED0A1B53EC7E
:104C4000112B05F019F9E3E71C81000000000000BA
:104C5000495555555555C5BF000000000000E03FBF
:104C600010B553EC102B51EC100B05F005F941EC8D
:104C7000100B10BD10B553EC112B51EC100B05F0BF
:104C8000FBF841EC100B10BD9FED050B10B553EC7C
:104C9000102B51EC100B05F097F941EC100B10BDE7
:104CA00000000000000000009FED050B10B553EC64
:104CB000102B51EC100B05F039FB41EC100B10BD23
:104CC000000000000000001010B541EC100BFFF7D1
:104CD00017F951EC100B10BD10B504004FF0FF3068
:104CE00030D0A16C00292DD0E16C00292AD0216D93
:104CF000002927D0242020704FF40050A4F85A0037
:104D00000320A4F85800607A20B10020E0722069E6
:104D100010B103E00120F9E70B482061204600F0C4
:104D2000FFFB00280ED10948E061303020620820E6
:104D30002075102060750720A0752046BDE8104042
:104D400000F072B810BD00008EAA00088ECA0008DC
:104D50007047F0B5044600231846557D11E0D6692A
:104D600003EB4307F65D8E4209D1D06903EB4301A3
:104D70000844018821808078A0700120F0BD5B1C70
:104D8000DBB29D42EBD8F0BD2DE9F7434FF00005B3
:104D900014465FEA01094FF010064FF030082F4625
:104DA00026D02CB3207D9DF80010884239D91346B7
:104DB000012269462F2000F033FC00281AD1E08937
:104DC000102827D2C10701D0401EE081E28909EBFB
:104DD0000701B24223460FD8404600F05BF8A17BA2
:104DE000CA19D7B201EB080202F0FF08294408E013
:104DF0004FF0FF30BDE8FE833246404600F04AF8EF
:104E0000A919CDB2C5F11001CEB20028F2D1002E01
:104E1000DCD1EFE7234610224946302000F03AF873
:104E2000E8E76FF00900E5E71FB50446002094F8B5
:104E30005810890705D5204602F028F818B14FF020
:104E4000FF3004B010BD28208DF80000224601215B
:104E5000684600F086F90028F3D1BDF80410A4F8E4
:104E60005410EEE770B505460C46084602F00EF801
:104E700068B965B1226D44F62060616890472346A9
:104E80002946BDE870400122212000F003B84FF010
:104E9000FF3070BD2DE9F05F824617468B461C46F9
:104EA0000025184601F0F2FF060037D1BBF1000FD4
:104EB00034D0E07A384480B28046FBF759FA814614
:104EC000607A08B94AF0800A94F85700D4F848C0CC
:104ED000012863684246494650460DD0E047A0721B
:104EE000226D142061689047A07AA0B16FF001068E
:104EF0004846FBF76CFA13E0E047A0724FF4E1700C
:104F0000226D6168EFE7E17A09EB0500095C0BF8B7
:104F100005106D1CADB2BD42F5D3E9E74FF0FF3689
:104F20003046BDE8F09F00002DE9F047044686B00A
:104F300088469246104601F0A9FF002875D1002C42
:104F400073D09AF8577000266FF00709F6E000BF9B
:104F500006EB860000EBC60514F82500042801D2F4
:104F6000022807D1012F05D15146002000F026FB71
:104F7000002870D114F825001D286DD2DFE800F05C
:104F80000F161D242B32404040474E565D646D7411
:104F90007B82899097A59EACD2646464390004EB4F
:104FA00085005146801C00F01CFEC1E004EB85002A
:104FB0005146801C00F0E6FFBAE004EB8500514644
:104FC000801C00F0AEFEB3E004EB85005146801C6F
:104FD00001F09FFAACE004EB85005146801C00F024
:104FE0005BFEA5E004EB85005146801C01F046F90C
:104FF0009EE004EB85005146801C01F02EFB97E0FB
:1050000004EB85005146801C01F0E2FA90E004EBCD
:1050100085005146801C01F01DF889E004EB8500F5
:105020005146801C01F0A5FB82E095E004EB850071
:105030005146801C01F0C9FB7AE004EB8500514623
:10504000801C00F073FF73E004EB85005146801C68
:1050500001F0E7FB6CE081E06CE004EB8500514679
:10506000801C01F0E5F963E004EB85005146801CEB
:1050700001F069F85CE004EB85005146801C01F00A
:10508000B4F855E004EB85005146801C00F0CAFEE0
:105090004EE004EB85005146801C00F097FE47E08F
:1050A00004EB85005146801C01F0F9FB40E004EB65
:1050B00085005146801C01F072FC39E004EB85004C
:1050C0005146801C01F026FC32E004EB850051467D
:1050D000801C01F0ABFC2BE0002004EB8505009068
:1050E00001900290039004905246172104A8AD1C31
:1050F000FFF72FFEF0B19DF8110052466946FFF709
:1051000043FEF0B99DF812101DF8011001F00102E4
:105110002A70C1F341026A70C1F38012EA70C909B2
:10512000297109E004EB85005146801C00F0BDFEAA
:1051300038B901E0484604E0761CF6B24645FFF473
:1051400007AF012F0AD1002808D106B05146BDE8AB
:10515000F047012000F032BA4FF0FF3006B0BDE852
:10516000F0872DE9F74F86B082468B46089801F00C
:105170008DFE040078D1BAF1000F75D00898002791
:105180006FF0070690F8579050E10AEB0715287862
:10519000042807D3B9F1010F04D10020089900F0C9
:1051A0000DFA0446002C52D128780F2870D00FDC5D
:1051B000072871D005DCE0B101282ED0022869D182
:1051C00046E008286DD0092877D00E28F7D179E07D
:1051D000262873D006DC132871D01628FCD020288E
:1051E000EDD10FE127286BD028286AD02D28E6D1F1
:1051F0000DE105F104080021089D009101910C20AA
:105200002B4606226946FFF745FE20B9694640460F
:1052100000F0D7FC17E004460EE105F10408002178
:10522000089D0091019112202B4606226946FFF746
:1052300031FE0028EFD16946404600F0C2FC294605
:10524000404600F0F8FB2946404601F037F9D0E02F
:1052500005F104080025089B00950195D87D2C4692
:1052600018B16FF00D00D6E7E4E00822694604208B
:10527000FFF710FE0028CED169460B5D08F8053017
:10528000641C6D1CEDB2E4B2082DF6D30446B0E008
:105290003DE001E089E004E0281D089901F032FAC0
:1052A00056E0002005F10408089D0090019002904E
:1052B00003902A460821049089E045E04BE07BE01A
:1052C0004EE09AE00020DDF82080009001900290EE
:1052D0000390049042460E2104A82D1D00F04AFCC4
:1052E000002862D09DF8110042466946FFF74CFD48
:1052F000002890D19DF812001DF8002002F0030252
:105300002A701DF80000C0F38000687071E0002072
:10531000DDF82080009001900290039004904246B6
:105320000F2104A82D1D00F025FCF0B39DF81100FD
:1053300042466946FFF728FD002894D19DF81200E7
:105340001DF80000287054E0281D089900F0C7FEE1
:10535000040071D14DE0281D089900F0D4FFF7E753
:105360000020DDF8208000900190029003900490CE
:105370004246272104A82D1D00F0FCFBA8B19DF892
:10538000110042466946FFF7FFFC0028B1D19DF8A5
:105390001200401CC0B21DF80020C2F340122A7057
:1053A0001DF80020C2F3801200E035E06A701DF89D
:1053B0000000C009A8701CE0002005F10408089D49
:1053C00000900190029003902A461321049004A8B3
:1053D00000F0D0FB00B39DF811002A466946FFF7A4
:1053E000D3FC002885D19DF812001DF8001088F824
:1053F0000010B9F1010F11D016E0281D089900F036
:10540000F0FDA5E7281D089900F012FCA0E7281D73
:10541000089900F0B3FF9BE734460DE024B9012062
:10542000089900F0CBF804467F1CFFB25F45FFF4FB
:10543000ACAE01E04FF0FF3409B02046BDE8F08F7C
:1054400070B504460D46084601F020FD40B93CB158
:105450002B462146BDE8704001220320FFF71ABD0C
:105460004FF0FF3070BD0000002188B101220A4BCF
:10547000427269225A70094A8264094AC2645A1CFB
:105480004260084A02650822C2810022026101E0EE
:105490004FF0FF310846704798020020C19600087F
:1054A000E5960008BD960008F8B504460007060E0C
:1054B00000200D4617468DF800001346012269466C
:1054C0005820FFF7E7FC002821D1042D24D2200723
:1054D00044EA106035B1012D0AD0022D0CD0032D05
:1054E0000FD115E09DF8001081438DF8001008E001
:1054F0009DF80000204302E09DF8000030438DF845
:1055000000003B4601226946582000F089F8F8BDAA
:105510009DF800100843F2E76FF00B00F8BD0000A3
:105520003EB50446164900208DF80000D1E900017F
:10553000CDE90101204601F0A9FC00281BD120463D
:1055400000F0AFF9002816D1234601226946FFF783
:10555000A1FC00280FD122789DF800108A420BD1BF
:10556000102121730121E1750199C4F83510BDF8AE
:105570000810A4F839103EBD21706FF002003EBD46
:1055800088AA00087CB504460020CDE900000E463C
:105590001546104601F07AFC68B964B16A46314696
:1055A000204601F091FF002804D1DDE900012A46E0
:1055B00002F032F87CBD4FF0FF307CBDF8B50646F6
:1055C00000208DF800000D46084601F05FFC040045
:1055D00023D12B46012269467C20FFF75BFC0400A7
:1055E0001BD19DF800002B4666F300008DF80000EB
:1055F000012269467C2000F013F804462A6D4FF41E
:10560000FA706968904714B16FF00C0405E09DF8DA
:10561000000000F0010085F857002046F8BD0000AA
:105620002DE9F0470746914688461C460025184656
:1056300001F02CFC06003CD1B8F1000F39D0607AA3
:1056400008B907F07F0794F85700012822D0E56CCD
:105650004A46414638466368A847A072226D142026
:10566000616890477C2F18D01EE000BF7819D4F8ED
:105670004CC008EB0501C0B201226368E047A0728C
:10568000226D4FF4E17061689047A07A0028E9D15B
:105690006D1CADB24D45E9D3E4E798F80000C007B2
:1056A00000D0012084F85700A07A20B16FF00106E5
:1056B00001E04FF0FF363046BDE8F0872DE9F041BC
:1056C00004460F469046104601F0E0FB002873D1D7
:1056D000002C71D098F857600025D1E0012E05D13B
:1056E00041460020FFF76AFF002874D105EB8500D2
:1056F00000EBC50014F820101D296DD2DFE801F081
:105700000F161D32242B404040474E555D646D748A
:105710007B82899097A59EACB3646464390004EBE6
:1057200080004146801C02F059F9A2E004EB8000A1
:105730004146801C02F008FD9BE004EB80004146DE
:10574000801C02F052FA94E004EB80004146801C79
:1057500002F0E8F98DE004EB80004146801C02F085
:1057600043FF86E004EB80004146801C03F0A9F86B
:105770007FE004EB80004146801C03F0B9F978E03B
:1057800004EB80004146801C03F052F971E004EB09
:1057900080004146801C02F085FD6AE004EB800039
:1057A0004146801C03F093FA63E004EB800041461D
:1057B000801C03F029FB5CE06FE004EB80004146B5
:1057C000801C02F04FFC54E004EB80004146801C3A
:1057D00003F08CFB4DE062E04DE004EB80004146BD
:1057E000801C02F064FF44E004EB80004146801C12
:1057F00002F0D6FD3DE004EB80004146801C02F043
:1058000069FE36E004EB80004146801C02F04DFB4F
:105810002FE004EB80004146801C02F09FFA28E054
:1058200004EB80004146801C03F0BEFB21E004EB4A
:1058300080004146801C03F0F7FC1AE004EB800076
:105840004146801C03F00BFC13E004EB8000414652
:10585000801C03F078FD0CE004EB80004146801CC6
:1058600002F0B3FF05E004EB80004146801C02F02B
:10587000A5FB40B902E06FF0070004E06D1CEDB23B
:10588000BD42FFF42BAF012E09D1002807D14146BC
:10589000BDE8F0410120FFF791BE4FF0FF30BDE8B9
:1058A000F0817CB50546B6208DF8000000208DF80B
:1058B0000400284601F0EAFA040020D12B46012218
:1058C00069467E20FFF7ACFE04462A6D4FF4FA606D
:1058D00069689047012085F8570084B9687A38B91B
:1058E0002B46012201A90020FFF7D4FA040006D1BB
:1058F000284600F006F8040001D1C5E91000204652
:105900007CBD38B5044600208DF80000204601F02B
:10591000BDFAF0B9B4F85A00D8B1E089C10701D096
:10592000401EE08180B2022801D20220E0812046A0
:1059300004F058F800280BD121466846FFF792FA88
:105940009DF8001001F00101014301D16FF0080042
:1059500038BD4FF0FF3038BD08B503460122694617
:105960001B20FFF797FA00280ED19DF80010C1F315
:1059700082018DF80010002906D0012905D00229E6
:1059800006D0032900D1C01F08BD6FF0040008BD78
:105990006FF0050008BD01680A7C521CD2B20A747F
:1059A00001684B7C9A4204D90B7400680121817410
:1059B0007047887C0128FBD10020887470470268FA
:1059C0000021118002689180026851800268917103
:1059D000036832225A740268117400688174704737
:1059E0000A88036852BA1A804A88036852BA5A80F1
:1059F0008A88036852BA9A8002688979917100682E
:105A000000210174704730B5002480B105788D42C3
:105A100004D20170197A41F00101197201789142A2
:105A200007D90270187A40F00200187201E04FF0B6
:105A3000FF34204630BDB1F85410828811FB02F1CA
:105A40000288CB1701EBD351A2EB61210180704793
:105A50002DE9FC414FF0000805460C460B46CDF8F9
:105A600000808DF804804746022269464B20FFF7EC
:105A700011FA060032D1E9799DF8000042F2107661
:105A800061F347008DF8000069789DF8010061F32B
:105A9000C7108DF80100A97861F386108DF8010018
:105AA000E97861F383008DF80100297961F3010041
:105AB0008DF80100214601A8FFF7C2FC9DF80410F3
:105AC00001F0040101430CD0226D3046616890471B
:105AD0007F1CFFB2142FEDD96FF00E063046BDE8E3
