:020000040800F2
:10000000285C0020310300088D430008353B0008C0
:1000100025430008F90F0008354F000800000000D4
:100020000000000000000000000000007102000855
:10003000B71A000800000000CD0200087D48000843
:100040004B0300084B0300084B0300084B03000858
:100050004B0300084B0300084B0300084B03000848
:100060004B0300084B0300084B0300084B03000838
:100070005D1700084B030008691700084B030008D0
:10008000751700084B0300084B0300084B030008DA
:10009000FD0F00084B0300084B0300084B0300084A
:1000A0004B0300084B0300084B0300084B030008F8
:1000B0004D4900084B0300084B0300084B030008A0
:1000C0004B0300084B0300084B0300084B030008D8
:1000D0004B0300084B030008554E0008C54E0008AE
:1000E0004B0300084B0300084B0300084B030008B8
:1000F0004B0300084B0300084B0300084B030008A8
:100100004B0300084B0300084B0300084B03000897
:100110004B0300084B0300084B0300084B03000887
:100120004B0300084B0300084B0300084B03000877
:100130004B0300084B0300084B0300084B03000867
:10014000951000084B0300084B0300084B03000800
:100150004B0300084B0300084B0300084B03000847
:100160004B0300084B0300084B0300084B03000837
:100170004B0300084B0300084B030008000000007D
:100180004B0300084B03000800F002F800F060F891
:100190000AA090E8000C82448344AAF10107DA45E2
:1001A00001D100F055F8AFF2090EBAE80F0013F0D4
:1001B000010F18BFFB1A43F00103184750EA000073
:1001C00070EA00000A444FF0000C10F8013B13F0F5
:1001D000070408BF10F8014B1D1108BF10F8015BA0
:1001E000641E05D010F8016B641E01F8016BF9D193
:1001F00013F0080F1EBF10F8014BAD1C0C1B09D1EA
:100200006D1E58BF01F801CBFAD505E014F8016B5B
:1002100001F8016B6D1EF9D59142D6D370470000ED
:100220000023002400250026103A28BF78C1FBD8FF
:10023000520728BF30C148BF0B6070471FB50CF094
:1002400064F99DE8030000F03FFA1FBD10B510BD32
:1002500000F0A6FA1146FFF7F1FF08F0C5F800F02C
:10026000C4FA03B4FFF7F2FF03BC00F0F5FA000094
:100270002C4B19680868B0E8F04F80F30988BFF389
:100280006F8F4FF0000080F311887047000000006E
:1002900008480068006880F308884FF0000080F389
:1002A000148862B661B6BFF34F8FBFF36F8F00DF64
:1002B00000BF00BF08ED00E0DFF80C00016841F46A
:1002C00070010160704700BF88ED00E0EFF3098026
:1002D000BFF36F8F134B1A681EF0100F08BF20ED8D
:1002E000108A20E9F04F106009B44FF0500080F3FD
:1002F0001188BFF34F8FBFF36F8F0BF005F84FF0EE
:10030000000080F3118809BC19680868B0E8F04F54
:100310001EF0100F08BFB0EC108A80F30988BFF3FD
:100320006F8F704738000020EFF3058070470000A2
:100330000948804709480047FEE7FEE7FEE7FEE779
:10034000FEE7FEE7FEE7FEE7FEE7FEE704480549B5
:10035000054A064B704700003D4900088901000826
:1003600028560020285C002028580020285800200B
:1003700070B5064600F08CF9056806F10B0020F018
:100380000704B4429CBF002070BD2B466A68BAB116
:100390001068A04210D304F1080188423CBF5068A5
:1003A000586007D35168101941601168091B01603A
:1003B00058601460101D70BD13465268002AE7D1C2
:1003C0002146284600F06CF90028DED170BD70B5DA
:1003D0000446051F00F05CF90068002C14BF446857
:1003E00070BD002C18BFAC423CBF20466468F8D3F7
:1003F00001680A18AA4218BF456003D12A68054659
:100400001144016028684119A1421CBF6C6070BD95
:100410006168696021680844286070BD53EA020C75
:1004200000F069802DE9F04B4FF00006002B1FBF54
:10043000B3FA83F503FA05F424FA05F65E4012BF19
:100440001643B2FA82F502FA05F4C5F120051EBF83
:1004500022FA05FC44EA0C04203556EA044C4FEA23
:10046000144418BF641C4FF000084FF0000990427C
:1004700071EB030C39D3002919BFB1FA81F701FAE6
:1004800007F6B0FA80F700FA07F6C7F120071EBF9B
:1004900020FA07FC46EA0C062037B6FBF4FCA7EB73
:1004A0000507103F07F01F0BCBF120060CFA0BFBE2
:1004B0002CFA06F644BFB3460026202FA4BF5E46A2
:1004C0004FF0000B5BEA060C08BF4FF0010B19EB75
:1004D0000B09ABFB027C48EB0608C01B06FB02CCF9
:1004E0000BFB03CC71EB0C01C1E70B460246414606
:1004F0004846BDE8F08B13B54FF000004FF0000107
:10050000AFF30080BDE81C407047032A40F2308002
:1005100010F0030C00F0158011F8013BBCF1020F44
:10052000624498BF11F801CB00F8013B38BF11F8C5
:10053000013BA2F1040298BF00F801CB38BF00F8DC
:10054000013B11F0030300F02580083AC0F0088059
:1005500051F8043B083A51F804CBA0E80810F5E73D
:10056000121D5CBF51F8043B40F8043BAFF3008020
:10057000D20724BF11F8013B11F801CB48BF11F895
:10058000012B24BF00F8013B00F801CB48BF00F865
:10059000012B704710B5203AC0F00B80B1E818501D
:1005A000203AA0E81850B1E81850A0E81850BFF45D
:1005B000F5AF5FEA027C24BFB1E81850A0E81850FC
:1005C00044BF18C918C0BDE810405FEA827C24BF50
:1005D00051F8043B40F8043B08BF7047D20728BFDE
:1005E00031F8023B48BF11F8012B28BF20F8023B2D
:1005F00048BF00F8012B70474FF000020429C0F0FB
:10060000128010F0030C00F01B80CCF1040CBCF144
:10061000020F18BF00F8012BA8BF20F8022BA1EB96
:100620000C0100F00DB85FEAC17C24BF00F8012B7B
:1006300000F8012B48BF00F8012B70474FF0000273
:1006400000B5134694469646203922BFA0E80C50C8
:10065000A0E80C50B1F12001BFF4F7AF090728BFA3
:10066000A0E80C5048BF0CC05DF804EB890028BF1F
:1006700040F8042B08BF704748BF20F8022B11F048
:10068000804F18BF00F8012B7047704770477047C4
:1006900000487047D055002070477047704770473A
:1006A00038B504460A4600206946AFF300800028AA
:1006B00008BF38BD02460099204600F04FF80120DF
:1006C00038BD012000F064B8F8B5AFF300800546EE
:1006D00000200C46102000BF0646A819A0420DD9E4
:1006E000324669460020AFF30080070008BF00F0E3
:1006F0004FF80098A04218BF0546C419FFF7C8FF7D
:1007000005600746F01D20F007004619284600F056
:100710000AF8B44208BFF8BDA21B31463868BDE8EC
:10072000F84000F01BB800210160C0E901107047DB
:100730001020704710B500F00DF8006810BD10B51E
:10074000044600F007F8046010BD00000048704740
:10075000C855002000487047C8550020034640682F
:100760008C46002818BF88423CBF03464068F8D337
:1007700018681844884207D00CF1030020F00700E5
:10078000001D411A521A0146081D0A60FFF71FBEDC
:1007900010B500F039F8BDE8104000F02FB87047F0
:1007A0007546FFF7D3FFAE4605006946534620F075
:1007B0000700854618B020B5FFF7C8FDBDE820400A
:1007C0004FF000064FF000074FF000084FF0000B0D
:1007D00021F00701AC46ACE8C009ACE8C009ACE8C0
:1007E000C009ACE8C0098D46704710B50446AFF3A8
:1007F00000802046BDE81040FFF733BD002801D03F
:1008000000F02AB87047000010B5012805D000217B
:1008100003A000F027F8012010BD09A1F8E70000AF
:1008200053494752544D454D3A204F7574206F66D9
:100830002068656170206D656D6F72790000000041
:100840003A2048656170206D656D6F727920636F25
:10085000727275707465640001491820ABBEFEE7C2
:100860002600020070B505460C460A2000E06D1C0B
:1008700000F011F835B128780028F8D102E0641CA6
:1008800000F009F814B120780028F8D1BDE87040D4
:100890000A20AFF3008008B569468DF800000320F8
:1008A000ABBE08BD2DE9F04116462DED0A8B0F4673
:1008B0008046B3F90030DDE9131000EE103ADDE9AF
:1008C0001152F8EEC00AFE4CDDF840C0C4ED0E0A2D
:1008D000BCF9003000EE103AB8EEC00A84ED0F0A01
:1008E000B5F90030032593FBF5F31BB203EB43038B
:1008F00000EE103AB8EEC00A84ED100AB2F90020FA
:1009000000EE102AB8EEC01A84ED111AB1F90010E9
:1009100000EE101AB8EEC00A84ED120AB0F9000019
:1009200021EE000A01EE900AF8EEE11AC4ED131A66
:1009300020EE210AB5EEC00AF1EE10FA7DD0E14DAD
:10094000297B9FEDE18AFDEEE00AB0EE480A10EE49
:10095000900A00B207F0BEFC84ED0E0AD4ED0F0A37
:10096000297BB0EE480AFDEEE00A10EE900A00B2D4
:1009700007F0B0FC84ED0F0AD4ED100A297BB0EE2D
:10098000480AFDEEE00A10EE900A00B207F0A2FC61
:1009900094ED0E1ADFEDCD0A21EE201A20EE200A8A
:1009A00084ED0E1A94ED0F1A21EE201A84ED0F1A21
:1009B00084ED100AD4ED110A297BB0EE000AFDEE99
:1009C000E00A10EE900A00B207F098FC84ED110ADC
:1009D000D4ED120A297BB0EE000AFDEEE00A10EE1B
:1009E000900A00B207F08AFC84ED120AD4ED130AD3
:1009F000297BB0EE000AFDEEE00A10EE900A00B28C
:100A000007F07CFCF0EE400AC4ED130A94ED110AE5
:100A100094ED121A20EE000A01EE010A00EEA00A7F
:100A200007F042FC84ED070AD4ED110A60EE802A3B
:100A3000C4ED112AD4ED120A00E05CE160EE804AB8
:100A4000B0EE008AC4ED124AD4ED130A20EE803ACB
:100A500084ED133A94ED040AD4ED060AD4ED031A9A
:100A600094ED051A20EE202A01EEC12A22EE084A52
:100A700021EE802A84ED084A01EE202A22EE085A4F
:100A800021EEA12A84ED095A00EE402A01EE412A06
:100A900000EEA02A84ED0A2A64EE823A43EE453A3B
:100AA00023EE043A02EEC23A62EE852AC4ED0B3A16
:100AB00044EEC42A84ED0C3AC4ED0D2A94ED142AB8
:100AC00094ED015A03EE852A84ED142A94ED154A1B
:100AD00003EE054A84ED154AD4ED164A42EE854AE6
:100AE000C4ED164AD4ED0E5A94ED005A45EE235A41
:100AF00035EE822A84ED0E2AD4ED0F3A45EE033A04
:100B000033EE843A20EE424A84ED0F3AD4ED103AA7
:100B100001EE434A61EE835A45EE223AB0EE615A45
:100B200073EEA42A61EE824AC4ED102AC4ED171AAE
:100B300041EE224A84ED180A00EEE24A84ED191AC9
:100B4000C4ED1A0AD4ED023A40EEC34A40EE625AAE
:100B500004EE235AB0EE404A04EEA34A40EE825A15
:100B600084ED035A84ED044A61EEA21AF0EE414A84
:100B700045EEA34A40EE031A25EE050AC4ED054AE8
:100B800004EE040A41EE421A04EEA40A41EEA30A5E
:100B9000C4ED060A00EEA00A07F086FB84ED070A02
:100BA000D4ED030A20EE80BA84ED03BAD4ED040A32
:100BB00060EE808AC4ED048AD4ED050A20EE809AA6
:100BC00084ED059AD4ED060A60EE809A2BEE0B0AAE
:100BD000C4ED069A08EEE80A09EE490A09EEA90AE8
:100BE00010EE100A0BF020FC29EE080A6BEE080A42
:100BF00041EC1A0B20EE290A00EEA80A10EE100AAA
:100C00000BF012FC41EC100BB0EE4A1AF0EE6A1A2F
:100C100004F00AFD9FED2EBB51EC100B53EC1B2B87
:100C20000BF042F90AF0B4FE386094ED040AD4EDFA
:100C3000060A94ED051A20EE080A20EE200AD4EDEB
:100C4000030A60EE880A00EEC10A10EE100A0BF0EB
:100C5000EBFB41EC100B04F0CBF99FED1F1B51ECAB
:100C6000100B53EC112B0BF01FF90AF091FEC8F892
:100C7000000094ED03CAD4ED048AD4ED05AA2CEE4D
:100C80000C0A94ED06AA08EEA80A0AEEEA0A0AEE91
:100C90004A0A10EE100A0BF0C7FB28EEAA0A41EC34
:100CA000190B0CEE0A0A20EE080A10EE100A0BF0DF
:100CB000BBFB41EC100BB0EE491AF0EE691A0FE0E5
:100CC000D0030020605500200000FA44728A8E3C58
:100CD0000000006066A64C400000006066A64CC0A4
:100CE00004F0A2FC53EC1B2B51EC100B0BF0DCF8C6
:100CF0000AF04EFE30600020BDEC0A8BBDE8F081AA
:100D00002DE9FE4F1546DDE90C9A0E4607460C22EA
:100D10001C466946104603F09FF8BDF80080BDF8F8
:100D200002C0BDF80430BDF80620BDF80810BDF8BB
:100D30000A00A4F80080A9F800C0AAF800303A80A0
:100D400031802880BDE8FE8F38B5194805F06AFE6D
:100D500005F0DCFA164805F09DFA044605F0D6FACF
:100D600024BB01208DF800000146114A684605F0B9
:100D7000E7FE05F0CBFA0E4803F06CFB00208DF87F
:100D800000000B4A0121684605F0DAFE05F0BEFAC4
:100D9000074803F035FB02208DF80000044A0121CA
:100DA000684605F0CDFE044605F0B0FA204638BD91
:100DB000605500202DE9F047844C854EDFF8148201
:100DC000854D4FF47A7A2DED028B4FF00109207A90
:100DD000002710B1606918B105E0E773676173E03F
:100DE00001F05CFD606101F059FD6169401A5045F8
:100DF0006AD36761B06EB0F9020000EE100AB8EE77
:100E0000C00A03F090FA10EE100A74499FED748A3C
:100E1000884216DC607BA0B92878401CC0B22870DC
:100E200003280ED32F7084F80D90B06F90ED000A58
:100E300030EE080A80ED000A6548D6F89410683054
:100E40008847B06EB0F9020000EE100AB8EEC00A92
:100E500003F069FA10EE100A6249884203DB607BF6
:100E600008B92F70E773B06FD0ED028A607B01285C
:100E70002AD1B0EE680A03F056FA10EE100A404587
:100E800003DC6773E7736F701EE0607B01281BD182
:100E9000B0EE680A03F047FA10EE100A404513DD81
:100EA0006878401CC0B2687002280DD36F70E07B78
:100EB00078B10020E0730028B06F90ED000A0AD0EE
:100EC00030EE480A80ED000AA07A38B1A06958B126
:100ED0000DE00120EEE730EE080AF3E72774A76182
:100EE000BDEC028BBDE8F08701F0D8FCA06101F0F9
:100EF000D5FCA169401A5045F2D3A761B06FD0ED7F
:100F0000028AB0EE680A03F00EFA10EE100A3649B3
:100F10009FED368A8842A07B18DB18BBA878401C5E
:100F2000C0B2A870032812D3AF70B06FDFED300AE3
:100F300090ED000A30EE200A80ED000A30EE080A3B
:100F4000B06F80ED000A84F80E900EE050B9B0EE5C
:100F5000680A03F0E8F910EE100A2649884201DC1D
:100F6000AF702774A07B0128BAD1B0EE680A03F0F5
:100F7000DAF910EE100A404503DCA7732774EF700E
:100F8000AEE7A07B0128ABD1B0EE680A03F0CBF945
:100F900010EE100A4045A3DDE878401CC0B2E870AE
:100FA00002289DD3EF70207C58B1002020740028C7
:100FB000B06F90ED000A06D030EE480A80ED000ACE
:100FC0008EE70120F2E730EE080AF7E7084D00202F
:100FD0005C0200200000FA442C0300200000A04026
:100FE00000B808470000484300606A460060EA46CF
:100FF000002410470000FA43FEE70000014800F01B
:101000004ABF00009406002070B5204CA0F5007285
:10101000013A1AD0A0F50072023A1CD0A0F5007275
:10102000033A1BD0B0F5017F27D0194CA0F5007210
:10103000053A1AD0A0F50072063A26D1E26C204695
:10104000343005469047216D0DE0A2690F48904766
:101050000E48E1690EE00D48E26CF1E70B4854F8E8
:10106000802F68300DE0284604E0A26908489047C8
:101070000748E169BDE870400847044854F8B42FB8
:101080009C30054690476168EDE770BD0001002087
:10109000F4010020014800F0FEBE0000BC06002064
:1010A00070B5174CA0F50072013A15D0A0F500728A
:1010B000023A17D0A0F50072033A1AD0B0F5017FBA
:1010C0001CD10F4854F8B42F9C30054690476168F6
:1010D0002846BDE870400847A2690948904708487B
:1010E000E169F6E70648E26C343005469047216D29
:1010F000EEE7034854F8802F6830E6E770BD000043
:101100005C0200200021016041608160C1600161DA
:1011100001224161C0E90612C0E9082170470000C0
:1011200000B595B06846FFF7EDFF69460C4800F042
:10113000B7FD0AA8FFF7E6FF0AA90A4800F0B0FDCC
:101140000221074800F036FD0221064800F032FD7A
:10115000034801F0DDF8034801F0DAF815B000BDEE
:1011600094060020BC06002070B5044601600020F3
:101170000821A060C4E90301115C2318401C197602
:101180000828F9DB0B4804F11805844205D1002337
:101190002A462146084800F01FFD06484430844294
:1011A00007D12A462146BDE870400023034800F0DD
:1011B00013BD70BDD846002094060020BC06002058
:1011C00070B5274C606810B901F068FB606001F0F1
:1011D00065FB6168401AB0F5FA7F1CD321480024F2
:1011E0000246046044604FF4007529461E48FFF72C
:1011F000BBFF1E48691E0246046044601A48FFF7A0
:10120000B3FF1B482946024604604460BDE87040B5
:101210001848FFF7A9BF19489FED170A816881EDAB
:10122000000AC16B81ED000A016F81ED000AD0F860
:10123000A40080ED000A1248C16B81ED000A8168AC
:1012400081ED000A016F81ED000AD0F8A40080ED65
:10125000000A00F03DFABDE8704003F0A7B90000B5
:10126000C8030020A0000020D8460020A8000020CD
:10127000B00000201C4700200000000000010020FA
:101280005C02002070B5134E00252DED048BB1EEED
:10129000088AB6EE009ADFED108A00BF05EB8500E4
:1012A00000EBC50006EB8004204661698847A06812
:1012B00007F002FAA0686D1C042D80ED048AA06876
:1012C000C0ED058AA06880ED069AE7DBBDEC048BD3
:1012D00070BD000000010020CDCC4C3E70B52A4E00
:1012E0009FED280A06F114052DED048B86ED000A0A
:1012F0002868B6EE000A264990ED049A90ED068A19
:10130000D0ED0D8A80ED040AB0EE080A80ED060AE1
:101310009FED1E0A80ED0D0A4A79012A28D1CA796B
:1013200089791C4C8A421BD0012A19D1216840F6C8
:10133000D17309884A1E9A4205D89FED170A80ED9D
:10134000000A00200AE041F22D02A1F6D371914279
:1013500006D89FED120A80ED000A012084F83000C3
:101360000C4809F0FFFCE06890ED0A0A86ED000ADF
:10137000286880ED049A80ED068AC0ED0D8ABDECE8
:10138000048B70BD00000000D001002000007A44F2
:10139000084D0020F4010020002000450010BD454C
:1013A000F0B500202DED088B85B0009001900290E3
:1013B0009FED960A974A0390954C136894F8305025
:1013C000B3F90610B3F904007DB1494200EE901A5A
:1013D000D0F10000F8EEE08A00EE900A5068B8EE16
:1013E000E08A0179012905D00EE000EE901AF8EEAE
:1013F000E08AF1E7B3F9001000EE101AB8EEC00A67
:10140000DFED850A20EE200A4179012905D1807996
:10141000012849D0814890ED000A78EE880A70EEE4
:10142000800A9FED7F9A20EE891ADFED7E0A7E4FBB
:101430000024C1EE201A38EE681A6E4631EE001A0A
:1014400021EE091ACDED001AC1EE201A38EEC81AA5
:1014500031EE001A21EE091ACDED011AC1EE201A63
:10146000B1EE681A31EE481A31EE000A20EE090A90
:1014700080EE201ACDED021A8DED031A06EB8405DD
:1014800095ED000A02F04FFF10EE100AB8427CDD25
:1014900095ED000AB5EEC00AF1EE10FA76D89FED90
:1014A000631AC1EE000A8EE0206816210088A0F6BB
:1014B000020090FBF1F100EE101AB0F5805FB8EE7B
:1014C000C00A03DBDFED5A0A30EE600ADFED590A8D
:1014D00080EE209A19EE100A0AF0A6FF41EC100BDC
:1014E00004F0FEF9B0EE40AAF0EE60AA18EE100A81
:1014F0000AF09AFF53EC1A2B0AF0D6FC41EC1A0BB7
:1015000019EE100A0AF090FF41EC100B04F084F978
:10151000B0EE40BAF0EE60BA18EE900A0AF084FF1E
:1015200053EC1B2B0AF0C0FC53EC1A2B0AF062FAA6
:101530000AF02EFA09EE900A19EE100A0AF074FF6A
:1015400041EC100B04F068F9B0EE40AAF0EE60AA8E
:1015500018EE100A0AF068FF53EC1A2B0AF0A4FCEC
:1015600041EC1A0B19EE100A0AF05EFF41EC100B69
:1015700004F0B6F9B0EE40BAB1EE680AF0EE60BA27
:1015800010EE100A0AF050FF01E020E019E053ECE1
:101590001B2B0AF089FC53EC1A2B0AF02BFA0AF0E9
:1015A000F7F908EE100A94F830009FED230AF0EEE8
:1015B000698A01287FF431AFF1EE688AB1EE488A7A
:1015C0002BE7C9EE000A20EE800A85ED000A641CB4
:1015D000042CFFF653AF19489DED000A816881ED98
:1015E000000AC16B9DED010A81ED000A016F9DEDBE
:1015F000020A81ED000AD0F8A4009DED030A80EDF7
:10160000000A05B0BDEC088BF0BD00000000000032
:10161000F4010020D80000209A99193FD001002041
:101620000000FA45000025440000FA450000FAC514
:101630000000B4430000644200007A43000100202F
:1016400070B5214809F0E2FB1F4D204CA86890EDD1
:101650000A0ABDEEC00A10EE100A0012207010EE49
:10166000100A607005F1340009F0D0FBE86B90EDD2
:101670000A0ABDEEC00A10EE100A0012A07010EEA9
:10168000100AE07005F1680009F0C0FB286F90EDCA
:101690000A0ABDEEC00A10EE100A0012207110EE08
:1016A000100A607105F19C0009F0B0FBD5F8A400A8
:1016B00090ED0A0ABDEEC00A10EE100A0012A071E9
:1016C00010EE100AE07170BD00010020A0000020A3
:1016D00010B5FFF7B5FF054A4FF400710448FFF756
:1016E00043FD024800210160416010BDA0000020C0
:1016F000D846002090ED001AB4EEC01AF1EE10FAB0
:1017000002DB80ED000A7047B4EEE01AF1EE10FA49
:10171000F9D8C0ED000A70470421014801F028BF44
:10172000E40600200149E120886370470000014081
:1017300001493220886370470000014004210148BC
:1017400001F07ABFE40600200348407C012801D064
:10175000FFF7E8BFFFF7ECBF084D0020014800F09D
:1017600065BE0000E0080020014800F05FBE0000F8
:1017700040090020014800F059BE00008008002008
:101780002DE9F04F85680024099E802D18D0894DE1
:10179000C563894D456490F83450012D15D001255D
:1017A00080F8345090F83550012D10D0002180F889
:1017B00034100224002180F834102046BDE8F08F58
:1017C0004FF4807141650120F8E70220F6E7022519
:1017D00080F835500025456505682F6847F4802757
:1017E0002F6005682B6103685E608368402B036887
:1017F0002AD099600168CA60714D704E704FDFF851
:10180000BC81DFF8B891DFF8B8A1DFF8B4B1EA1411
:10181000DFF8A8E10168183630379302A9F14809CA
:101820000AF1600A0BF1180BAEF1300E4FF0006CAC
:1018300041452DD9A94205D0494503D0514501D094
:10184000B14205D1202220E09A600268D160D3E73E
:1018500059451AD0714518D0594D7835A94214D040
:10186000564D3035A94210D0B9420BD0534A183AE0
:10187000914207D0524A9032914203D04F4A4832A7
:10188000914201D11A4600E062464C494C392EE0A3
:10189000DFF82C8108F1A80841452AD9A94205D0D2
:1018A000494503D0514501D0B14201D120221CE06D
:1018B00059451AD0714518D0414D7835A94214D0F8
:1018C0003E4D3035A94210D0B9420BD03B4A183AB0
:1018D000914207D03A4A9032914203D0374A483277
:1018E000914201D11A4600E06246344950390A60FB
:1018F0005AE0DFF8CC8008F1480841452AD9A942CE
:1019000005D0494503D0514501D0B14201D1202233
:101910001CE059451AD0714518D0294D7835A94297
:1019200014D0264D3035A94210D0B9420BD0234AED
:10193000183A914207D0224A9032914203D01F4A6E
:101940004832914201D11A4600E062461C491039E2
:10195000CA6029E0A94205D0494503D0514501D0CC
:10196000B14201D120221CE059451AD0714518D04E
:10197000134D7835A94214D0104D3035A94210D0FE
:10198000B9420BD00D4A183A914207D00C4A903216
:10199000914203D0094A4832914201D11A4600E0EF
:1019A0006246074910398A6001680A6842F00102FC
:1019B0000A60FFE691700008A970000858640240B0
:1019C0001060024001681823CAB2103AB2FBF3F269
:1019D000054B6FF30901032A9B5CC36500D9091D00
:1019E00081650846704700001CC6000810B5014616
:1019F00000208B698A6A4FF0C07453B1B3F5005F61
:101A000015D072B1012A0CD0022A0AD0032A09D1BA
:101A100004E01AB1012A06D0022A03D1C96AC90119
:101A200000D5012010BDC96AA142FAD010BD002A1C
:101A3000F7D0012AF2D0022AF3D0032AF3D010BD46
:101A400070B590F834500024012D0CD0012580F899
:101A5000345090F835600025012E06D080F83450BF
:101A60000224204670BD022070BD022680F8356039
:101A7000456505682E6826F480262E6005686B6033
:101A80008368402B036808D099600168CA600068C9
:101A9000016841F001010160E3E79A600268D160EA
:101AA000F5E701680A68D20604D5C968C90601D5F8
:101AB00009F000BA7047704772B6FEE70948427AEB
:101AC000094881684AB19FED090A81ED000A9FED3E
:101AD000080AC06B80ED000A70479FED060A81ED91
:101AE000000AF6E7084D00205C0200200000FAC45E
:101AF0000000FA440000000010B558B1084C491E1F
:101B00000BD310F8013B5340DBB234F8133083EAB7
:101B10001222F4E74FF6FF7010BD104610BD000012
:101B20003CC7000810B5064C04E000BF10F8013BAC
:101B30005340E25C491E89B2F8D2104610BD000045
:101B40003CC6000810B502F051FC06F063FA06F03E
:101B500049FBBDE8104006F0EBBB00000A489FEDD2
:101B6000090A006880ED000A07489FED080A083856
:101B7000006880ED000A04489FED050A1C3880EDDE
:101B8000000A70470080D445EC0100200020004589
:101B90000000000010B5054A40F2FF110448FFF7AD
:101BA000E3FA024800210160416010BDA800002056
:101BB000D846002090F82020012A07D0022A05D01C
:101BC000416A41F480214162012070470068426906
:101BD0000A43426100207047F0B590F82050046835
:101BE000A468012D05D0022D03D0416A41F4802163
:101BF00053E014F0406F01D1E5004BD5C4F301640C
:101C0000022C03D9416A41F4000146E00125A540B8
:101C10001D608D684FF4C0739DB1CE6835434E682A
:101C200045EAC605066803EB0417F5514FF4C27583
:101C3000076805EB04150E697E51097D012905D061
:101C400009E00E88CD6845EA4655EBE701684E5934
:101C500046F480764E511179D2F805504FF4C6768D
:101C600041EA0525016806EB04168D511178D2F87A
:101C700001204FF4C47541EA0221026805EB041506
:101C80005151006803EB0411425842F001024250E6
:101C90000020F0BD416A41F4001141620120F0BD15
:101CA00010B590F82020012A07D0022A05D0416AF9
:101CB00041F480214162012010BD3B48D0F8002250
:101CC00042F00102C0F80022D0F8002222F47C5237
:101CD000C0F80022D0F800224B6A42EA0322C0F882
:101CE00000220A7D02F01F0301229A40D0F81C3224
:101CF0009343C0F81C32CB69B3B9D0F80C3293438C
:101D0000C0F80C328C894B6864F31F434C6900EBBC
:101D1000C404C4F840320C890B6864F31F434C6957
:101D200000EBC404C4F84432CB69012B16D1D0F8BF
:101D30000C321343C0F80C320C884B6864F31F4319
:101D40004C6900EBC404C4F840320C89CB6864F3DE
:101D50001F434C6900EBC404C4F844328B69002B68
:101D6000D0F804320ED01343C0F804320B69002BB4
:101D7000D0F8143208D01343C0F81432096A01298C
:101D800004D008E09343EFE79343F5E7D0F81C1243
:101D90001143C0F81C12D0F8001221F00101C0F864
:101DA0000012002010BD000000640040704730B5F4
:101DB00090F82040012C05D0022C03D0416A41F458
:101DC00080215DE00468002955D02469A40754D01F
:101DD0004FF4D874056804EB01142D5915F004056F
:101DE000956005682D594ED0ED08556005682C5951
:101DF00004F00204D4604FF4DA74056804EB0114B3
:101E00002D5905F00F05156105682D59C5F30725F6
:101E1000956105682C59240C54614FF4DC720468F8
:101E200002EB0112A4581C700468A458240A5C70C8
:101E30000468A458240C9C700468A258120EDA702E
:101E40004FF4DE72046802EB0112A4581C7104689E
:101E5000A458240A5C710468A458240C9C7104687A
:101E6000A258120EDA71006881B1016941F02001B7
:101E70000161002030BDE468A8E7416A41F4001127
:101E80004162012030BD6D0D1560AFE7C16841F0C2
:101E90002001C160EDE72DE9F05F054600680024F0
:101EA0004669D0F804908768D0F80CB0D0F810A03C
:101EB000D0F81880F10748D0F90714D001218160CB
:101EC000B80703D5284600F050FA0CE0780702D591
:101ED0004FF4006407E0380702D54FF4805402E065
:101EE000284600F041FAF80516D529684FF48070AD
:101EF0008860B80503D5284600F039FA0CE078056B
:101F000002D544F4005407E0380502D544F4804477
:101F100002E0284600F02AFAF80316D529684FF4A3
:101F200080308860B80303D5284600F022FA0CE020
:101F3000780302D544F4004407E0380302D544F4A2
:101F4000803402E0284600F013FA300707D55FEA34
:101F5000CB6004D52968102044F40074C860700771
:101F60004FF0080707D55FEA0B7004D52868C760F3
:101F7000284600F099F9B00706D52868C0688007A0
:101F800002D0284600F092F9700607D55FEACA60D1
:101F900004D52968102044F480640861B00607D590
:101FA0005FEA0A7004D528680761284600F0ACF99A
:101FB000F00606D528680069800702D0284600F0A0
:101FC000A4F9B00308D55FEAC96005D529681020D7
:101FD0004860284600F09AF9F00307D55FEA0970D7
:101FE00004D528684760284600F0C4F9300446D577
:101FF0005FEA497040D5F00504D55FEAC87001D0AA
:1020000044F00104B00504D55FEA887001D544F0BE
:102010000204700504D55FEA487001D544F0040459
:10202000300529D518F0700F26D008F07000402830
:1020300015D006DC102809D020280AD0302816D167
:102040000AE050280ED0602811D10EE044F00804B8
:102050000DE044F010040AE044F0200407E044F0EE
:10206000400404E044F0800401E044F480742868F3
:10207000816921F070018161296804204860002C89
:1020800005D0686A204368622846FFF78FFEBDE8E6
:10209000F09F70B5040003D094F8200010B104E064
:1020A000012070BD204600F081F82068016841F0F1
:1020B0000101016000F0F2FB0546052604E000F096
:1020C000EDFB401B0A2811D820684068C007F6D0F5
:1020D0002068016821F00201016000F0DFFB054685
:1020E0000BE000F0DBFB401B0A2806D9606A40F4D5
:1020F0000030606284F82060D2E720684068800782
:10210000EFD4207E0128206801683DD021F08001B5
:102110000160607E01282068016838D021F040010C
:102120000160A07E01282068016833D021F02001E1
:102130000160E07E0128206801682ED041F0100186
:102140000160207F01282068016829D021F0080162
:102150000160607F01282068016824D021F004011B
:102160000160D4E902010843D4E904121143084391
:102170006168491E08432168C8610020606201202F
:1021800084F82000002070BD41F08001C0E741F0DC
:102190004001C5E741F02001CAE721F01001CFE777
:1021A00041F00801D4E741F00401D9E7F0B587B068
:1021B000044614216846FEF741FA364B3648DFF8EC
:1021C000D0E01968D4F800C0334A03250226092755
:1021D00010300024491CF44522D11960012907D18F
:1021E000016841F000710160006800F00070059026
:1021F000106840F0080010601068CDE9005600F04B
:102200000800CDE9047069462448CDE9024500F094
:1022100047FA00220521142000F0DEFB142032E0F2
:10222000DFF87CE0F44530D1D0F800C04CF0806C91
:10223000C0F800C0D0F800C001290CF0806CCDF8C7
:1022400014C0196007D1016841F000710160006895
:1022500000F000700590106840F0020010601068F7
:1022600002AB00F0020005906020CDE9000683E893
:10227000B00069460B4800F013FA00220521402007
:1022800000F0AAFB402000F099FB07B0F0BD000071
:10229000006400402400002030380240000C02405E
:1022A00000680040000402407047000070B504461A
:1022B0000068124988420DD1114B00211D46A3F13F
:1022C0001C022046FFF773FD0D4829461C380068A4
:1022D000FEF79AFE0B49206888420ED1084B002178
:1022E00044331D46A3F11C022046FFF760FD04485D
:1022F000294628300068FEF7D3FE70BD0064004018
:102300001447002000680040704770477047000085
:1023100070B5044690F82000012804D0606A40F4AB
:102320000020606218E0022084F820002068016824
:1023300021F00101016000F0B1FA05460EE000BF96
:1023400000F0ACFA401B0A2808D9606A40F400305B
:102350006062052084F82000012070BD206840687C
:10236000C007EDD1606270BD70477047704770471D
:102370007047704770472DE9F0410446876D00F0C3
:102380008DFA064694F835000025022806D08020F4
:10239000606584F834500120BDE8F0812068016850
:1023A00021F0160101602068416921F0800141613E
:1023B000206C08B9A06C20B12068016821F00801E8
:1023C00001602068016821F0010101600CE000F06B
:1023D00065FA801B052807D920206065032084F852
:1023E000350084F83450D7E720680068C007EED184
:1023F00094F85C103F208840B860012084F83500D4
:1024000084F834500020C7E790F83510022903D033
:102410008021416501207047052180F83510006852
:10242000016821F001010160002070472DE9F843A7
:1024300004464FF00009CDF8009063484FF4165160
:10244000A56D0068B0FBF1F72E6894F85C100820C9
:1024500000FA01F131420FD021680A6852070BD50A
:102460000A6822F004020A6094F85C108840A860B0
:10247000606D40F00100606594F85C104FF0010859
:1024800008FA01F0304208D021684969090604D5EC
:10249000A860606D40F00200606594F85C10042054
:1024A0008840304208D021680968890704D5A860AF
:1024B000606D40F00400606594F85C101020884066
:1024C000304218D021680968090714D5A86020682F
:1024D0000168490304D50068000308D5A16C07E032
:1024E0000168C90503D4016821F008010160216C6D
:1024F00009B12046884794F85C102020884030427B
:1025000031D021680968C9062DD5A86094F8350036
:1025100005282068016806D0490347D500680003F4
:102520001DD4616C1CE021F0160101602068416936
:1025300021F080014161206C08B9A06C20B12068B5
:10254000016821F00801016094F85C103F20884088
:10255000A86084F8358084F83490216D1FE0E16B29
:1025600009B120468847606D00282BD0606DC007F8
:1025700014D0052084F835002068016821F001019D
:1025800001600098401C0090B84203D820680068A1
:10259000C007F6D184F8358084F83490E16C0029C6
:1025A00010D001B02046BDE8F04308470168C905D6
:1025B000D5D4016821F01001016084F8358084F8D9
:1025C0003490CCE7BDE8F883340000202DE9F041D9
:1025D000044600F063F906465CB1022084F8350039
:1025E000002584F834502068016821F00101016061
:1025F0000DE00120BDE8F08100F050F9801B0528B6
:1026000005D920206065032084F83500F2E72068B2
:102610000068C007F0D12268116820480140D4E961
:1026200001031843D4E9033633431843636918435D
:10263000A3691843E3691843236A18430843616A8E
:10264000042903D1D4E90B1319430843106020680F
:102650004069666A20F0070130460E4301270428CE
:102660000CD1A06A0643E06A40B12046FFF7BEF9EC
:1026700020B14020606584F83570BAE72068466173
:102680002046FFF79FF994F85C203F21914081603C
:10269000656584F835700020ACE700003F8010F0DD
:1026A0002DE9F84FDFF8BCA1002201250AF1040B47
:1026B00003264FF00F090BF1040E00BF0B6805FA5B
:1026C00002F42340A34270D10F7907F00307012FD2
:1026D00001D0022F16D187684FEA420806FA08FC9B
:1026E00027EA0C07D1F80CC00CFA08FC4CEA070CDE
:1026F000C0F808C04768A7430C79C4F3001494409D
:102700003C4344600C79E443A4070AD0C4684FEA10
:10271000420C06FA0CF7BC438F6807FA0CF7274304
:10272000C7600C7904F00304022C12D1D40800EB2A
:10273000840CDCF820405707FF0E09FA07F824EA5A
:102740000804D1F8108008FA07F848EA0408CCF821
:10275000208004684FEA420C06FA0CF7BC430F795C
:1027600007F0030707FA0CF7274307604C6814F4D7
:10277000403F70D03C4C276847F48047276024686E
:1027800022F0030704F480440094384C07EB040C57
:10279000DCF8084897074FEA177809FA08F7BC43AE
:1027A000334FB84202D1002724E054E0314FB84201
:1027B00001D101271EE0304FB84201D1022719E0B4
:1027C0002E4FB84201D1032714E02D4FB84201D15A
:1027D00004270FE02B4FB84201D105270AE02A4F0A
:1027E000B84201D1062705E0284FB84201D107279A
:1027F00000E0082707FA08F72743CCF80878DAF84A
:1028000000405746D1F804C09C435FEACC3C00D559
:102810001C433C60DBF800405F46D1F804C09C4399
:102820005FEA8C3C00D51C433C60DEF800407746F4
:10283000D1F804C09C435FEACC2C00D51C433C601B
:10284000084F0C373C68D1F804C09C435FEA8C2CDD
:1028500000D51C433C60521C102AFFF42FAFBDE88A
:10286000F88F0000003C0140443802400030014035
:10287000000002400004024000080240000C024038
:10288000001002400014024000180240001C0240E8
:102890000AB1816170470904FBE7000001488068C4
:1028A000704700002800002009480168094A127892
:1028B000114401604FF08041496A006800EB40021A
:1028C000C2EBC01001EBC000034908607047000074
:1028D0003000002028000020B80000200B4810B570
:1028E000016841F400710160016841F48061016098
:1028F000016841F480710160032000F08DF80F2021
:1029000000F006F800F03EF8002010BD003C024048
:1029100010B5014688B000221C2000F05DF81C2094
:1029200000F04CF814480024016841F001010160F6
:10293000006805A900F001000690684600F018F94B
:1029400000F036F90D494000B0FBF1F10C484FF0B2
:102950008042491E026040F2E732C0E90324C0E928
:10296000011400F0A1FB10B1012008B010BD044813
:1029700000F0DCFBF9E700004038024040420F0065
:10298000A00900200C4882B0016841F48041016038
:10299000006800F4804000900748001F016841F083
:1029A000805101600068002200F0805000900F21EB
:1029B000901E02B000F010B844380240002809DB35
:1029C00000F01F02012191404009800000F1E02049
:1029D000C0F8001170470000F0B40E4B1B680C46A5
:1029E000C3F30223C3F10705042D00D90425191DE3
:1029F000072901D2002300E0DB1E012606FA05F1BB
:102A0000491E214099409E40761E16403143F0BC3D
:102A100002F0DDBA0CED00E0064900F0070208689C
:102A20004FF6FF03184040EA0220034A10430860B3
:102A3000704700000CED00E00000FA052DE9F047BA
:102A40000E46050065D0DFF81481D8F80000F7B213
:102A500000F00700B04207D288F80070D8F80000F4
:102A600000F00700B04254D128683D4C810712D5D0
:102A7000400703D5206840F4E05020602878000724
:102A800003D5206840F4604020602068A96820F0E9
:102A9000F000084320602878C0072DD030496868CE
:102AA0000839012812D0022813D0032811D0096850
:102AB000890700292DDA216821F0030101432160F3
:102AC000FFF7ECFE814641F2883A0EE0096889037F
:102AD000EFE709688901ECE7FFF7E0FEA0EB0901E9
:102AE000514502D90320BDE8F0872068696800F0ED
:102AF0000C00B0EB810FEFD1D8F80010404601F088
:102B00000701B14207D90770006800F00700B04222
:102B100001D00120E7E72878400705D52068E9685B
:102B200020F4E050084320602878000706D520688C
:102B3000296920F4604040EAC100206000F058F8A4
:102B40002168084AC1F30311515CC8400649086076
:102B500006480068FFF7DCFE0020C4E7003C0240A6
:102B60000838024024C60008340000202C00002051
:102B70000F2202600C4A136803F0030343601368DA
:102B800003F0F0038360136803F4E053C36012683A
:102B90004FF4E05303EAD20202610448006800F0F7
:102BA000070008607047000008380240003C0240FF
:102BB0000448054900680968044AC1F38221515C50
:102BC000C8407047340000200838024034C600086E
:102BD0000448054900680968044AC1F34231515C60
:102BE000C8407047340000200838024034C600084E
:102BF000154810B5006810F00C02144813D01449A1
:102C0000042A0FD0082A0ED10F4C241F22682368F3
:102C100002F03F025B0207D52068C0F38810A0FBDA
:102C2000010106E0084610BD2168C1F38811A1FB2F
:102C300000010023FDF7F2FB2168C1F30141491CAB
:102C40004900B0FBF1F010BD083802400024F40048
:102C500040787D012DE9F84F04006ED02078DFF830
:102C60004C93C007A9F104054AD009F1040001689A
:102C7000C1F38101012908D00068C0F38100022856
:102C80000AD1D9F80000400206D52868800337D55C
:102C900060680028E1D033E06068B0F5803F10D074
:102CA000B0F5A02F286810D020F480302860286864
:102CB00020F4802028606068A8B1FFF7EFFD064689
:102CC0000DE0286840F48030F4E740F4802028606C
:102CD000F7E700BFFFF7E2FD801B642873D8286880
:102CE0008003F7D50CE0FFF7D9FD064605E000BFED
:102CF000FFF7D4FD801B6428F0D828688003F7D440
:102D00002078DFF8AC8280074FF0000A3ED5A74854
:102D1000001D016811F00C0F08D00068C0F381009D
:102D200002280BD1D9F80000400207D42868800798
:102D300016D5E068012800D112E033E1E068B8B1AF
:102D40000120C8F80000FFF7A9FD064605E000BF16
:102D5000FFF7A4FD801B0228C0D828688007F7D59C
:102D60002868216920F0F80040EAC10028600DE0E1
:102D7000C8F800A0FFF792FD064604E0FFF78EFDBD
:102D8000801B02281FD828688007F7D42078000706
:102D900022D5864F87486169703771B10121016082
:102DA000FFF77CFD064604E0FFF778FD801B022854
:102DB00009D838688007F7D50EE0C0F800A0FFF703
:102DC0006DFD064605E082E0FFF768FD801B0228E6
:102DD0007DD838688007F7D42078400768D5DFF8B9
:102DE000CCB100270BF13C0BDBF80000C0000BD48A
:102DF000DBF8001041F08051CBF80010DBF8000048
:102E0000012700F0805000906B4E3068C00510D450
:102E1000306840F480703060FFF740FD009005E0BE
:102E2000FFF73CFD0099401A022850D83068C005D1
:102E3000F6D55E4EA0686C3601280FD005283068A4
:102E400010D020F001003060306820F004003060C5
:102E5000A068B8B1FFF722FD00900FE0306840F0A5
:102E60000100F4E740F004003060F7E7FFF716FDDB
:102E70000099411A41F28830814266D83068800753
:102E8000F4D50EE0FFF70AFD009007E0FFF706FD1E
:102E90000099411A41F28830814256D83068800743
:102EA000F4D42FB1DBF8001021F08051CBF80010E2
:102EB000A069C8B33D49091D0968C1F38101022910
:102EC0004AD00228504607D0C8F8600000E03CE035
:102ED000FFF7E4FC04463BE04746C8F86000FFF714
:102EE000DDFC064605E000BFFFF7D8FC801B02288A
:102EF0002BD828688001F7D4D4E907010843A16AD8
:102F00002E4A490802EB0141626A41EA82110843F4
:102F100094F82C1040EA0161C9F8001001203866CD
:102F2000FFF7BCFC044606E03EE000BFFFF7B6FC3E
:102F3000001B022809D828688001F7D534E000BFBB
:102F4000FFF7ACFC001B022802D90320BDE8F88F74
:102F500028688001F4D427E00128F7D0D9F80000D0
:102F6000E26900F4800191421CD1226A00F03F0125
:102F7000914217D147F6C071626A0140B1EB821FDE
:102F800010D1A26A4FF0FF3300F4403103EB52023C
:102F9000B1EB024F06D194F82C1000F07060B0EB4A
:102FA000016F01D00120D1E70020CFE704380240B3
:102FB00000004742800E4742007000400000FFFFC3
:102FC0007047704710B590F83C20012A22D00122AA
:102FD00080F83C20CA688C6822F4407222434C6816
:102FE00022F4806222430C6822F4006222430C69BE
:102FF00022F4805222434C6922F400522243C969D0
:10300000002322F480420A4301684A6480F83C307D
:10301000002010BD022010BD70B590F83C20012AA0
:1030200032D0012480F83C40022280F83D20036821
:103030005A689D6822F070060A6832435A60134B42
:1030400002689A4214D0B2F1804F11D0104B9A42CC
:103050000ED0104B9A420BD00F4B9A4208D00F4B18
:103060009A4205D00E4B9A4202D00E4B9A4204D19E
:10307000496825F080031943916080F83D400021A4
:1030800080F83C10084670BD022070BD0000014071
:103090000004004000080040000C00400004014013
:1030A000004001400018004010B5040003D094F81F
:1030B0003D0010B107E0012010BD002084F83C0065
:1030C000204600F01FF8022084F83D00211D2068F2
:1030D00001F042FC012084F8460084F83E0084F8A8
:1030E0003F0084F8400084F8410084F8420084F8EE
:1030F000430084F8440084F8450084F83D00002033
:1031000010BD000008B500680649884208D106488D
:10311000016841F001010160006800F001000090C9
:1031200008BD0000000001404438024090F83D1006
:10313000012901D001207047022180F83D1001686B
:10314000CA6842F00102CA6000681149884214D07E
:10315000B0F1804F11D00F4988420ED00E498842FD
:103160000BD00E49884208D00D49884205D00D4940
:10317000884202D00C49884204D1816801F00701DD
:10318000062903D0016841F0010101600020704769
:10319000000001400004004000080040000C004016
:1031A00000040140004001400018004070B5044692
:1031B00090F83C000025012817D0012684F83C60D7
:1031C000022084F83D002068826822F0770222F411
:1031D0007F4282600868502838D00DDC20284FD00C
:1031E00005DC90B3102811D14AE0022070BD3028D0
:1031F00046D040280AD13BE060282FD070280DD05F
:10320000B0F5805F03D0B0F5005F12D0012584F8DF
:103210003D60002084F83C00284670BDCB68D1E9B1
:103220000121206801F009FC2068816841F07701E4
:1032300009E0CB68D1E90121206801F0FEFB20689C
:10324000816841F480418160E1E719E0CA6849681A
:10325000206801F0C7FC5021206806E0CA68496870
:10326000206801F0D0FC6021206801F0F0FBCEE77F
:10327000CA684968206801F0B5FC40212068F4E77D
:10328000226801461046F0E7704770B504460068B2
:1032900001694FF00005C943890715D4C168C943C6
:1032A000890711D4E91E0161012020772068806917
:1032B0008007204602D0FFF7E7FF04E000F0C2F8E5
:1032C000204600F054F9257720680169C943490771
:1032D00017D4C168C943490713D46FF004010161D1
:1032E000022020772068806910F4407F204602D0B9
:1032F000FFF7CAFF04E000F0A5F8204600F037F918
:10330000257720680169C943090716D4C168C943F4
:10331000090712D46FF008010161042020772068AA
:10332000C0698007204602D0FFF7AEFF04E000F03E
:1033300089F8204600F01BF9257720680169C94308
:10334000C90617D4C168C943C90613D46FF0100168
:103350000161082020772068C06910F4407F204672
:1033600002D0FFF791FF04E000F06CF8204600F077
:10337000FEF8257720680169C943C90708D1C168EB
:10338000C943C90704D1891E0161204600F092F9A2
:1033900020680169C943090609D4C168C9430906FF
:1033A00005D46FF0800101612046FFF709FE206817
:1033B0000169C943490609D4C168C943490605D40E
:1033C0006FF040010161204600F07BF9206801693F
:1033D000C94389060BD4C168C943890607D46FF075
:1033E000200101612046BDE87040FFF7EABD70BDD5
:1033F00010B586B0044614216846FDF71FF90E4942
:103400002068884216D10D480021026842F010025F
:103410000260006800F0100005904FF420600090FA
:103420000220CDE901010120CDE9031069460448DD
:10343000FFF736F906B010BD0000014030380240F9
:1034400000100240704770B5044690F83C0000261A
:103450000D4601280FD0012084F83C006AB1042AEF
:103460001DD0082A2FD00C2A3FD00126002084F836
:103470003C00304670BD022070BD206801F0F0FABB
:103480002068816941F0080181612068816921F02B
:1034900004018161206881692A69114311E0206873
:1034A00001F00EFB2068816941F4006181612068B0
:1034B000816921F480618161206881692A6941EA1A
:1034C00002218161D2E7206801F030FB2068C169E8
:1034D00041F00801C1612068C16921F00401C161A6
:1034E0002068C1692A69114311E0206801F052FB8C
:1034F0002068C16941F40061C1612068C16921F49B
:103500008061C1612068C1692A6941EA0221C16103
:10351000ACE710B5040003D094F83D0010B107E00B
:10352000012010BD002084F83C00204600F01EF869
:10353000022084F83D00211D206801F00DFA0120D1
:1035400084F8460084F83E0084F83F0084F8400088
:1035500084F8410084F8420084F8430084F8440071
:1035600084F8450084F83D00002010BD7047704786
:1035700010B50446022249B104290ED0082913D0FF
:1035800094F84100012816D0012010BD94F83E00A7
:103590000128F9D184F83E200FE094F83F0001287B
:1035A000F2D184F83F2008E094F840000128EBD1E4
:1035B00084F8402001E084F841200122206801F0D5
:1035C0002FFA16492068164A884201D0904203D14A
:1035D000436C43F4004343642068884213D0B0F145
:1035E000804F10D00F4988420DD00F4988420AD031
:1035F0000E49884207D0904205D00D49884202D03A
:103600000C49884204D1816801F00701062903D0E2
:10361000016841F001010160002010BD000001407F
:10362000000401400004004000080040000C00407D
:10363000004001400018004030B504460D460068C7
:10364000002201F0EDF9194B41F2111120688A10A6
:10365000984202D0164B984209D1036A0B4206D118
:10366000036A134203D1436C23F40043436420688C
:10367000036A0B4206D1016A114203D1016821F0AD
:103680000101016001203DB1042D08D0082D09D0B1
:1036900084F84100002030BD84F83E00FAE784F849
:1036A0003F00F7E784F84000F4E700000000014025
:1036B000000401400068B0F1804F01D1FFF7F4B879
:1036C0007047704770477047F8B50168044608684E
:1036D000CA684B6910F00F0F4FF0000559D003F086
:1036E000010602F49077374365D0C10705D0D105B4
:1036F00003D5216C41F001012164410705D5D907AB
:1037000003D0216C41F002012164810705D5D9075E
:1037100003D0216C41F004012164010707D502F0B8
:103720002001314303D0216C41F008012164216C58
:1037300000293AD0800604D5900602D5204601F033
:10374000A3FA20684069216CC0F38010090700D4F7
:1037500060B3204601F071FA20684069400621D527
:103760002068143050E8001F21F0400140E80012AA
:10377000002AF5D1A06BA8B16C490165A06BFEF7DA
:1037800043FE002811D0A06B016D01B0BDE8F040F0
:10379000084783060FD593060DD52046BDE8F840AF
:1037A00001F072BA2046FFF78EFFF8BD2046FFF702
:1037B0008AFF2564F8BD266B2023012E79D1C60629
:1037C00077D5D60675D508684868009048694006E0
:1037D00040D5A16B086840680004000CEAD0A28DB7
:1037E0008242E7D9E085C869B0F5807F2DD0206896
:1037F0000C3050E8001F21F4807140E80012002ACC
:10380000F5D12068143050E8001F21F0010140E894
:103810000012002AF5D12068143050E8001F21F072
:10382000400140E80012002AF5D184F83E302563BB
:1038300020680C3050E8001F21F0100140E8001211
:10384000002AF5D1A06BFEF796FDA08DE18D401A00
:1038500081B229E0A08DE18D401A81B2E08D00286F
:10386000A8D00029A6D020680C3050E8002F22F400
:10387000907240E80026002EF5D12068143050E800
:10388000002F22F0010240E80026002EF5D184F836
:103890003E30256320680C3050E8002F22F01002E3
:1038A00040E80023002BF5D12046FFF70BFFF8BDC1
:1038B000FFE705062BD5150629D594F83D002128EC
:1038C000F5D1A068B0F5805F01D12069B0B1206A60
:1038D000411C2162216800784860E08C401E000491
:1038E000000CE084E3D12068C16821F08001C16050
:1038F0002068C16841F04001C160D8E7206A0088B3
:10390000C0F308004860206A801C2062E5E740069A
:10391000CDD55006CBD5CA68204622F04002CA60F9
:1039200084F83D3000F005F9C1E700002B4C000899
:1039300070B5040004D094F83D00002510B106E0F5
:10394000012070BD84F83C50204600F023F824206C
:1039500084F83D002068C16821F40051C160204610
:1039600001F0F2F92068016921F4904101612068B9
:10397000416921F02A0141612068C16841F4005188
:10398000C1602564202084F83D0084F83E000020BA
:1039900070BD00002DE9F04786B006461421684648
:1039A000FCF74CFE5B48DFF868C1336859491038B2
:1039B00002250327072200244FF000694FF4806A94
:1039C000634548D10B6843F400330B60096801F488
:1039D00000310591016841F001010160016801F0C9
:1039E00001010591016841F008010160006802AB26
:1039F00000F0080005900820CDE90005904683E816
:103A0000900169464448FEF74BFE2020CDE90005B1
:103A100002AB694683E890014048FEF741FE414D04
:103A20003F482860C5E90194C5E9034A6C61380440
:103A3000AC61C5E9074028466C62FEF7C7FD08B1D6
:103A4000FEF73AF8B563002205212620AE63FEF7A3
:103A5000C3FF262056E0DFF8D0C0634554D10B6881
:103A600043F480230B60096801F48021059101680B
:103A700041F0020101600068029400F0020005902C
:103A80004FF44060CDE90005CDE90372694627484F
:103A9000FEF706FE234D2248603560382860C5E9F0
:103AA0000194C5E9034A80156C61C5E90640C84622
:103AB0004FF40039C5E9089457462846FEF786FDBD
:103AC00008B1FDF7F9FFB563AE63164D1448C03574
:103AD0003038E5E80208402091C5124845F81449FD
:103AE000C030AC61C5E907496C62FEF76FFD08B1F3
:103AF000FDF7E2FF7563002205212720AE63FEF784
:103B00006BFF2720FEF75AFF06B0BDE8F0870000E4
:103B1000004400404038024000000240000C0240D7
:103B200088600240800800200048004000040240F5
:103B300070477047FEE7000070B50D4C0025C4F8D3
:103B4000B4520C48016821F040410160016841F025
:103B500080410160C4F8BC52022004F52D7403F0CA
:103B60008BFA01202060022003F086FA256070BDE8
:103B7000008040420004024070B50D4C0025C4F89E
:103B8000B4520C48016821F040410160016841F0E5
:103B9000804101600126C4F8BC62022004F52D7446
:103BA00003F06AFA2660022003F066FA256070BD11
:103BB00000804042000402402DE9F047814616484B
:103BC0000024016821F04041016001680160134E4A
:103BD000254627464FF00108C6F8B472022003F0CC
:103BE0004BFAC6F8B4826006040ED6F83C0208B15F
:103BF000641CE4B2012003F03FFA6D1CEDB2082D05
:103C0000EAD3B9F1000F04D0FFF796FF2046BDE8D4
:103C1000F087FFF7B1FFF9E700040240008040425F
:103C20002DE9F04106461448016821F04041016049
:103C3000016841F080410160104C0027C4F8B47263
:103C40003D464FF00108F009C4F8BC027006060EAC
:103C5000022003F011FAC4F8B482022003F00CFA37
:103C6000C4F8B472022003F007FA6D1CEDB2082DFF
:103C7000E9D3BDE8F081000000040240008040422A
:103C800070B50D48016821F040410160016841F0C4
:103C900080410160094C0120C4F8BC02C4F8B402A0
:103CA000042004F52D7403F0E7F90025A560042035
:103CB00003F0E2F9256070BD00040240008040423C
:103CC0000E4810B5016821F040410160016841F0E3
:103CD000804101600A4C0020C4F8B402C4F8BC0260
:103CE000042004F52D7403F0C7F901202060A060C2
:103CF000BDE81040042003F0BFB9000000040240FA
:103D00000080404270B512480024016821F0404113
:103D10000160016801600F4D0126C5F8BC623046A4
:103D200003F0AAF9C5F8B462012003F0A5F907E091
:103D3000641CE4B2FA2C03D9FFF7C2FF012070BD66
:103D4000D5F83C020028F3D1C5F8B40270BD0000DC
:103D500000040240008040420B4810B5406B0088D0
:103D600000EE100A0948B8EE400A006880ED000A2B
:103D700000F00EF8012801D1FDF7D4FCFDF7AEFAF2
:103D8000BDE8104004F05AB9F4010020EC01002015
:103D90000448806BE12801D00120704702490020CF
:103DA0004874704700000140084D0020074A084948
:103DB00092F8240048700B78984203D020B1012378
:103DC00082F82530087070470023F9E7D8000020FA
:103DD000C80300200A4810B590ED000A09480068A1
:103DE00080ED000A084890ED000A06480830006897
:103DF00080ED000AFDF7A8FCBDE8104004F022BBEE
:103E0000BC030020D4010020B403002070B5054697
:103E1000FFF736FF0F4C20784006000EFFF700FF3B
:103E2000FFF770FF2846FFF7FBFEFFF76BFFFFF77A
:103E300027FF2078012101EB4000C0B2FFF7F0FE20
:103E4000FFF760FF0020FFF7B7FE0446FFF738FFDB
:103E5000204670BD3C0400202DE9F04116460D4679
:103E60000746FFF70DFF134C20784006000EFFF7C2
:103E7000D7FEFFF747FF3846FFF7D2FEFFF742FFB6
:103E8000FFF7FEFE2078012101EB4000C0B2FFF7F2
:103E9000C7FEFFF737FF002406E00120FFF78CFE86
:103EA000641C05F8010BE4B2B442F6D3BDE8F0415E
:103EB000FFF706BF3C040020104810B50E49016012
:103EC0000321416000214FF400228160C0E9031208
:103ED0004FF4401242610176012242768176C1762A
:103EE00001774277FEF7D5F8002803D0BDE81040EF
:103EF000FDF7E2BD10BD0000006400409406002004
:103F0000104810B50E4901600321416000214FF4B3
:103F100000228160C0E903124FF440124261017631
:103F2000012242768176C17601774277FEF7B1F8B9
:103F3000002803D0BDE81040FDF7BEBD10BD000055
:103F400000680040BC060020114808B5016841F433
:103F5000001101600068002200F4001000900521AB
:103F60000C20FEF739FD0C20FEF728FD002205216C
:103F70000E20FEF731FD0E20FEF720FD0022052168
:103F80001020FEF729FDBDE808401020FEF716BD01
:103F90003038024010B5C0B01C2232496846FCF7E8
:103FA000F9FA0021684604F05DFB2F4C2D491C22D4
:103FB00020601C3107A8FCF7EDFA002107A804F0E7
:103FC00051FB284960601C2238310EA8FCF7E2FA48
:103FD00000210EA804F046FB2249A0601C225431A7
:103FE00015A8FCF7D7FA002115A804F03BFB1D49E2
:103FF000E0601C2270311CA8FCF7CCFA00211CA840
:1040000004F030FB174920611C228C3123A8FCF7F7
:10401000C1FA002123A804F025FB124960611C228B
:10402000A8312AA8FCF7B6FA00212AA804F01AFB46
:104030000C49A0611C22C43131A8FCF7ABFA002165
:1040400031A804F00FFB0749E0611C22E03138A8D9
:10405000FCF7A0FA002138A804F004FB206240B06D
:1040600010BD000020C50008000000202DE9F0412F
:1040700086B014216846FCF7E1FA2B480024016859
:1040800041F004010160016801F00401059101683B
:1040900041F080010160016801F080010591016833
:1040A00041F001010160016801F001010591016821
:1040B00041F010010160016801F0100105910168F3
:1040C00041F002010160016801F0020105910168FF
:1040D00041F0080101600068012200F00800134F60
:1040E0005503059029463846FEF7D2FBDFF840809D
:1040F0004FF42046012231464046FEF7C9FB0095A9
:104100000125CDE90154694638460394FEF7C8FA03
:104110000320CDE90240CDE9006569464046FEF73F
:10412000BFFA06B0BDE8F081303802400008024016
:104130000004024010B596B000240F94109411941E
:10414000129413941C2168461494FCF777FA2021EA
:1041500007A8FCF773FA2D482B49016040F28F61E4
:10416000C0E9011440F2E731C0E9031444618461FD
:10417000FEF79AFF08B1FDF79FFC4FF480500F90B7
:104180000FA92248FFF712F808B1FDF795FC1F4868
:10419000FFF7BFF908B1FDF78FFC139413A91B4873
:1041A0001494FEF739FF08B1FDF786FC6020CDE9D5
:1041B0000004029403940494059400226946134871
:1041C0000694FFF740F908B1FDF776FC0422694632
:1041D0000E48FFF738F908B1FDF76EFC0794089414
:1041E00009944FF400500A94CDE90B4007A9074801
:1041F0000E94FEF7E7FE08B1FDF75EFC0348FFF7FB
:10420000F7F816B010BD000000000140E4060020E1
:104210000C4810B50A4901600B49416000218160DA
:104220000C22C160C0E904128161C161FFF780FB0B
:10423000002803D0BDE81040FDF73EBC10BD0000D3
:1042400000440040F8070020A08601000C4810B58B
:104250000A4901604FF4E1314160002181600C2284
:10426000C160C0E904128161C161FFF761FB0028F0
:1042700003D0BDE81040FDF71FBC10BD0048004052
:104280003C08002010B5224C04F13400E16D884751
:10429000A16A20468847FDF745FA1E48006890ED60
:1042A000020AB5EEC00AF1EE10FA01DCB1EE400AE6
:1042B00010EE101A1848814224DC164908390968A2
:1042C00091ED020AB5EEC00AF1EE10FA01DCB1EE92
:1042D000400A10EE101A814214DC104890ED000ADA
:1042E0000C481838006880ED000A0D4890ED000A6F
:1042F00008481038006880ED000A002084F830007B
:10430000012010BD04F09EF8FDF744FC002010BD14
:10431000F4010020EC01002000004842BC03002012
:10432000B4030020FEE7B5EEC00AF1EE10FA01DAA0
:10433000B1EE400A704790ED001AB1EE602AF0EE3F
:10434000001AB4EEE01AF1EE10FA02DB00EEE11A08
:1043500006E0B4EEC21AF1EE10FA03D800EEA11A8C
:1043600080ED001A31EE400AB4EEE00AF1EE10FAE8
:1043700002DB00EEE10A06E0B4EEC20AF1EE10FA4A
:1043800001D800EEA10A81ED000A7047FEE70000A7
:1043900010B5FDF7E3FB0548C169884704480121D2
:1043A000417001700021817010BD0000D800002014
:1043B000C803002030EE600AF0EE000A80ED000A2B
:1043C000B4EEC10AF1EE10FA02DB01EE600A0AE077
:1043D000F0EE401AB1EE412AF4EEC21AF1EE10FAF4
:1043E00003D801EE200A80ED000A704710B5FDF7F2
:1043F00093F902490020886310BD000000000140CD
:1044000070B58EB00646002502468DF80050012199
:10441000684602F067F801F079FF32460121042076
:1044200002F020FB044601F071FF84B90C208DF8E6
:10443000020002208DF8030001208DF805508DF850
:10444000040001463246684602F016FC04460EB0EF
:10445000204670BD70B58EB00124064602468DF828
:1044600000402146684602F03DF801F04FFF324619
:104470000221042002F0F6FA054601F047FF95B943
:104480000C208DF8020000208DF8060002208DF827
:1044900003008DF807408DF804403246012168463C
:1044A00002F0EAFB05460EB0284670BD70B5154C0B
:1044B000FDF704FBA17A144D012905F1680613D11B
:1044C000A07B88B9207B01280AD1A86FDFED0F0AF5
:1044D00090ED000A30EE200A80ED000A00202073E3
:1044E000D5F8941030468847207A012808D1607B9F
:1044F000002805D13046D5F88C10BDE8704008473B
:1045000070BD0000084D00205C020020002410C790
:1045100070B5224C00252DED028B00BF05EB850008
:1045200000EBC50004EB8006304671698847B0682F
:1045300004F0C2F86D1C042DF0DB00209FED188AFA
:10454000F2EE040AB1EE040A00EB800101EBC001B7
:1045500004EB8101401C8A68032882ED0D8A8A6879
:10456000C2ED040A896881ED060AEDDB206F9FED3C
:104570000D0A80ED000AA06F04F09EF8A06FB0EE67
:10458000000A80ED040AA06F9FED070A80ED060A7D
:10459000A06F80ED0D8ABDEC028B70BD5C02002027
:1045A0000080BB450000FAC40000484210B500F08E
:1045B0000FF8054A4FF400710448FCF7D5FD024896
:1045C00000210160416010BDB00000201C470020A8
:1045D0002DE9F0412D4E2E4806F018FC2C4D2D4CA7
:1045E000A86890ED0A0ABDEEC00A10EE100A00128B
:1045F000207010EE100A607005F1340006F006FC21
:10460000E86B05F1680790ED0A0ABDEEC00A10EEEE
:10461000100A0012A07010EE100AE070307A012823
:1046200001D1707B20B11C4890F8240001280ED1E4
:10463000384606F0EBFB286F90ED0A0ABDEEC00A83
:1046400010EE100A0012207110EE100A6071B07A9C
:10465000012805D0707B012802D0B07B012812D13F
:10466000D5F88C1038468847384606F086FBA86F88
:1046700090ED0A0ABDEEC00A10EE100A0012207179
:1046800010EE100A6071BDE8F0810000084D0020B6
:104690005C020020B0000020D8000020FCF7F2FDF2
:1046A000064C00BF94F8240018B9FCF779FEFDF71A
:1046B0000FF8012003F0CAFFF4E70000D800002043
:1046C000012003F0C3FFFBE7FDF73CFA0D4C0E4E53
:1046D0000E4D00BF94F8240080B9307801280DD128
:1046E0006879012803D02879012803D004E0FFF776
:1046F00033FB01E0FFF76EFBFDF74CFA012003F0FE
:10470000A5FFE7E7D8000020CA030020084D0020DD
:104710002DED028B86B0FCF717FB264E9FED268A07
:10472000B51EAF1EDFED258AA5F10408A5F1060927
:10473000BC1F204BCDE900561B1F9A1E911E881EE0
:10474000FCF7DEFACDF800901A4BCDE903560A3B90
:1047500003F11402CDE90187111F081FFCF7A2F82D
:10476000B4F90400D4ED060A00EE100AB8EEC00A4F
:1047700020EE080A00EEA80A84ED060ABDEEC00A83
:1047800010EE100AA080B4F90200D4ED070A00EE82
:10479000100AB8EEC00A20EE080A00EEA80A84ED5E
:1047A000070ABDEEC00A10EE100A6080012003F077
:1047B0004DFFBEE7B2030020CDCC4C3ECDCC4C3FEC
:1047C000054C00BF94F8240010B9216A02488847BC
:1047D000012003F03BFFF5E7D8000020144C2046F1
:1047E000E16888470125134E0027A16910488847D2
:1047F000FFF7DCFA94F8250028B9FFF743FD10B164
:1048000084F82550B57094F8240048B1FCF796FF61
:10481000FFF7BEFDFCF7D4FC012003F017FFE4E72F
:10482000FCF77AFF6169024888477760F4E7000087
:10483000D8000020C8030020FFF76AFE074C00BF25
:1048400094F8240028B9FFF731FEFCF7B3FAFFF71C
:10485000ADFE012003F0FAFEF2E70000D8000020D0
:10486000034C034861698847012003F0EFFEF8E735
:1048700088030020012003F0E9FEFBE710B550207B
:1048800080F31188BFF34F8FBFF36F8F06F0ACFF3B
:1048900018B104494FF080500860002080F311885F
:1048A00010BD000004ED00E030B593B03021684643
:1048B000FBF7C4FE14210CA8FBF7C0FE1D48002521
:1048C000016841F080510160006800F08050119053
:1048D0001948016841F4804101600068022400F435
:1048E00080401190012003901020049000940694C1
:1048F0000820CDE90750A820CDE9090404200B9039
:104900006846FEF7A7F908B172B6FEE70CA90F20BA
:1049100081E831004FF4A0500F904FF48050109078
:1049200005210CA8FEF78AF8002801D072B6FEE730
:1049300013B030BD403802400070004002480168AA
:1049400041F470010160704788ED00E00148FEF716
:104950009CBC0000A0090020F0B50268254C264D43
:10496000264E274F274B4FF0804CA04209D0604580
:1049700007D0A84205D0B04203D0B84201D0984237
:1049800004D122F0700E4A6842EA0E02A0421BD007
:10499000604519D0A84217D0B04215D0B84213D004
:1049A000984211D0184DA8420ED0184DA8420BD0F5
:1049B000174DA84208D0174DA84205D0164DA84261
:1049C00002D0164DA84203D122F44075CA682A438A
:1049D0004D6922F080022A4302608A68C2620A6836
:1049E0008262A04201D0984201D10969016301218C
:1049F0004161F0BD0000014000040040000800409B
:104A0000000C00400004014000400140004401400F
:104A10000048014000180040001C004000200040F9
:104A200010B501F01F030121046A99408C43046210
:104A3000016A9A401143016210BD10B5846842EAD0
:104A4000032224F47F440A432243826010BD82681B
:104A500022F070020A4342F00701816070470000B3
:104A6000F0B5026A22F001020262036A42688469B8
:104A7000124E24F073050C682C4323F002058B685A
:104A80002B430D4DA84201D0B04205D123F00807B9
:104A9000CB683B4323F00403A84201D0B04205D1C8
:104AA0004D6922F4407215438A692A434260846149
:104AB000496841630362F0BD000001400004014009
:104AC000F0B5026A22F010020262026A4368846949
:104AD0000D6824F4E64444EA05248D6822F020029F
:104AE00042EA05120F4D104EA84201D0B04206D145
:104AF000CF6822F0800242EA071222F04002A84268
:104B000001D0B04207D14D6923F4406343EA8503E5
:104B10008D6943EA85034360846149688163026269
:104B2000F0BD00000000014000040140F0B5026A41
:104B300022F480720262026A4368C46922F400723D
:104B400024F073050C68124E2C438D6842EA05224E
:104B50000E4DA84201D0B04206D1CF6822F40062C7
:104B600042EA072222F48062A84201D0B04207D173
:104B70004D6923F4405343EA05138D6943EA051355
:104B80004360C4614968C1630262F0BD0000014036
:104B90000004014030B5026A22F480520262046AC5
:104BA0004268C3690D6823F4E64343EA05238D6830
:104BB00024F4005444EA0534084DA84202D0084DBC
:104BC000A84204D14D6922F4804242EA8512426033
:104BD000C36149680164046230BD00000000014007
:104BE0000004014010B5036A046A24F00104046261
:104BF000846924F0F00444EA021423F00A020A4310
:104C00008461026210BD10B5036A23F010030362D1
:104C10008369046A23F4704343EA023224F0A00358
:104C200043EA01118261016210BD10B5806B002161
:104C3000C185C184FEF747FD10BD01680C3151E804
:104C4000002F22F4907241E80023002BF5D1016877
:104C5000143151E8002F22F0010241E80023002B1B
:104C6000F5D1016B012909D101680C3151E8002F00
:104C700022F0100241E80023002BF5D1202180F81A
:104C80003E1000210163704708B590F83E102229BC
:104C900001D0022008BD82684FF480539A4201D1AE
:104CA000016921B1816A9A421BD04AB10AE00268C7
:104CB000816A5268C2F308020A80816A891C08E08E
:104CC000026972B10268526802F07F020A70816A5A
:104CD000491C8162C18D491E0904090CC18503D09C
:104CE00019E002685268F1E70168CA6822F0200200
:104CF000CA600168CA6822F48072CA6001684A69A1
:104D000022F001024A61202180F83E10016B012946
:104D100003D0FEF70DFF002008BD002101630168EC
:104D20000C3151E8002F22F0100241E80023002B43
:104D3000F5D101680A68D20602D50A68496800916F
:104D4000818DFEF7BFFCE6E770B504460068016997
:104D5000E26821F44051114301612169A068E269D0
:104D600008436169114308432168CA6849F20C632A
:104D70009A430243CA6020684169A26921F44071E4
:104D80001143416131492068884202D0304988424C
:104D900002D1FDF71DFF01E0FDF70AFFE2690023E4
:104DA000192164253226B2F5004F626828D0A0FB95
:104DB0000101930F9200FBF731FB0146B0FBF5F0C8
:104DC0006FF01802504301EB800006EB0010B0FBBF
:104DD000F5F000F0F002B1FBF5F002EB0012B1FBD0
:104DE000F5F06FF01803584301EB800006EB00105C
:104DF000B0FBF5F000F00F0021681044886070BD32
:104E0000A0FB010192185B41FBF708FB0146B0FBD8
:104E1000F5F00201B1FBF5F06FF01803584301EB18
:104E2000800006EBC000B0FBF5F000F0F80002EBEC
:104E30004002B1FBF5F0584301EB800006EBC000E7
:104E4000B0FBF5F000F00700D6E7000000100140CD
:104E50000014014010B50448FCF723FEBDE81040E3
:104E60000148FEF731BC0000F80700200C4808B5E7
:104E700001680A684A680092CA6842F01002CA6073
:104E800001684A6942F040024A61122100910168BA
:104E9000044B806BA3F11802091DFCF771FC08BDDF
:104EA000F8070020D648002010B5054C01462046E2
:104EB0002269904720466169BDE81040084700001C
:104EC000D800002010B50448FCF7EBFDBDE8104009
:104ED0000148FEF7F9BB00003C0800200B4882B0F7
:104EE00001680A684A680092CA6842F01002CA6003
:104EF00001684A6942F040024A610168806B4FF4E0
:104F0000AF73034A091D02B0FCF79ABD3C080020AC
:104F1000AA4B002010B5054C01462046E268904798
:104F200020462169BDE810400847000088030020A2
:104F300070477047FEE7000030B50C46050014D0FE
:104F4000022C12D90A48A11E02882846FCF7D4FD7B
:104F50002919C2B211F8023C9A4206D111F8011C7B
:104F6000B1EB102F01D1012030BD002030BD000079
:104F7000A403002030B50C4605000ED0022C0CD93D
:104F8000601E81B2FF222846FCF7CCFD291911F8DA
:104F9000011C814201D1012030BD002030BD03B48D
:104FA00001984100009850EAC12018BF04204A0D22
:104FB00018BF40F0010040F2FF72B2EB515F08BF32
:104FC00040F00200012808BF052002B07047090721
:104FD000090E002804DB00F1E02080F8001470477F
:104FE00000F00F0000F1E02080F8141D7047000071
:104FF00070B5C1482DED020B2DED0E8B82B0119DC9
:1050000025F000449FEDBEDB9FEDBFEB84423EDB0D
:10501000A4F140511098A1F17F6108430FD0BC4822
:10502000844202DC28D1109830B39DED100B02B001
:10503000BDEC0E8B02B0BDE8704001F09DB89DED57
:10504000100B53EC1D2B51EC100B06F02DFF9DEDBA
:10505000100B41EC180B53EC1E2B51EC100B06F00F
:1050600023FF53EC182B06F0C5FC41EC100B02B0EB
:10507000BDEC0E8B02B070BD0120FBF760FB02B0EF
:10508000BDEC0E8B02B0BDE8704001F089B8A148BC
:105090009FEDA18B844256DA9DED100BB4F1795F40
:1050A0000ADA51EC100BFFF77AFF042808BF01F071
:1050B00087F89DED100BDAE753EC102B51EC100B39
:1050C00006F0F2FE41EC190B95480621B0EE490AB4
:1050D000F0EE690A784400F03BFF53EC192B51ECD9
:1050E000100B06F0E1FE41EC1A0B8E48B0EE490AB7
:1050F000F0EE690A0421784400F02AFF53EC192BE2
:1051000051EC100B06F0D0FE53EC182B06F072FC9D
:1051100041EC100B51EC1A0B53EC102B06F012FD66
:10512000CDE900019DED000B53EC102B9DED100B14
:1051300051EC100B06F0B8FE9DED101B53EC112B3B
:1051400006F058FCD2E09DED100B51EC100B01F075
:10515000D2FF53EC182B06F0A5FF9FED730BCDE9A2
:10516000000153EC102B9DED000B51EC100B06F0E1
:105170009BFE41EC190B6E480621B0EE490AF0EE99
:10518000690A784400F0E4FE53EC192B51EC100B43
:1051900006F08AFE41EC1B0B6648B0EE490AF0EEC1
:1051A000690A0421784400F0D3FE53EC192B51EC2A
:1051B000100B06F079FE53EC182B06F01BFC41ECAB
:1051C0001C0B51EC190B05F03EFE41EC180B5A4834
:1051D0009FED5BABA04222DC53EC1C2B51EC1B0B74
:1051E00006F0B0FCCDE900019DED000B51EC180B71
:1051F00053EC102B06F058FE53EC182B06F0FAFB7C
:1052000053EC1A2B06F050FE53EC1D2B07F022F83E
:1052100053EC1E2B06F046FF41EC100B5FE08DEDCA
:10522000008B002000909DED000B51EC180B53EC0F
:10523000102B06F0DFFB9DED000B41EC1E0B53EC39
:10524000102B51EC100B06F02FFE53EC192B06F02F
:1052500029FF53EC1E2B06F075FC41EC190B53ECA7
:105260001C2B51EC1B0B06F06DFC41EC1B0B53ECA3
:105270001A2B51EC190B06F017FE53EC1D2B06F000
:1052800011FF41EC190B53EC1A2B51EC180B06F0E3
:105290000BFE53EC1B2B06F007FE53EC192B06F00C
:1052A000D9FF9DED000B41EC180B53EC1A2B51EC80
:1052B000100B06F0F9FD9FED249B53EC192B06F023
:1052C000F1FE41EC100B51EC180B53EC102B06F0D7
:1052D000C1FF53EC192B06F0E5FE41EC100B002D3D
:1052E0003FF7C5AE51EC100B06F046FB41EC100B3E
:1052F000BDE60000000000000000F03F00000000DC
:10530000075C143326A6913C182D4454FB21F93F29
:105310000000F07F0000E03F000000000000F03FD0
:10532000B0980000BE980000000000000000E03FC0
:1053300002980000109800003333EF3F0000000097
:105340000000000000000040182D4454FB21E93FFC
:1053500070B59B482DED020B2DED068B079D25F0BA
:105360000044A04218DC9748844202DC0AD1069827
:1053700040B19DED060BBDEC068B02B0BDE8704060
:1053800000F0FABE002DCCBF9FED8F0B9FED900B70
:10539000BDEC068B02B070BD8F48A04215DD8F4872
:1053A000A042D8BF4FF0FF3458DD9DED060B51EC05
:1053B000100BFFF7F4FD042808BF00F001FF9DED7E
:1053C000060BBDEC068B02B070BD9DED060B51ECDB
:1053D000100B01F090FECDE9060181489FED828B14
:1053E000A0423CDD8248A0421FDD00249FED82AB3D
:1053F0009DED060B53EC1A2B51EC100B06F0FAFA4C
:105400009DED060B41EC190B53EC1A2B51EC100BD4
:1054100006F04AFD53EC182B06F01CFF53EC192B39
:1054200006F090FBCDE9060149E09DED060B012455
:1054300053EC182B51EC100B06F0DCFA9DED060B2B
:1054400041EC190B53EC182B51EC100B06F002FF3A
:1054500053EC192B06F076FBCDE906012FE06848E6
:10546000A0421FDD02249FED689B9DED060B53ECCF
:10547000192B51EC100B06F017FD53EC182B06F00E
:10548000B9FA9DED060B41EC180B53EC192B51ECBE
:10549000100B06F0DFFE53EC182B06F053FBCDE9A2
:1054A00006010CE09DED060B032453EC102B9FED41
:1054B000580B51EC100B06F045FBCDE906019DEDB4
:1054C000060B53EC102B51EC100B06F0EDFC41ECED
:1054D000180B53EC182B06F0E7FC41EC190B4E4867
:1054E0000621B0EE490AF0EE690A784400F030FD7A
:1054F00053EC182B51EC100B06F0D6FC41EC180BBA
:105500004648B0EE490AF0EE690A0521784400F0F9
:105510001FFD53EC192B51EC100B06F0C5FC41ECB0
:10552000100B51EC180B53EC102B002C0EDA06F07C
:1055300061FA9DED061B53EC112B06F0B5FC9DEDB9
:10554000061B53EC112B06F0ADFD35E006F052FAC8
:105550009DED061B53EC112B06F0A6FC41EC100B45
:105560002F48784400EBC40090ED001B51EC100B69
:1055700053EC112B06F06EFE9DED061B53EC112B28
:1055800006F068FE41EC100B2648784400EBC4009E
:1055900090ED001B51EC100B53EC112B06F082FD2B
:1055A00041EC100B002DA2BFBDEC068B02B070BD0C
:1055B00051EC100B06F0E0F941EC100B01E7000094
:1055C000000010440000F07F182D4454FB21F93FE7
:1055D000182D4454FB21F9BF0000DC3F0000203EA1
:1055E0000000F33F00000000000000000000F03F5A
:1055F0000000E63F00000000000000000000004046
:105600000080034000000000000000000000F83FA0
:10561000000000000000F0BF529500000895000057
:10562000929400004A94000070B56B4E2DED040B6F
:105630002DED028B82B0DDF81CC0DDE905235C4254
:105640002CF000411C4341EAD474049D22F0004038
:10565000B44205D86C422C4340EAD474B4420BD90E
:105660009DED061B9DED040B02B0BDEC028B04B05A
:10567000BDE8704000F08ABDACF14054A4F17F64F5
:105680001C430BD0022404EAAC7444EAD2740543F0
:105690009FED538B9FED542B07D015E09DED040B30
:1056A00051EC100B00F0EEFD42E0002C11BF012C7C
:1056B0009DED040B02B0BDEC028B04BF04B070BDC5
:1056C000022C38D0032C3BD00B439FED491B9FEDA0
:1056D0004A0B0AD0B14218D1B04209D121F0804121
:1056E00020F08040079105900FE0002A15DA10E0C5
:1056F000434B7B44002C08BF93ED000B0DD0012CD5
:1057000010D0022C17D0032C1AD0B0421DD1002A81
:1057100003DAB0EE410AF0EE610A02B0BDEC028B92
:1057200004B070BD93ED000B51EC100B06F024F9A2
:1057300041EC100BF1E7B0EE480AF0EE680AECE736
:10574000B0EE420AF0EE620AE7E7401A00153C2884
:10575000C8BF8DED000B19DCBCF1000FBEBF10F10E
:105760003C0F9FED290B8DED000B0FDB9DED060B24
:1057700053EC102B9DED040B51EC100B06F0E2F9ED
:1057800001F0B9FC00F07EFDCDE90001002C08BF5E
:105790009DED000BC1D0012C10D0022C9FED1C0BF5
:1057A00053EC102B9DED000B51EC100B0DD006F0BF
:1057B00051FD53EC182B06F04DFDB9E7019880F030
:1057C000004001909DED000BA7E706F043FD53EC70
:1057D000182B06F067FCABE70000F07F000000002C
:1057E000182D4454FB210940182D4454FB2109C0B5
:1057F000182D4454FB21F9BF182D4454FB21F93FC7
:10580000AA9300000000000000000000000000005B
:10581000075C143326A6A13C10B52F499FED2C1B25
:105820002DED020B84B0059820F000408842D8BFCF
:105830009DED040B2DDD2949884209D1049840B91A
:105840004FF00100FAF77BFF00F0AAFC06B010BD94
:1058500005DB9DED040B00F08FFC06B010BD684623
:105860009DED040B00F0A0F810F0030004BF9DEDC7
:10587000021B9DED000B0CD001280ED09DED021BEC
:105880009DED000B022817D0012000F0DDFB06B0D3
:1058900010BD00F0A5FA06B010BD9DED021B9DEDF8
:1058A000000B012000F0D0FB51EC100B06F064F867
:1058B00006B041EC100B10BD00F092FA51EC100B49
:1058C00006F05AF806B041EC100B10BD00000000C5
:1058D0000000000000000000FB21E93F0000F07F15
:1058E00010B52F499FED2C1B2DED020B84B00598B0
:1058F00020F000408842DCBF00209DED040B32DD2B
:105900002849884209D1049840B94FF00100FAF7BC
:1059100016FF00F045FC06B010BD05DB9DED040B45
:1059200000F02AFC06B010BD68469DED040B00F0A7
:105930003BF810F0030011D0012818D09DED021B98
:105940009DED000B02281AD000F04AFA51EC100B22
:1059500006F012F806B041EC100B10BD9DED021BD5
:105960009DED000B012000F06FFB06B010BD9DED1A
:10597000021B9DED000B00F033FA06B010BD0120B4
:1059800000F062FB51EC100B05F0F6FF06B041ECA5
:10599000100B10BD0000000000000000000000001F
:1059A000FB21E93F0000F07F2DE9F14F04462DED8A
:1059B000020B2DED088B8AB09FEDE70B80ED020BFB
:1059C000139EE74826F0004585420ADC9DED120B48
:1059D000002084ED000B0AB0BDEC088B03B0BDE8DD
:1059E000F08FE0489FEDE0AB9FEDE1BBA84247DDC3
:1059F000E14F9FEDE39B9FEDE48B9DED120B53EC8C
:105A00001A2B51EC100B002E1CDD06F023FC41EC90
:105A1000100BBD4208D053EC1B2B51EC100B06F0C1
:105A200019FCC4E900010BE053EC192B51EC100BED
:105A300006F010FC53EC182B06F00CFCC4E9000136
:105A40000120C8E705F0D6FF41EC100BBD4208D09D
:105A500053EC1B2B51EC100B05F0CCFFC4E90001FB
:105A60000BE053EC192B51EC100B05F0C3FF53EC7A
:105A7000182B05F0BFFFC4E900014FF0FF30AAE783
:105A8000C348A84279DB9DED120B51EC100B01F0DD
:105A900032FB41EC180B9FEDC00B53EC102B06F0C2
:105AA00003FA9FEDBF1B53EC112B05F0A3FF06F08B
:105AB000A1F9074606F0CDF941EC190B53EC1A2B6E
:105AC00006F0F2F953EC182B06F0ECFA41EC180B47
:105AD00053EC1B2B51EC190B06F0E6F9DFF8C8A2CA
