:020000040800F2
:10000000F85F00203103000891510008D540000836
:10001000514E00089D1000083D60000800000000DF
:100020000000000000000000000000007102000855
:10003000D71C000800000000CD020008E1570008AE
:100040004B0300084B0300084B0300084B03000858
:100050004B0300084B0300084B0300084B03000848
:100060004B0300084B0300084B0300083D19000830
:10007000491900084B030008551900084B030008F4
:10008000611900084B0300084B0300084B030008EC
:10009000A11000084B0300084B0300084B030008A5
:1000A0004B0300084B0300084B0300084B030008F8
:1000B000B15800084B0300084B0300084B0300082D
:1000C0004B0300084B0300084B0300084B030008D8
:1000D0004B0300084B030008855E0008F55E00082E
:1000E0004B0300084B0300084B0300084B030008B8
:1000F0004B0300084B0300084B0300086D19000870
:100100004B0300084B0300084B0300084B03000897
:100110004B030008915B00084B0300084B030008E9
:100120004B0300084B0300084B0300084B03000877
:100130004B0300084B0300084B0300084B03000867
:10014000391100084B0300084B0300084B0300085B
:100150004B0300084B0300084B0300084B03000847
:100160004B0300084B0300084B0300084B03000837
:100170004B0300084B0300084B030008000000007D
:100180004B0300084B03000800F002F800F060F891
:100190000AA090E8000C82448344AAF10107DA45E2
:1001A00001D100F055F8AFF2090EBAE80F0013F0D4
:1001B000010F18BFFB1A43F001031847FCFF0000B2
:1001C0001C0001000A444FF0000C10F8013B13F032
:1001D000070408BF10F8014B1D1108BF10F8015BA0
:1001E000641E05D010F8016B641E01F8016BF9D193
:1001F00013F0080F1EBF10F8014BAD1C0C1B09D1EA
:100200006D1E58BF01F801CBFAD505E014F8016B5B
:1002100001F8016B6D1EF9D59142D6D370470000ED
:100220000023002400250026103A28BF78C1FBD8FF
:10023000520728BF30C148BF0B6070471FB50DF093
:1002400026FC9DE8030000F03FFA1FBD10B510BD6D
:1002500000F0A6FA1146FFF7F1FF09F00FFB00F0DE
:10026000C4FA03B4FFF7F2FF03BC00F0F5FA000094
:100270002C4B19680868B0E8F04F80F30988BFF389
:100280006F8F4FF0000080F311887047000000006E
:1002900008480068006880F308884FF0000080F389
:1002A000148862B661B6BFF34F8FBFF36F8F00DF64
:1002B00000BF00BF08ED00E0DFF80C00016841F46A
:1002C00070010160704700BF88ED00E0EFF3098026
:1002D000BFF36F8F134B1A681EF0100F08BF20ED8D
:1002E000108A20E9F04F106009B44FF0500080F3FD
:1002F0001188BFF34F8FBFF36F8F0CF0C7FA4FF029
:10030000000080F3118809BC19680868B0E8F04F54
:100310001EF0100F08BFB0EC108A80F30988BFF3FD
:100320006F8F70473C000020EFF30580704700009E
:100330000948804709480047FEE7FEE7FEE7FEE779
:10034000FEE7FEE7FEE7FEE7FEE7FEE704480549B5
:10035000054A064B70470000A158000889010008B3
:10036000F8590020F85F0020F85B0020F85B0020BF
:1003700070B5064600F08CF9056806F10B0020F018
:100380000704B4429CBF002070BD2B466A68BAB116
:100390001068A04210D304F1080188423CBF5068A5
:1003A000586007D35168101941601168091B01603A
:1003B00058601460101D70BD13465268002AE7D1C2
:1003C0002146284600F06CF90028DED170BD70B5DA
:1003D0000446051F00F05CF90068002C14BF446857
:1003E00070BD002C18BFAC423CBF20466468F8D3F7
:1003F00001680A18AA4218BF456003D12A68054659
:100400001144016028684119A1421CBF6C6070BD95
:100410006168696021680844286070BD53EA020C75
:1004200000F069802DE9F04B4FF00006002B1FBF54
:10043000B3FA83F503FA05F424FA05F65E4012BF19
:100440001643B2FA82F502FA05F4C5F120051EBF83
:1004500022FA05FC44EA0C04203556EA044C4FEA23
:10046000144418BF641C4FF000084FF0000990427C
:1004700071EB030C39D3002919BFB1FA81F701FAE6
:1004800007F6B0FA80F700FA07F6C7F120071EBF9B
:1004900020FA07FC46EA0C062037B6FBF4FCA7EB73
:1004A0000507103F07F01F0BCBF120060CFA0BFBE2
:1004B0002CFA06F644BFB3460026202FA4BF5E46A2
:1004C0004FF0000B5BEA060C08BF4FF0010B19EB75
:1004D0000B09ABFB027C48EB0608C01B06FB02CCF9
:1004E0000BFB03CC71EB0C01C1E70B460246414606
:1004F0004846BDE8F08B13B54FF000004FF0000107
:10050000AFF30080BDE81C407047032A40F2308002
:1005100010F0030C00F0158011F8013BBCF1020F44
:10052000624498BF11F801CB00F8013B38BF11F8C5
:10053000013BA2F1040298BF00F801CB38BF00F8DC
:10054000013B11F0030300F02580083AC0F0088059
:1005500051F8043B083A51F804CBA0E80810F5E73D
:10056000121D5CBF51F8043B40F8043BAFF3008020
:10057000D20724BF11F8013B11F801CB48BF11F895
:10058000012B24BF00F8013B00F801CB48BF00F865
:10059000012B704710B5203AC0F00B80B1E818501D
:1005A000203AA0E81850B1E81850A0E81850BFF45D
:1005B000F5AF5FEA027C24BFB1E81850A0E81850FC
:1005C00044BF18C918C0BDE810405FEA827C24BF50
:1005D00051F8043B40F8043B08BF7047D20728BFDE
:1005E00031F8023B48BF11F8012B28BF20F8023B2D
:1005F00048BF00F8012B70474FF000020429C0F0FB
:10060000128010F0030C00F01B80CCF1040CBCF144
:10061000020F18BF00F8012BA8BF20F8022BA1EB96
:100620000C0100F00DB85FEAC17C24BF00F8012B7B
:1006300000F8012B48BF00F8012B70474FF0000273
:1006400000B5134694469646203922BFA0E80C50C8
:10065000A0E80C50B1F12001BFF4F7AF090728BFA3
:10066000A0E80C5048BF0CC05DF804EB890028BF1F
:1006700040F8042B08BF704748BF20F8022B11F048
:10068000804F18BF00F8012B7047704770477047C4
:1006900000487047A0590020704770477047704766
:1006A00038B504460A4600206946AFF300800028AA
:1006B00008BF38BD02460099204600F04FF80120DF
:1006C00038BD012000F064B8F8B5AFF300800546EE
:1006D00000200C46102000BF0646A819A0420DD9E4
:1006E000324669460020AFF30080070008BF00F0E3
:1006F0004FF80098A04218BF0546C419FFF7C8FF7D
:1007000005600746F01D20F007004619284600F056
:100710000AF8B44208BFF8BDA21B31463868BDE8EC
:10072000F84000F01BB800210160C0E901107047DB
:100730001020704710B500F00DF8006810BD10B51E
:10074000044600F007F8046010BD00000048704740
:100750009859002000487047985900200346406887
:100760008C46002818BF88423CBF03464068F8D337
:1007700018681844884207D00CF1030020F00700E5
:10078000001D411A521A0146081D0A60FFF71FBEDC
:1007900010B500F039F8BDE8104000F02FB87047F0
:1007A0007546FFF7D3FFAE4605006946534620F075
:1007B0000700854618B020B5FFF7C8FDBDE820400A
:1007C0004FF000064FF000074FF000084FF0000B0D
:1007D00021F00701AC46ACE8C009ACE8C009ACE8C0
:1007E000C009ACE8C0098D46704710B50446AFF3A8
:1007F00000802046BDE81040FFF733BD002801D03F
:1008000000F02AB87047000010B5012805D000217B
:1008100003A000F027F8012010BD09A1F8E70000AF
:1008200053494752544D454D3A204F7574206F66D9
:100830002068656170206D656D6F72790000000041
:100840003A2048656170206D656D6F727920636F25
:10085000727275707465640001491820ABBEFEE7C2
:100860002600020070B505460C460A2000E06D1C0B
:1008700000F011F835B128780028F8D102E0641CA6
:1008800000F009F814B120780028F8D1BDE87040D4
:100890000A20AFF3008008B569468DF800000320F8
:1008A000ABBE08BD114810B590ED0B0AD0ED0A0A99
:1008B00030EE600ABDEEC00A10EE100A04B2204607
:1008C00004F036FC01464FF42570814205DD002C12
:1008D00001DD044601E000DA054C064800EE104A4E
:1008E0000068B8EEC00A80ED080A10BDC000002004
:1008F0006CFDFFFF3401002030B50C4605000CD024
:10090000022C0AD90548A11E0288284601F0AEFA39
:10091000291901F8020D000A487030BD4405002075
:1009200030B50C4605000AD0022C08D9601E81B2F1
:10093000FF22284601F0B0FA291901F8010C30BD58
:100940002DE9F04116462DED0A8B0F468046B3F98E
:100950000030DDE9131000EE103ADDE91152F8EE37
:10096000C00AFE4CDDF840C0C4ED0E0ABCF90030F0
:1009700000EE103AB8EEC00A84ED0F0AB5F9003067
:10098000032593FBF5F31BB203EB430300EE103A90
:10099000B8EEC00A84ED100AB2F9002000EE102A69
:1009A000B8EEC01A84ED111AB1F9001000EE101A59
:1009B000B8EEC00A84ED120AB0F9000021EE000A78
:1009C00001EE900AF8EEE11AC4ED131A20EE210AA6
:1009D000B5EEC00AF1EE10FA7DD0E14D297B9FED16
:1009E000E18AFDEEE00AB0EE480A10EE900A00B28D
:1009F00008F0BAFE84ED0E0AD4ED0F0A297BB0EEA2
:100A0000480AFDEEE00A10EE900A00B208F0ACFED3
:100A100084ED0F0AD4ED100A297BB0EE480AFDEEF2
:100A2000E00A10EE900A00B208F09EFE94ED0E1A55
:100A3000DFEDCD0A21EE201A20EE200A84ED0E1AF9
:100A400094ED0F1A21EE201A84ED0F1A84ED100A8E
:100A5000D4ED110A297BB0EE000AFDEEE00A10EE9B
:100A6000900A00B208F094FE84ED110AD4ED120A47
:100A7000297BB0EE000AFDEEE00A10EE900A00B20B
:100A800008F086FE84ED120AD4ED130A297BB0EE3D
:100A9000000AFDEEE00A10EE900A00B208F078FEBF
:100AA000F0EE400AC4ED130A94ED110A94ED121A07
:100AB00020EE000A01EE010A00EEA00A08F034FD63
:100AC00084ED070AD4ED110A60EE802AC4ED112AE4
:100AD000D4ED120A00E05CE160EE804AB0EE008ADC
:100AE000C4ED124AD4ED130A20EE803A84ED133A95
:100AF00094ED040AD4ED060AD4ED031A94ED051A18
:100B000020EE202A01EEC12A22EE084A21EE802A98
:100B100084ED084A01EE202A22EE085A21EEA12A8D
:100B200084ED095A00EE402A01EE412A00EEA02A87
:100B300084ED0A2A64EE823A43EE453A23EE043A03
:100B400002EEC23A62EE852AC4ED0B3A44EEC42AA4
:100B500084ED0C3AC4ED0D2A94ED142A94ED015A5B
:100B600003EE852A84ED142A94ED154A03EE054A16
:100B700084ED154AD4ED164A42EE854AC4ED164A74
:100B8000D4ED0E5A94ED005A45EE235A35EE822AE2
:100B900084ED0E2AD4ED0F3A45EE033A33EE843A53
:100BA00020EE424A84ED0F3AD4ED103A01EE434A6A
:100BB00061EE835A45EE223AB0EE615A73EEA42AF2
:100BC00061EE824AC4ED102AC4ED171A41EE224AA2
:100BD00084ED180A00EEE24A84ED191AC4ED1A0AEF
:100BE000D4ED023A40EEC34A40EE625A04EE235A74
:100BF000B0EE404A04EEA34A40EE825A84ED035A16
:100C000084ED044A61EEA21AF0EE414A45EEA34A91
:100C100040EE031A25EE050AC4ED054A04EE040A67
:100C200041EE421A04EEA40A41EEA30AC4ED060AFC
:100C300000EEA00A08F078FC84ED070AD4ED030A60
:100C400020EE80BA84ED03BAD4ED040A60EE808A07
:100C5000C4ED048AD4ED050A20EE809A84ED059A4D
:100C6000D4ED060A60EE809A2BEE0B0AC4ED069ACC
:100C700008EEE80A09EE490A09EEA90A10EE100A80
:100C80000CF094FE29EE080A6BEE080A41EC1A0BF0
:100C900020EE290A00EEA80A10EE100A0CF086FEDB
:100CA00041EC100BB0EE4A1AF0EE6A1A05F0DCFDCA
:100CB0009FED2EBB51EC100B53EC1B2B0CF0B6FB35
:100CC0000CF028F9386094ED040AD4ED060A94ED8E
:100CD000051A20EE080A20EE200AD4ED030A60EE81
:100CE000880A00EEC10A10EE100A0CF05FFE41EC1B
:100CF000100B05F09DFA9FED1F1B51EC100B53ECF0
:100D0000112B0CF093FB0CF005F9C8F8000094EDE2
:100D100003CAD4ED048AD4ED05AA2CEE0C0A94ED96
:100D200006AA08EEA80A0AEEEA0A0AEE4A0A10EE35
:100D3000100A0CF03BFE28EEAA0A41EC190B0CEE4F
:100D40000A0A20EE080A10EE100A0CF02FFE41EC01
:100D5000100BB0EE491AF0EE691A0FE07005002092
:100D6000305900200000FA44728A8E3C0000006076
:100D700066A64C400000006066A64CC005F074FDFD
:100D800053EC1B2B51EC100B0CF050FB0CF0C2F889
:100D900030600020BDEC0A8BBDE8F0812DE9FE4FEC
:100DA0001546DDE90C9A0E4607460C221C4669469C
:100DB000104603F0B1FDBDF80080BDF802C0BDF8DB
:100DC0000430BDF80620BDF80810BDF80A00A4F8EC
:100DD0000080A9F800C0AAF800303A80318028804D
:100DE000BDE8FE8F38B5194806F03CFF06F0AEFBB3
:100DF000164806F06FFB044606F0A8FB24BB012052
:100E00008DF800000146114A684606F0B9FF06F069
:100E10009DFB0E4804F064FA00208DF800000B4A98
:100E20000121684606F0ACFF06F090FB074804F08D
:100E30002DFA02208DF80000044A0121684606F0D0
:100E40009FFF044606F082FB204638BD3059002043
:100E50002DE9F047854C864E864D4FF47A7A2DED7C
:100E6000028B4FF00109E07A002710B1A06918B198
:100E700005E0A774A76175E001F002FFA06101F031
:100E8000FFFEA169401A50456CD3A761B06EB0F95E
:100E9000020000EE100AB8EEC00A04F041F910EEAC
:100EA000100A75499FED758A884216DC207CA0B92E
:100EB0002878401CC0B2287003280ED32F7084F805
:100EC0001090B06F90ED000A30EE080A80ED000A35
:100ED0006748D6F8941068308847B06EB0F90200C1
:100EE00000EE100AB8EEC00A04F01AF910EE100A6B
:100EF0006349884203DB207C08B92F70A774B06F68
:100F0000D0ED028A207C01282CD1B0EE680A04F0D2
:100F100007F910EE100ADFF86C81404503DC2774F6
:100F2000A7746F701EE0207C01281BD1B0EE680A08
:100F300004F0F6F810EE100A404513DD6878401C06
:100F4000C0B2687002280DD36F70A07C78B1002009
:100F5000A0740028B06F90ED000A0AD030EE480A65
:100F600080ED000A607B38B1E06958B10DE00120E6
:100F7000EEE730EE080AF3E7E774E761BDEC028BB9
:100F8000BDE8F08701F07CFEE06101F079FEE169E7
:100F9000401A5045F2D3E761B06FD0ED028AB0EE4F
:100FA000680A04F0BDF810EE100A37499FED378A41
:100FB0008842607C18DB18BBA878401CC0B2A870BF
:100FC000032812D3AF70B06FDFED310A90ED000A45
:100FD00030EE200A80ED000A30EE080AB06F80ED96
:100FE000000A84F811900EE050B9B0EE680A04F0DF
:100FF00097F810EE100A2749884201DCAF70E774B9
:10100000607C0128BAD1B0EE680A04F089F810EECD
:10101000100ADFF88480404503DC6774E774EF70E2
:10102000ACE7607C0128A9D1B0EE680A04F078F83A
:1010300010EE100A4045A1DDE878401CC0B2E8700F
:1010400002289BD3EF70E07C58B10020E0740028A8
:10105000B06F90ED000A06D030EE480A80ED000A2D
:101060008CE70120F2E730EE080AF7E7684F00202E
:10107000B8020020880300200000A04000401C4768
:101080000000484300007A4500606A460060EA4676
:10109000002410470000FA430000FA44FEE7000075
:1010A000014801F0B2B800003408002070B5204CAF
:1010B000A0F50072013A1AD0A0F50072023A1CD0D5
:1010C000A0F50072033A1BD0B0F5017F27D0194C70
:1010D000A0F50072053A1AD0A0F50072063A26D1A2
:1010E000E26C2046343005469047216D0DE0A26940
:1010F0000F4890470E48E1690EE00D48E26CF1E7B9
:101100000B4854F8802F68300DE0284604E0A269AF
:10111000084890470748E169BDE87040084704481F
:1011200054F8B42F9C30054690476168EDE770BDD8
:101130005C01002050020020014801F066B8000068
:101140005C08002070B50E46054604F029FF194CD6
:10115000A5F50070013816D0A5F50070023819D039
:10116000A5F5007003381DD0B5F5017F20D11148D9
:1011700054F8B42F31469C300546904761682846A4
:10118000BDE870400847A26931460A4890470948BF
:10119000E169F5E70748E26C34303146054690478F
:1011A000216DECE7034854F8802F31466830E3E7BF
:1011B00070BD0000B8020020002101604160816024
:1011C000C160016101224161C0E90612C0E9082144
:1011D0007047000000B595B06846FFF7EDFF69461F
:1011E0000C4800F017FF0AA8FFF7E6FF0AA90A4813
:1011F00000F010FF0221074800F096FE0221064889
:1012000000F092FE034801F03DFA034801F03AFA7B
:1012100015B000BD340800205C08002070B50446FD
:10122000016000200821A060C4E90301115C2318BB
:10123000401C19760828F9DB0B4804F11805844294
:1012400005D100232A462146084800F07FFE0648C3
:101250004430844207D12A462146BDE8704000232D
:10126000034800F073BE70BD3849002034080020E8
:101270005C08002070B5274C606810B901F000FDD3
:10128000606001F0FDFC6168401AB0F5FA7F1CD384
:10129000214800240246046044604FF4007529464A
:1012A0001E48FFF7BBFF1E48691E024604604460EB
:1012B0001A48FFF7B3FF1B48294602460460446002
:1012C000BDE870401848FFF7A9BF19489FED170AFD
:1012D000816881ED000AC16B81ED000A016F81ED2B
:1012E000000AD0F8A40080ED000A1248C16B81ED1D
:1012F000000A816881ED000A016F81ED000AD0F8D3
:10130000A40080ED000A00F0D3FABDE8704004F0BC
:10131000C5B8000068050020A4000020384900205E
:10132000AC000020B40000207C4900200000000038
:101330005C010020B802002070B5134E00252DED91
:10134000048BB1EE088AB6EE009ADFED108A00BF7A
:1013500005EB850000EBC50006EB800420466169C3
:101360008847A06808F008FCA0686D1C042D80ED7B
:10137000048AA068C0ED058AA06880ED069AE7DBC4
:10138000BDEC048B70BD00005C010020CDCC4C3E58
:1013900070B52A4D9FED280A05F114042DED048B3C
:1013A00085ED000A2068B6EE000A264990ED049A01
:1013B000D0ED068A90ED0D8A80ED040AB0EE040AA5
:1013C00080ED060A9FED1E0A80ED0D0A4A79012A7A
:1013D00027D1CA791C4EE2B9097A012919D131689D
:1013E00040F6D17309884A1E9A4205D89FED170A24
:1013F00080ED000A00200AE041F22D02A1F6D3712F
:10140000914206D89FED120A80ED000A012086F86D
:1014100030000D480AF04CFFF06890ED0A0A85EDA7
:10142000000A206880ED049AC0ED068A80ED0D8ADE
:10143000BDEC048B70BD0000000000002C020020F9
:101440000000FA45684F00205002002000200045AF
:101450000010BD45F0B500202DED088B85B0009043
:10146000019002909FEDA60AA84D0390A54C6968D3
:10147000DFEDA50A94F830608B790A7928684EB1BF
:10148000CBB190ED091AF1EE418A90ED081AB1EE58
:10149000418A04E033B1D0ED098A90ED088A012A2F
:1014A00020D023E0B0F9063001EE103AB0F9043054
:1014B000F8EEC18A09E0B0F906305B4201EE103A5D
:1014C000B0F90430F8EEC18A5B4201EE103A012A0D
:1014D000B8EEC18A0AD1B0F9000000EE100AB8EEE9
:1014E000C00A01E090ED060A20EE200A48790128A2
:1014F00005D1C879012849D0854890ED000A78EED9
:10150000880A70EE800A9FED839A20EE891ADFED3B
:10151000820A824F0024C1EE201A38EE681A6E4605
:1015200031EE001A21EE091ACDED001AC1EE201A93
:1015300038EEC81A31EE001A21EE091ACDED011A63
:10154000C1EE201AB1EE681A31EE481A31EE000AE7
:1015500020EE090A80EE201ACDED021A8DED031A55
:1015600006EB840595ED000A03F0DAFD10EE100A93
:10157000B8427CDD95ED000AB5EEC00AF1EE10FA36
:1015800076D89FED671AC1EE000A96E02068162112
:101590000088A0F6020090FBF1F100EE101AB0F501
:1015A000805FB8EEC00A03DBDFED5E0A30EE600A52
:1015B000DFED5D0A80EE209A19EE100A0CF0F6F9C4
:1015C00041EC100B05F0ACFAB0EE40AAF0EE60AAC8
:1015D00018EE100A0CF0EAF953EC1A2B0BF026FF68
:1015E00041EC1A0B19EE100A0CF0E0F941EC100B6B
:1015F00005F032FAB0EE40BAF0EE60BA18EE900A9A
:101600000CF0D4F953EC1B2B0BF010FF53EC1A2BFE
:101610000BF0B2FC0BF07EFC09EE900A19EE100AFA
:101620000CF0C4F941EC100B05F016FAB0EE40AA2C
:10163000F0EE60AA18EE100A0CF0B8F953EC1A2B71
:101640000BF0F4FE41EC1B0B19EE100A0CF0AEF996
:1016500041EC100B05F064FAB0EE40AAB1EE680A56
:10166000F0EE60AA10EE100A0CF0A0F901E028E0FC
:1016700021E053EC1A2B0BF0D9FE53EC1B2B0BF093
:101680007BFC0BF047FC08EE100A6868807978B1A3
:10169000264890ED000A00BF94F83000F0EE698A09
:1016A00001287FF42CAFF1EE688AB1EE488A26E774
:1016B0009FED1F0AF0E7C9EE000A20EE800A85EDD3
:1016C000000A641C042CFFF64BAF1A489DED000A7B
:1016D000816881ED000AC16B9DED010A81ED000A70
:1016E000016F9DED020A81ED000AD0F8A4009DED86
:1016F000030A80ED000A05B0BDEC088BF0BD0000C8
:1017000000000000500200209A99193F3401002087
:101710002C0200200000FA45000025440000FA4594
:101720000000FAC50000B443000064423805002000
:1017300000007A435C01002070B504462C482D4916
:101740009FED2D1A2DED028BB0F86A0000EE100A05
:10175000B8EE400A10EE100A884201DDB0EE410AF0
:1017600010EE100AC0EE010A244A904201DA60EE3F
:10177000A00A10EE100A9FED228A884201DA20EEBC
:10178000888AB4F9000003F0D3FC0546B4F90200DE
:1017900003F0CEFC0544B4F9040003F0C9FC054491
:1017A000B4F9060003F0C4FC284400EE100AB8EEB9
:1017B000C00AC8EE000AB4EEC80AF1EE10FA13DB54
:1017C0005FF0000034F9101000EE101AB8EEC00AF5
:1017D00020EE200ABDEEC00A10EE101A24F81010F8
:1017E000401CC0B20428EDD3BDEC028B70BD0000DC
:1017F0000E04002000007042000070420000C8414A
:101800000000FA461CB500200090019026480AF01E
:10181000A3FD254CA06890ED0A0ABDEEC00A10EEAB
:10182000100AADF8000004F134000AF095FDE06BF9
:1018300090ED0A0ABDEEC00A10EE100AADF80200E3
:1018400004F168000AF088FD206F90ED0A0ABDEEF1
:10185000C00A10EE100AADF8040004F19C000AF072
:101860007BFDD4F8A40090ED0A0ABDEEC00A10EE8C
:10187000100AADF806006846FFF75EFFBDF80010DD
:101880000A480A1202704170BDF802100A128270F2
:10189000C170BDF804100A1202714171BDF8061042
:1018A0000A128271C1711CBD5C010020A4000020DD
:1018B00010B5FFF7A7FF054A4FF400710448FFF782
:1018C000ADFC024800210160416010BDA400002071
:1018D0003849002090ED001AB4EEC01AF1EE10FA6B
:1018E00002DB80ED000A7047B4EEE01AF1EE10FA68
:1018F000F9D8C0ED000A70470421014802F02AB867
:10190000840800200149E1208863704700000140FD
:1019100001493220886370470000014004210148DA
:1019200002F07CB8840800200348007D012801D023
:10193000FFF7E8BFFFF7ECBF684F0020014800F059
:101940002FBF0000200A0020014800F029BF00003E
:10195000400B0020014800F023BF0000A00B002036
:10196000014800F01DBF0000E00A0020014800F01F
:1019700017BF0000800A00202DE9F04F8568002481
:10198000099E802D18D0894DC563894D456490F816
:101990003450012D15D0012580F8345090F8355081
:1019A000012D10D0002180F834100224002180F88D
:1019B00034102046BDE8F08F4FF48071416501205E
:1019C000F8E70220F6E7022580F835500025456546
:1019D00005682F6847F480272F6005682B6103682E
:1019E0005E608368402B03682AD099600168CA60F2
:1019F000714D704E704FDFF8BC81DFF8B891DFF8A1
:101A0000B8A1DFF8B4B1EA14DFF8A8E1016818362C
:101A100030379302A9F148090AF1600A0BF1180B5B
:101A2000AEF1300E4FF0006C41452DD9A94205D0E2
:101A3000494503D0514501D0B14205D1202220E0D3
:101A40009A600268D160D3E759451AD0714518D021
:101A5000594D7835A94214D0564D3035A94210D091
:101A6000B9420BD0534A183A914207D0524A9032A9
:101A7000914203D04F4A4832914201D11A4600E0C8
:101A800062464C494C392EE0DFF82C8108F1A80859
:101A900041452AD9A94205D0494503D0514501D035
:101AA000B14201D120221CE059451AD0714518D00D
:101AB000414D7835A94214D03E4D3035A94210D061
:101AC000B9420BD03B4A183A914207D03A4A903279
:101AD000914203D0374A4832914201D11A4600E080
:101AE0006246344950390A605AE0DFF8CC8008F188
:101AF000480841452AD9A94205D0494503D0514556
:101B000001D0B14201D120221CE059451AD07145C3
:101B100018D0294D7835A94214D0264D3035A94228
:101B200010D0B9420BD0234A183A914207D0224A2A
:101B30009032914203D01F4A4832914201D11A4655
:101B400000E062461C491039CA6029E0A94205D06C
:101B5000494503D0514501D0B14201D120221CE0BA
:101B600059451AD0714518D0134D7835A94214D073
:101B7000104D3035A94210D0B9420BD00D4A183A59
:101B8000914207D00C4A9032914203D0094A483220
:101B9000914201D11A4600E06246074910398A6035
:101BA00001680A6842F001020A60FFE6D18200087B
:101BB000E98200085864024010600240016818235E
:101BC000CAB2103AB2FBF3F2054B6FF30901032AD4
:101BD0009B5CC36500D9091D8165084670470000FC
:101BE000BCDB000810B5014600208B698A6A4FF003
:101BF000C07453B1B3F5005F15D072B1012A0CD097
:101C0000022A0AD0032A09D104E01AB1012A06D017
:101C1000022A03D1C96AC90100D5012010BDC96AD1
:101C2000A142FAD010BD002AF7D0012AF2D0022A30
:101C3000F3D0032AF3D010BD30B50468256825F42D
:101C400080252560046863608368402B036803D0A7
:101C500099600068C26030BD9A600068C16030BDA4
:101C600070B590F834500024012D0CD0012580F877
:101C7000345090F835600025012E06D080F834509D
:101C80000224204670BD022070BD022680F8356017
:101C9000456505682E6826F480262E6005686B6011
:101CA0008368402B036808D099600168CA600068A7
:101CB000016841F001010160E3E79A600268D160C8
:101CC000F5E701680A68D20604D5C968C90601D5D6
:101CD0000AF0B2BB70477047F0B5404890F8471023
:101CE0000A2945D20122A0F89C200222A0F89E20B9
:101CF0000322A0F8A0200422A0F8A2200522A0F828
:101D0000A42040F201170622A0F8A6207E1C07227C
:101D1000A0F8A820751C6C1CA0F8AA70A0F8AC60F4
:101D2000631CA0F8AE50A0F8B0405A1CA0F8B23026
:101D3000A0F8B42001290CD002290DD003290ED01F
:101D400004290FD0052910D0062901D1A0F8B6200A
:101D5000F0BDA0F8B670F0BDA0F8B660F0BDA0F878
:101D6000B650F0BDA0F8B640F0BDA0F8B630F0BD5A
:101D70006522A0F89C206622A0F89E206722A0F889
:101D8000A0206822A0F8A2206922A0F8A42040F296
:101D900065176A22A0F8A6207E1C6B22A0F8A82056
:101DA000751C6C1CA0F8AA70A0F8AC60631CA0F8AD
:101DB000AE50A0F8B0405A1CA0F8B230A0F8B42041
:101DC0006529C6D06629C7D06729C8D06829C9D077
:101DD0006929CAD06A29B9D0F0BD00000E040020DC
:101DE00010B502F01FFD02F0DFFC02F033FC02F040
:101DF000F9FABDE8104002F0E3BB72B6FEE7827963
:101E0000C1798A4202D000220260817170470000CD
:101E10000948027B094881684AB19FED090A81EDB2
:101E2000000A9FED080AC06B80ED000A70479FED25
:101E3000060A81ED000AF6E7684F0020B80200208C
:101E40000000FAC40000FA440000000010B502F0DF
:101E5000F9FC02F085FC02F0B7FC02F0D3FA02F0C4
:101E600009FCBDE8104002F071BB000010B558B18C
:101E7000084C491E0BD310F8013B5340DBB234F839
:101E8000133083EA1222F4E74FF6FF7010BD1046BC
:101E900010BD0000DCDC000810B5064C04E000BFFB
:101EA00010F8013B5340E25C491E89B2F8D210465B
:101EB00010BD0000DCDB000810B503F0DDF907F011
:101EC000C9F907F0CFFABDE8104007F07BBC00006D
:101ED0000A489FED090A006880ED000A07489FED57
:101EE000080A0838006880ED000A04489FED050ADA
:101EF0001C3880ED000A70470080D445480200205D
:101F0000002000450000000010B5054A40F2FF1116
:101F10000448FFF783F9024800210160416010BDC9
:101F2000AC0000203849002090F82020012A07D07A
:101F3000022A05D0416A41F48021416201207047A4
:101F4000006842690A43426100207047F0B590F88A
:101F500020500468A468012D05D0022D03D0416AE9
:101F600041F4802153E014F0406F01D1E5004BD5DE
:101F7000C4F30164022C03D9416A41F4000146E034
:101F80000125A5401D608D684FF4C0739DB1CE68DA
:101F900035434E6845EAC605066803EB0417F5515C
:101FA0004FF4C275076805EB04150E697E51097D73
:101FB000012905D009E00E88CD6845EA4655EBE7D2
:101FC00001684E5946F480764E511179D2F8055089
:101FD0004FF4C67641EA0525016806EB04168D51DB
:101FE0001178D2F801204FF4C47541EA0221026849
:101FF00005EB04155151006803EB0411425842F0FF
:10200000010242500020F0BD416A41F400114162DA
:102010000120F0BD10B590F82020012A07D0022A37
:1020200005D0416A41F480214162012010BD3B4846
:10203000D0F8002242F00102C0F80022D0F80022BD
:1020400022F47C52C0F80022D0F800224B6A42EA07
:102050000322C0F800220A7D02F01F0301229A40E9
:10206000D0F81C329343C0F81C32CB69B3B9D0F816
:102070000C329343C0F80C328C894B6864F31F43D5
:102080004C6900EBC404C4F840320C890B6864F35B
:102090001F434C6900EBC404C4F84432CB69012BE4
:1020A00016D1D0F80C321343C0F80C320C884B68B0
:1020B00064F31F434C6900EBC404C4F840320C893C
:1020C000CB6864F31F434C6900EBC404C4F844328A
:1020D0008B69002BD0F804320ED01343C0F80432C1
:1020E0000B69002BD0F8143208D01343C0F8143217
:1020F000096A012904D008E09343EFE79343F5E729
:10210000D0F81C121143C0F81C12D0F8001221F0B4
:102110000101C0F80012002010BD00000064004062
:10212000704730B590F82040012C05D0022C03D028
:10213000416A41F480215DE00468002955D024699A
:10214000A40754D04FF4D874056804EB01142D593A
:1021500015F00405956005682D594ED0ED085560C1
:1021600005682C5904F00204D4604FF4DA74056851
:1021700004EB01142D5905F00F05156105682D5963
:10218000C5F30725956105682C59240C54614FF45B
:10219000DC72046802EB0112A4581C700468A45895
:1021A000240A5C700468A458240C9C700468A2582B
:1021B000120EDA704FF4DE72046802EB0112A458BA
:1021C0001C710468A458240A5C710468A458240C87
:1021D0009C710468A258120EDA71006881B101691D
:1021E00041F020010161002030BDE468A8E7416AA8
:1021F00041F400114162012030BD6D0D1560AFE763
:10220000C16841F02001C160EDE72DE9F05F0546AE
:10221000006800244669D0F804908768D0F80CB0B4
:10222000D0F810A0D0F81880F10748D0F90714D0E2
:1022300001218160B80703D5284600F050FA0CE070
:10224000780702D54FF4006407E0380702D54FF451
:10225000805402E0284600F041FAF80516D52968B6
:102260004FF480708860B80503D5284600F039FA2D
:102270000CE0780502D544F4005407E0380502D597
:1022800044F4804402E0284600F02AFAF80316D508
:1022900029684FF480308860B80303D5284600F0E1
:1022A00022FA0CE0780302D544F4004407E0380336
:1022B00002D544F4803402E0284600F013FA3007D7
:1022C00007D55FEACB6004D52968102044F4007478
:1022D000C86070074FF0080707D55FEA0B7004D598
:1022E0002868C760284600F099F9B00706D5286825
:1022F000C068800702D0284600F092F9700607D522
:102300005FEACA6004D52968102044F4806408613B
:10231000B00607D55FEA0A7004D528680761284629
:1023200000F0ACF9F00606D528680069800702D0F5
:10233000284600F0A4F9B00308D55FEAC96005D5C6
:10234000296810204860284600F09AF9F00307D564
:102350005FEA097004D528684760284600F0C4F990
:10236000300446D55FEA497040D5F00504D55FEAF0
:10237000C87001D044F00104B00504D55FEA88704C
:1023800001D544F00204700504D55FEA487001D518
:1023900044F00404300529D518F0700F26D008F059
:1023A0007000402815D006DC102809D020280AD05B
:1023B000302816D10AE050280ED0602811D10EE046
:1023C00044F008040DE044F010040AE044F0200456
:1023D00007E044F0400404E044F0800401E044F4E9
:1023E00080742868816921F0700181612968042066
:1023F0004860002C05D0686A204368622846FFF7D1
:102400008FFEBDE8F09F70B5040003D094F8200063
:1024100010B104E0012070BD204600F081F8206872
:10242000016841F00101016000F02AFC0546052623
:1024300004E000F025FC401B0A2811D82068406801
:10244000C007F6D02068016821F00201016000F0A9
:1024500017FC05460BE000F013FC401B0A2806D9C8
:10246000606A40F40030606284F82060D2E720683F
:1024700040688007EFD4207E0128206801683DD0A5
:1024800021F080010160607E01282068016838D059
:1024900021F040010160A07E01282068016833D04E
:1024A00021F020010160E07E0128206801682ED023
:1024B00041F010010160207F01282068016829D0C7
:1024C00021F008010160607F01282068016824D0A4
:1024D00021F004010160D4E902010843D4E90412A7
:1024E000114308436168491E08432168C861002000
:1024F0006062012084F82000002070BD41F080015E
:10250000C0E741F04001C5E741F02001CAE721F0F2
:102510001001CFE741F00801D4E741F00401D9E709
:10252000F0B587B0044614216846FEF787F8364BAD
:102530003648DFF8D0E01968D4F800C0334A0325E4
:102540000226092710300024491CF44522D11960C5
:10255000012907D1016841F000710160006800F0B5
:1025600000700590106840F0080010601068CDE918
:10257000005600F00800CDE9047069462448CDE912
:10258000024500F07FFA00220521142000F016FC1D
:10259000142032E0DFF87CE0F44530D1D0F800C000
:1025A0004CF0806CC0F800C0D0F800C001290CF0DD
:1025B000806CCDF814C0196007D1016841F000713A
:1025C0000160006800F000700590106840F00200A3
:1025D0001060106802AB00F0020005906020CDE9A9
:1025E000000683E8B00069460B4800F04BFA002271
:1025F0000521402000F0E2FB402000F0D1FB07B0B5
:10260000F0BD000000640040280000203038024087
:10261000000C0240006800400004024070470000C7
:1026200070B504460068124988420DD1114B002153
:102630001D46A3F11C022046FFF773FD0D482946F5
:102640001C380068FEF732FD0B49206888420ED125
:10265000084B002144331D46A3F11C022046FFF71E
:1026600060FD0448294628300068FEF76BFD70BD08
:1026700000640040744900200068004070477047C3
:102680007047000070B5044690F82000012804D07F
:10269000606A40F40020606218E0022084F82000A4
:1026A0002068016821F00101016000F0E9FA0546A7
:1026B0000EE000BF00F0E4FA401B0A2808D9606A67
:1026C00040F400306062052084F82000012070BDD5
:1026D00020684068C007EDD1606270BD70477047E8
:1026E000704770477047704770472DE9F0410446C6
:1026F000876D00F0C5FA064694F8350000250228DB
:1027000006D08020606584F834500120BDE8F08157
:102710002068016821F0160101602068416921F0FC
:1027200080014161206C08B9A06C20B1206801686B
:1027300021F0080101602068016821F001010160B9
:102740000CE000F09DFA801B052807D92020606569
:10275000032084F8350084F83450D7E720680068F7
:10276000C007EED194F85C103F208840B86001208B
:1027700084F8350084F834500020C7E790F835100D
:10278000022903D08021416501207047052180F88E
:1027900035100068016821F00101016000207047D8
:1027A0002DE9F84304464FF00009CDF80090634846
:1027B0004FF41651A56D0068B0FBF1F72E6894F840
:1027C0005C10082000FA01F131420FD021680A683C
:1027D00052070BD50A6822F004020A6094F85C10D4
:1027E0008840A860606D40F00100606594F85C105E
:1027F0004FF0010808FA01F0304208D02168496919
:10280000090604D5A860606D40F00200606594F888
:102810005C1004208840304208D02168096889078C
:1028200004D5A860606D40F00400606594F85C1009
:1028300010208840304218D021680968090714D553
:10284000A86020680168490304D50068000308D522
:10285000A16C07E00168C90503D4016821F00801F3
:102860000160216C09B12046884794F85C10202053
:102870008840304231D021680968C9062DD5A8604A
:1028800094F8350005282068016806D0490347D52B
:10289000006800031DD4616C1CE021F0160101608A
:1028A0002068416921F080014161206C08B9A06C69
:1028B00020B12068016821F00801016094F85C10E3
:1028C0003F208840A86084F8358084F83490216DDA
:1028D0001FE0E16B09B120468847606D00282BD0CE
:1028E000606DC00714D0052084F8350020680168A9
:1028F00021F0010101600098401C0090B84203D80B
:1029000020680068C007F6D184F8358084F83490D8
:10291000E16C002910D001B02046BDE8F043084723
:102920000168C905D5D4016821F01001016084F85F
:10293000358084F83490CCE7BDE8F8833800002077
:102940002DE9F041044600F09BF906465CB10220F7
:1029500084F83500002584F834502068016821F09F
:10296000010101600DE00120BDE8F08100F088F96F
:10297000801B052805D920206065032084F83500D8
:10298000F2E720680068C007F0D12268116820488B
:102990000140D4E901031843D4E903363343184313
:1029A00063691843A3691843E3691843236A18430A
:1029B0000843616A042903D1D4E90B13194308437E
:1029C000106020684069666A20F0070130460E43B7
:1029D000012704280CD1A06A0643E06A40B12046D2
:1029E000FFF700F920B14020606584F83570BAE740
:1029F000206846612046FFF7E1F894F85C203F210B
:102A000091408160656584F835700020ACE7000076
:102A10003F8010F02DE9F0410446866D90F83400B7
:102A2000002501280DD0012084F8340094F8357079
:102A30000020012F07D084F8340002252846BDE885
:102A4000F0810220FBE7022784F83570606520469C
:102A5000FFF7F2F894F85C103F208840B0602068DF
:102A6000016841F016010160206C20B12068016806
:102A700041F0080101602068016841F00101016036
:102A8000DCE700002DE9F84FDFF8BCA100220125AA
:102A90000AF1040B03264FF00F090BF1040E00BFDF
:102AA0000B6805FA02F42340A34270D10F7907F0B6
:102AB0000307012F01D0022F16D187684FEA420881
:102AC00006FA08FC27EA0C07D1F80CC00CFA08FC3F
:102AD0004CEA070CC0F808C04768A7430C79C4F358
:102AE000001494403C4344600C79E443A4070AD0AA
:102AF000C4684FEA420C06FA0CF7BC438F6807FA29
:102B00000CF72743C7600C7904F00304022C12D1A0
:102B1000D40800EB840CDCF820405707FF0E09FABC
:102B200007F824EA0804D1F8108008FA07F848EA00
:102B30000408CCF8208004684FEA420C06FA0CF72F
:102B4000BC430F7907F0030707FA0CF72743076028
:102B50004C6814F4403F70D03C4C276847F48047E1
:102B60002760246822F0030704F480440094384C62
:102B700007EB040CDCF8084897074FEA177809FAC6
:102B800008F7BC43334FB84202D1002724E054E099
:102B9000314FB84201D101271EE0304FB84201D178
:102BA000022719E02E4FB84201D1032714E02D4F20
:102BB000B84201D104270FE02B4FB84201D10527BD
:102BC0000AE02A4FB84201D1062705E0284FB84253
:102BD00001D1072700E0082707FA08F72743CCF8B8
:102BE0000878DAF800405746D1F804C09C435FEA01
:102BF000CC3C00D51C433C60DBF800405F46D1F87C
:102C000004C09C435FEA8C3C00D51C433C60DEF86A
:102C100000407746D1F804C09C435FEACC2C00D535
:102C20001C433C60084F0C373C68D1F804C09C43FF
:102C30005FEA8C2C00D51C433C60521C102AFFF428
:102C40002FAFBDE8F88F0000003C0140443802403F
:102C50000030014000000240000402400008024031
:102C6000000C024000100240001402400018024014
:102C7000001C02400AB1816170470904FBE70000B3
:102C800001488068704700002C0000200948016856
:102C9000094A1278114401604FF08041496A006886
:102CA00000EB4002C2EBC01001EBC000034908601A
:102CB00070470000340000202C000020BC000020E1
:102CC0000B4810B5016841F400710160016841F4DE
:102CD00080610160016841F480710160032000F0AF
:102CE0008DF80F2000F006F800F03EF8002010BD2F
:102CF000003C024010B5014688B000221C2000F0C4
:102D00005DF81C2000F04CF814480024016841F0E4
:102D100001010160006805A900F001000690684605
:102D200000F018F900F036F90D494000B0FBF1F160
:102D30000C484FF08042491E026040F2E732C0E981
:102D40000324C0E9011400F0A1FB10B1012008B078
:102D500010BD044800F0DCFBF9E7000040380240F9
:102D600040420F00000C00200C4882B0016841F482
:102D700080410160006800F4804000900748001F17
:102D8000016841F0805101600068002200F080502D
:102D900000900F21901E02B000F010B8443802409D
:102DA000002809DB00F01F0201219140400980004A
:102DB00000F1E020C0F8001170470000F0B40E4BA5
:102DC0001B680C46C3F30223C3F10705042D00D989
:102DD0000425191D072901D2002300E0DB1E01266E
:102DE00006FA05F1491E214099409E40761E164084
:102DF0003143F0BC03F00CBA0CED00E0064900F0E2
:102E0000070208684FF6FF03184040EA0220034A11
:102E100010430860704700000CED00E00000FA0568
:102E20002DE9F0470E46050065D0DFF81481D8F88B
:102E30000000F7B200F00700B04207D288F8007037
:102E4000D8F8000000F00700B04254D128683D4C8B
:102E5000810712D5400703D5206840F4E050206078
:102E60002878000703D5206840F46040206020687F
:102E7000A96820F0F000084320602878C0072DD012
:102E8000304968680839012812D0022813D0032875
:102E900011D00968890700292DDA216821F0030182
:102EA00001432160FFF7ECFE814641F2883A0EE0D3
:102EB00009688903EFE709688901ECE7FFF7E0FE9D
:102EC000A0EB0901514502D90320BDE8F087206835
:102ED000696800F00C00B0EB810FEFD1D8F800105A
:102EE000404601F00701B14207D90770006800F0C1
:102EF0000700B04201D00120E7E72878400705D558
:102F00002068E96820F4E050084320602878000732
:102F100006D52068296920F4604040EAC10020609D
:102F200000F058F82168084AC1F30311515CC84009
:102F30000649086006480068FFF7DCFE0020C4E789
:102F4000003C024008380240C4DB00083800002082
:102F5000300000200F2202600C4A136803F00303C4
:102F60004360136803F0F0038360136803F4E053D5
:102F7000C36012684FF4E05303EAD20202610448CE
:102F8000006800F007000860704700000838024041
:102F9000003C02400448054900680968044AC1F33E
:102FA0008221515CC8407047380000200838024038
:102FB000D4DB00080448054900680968044AC1F3E5
:102FC0004231515CC8407047380000200838024048
:102FD000D4DB0008154810B5006810F00C02144846
:102FE00013D01449042A0FD0082A0ED10F4C241FE5
:102FF0002268236802F03F025B0207D52068C0F315
:103000008810A0FB010106E0084610BD2168C1F34D
:103010008811A1FB00010023FDF700FA2168C1F32C
:103020000141491C4900B0FBF1F010BD08380240D5
:103030000024F40040787D012DE9F84F04006ED0A3
:103040002078DFF84C93C007A9F104054AD009F1B4
:1030500004000168C1F38101012908D00068C0F3B0
:10306000810002280AD1D9F80000400206D528685C
:10307000800337D560680028E1D033E06068B0F5A0
:10308000803F10D0B0F5A02F286810D020F48030F9
:103090002860286820F4802028606068A8B1FFF7C5
:1030A000EFFD06460DE0286840F48030F4E740F478
:1030B00080202860F7E700BFFFF7E2FD801B64284F
:1030C00073D828688003F7D50CE0FFF7D9FD0646D2
:1030D00005E000BFFFF7D4FD801B6428F0D8286806
:1030E0008003F7D42078DFF8AC8280074FF0000A25
:1030F0003ED5A748001D016811F00C0F08D00068EC
:10310000C0F3810002280BD1D9F80000400207D497
:103110002868800716D5E068012800D112E033E165
:10312000E068B8B10120C8F80000FFF7A9FD064625
:1031300005E000BFFFF7A4FD801B0228C0D8286867
:103140008007F7D52868216920F0F80040EAC1001F
:1031500028600DE0C8F800A0FFF792FD064604E0E5
:10316000FFF78EFD801B02281FD828688007F7D440
:103170002078000722D5864F87486169703771B182
:1031800001210160FFF77CFD064604E0FFF778FDB2
:10319000801B022809D838688007F7D50EE0C0F8F0
:1031A00000A0FFF76DFD064605E082E0FFF768FD31
:1031B000801B02287DD838688007F7D42078400724
:1031C00068D5DFF8CCB100270BF13C0BDBF8000031
:1031D000C0000BD4DBF8001041F08051CBF8001098
:1031E000DBF80000012700F0805000906B4E306843
:1031F000C00510D4306840F480703060FFF740FDA7
:10320000009005E0FFF73CFD0099401A022850D8D5
:103210003068C005F6D55E4EA0686C3601280FD028
:103220000528306810D020F001003060306820F0B0
:1032300004003060A068B8B1FFF722FD00900FE0F5
:10324000306840F00100F4E740F004003060F7E738
:10325000FFF716FD0099411A41F28830814266D885
:1032600030688007F4D50EE0FFF70AFD009007E014
:10327000FFF706FD0099411A41F28830814256D885
:1032800030688007F4D42FB1DBF8001021F08051B2
:10329000CBF80010A069C8B33D49091D0968C1F306
:1032A000810102294AD00228504607D0C8F86000A0
:1032B00000E03CE0FFF7E4FC04463BE04746C8F88A
:1032C0006000FFF7DDFC064605E000BFFFF7D8FC15
:1032D000801B02282BD828688001F7D4D4E9070185
:1032E0000843A16A2E4A490802EB0141626A41EA99
:1032F0008211084394F82C1040EA0161C9F80010CB
:1033000001203866FFF7BCFC044606E03EE000BF43
:10331000FFF7B6FC001B022809D828688001F7D502
:1033200034E000BFFFF7ACFC001B022802D90320E9
:10333000BDE8F88F28688001F4D427E00128F7D091
:10334000D9F80000E26900F4800191421CD1226AA0
:1033500000F03F01914217D147F6C071626A014007
:10336000B1EB821F10D1A26A4FF0FF3300F440315D
:1033700003EB5202B1EB024F06D194F82C1000F08F
:103380007060B0EB016F01D00120D1E70020CFE7E2
:103390000438024000004742800E4742007000405F
:1033A0000000FFFF7047704710B590F83C20012ADD
:1033B00022D0012280F83C20CA688C6822F4407236
:1033C00022434C6822F4806222430C6822F400629B
:1033D00022430C6922F4805222434C6922F40052A9
:1033E0002243C969002322F480420A4301684A64E7
:1033F00080F83C30002010BD022010BD70B590F860
:103400003C20012A32D0012480F83C40022280F87E
:103410003D2003685A689D6822F070060A683243AE
:103420005A60134B02689A4214D0B2F1804F11D007
:10343000104B9A420ED0104B9A420BD00F4B9A422F
:1034400008D00F4B9A4205D00E4B9A4202D00E4B39
:103450009A4204D1496825F080031943916080F8AD
:103460003D40002180F83C10084670BD022070BD30
:10347000000001400004004000080040000C004033
:1034800000040140004001400018004010B5040055
:1034900003D094F83D0010B107E0012010BD0020DA
:1034A00084F83C00204600F01FF8022084F83D001C
:1034B000211D206802F002FA012084F8460084F8F9
:1034C0003E0084F83F0084F8400084F8410084F80E
:1034D000420084F8430084F8440084F8450084F8EE
:1034E0003D00002010BD000008B500680649884274
:1034F00008D10648016841F001010160006800F050
:103500000100009008BD0000000001404438024066
:1035100090F83D10012901D001207047022180F868
:103520003D100168CA6842F00102CA600068114992
:10353000884214D0B0F1804F11D00F4988420ED08C
:103540000E4988420BD00E49884208D00D49884266
:1035500005D00D49884202D00C49884204D18168C7
:1035600001F00701062903D0016841F00101016063
:1035700000207047000001400004004000080040A7
:10358000000C0040000401400040014000180040D1
:1035900070B5044690F83C000025012817D001269C
:1035A00084F83C60022084F83D002068826822F0A4
:1035B000770222F47F4282600868502838D00DDC00
:1035C00020284FD005DC90B3102811D14AE002200A
:1035D00070BD302846D040280AD13BE060282FD06B
:1035E00070280DD0B0F5805F03D0B0F5005F12D029
:1035F000012584F83D60002084F83C00284670BD19
:10360000CB68D1E90121206802F0C9F920688168FE
:1036100041F0770109E0CB68D1E90121206802F08F
:10362000BEF92068816841F480418160E1E719E0DA
:10363000CA684968206802F087FA5021206806E0CD
:10364000CA684968206802F090FA6021206802F098
:10365000B0F9CEE7CA684968206802F075FA4021DF
:103660002068F4E7226801461046F0E7704770B51D
:103670000446006801694FF00005C943890715D465
:10368000C168C943890711D4E91E0161012020776F
:10369000206880698007204602D0FFF7E7FF04E03A
:1036A00000F0C2F8204600F054F92577206801693F
:1036B000C943490717D4C168C943490713D46FF0F8
:1036C00004010161022020772068806910F4407FA6
:1036D000204602D0FFF7CAFF04E000F0A5F820461C
:1036E00000F037F9257720680169C943090716D426
:1036F000C168C943090712D46FF0080101610420B1
:1037000020772068C0698007204602D0FFF7AEFF0F
:1037100004E000F089F8204600F01BF925772068C6
:103720000169C943C90617D4C168C943C90613D47E
:103730006FF010010161082020772068C06910F443
:10374000407F204602D0FFF791FF04E000F06CF8C4
:10375000204600F0FEF8257720680169C943C907B3
:1037600008D1C168C943C90704D1891E0161204637
:1037700000F092F920680169C943090609D4C168BB
:10378000C943090605D46FF0800101612046FFF7A7
:1037900009FE20680169C943490609D4C168C943C3
:1037A000490605D46FF040010161204600F07BF925
:1037B00020680169C94389060BD4C168C9438906D9
:1037C00007D46FF0200101612046BDE87040FFF78B
:1037D000EABD70BD10B586B0044614216846FCF7FA
:1037E0002DFF0E492068884216D10D48002102683D
:1037F00042F010020260006800F0100005904FF4E3
:10380000206000900220CDE901010120CDE90310E4
:1038100069460448FFF736F906B010BD00000140C4
:103820003038024000100240704770B5044690F8EE
:103830003C0000260D4601280FD0012084F83C00F2
:103840006AB1042A1DD0082A2FD00C2A3FD00126A5
:10385000002084F83C00304670BD022070BD206816
:1038600002F0B0F82068816941F0080181612068A8
:10387000816921F004018161206881692A6911430D
:1038800011E0206802F0CEF82068816941F40061FF
:1038900081612068816921F480618161206881698A
:1038A0002A6941EA02218161D2E7206802F0F0F83A
:1038B0002068C16941F00801C1612068C16921F037
:1038C0000401C1612068C1692A69114311E02068BF
:1038D00002F012F92068C16941F40061C1612068F9
:1038E000C16921F48061C1612068C1692A6941EA26
:1038F0000221C161ACE710B5040003D094F83D008B
:1039000010B107E0012010BD002084F83C002046E3
:1039100000F01EF8022084F83D00211D206801F00F
:10392000CDFF012084F8460084F83E0084F83F0073
:1039300084F8400084F8410084F8420084F8430091
:1039400084F8440084F8450084F83D00002010BD50
:103950007047704710B50446022249B104290ED0C1
:10396000082913D094F84100012816D0012010BD79
:1039700094F83E000128F9D184F83E200FE094F835
:103980003F000128F2D184F83F2008E094F840007D
:103990000128EBD184F8402001E084F84120012285
:1039A000206801F0EFFF16492068164A884201D0CE
:1039B000904203D1436C43F400434364206888423F
:1039C00013D0B0F1804F10D00F4988420DD00F496D
:1039D00088420AD00E49884207D0904205D00D494E
:1039E000884202D00C49884204D1816801F0070165
:1039F000062903D0016841F001010160002010BDDB
:103A000000000140000401400004004000080040A4
:103A1000000C0040004001400018004030B5044652
:103A20000D460068002201F0ADFF194B41F2111163
:103A300020688A10984202D0164B984209D1036A36
:103A40000B4206D1036A134203D1436C23F40043B3
:103A500043642068036A0B4206D1016A114203D114
:103A6000016821F00101016001203DB1042D08D061
:103A7000082D09D084F84100002030BD84F83E00B4
:103A8000FAE784F83F00F7E784F84000F4E7000025
:103A900000000140000401400068B0F1804F01D1F6
:103AA000FFF7F4B87047704770477047F8B5016882
:103AB00004460868CA684B6910F00F0F4FF0000504
:103AC00059D003F0010602F49077374365D0C1075F
:103AD00005D0D10503D5216C41F0010121644107D6
:103AE00005D5D90703D0216C41F00201216481077B
:103AF00005D5D90703D0216C41F0040121640107E9
:103B000007D502F02001314303D0216C41F00801B8
:103B10002164216C00293AD0800604D5900602D594
:103B2000204602F0C9F820684069216CC0F380107B
:103B3000090700D460B3204602F089F82068406984
:103B4000400621D52068143050E8001F21F04001C4
:103B500040E80012002AF5D1A06BA8B16C490165BC
:103B6000A06BFEF70BFE002811D0A06B016D01B019
:103B7000BDE8F040084783060FD593060DD52046D3
:103B8000BDE8F84002F098B82046FFF78EFFF8BD78
:103B90002046FFF78AFF2564F8BD266B2023012EFF
:103BA00079D1C60677D5D60675D5086848680090DD
:103BB0004869400640D5A16B086840680004000CC5
:103BC000EAD0A28D8242E7D9E085C869B0F5807F4E
:103BD0002DD020680C3050E8001F21F4807140E89F
:103BE0000012002AF5D12068143050E8001F21F09F
:103BF000010140E80012002AF5D12068143050E895
:103C0000001F21F0400140E80012002AF5D184F89D
:103C10003E30256320680C3050E8001F21F0100171
:103C200040E80012002AF5D1A06BFEF75EFDA08DE2
:103C3000E18D401A81B229E0A08DE18D401A81B258
:103C4000E08D0028A8D00029A6D020680C3050E8CC
:103C5000002F22F4907240E80026002EF5D1206853
:103C6000143050E8002F22F0010240E80026002E18
:103C7000F5D184F83E30256320680C3050E8002FE1
:103C800022F0100240E80023002BF5D12046FFF778
:103C90000BFFF8BDFFE705062BD5150629D594F8CF
:103CA0003D002128F5D1A068B0F5805F01D12069E1
:103CB000B0B1206A411C2162216800784860E08C24
:103CC000401E0004000CE084E3D12068C16821F0AC
:103CD0008001C1602068C16841F04001C160D8E73F
:103CE000206A0088C0F308004860206A801C2062B7
:103CF000E5E74006CDD55006CBD5CA68204622F070
:103D00004002CA6084F83D3000F0E2F9C1E70000EB
:103D1000A95B000870B5040004D094F83D000025AC
:103D200010B106E0012070BD84F83C50204600F040
:103D300023F8242084F83D002068C16821F4005154
:103D4000C160204602F018F82068016921F4904112
:103D500001612068416921F02A0141612068C16840
:103D600041F40051C1602564202084F83D0084F8AE
:103D70003E00002070BD00002DE9F04F87B00546E1
:103D800014216846FCF75AFCA348A349DFF8848253
:103D90001038D5F800C00222032300244E05071571
:103DA0004FF0080EC44574D1D1F800C0A3464CF4BE
:103DB000801CC1F800C0096801F4801105910168F8
:103DC00041F004010160016801F0040105910168FE
:103DD00041F0080101600068CDE9024300F00800ED
:103DE0000590D002CDE9000290469A46F146694618
:103DF000CDF810E08948FEF745FE0420CDE9000823
:103E0000CDE9024A6946CDF810908548FEF73AFEA2
:103E1000DFF8148283494046C8F80010C0E9016405
:103E2000C0E90347B1464FF44036C8F82060891511
:103E3000C8F81440C8E90641C8F82440FEF780FDE0
:103E400008B1FDF7DAFF784C7648C5F83880603461
:103E5000A830C8F83850C4E900094020A060C4E97F
:103E600003B7C4F814B0C4F818B0C4E907B62046C4
:103E7000C4F824B0FEF764FD08B1FDF7BEFF6C6323
:103E8000002205213520A563FEF798FF35205CE070
:103E9000FFE7DFF898814FF00709C4455AD1D1F800
:103EA00000C04CF4003CC1F800C0096801F40031C6
:103EB0000591016841F001010160016801F0010113
:103EC0000591016841F0080101600068CDE90243F5
:103ED00000F00800CDE90490CDE900E290469A4652
:103EE00069465348FEF7CEFD2020CDE90008CDE914
:103EF000024A6946CDF810904948FEF7C3FDDFF845
:103F00002881484908F1C00878314046C8F80010B7
:103F1000C0E90164C0E90347C8F814404FF44031D8
:103F2000C8F81840C8E90741C8F82440FEF708FD62
:103F300008B1FDF762FFC5F8388000220521262070
:103F4000C8F83850FEF73AFF2620FEF729FF07B0E1
:103F5000BDE8F08FDFF8DC80C445F8D1D1F800C0AF
:103F60004CF4802CC1F800C0096801F4802105914F
:103F7000016841F0020101600068694600F002003A
:103F800005904FF440608DE81500CDE903392A48CB
:103F9000FEF778FD2349DFF8A48018314046C8F8C1
:103FA0000010C0E90164C0E903474FF4003AC8F8C3
:103FB00020A08915C8F81440C8E90641B946C8F8D8
:103FC0002440FEF7BDFC08B1FDF717FF1B4F154855
:103FD000C5F8388060374830C8F83850E7E802063E
:103FE0004020A7E81102154847F814496030BC6129
:103FF000C7E9074A7C62FEF7A3FC08B1FDF7FDFEA6
:104000006F63002205212720BD63FEF7D7FE27201E
:104010009BE700000050004040380240000802408A
:10402000000C024010600240200A002000440040C2
:10403000000002400048004000040240400B002005
:104040007047000070B5044690F83D00202836D136
:1040500091B38AB394F83C00012830D0012084F851
:104060003C002162A284E28400252564212084F89A
:104070003D00636B1348D863636B13481864636B2C
:104080001248D864606B134605652668606B321D64
:10409000FEF7C0FC21686FF04000086084F83C50D7
:1040A0002068143050E8001F41F0800140E8001201
:1040B000002AF5D1002070BDFFE70120FBE70220B8
:1040C000F9E70000035C0008455C0008B95B0008E4
:1040D00070477047FEE7000070B50D4C0025C4F82E
:1040E000B4520C48016821F040410160016841F080
:1040F00080410160C4F8BC52022004F52D7404F024
:10410000DBF801202060022004F0D6F8256070BDA5
:10411000008040420004024070B50D4C0025C4F8F8
:10412000B4520C48016821F040410160016841F03F
:10413000804101600126C4F8BC62022004F52D74A0
:1041400004F0BAF82660022004F0B6F8256070BDCD
:1041500000804042000402402DE9F04781461648A5
:104160000024016821F04041016001680160134EA4
:10417000254627464FF00108C6F8B472022004F025
:104180009BF8C6F8B4826006040ED6F83C0208B16B
:10419000641CE4B2012004F08FF86D1CEDB2082D10
:1041A000EAD3B9F1000F04D0FFF796FF2046BDE82F
:1041B000F087FFF7B1FFF9E70004024000804042BA
:1041C0002DE9F04106461448016821F040410160A4
:1041D000016841F080410160104C0027C4F8B472BE
:1041E0003D464FF00108F009C4F8BC027006060E07
:1041F000022004F061F8C4F8B482022004F05CF8F4
:10420000C4F8B472022004F057F86D1CEDB2082D0A
:10421000E9D3BDE8F0810000000402400080404284
:1042200070B50D48016821F040410160016841F01E
:1042300080410160094C0120C4F8BC02C4F8B402FA
:10424000042004F52D7404F037F80025A56004203F
:1042500004F032F8256070BD000402400080404246
:104260000E4810B5016821F040410160016841F03D
:10427000804101600A4C0020C4F8B402C4F8BC02BA
:10428000042004F52D7404F017F801202060A060CC
:10429000BDE81040042004F00FB800000004024004
:1042A0000080404270B512480024016821F040416E
:1042B0000160016801600F4D0126C5F8BC623046FF
:1042C00003F0FAFFC5F8B462012003F0F5FF07E040
:1042D000641CE4B2FA2C03D9FFF7C2FF012070BDC1
:1042E000D5F83C020028F3D1C5F8B40270BD000037
:1042F00000040240008040420B4810B5406B00882B
:1043000000EE100A0948B8EE400A006880ED000A85
:1043100000F00EF8012801D1FDF7F4FAFDF738F8A6
:10432000BDE8104004F0AABF50020020480200205F
:104330000448806BE12801D0012070470249002029
:104340000875704700000140684F0020074A08497F
:1043500092F8240048700B78984203D020B10123D2
:1043600082F82530087070470023F9E734010020F7
:104370006805002010B5FDF733FDBDE81040FDF7DE
:1043800065BD70B515460E460446C171FDF737FD93
:1043900000206A1CAEB1012E21D1617903291FD002
:1043A0002068401C2060A84219DB01212171617145
:1043B000904214DB02212171617198420FDB0320CE
:1043C0000BE0617961B12168491C2160A94206DBDB
:1043D000042323716371914201DB2071607170BD10
:1043E000206070BD05484FF47A7305220068007D97
:1043F000C0F380010248FFF7C4BF00003401002071
:10440000984F00202DE9F05F414C4FF4FA730522DC
:104410002068808AC10B3F48FFF7B3FF3D48DFF8B3
:10442000F8A06838DFF8F4B090F86C003C4F3D4DD0
:104430003D4EDFF8F890022831D2DFE800F030017D
:104440002168A0463A4C11F8390F401C0870C0078B
:104450000AD0FEF715FCA060D8F8000090F83900EB
:10446000C00701D0E06802E0FEF70AFCE060A16846
:10447000884201D0401A00E0081AB0F5FA7F02D253
:10448000002038750EE00120387528689FED290A54
:1044900080ED000A30689FED280A80ED000A387D23
:1044A000012821D000209FED250A494600EB80021B
:1044B00002EBC00201EB8202401C9268042882EDEC
:1044C0000D0AF3DB9FED1E0ADAF8040080ED0D0AF9
:1044D000686880ED0D0A706880ED0D0ADBF8040055
:1044E00080ED0D0ABDE8F09F9FED160A00204946B9
:1044F00000EB800202EBC00201EB8202401C9268DA
:10450000042882ED0D0AF3DB9FED0F0ADCE70000C3
:1045100034010020F04F002030020020480200202B
:10452000684F002038020020400200205C0100207B
:1045300034050020000000000080D4450000FA454A
:1045400000409C4600007A4500401C46174810B5C4
:1045500000684FF4FA730522808AC0F34031144892
:10456000FFF70FFF1248583890F85C0003281CD260
:10457000DFE800F01B1B02000E484179012914D12D
:10458000C079002811D10C48DFED0C0A006890EDCD
:10459000000AB5EEC00AF1EE10FA02DB30EE600A56
:1045A00001E030EE200A80ED000A10BD3401002049
:1045B000E04F0020684F002030020020000034430C
:1045C00010B5224C224B2068007DC00703D093ED2C
:1045D000000A012102E093ED010A00211C4820306D
:1045E00000F0D4FF2068007D800703D593ED000A1A
:1045F000012102E093ED010A00211548243000F06A
:10460000C5FF2068007D400703D593ED000A012116
:1046100002E093ED010A00210D48283000F0B6FFBA
:104620002068007D000703D593ED000A012102E018
:1046300093ED010A002106482C3000F0A7FF01F09D
:10464000A5FDBDE81040FCF72DB9000034010020A5
:10465000C000002005484FF47A7305220068007DF1
:10466000C0F3C0010248FFF78CBE000034010020F7
:10467000A04F002010B5314C15214FF4FA7360881B
:10468000401C80B2B0FBF1F201FB120060802C48AC
:1046900005220068808AC0F340212A48FFF771FE96
:1046A0002848383890F83C10274803290FD2DFE813
:1046B00001F00E0E02000121C1712088401C80B261
:1046C0000321B0FBF1F201FB1200208006E0C0796B
:1046D000012803D000202080608010BD208820B3F6
:1046E000012825D00228F8D16088DFED180A00EEF5
:1046F000100AB2EE041AB8EE400A60EE200A80EE0C
:10470000810A10EE100A09F051F941EC100B02F089
:1047100007FA9FED0F1B51EC100B53EC112B08F017
:1047200085FE08F0F7FB606010BD9FED0B0A01E00D
:104730009FED0A0A84ED010A10BD00003405002037
:1047400034010020C04F0020684F0020DA0F49409C
:10475000000000000000694000001643000096437E
:104760000E4810B500684FF4FA730522808AC0F332
:1047700000210B48FFF705FE0948303890F8340057
:10478000042808D2DFE800F0070707020548017B8C
:1047900011B10021017310BD0121FBE7340100209C
:1047A000B84F0020684F002005484FF47A73052267
:1047B0000068007DC0F340010248FFF7E2BD000041
:1047C00034010020904F002010B5124C4FF4FA73C2
:1047D00005222068007DC0F300110F48FFF7D1FDCE
:1047E0000D48783890F87C00042812D2DFE800F0F9
:1047F00011111102206890ED090AB5EEC00AF1EE20
:1048000010FA02DB9FED050A01E09FED050A80ED3D
:10481000090A10BD3401002000500020000025448A
:10482000000025C405484FF47A7305220068007D16
:1048300000F001010248FFF7A4BD00003401002090
:10484000884F0020104810B500684FF4FA73052215
:10485000007DC0F340110D48FFF793FD0B48002188
:104860007038012290F874300948042B06D2DFE832
:1048700003F00505020642710171017510BD027158
:104880004171C17110BD000034010020F84F0020BB
:10489000684F00200A4810B590ED000A09480068EA
:1048A00080ED000A084890ED000A064808300068CC
:1048B00080ED000AFDF738F8BDE8104005F014B8A7
:1048C0005C050020300200205405002070B505462C
:1048D000FFF7A6FC0F4C20784006000EFFF770FC97
:1048E000FFF7E0FC2846FFF76BFCFFF7DBFCFFF768
:1048F00097FC2078012101EB4000C0B2FFF760FC7B
:10490000FFF7D0FC0020FFF727FC0446FFF7A8FCC8
:10491000204670BDDC0500202DE9F04116460D460D
:104920000746FFF77DFC134C20784006000EFFF78A
:1049300047FCFFF7B7FC3846FFF742FCFFF7B2FC35
:10494000FFF76EFC2078012101EB4000C0B2FFF7B9
:1049500037FCFFF7A7FC002406E00120FFF7FCFB73
:10496000641C05F8010BE4B2B442F6D3BDE8F04193
:10497000FFF776BCDC050020104810B50E49016039
:104980000321416000214FF400228160C0E903123D
:104990004FF4401242610176012242768176C1765F
:1049A00001774277FDF72FFD002803D0BDE81040C6
:1049B000FDF723BA10BD0000006400403408002059
:1049C000104810B50E4901600321416000214FF4E9
:1049D00000228160C0E903124FF440124261017667
:1049E000012242768176C17601774277FDF70BFD91
:1049F000002803D0BDE81040FDF7FFB910BD00004E
:104A0000006800405C080020194808B5016841F4BE
:104A1000001101600068002200F4001000900521E0
:104A20000B20FEF7CBF90B20FEF7BAF90022052187
:104A30000C20FEF7C3F90C20FEF7B2F90022052185
:104A40000E20FEF7BBF90E20FEF7AAF90022052181
:104A50001020FEF7B3F91020FEF7A2F9002205217D
:104A60002F20FEF7ABF9BDE808402F20FEF798B9DC
:104A70003038024010B5C6B01C2237496846FBF7F3
:104A800089FD0021684605F04DF8344C32491C225E
:104A900020601C3107A8FBF77DFD002107A805F069
:104AA00041F82D4960601C2238310EA8FBF772FDD9
:104AB00000210EA805F036F82749A0601C225431C9
:104AC00015A8FBF767FD002115A805F02BF8224972
:104AD000E0601C2270311CA8FBF75CFD00211CA8C3
:104AE00005F020F81C4920611C228C3123A8FBF71B
:104AF00051FD002123A805F015F8174960611C221B
:104B0000A8312AA8FBF746FD00212AA805F00AF8DB
:104B10001149A0611C22C43131A8FBF73BFD0021E3
:104B200031A804F0FFFF0C49E0611C22E03138A8F5
:104B3000FBF730FD002138A804F0F4FF064920629D
:104B40001C22FC313FA8FBF725FD00213FA804F003
:104B5000E9FF606246B010BDA4DA00080000002042
:104B60002DE9F04186B014216846FBF767FD2B481C
:104B70000024016841F004010160016801F00401B2
:104B80000591016841F080010160016801F0800138
:104B90000591016841F001010160016801F0010126
:104BA0000591016841F010010160016801F01001F8
:104BB0000591016841F002010160016801F0020104
:104BC0000591016841F0080101600068012200F0D0
:104BD0000800134F5503059029463846FEF74AF85A
:104BE000DFF840804FF42046012231464046FEF770
:104BF00041F800950125CDE90154694638460394F2
:104C0000FDF740FF0320CDE90240CDE9006569468C
:104C10004046FDF737FF06B0BDE8F081303802406E
:104C2000000802400004024010B596B000240F9422
:104C300010941194129413941C2168461494FBF759
:104C4000FDFC202107A8FBF7F9FC2D482B4901604A
:104C500040F28F61C0E9011440F2E731C0E903146A
:104C600044618461FEF712FC08B1FDF7C6F84FF409
:104C700080500F900FA92248FEF78AFC08B1FDF77B
:104C8000BCF81F48FEF737FE08B1FDF7B6F81394DD
:104C900013A91B481494FEF7B1FB08B1FDF7ADF85A
:104CA0006020CDE90004029403940494059400224A
:104CB000694613480694FEF7B8FD08B1FDF79DF864
:104CC000042269460E48FEF7B0FD08B1FDF795F8DD
:104CD0000794089409944FF400500A94CDE90B40CE
:104CE00007A907480E94FEF75FFB08B1FDF785F8AA
:104CF0000348FEF76FFD16B010BD00000000014034
:104D0000840800200C4810B50A4901604FF4E131D5
:104D10004160002181600C22C160C0E90412816100
:104D2000C161FEF7F7FF002803D0BDE81040FDF792
:104D300064B810BD00500040540900200C4810B564
:104D40000A4901600B494160002181600C22C16069
:104D5000C0E904128161C161FEF7DCFF002803D0C5
:104D6000BDE81040FDF749B810BD00000044004008
:104D700098090020A08601000C4810B50A4901607E
:104D80004FF4E1314160002181600C22C160C0E933
:104D900004128161C161FEF7BDFF002803D0BDE8A8
:104DA0001040FDF72AB810BD00480040DC09002083
:104DB00010B5224C04F13400E16D8847A16A204609
:104DC0008847FCF79FFD1E48006890ED020AB5EE8B
:104DD000C00AF1EE10FA01DCB1EE400A10EE101A32
:104DE0001848814224DC16490839096891ED020A05
:104DF000B5EEC00AF1EE10FA01DCB1EE400A10EE99
:104E0000101A814214DC104890ED000A0C48183842
:104E1000006880ED000A0D4890ED000A084810383F
:104E2000006880ED000A002084F83000012010BDE9
:104E300004F05AFDFDF768F8002010BD5002002074
:104E400048020020000048425C0500205405002074
:104E5000FEE7000010B500F053F822482249F2EEB8
:104E6000051A026892ED061A81ED051A92ED070AFD
:104E700081ED060AD1ED020A60EEA11ADFED1B0AF0
:104E800041EE201AC2ED061A91ED031AF1EE0C1A4A
:104E9000026821EE211A00EE201A82ED071A91ED28
:104EA000040A0168124A81ED0A0A8B699FED110A12
:104EB000934201DD81ED060A03680F49DFED0F0A19
:104EC0009C698C4201D9C3ED060A0368DC699442EF
:104ED00001DD83ED070A0068C2698A4201D9C0ED8D
:104EE000070A10BD34010020C00000209A99993EA5
:104EF0000000254400002544000025C4000025C40E
:104F000010B500F00FF8064C84ED020A00F068F8C6
:104F100084ED030A00F0DAF884ED040A10BD000005
:104F2000C000002070B5254C254D206890ED060A84
:104F300085ED050AB0F90C00B0F5967F01DD012082
:104F400000E0002000EE100AB8EE400A00F0E8F899
:104F5000DFED1C0AB5EEC00AF1EE10FA02D0B0EE99
:104F6000600A09E02068B0F90C0000EE100A16484B
:104F7000B8EEC00A00F064F9F2EE050A95ED051AE4
:104F800060EE200ADFED111A2068114A41EE210A75
:104F9000C0ED060A10EE900A2168904203DDDFEDB5
:104FA0000D0AC1ED060A20680B4A8169914203D9B6
:104FB000DFED0A0AC0ED060A70BD000034010020D2
:104FC000C000002000000000305000209A99993E57
:104FD0000000254400002544000025C4000025C42D
:104FE00070B5304C304D2DED028B206890ED070AE6
:104FF00085ED060AB0F90E00B0F5967F01DD0120BF
:1050000000E0002000EE100AB8EE400A00F088F838
:10501000DFED268AB5EEC00AF1EE10FA02D0B0EE4E
:10502000688A0DE02068F0EE680AB0F90E0000EE24
:10503000100A1F48B8EEC00A00F002F9B1EE408A2B
:10504000B1EE0C0AD5ED060A28EE000A9FED191AFA
:105050002068194A00EE810A80ED070A10EE100A56
:105060002168904203DD9FED150A81ED070A206853
:10507000134AC169914203D99FED120A80ED070AD4
:10508000114890ED070A00F04BF810EE100AB0F14D
:105090007E5F02DA2068C0ED078AB0EE480ABDECF8
:1050A000028B70BD34010020C00000200000000011
:1050B0006C5000209A99993E000025440000254438
:1050C000000025C4000025C4F000002010B50E4CDF
:1050D0000E48DFED0F0A94ED040A84ED070A00681C
:1050E000B0F9100000EE100A0A48B8EEC00A00F04D
:1050F000A7F8DFED090A9FED091A20EE200AD4ED8A
:10510000070A00EE810A10BDC00000203401002013
:1051100000000000A8500020CDCC4C3FCDCC4C3E30
:10512000B5EEC00AF1EE10FA01DAB1EE400A7047AE
:10513000002801DA404200B2704790ED001AB1EE4B
:10514000602AF0EE001AB4EEE01AF1EE10FA02DB7B
:1051500000EEE11A06E0B4EEC21AF1EE10FA03D83E
:1051600000EEA11A80ED001A31EE400AB4EEE00A1A
:10517000F1EE10FA02DB00EEE10A06E0B4EEC20A3C
:10518000F1EE10FA01D800EEA10A81ED000A704795
:10519000FEE7000010B5FCF79BFE0548C169884793
:1051A00004480121417001700021817010BD000090
:1051B000340100206805002010B50268002111802C
:1051C00002685180026891800268D18003680422DD
:1051D0009A720368DA72026891810268D18102686A
:1051E0001182026891740268D17402689182026827
:1051F0001181002202F12C030468521CD2B2E15446
:10520000122AF7D310BD30EE600AF0EE000A80EDEE
:10521000000AB4EEC10AF1EE10FA02DB01EE600AF8
:105220000AE0F0EE401AB1EE412AF4EEC21AF1EEB5
:1052300010FA03D801EE200A80ED000A7047000042
:105240005FF00E0100EB8102491E12ED011A0029E8
:1052500082ED001AF6DC80ED000A002100EB8102ED
:10526000491C92ED000A0F2970EE200AF6DBB2EE1F
:105270000E1A80EE810A704710B5FCF73DFB02491B
:105280000020886310BD00000000014070B58EB0A2
:105290000646002502468DF800500121684602F0BE
:1052A00041FA02F053F932460121042002F0FAFCDF
:1052B000044602F04BF984B90C208DF8020002205C
:1052C0008DF8030001208DF805508DF8040001468B
:1052D0003246684602F0F0FD04460EB0204670BD2E
:1052E00070B58EB00124064602468DF80040214676
:1052F000684602F017FA02F029F93246022104202A
:1053000002F0D0FC054602F021F995B90C208DF889
:10531000020000208DF8060002208DF803008DF8B1
:1053200007408DF8044032460121684602F0C4FD72
:1053300005460EB0284670BD70B51C4CFCF768FDE4
:1053400000F08CF81A4D012805D0286F9FED190A3E
:1053500080ED000A70BD164E607B6836012813D1BF
:10536000607C88B9E07B01280AD1A86FDFED120AC2
:1053700090ED000A30EE200A80ED000A0020E07374
:10538000D5F8941030468847E07A01280AD1207C6D
:1053900040B9286F9FED090A80ED000AD5F88C10FE
:1053A00030468847BDE87040FBF752BD684F00208B
:1053B000B802002000000000002410C70000FAC45A
:1053C00070B5224C00252DED028B00BF05EB85004A
:1053D00000EBC50004EB8006304671698847B06871
:1053E00004F0CAFB6D1C042DF0DB00209FED188A31
:1053F000F2EE040AB1EE040A00EB800101EBC001F9
:1054000004EB8101401C8A68032882ED0D8A8A68BA
:10541000C2ED040A896881ED060AEDDB206F9FED7D
:105420000D0A80ED000AA06F04F0A6FBA06FB0EE9D
:10543000000A80ED040AA06F9FED070A80ED060ABE
:10544000A06F80ED0D8ABDEC028B70BDB80200200C
:105450000080BB450000FAC4000048420E4810B569
:105460000068B0F86C10B0F84F0000EE101AF8EEBB
:10547000400A00EE100AB8EE400A30EEC00ABDEE57
:10548000C00A10EE100A00B2FFF752FE142801DC29
:10549000002010BD012010BDD004002010B500F088
:1054A0000FF8054A4FF400710448FBF7B7FE0248B5
:1054B00000210160416010BDB40000207C49002043
:1054C0002DE9F0412D4E2E4806F046FF2C4D2D4C77
:1054D000A86890ED0A0ABDEEC00A10EE100A00128C
:1054E000207010EE100A607005F1340006F034FFF1
:1054F000E86B05F1680790ED0A0ABDEEC00A10EEF0
:10550000100A0012A07010EE100AE070F07A012864
:1055100001D1307C20B11C4890F8240001280ED124
:10552000384606F019FF286F90ED0A0ABDEEC00A52
:1055300010EE100A0012207110EE100A6071707BDC
:10554000012805D0307C012802D0707C012812D1BE
:10555000D5F88C1038468847384606F0B4FEA86F58
:1055600090ED0A0ABDEEC00A10EE100A001220717A
:1055700010EE100A6071BDE8F0810000684F002055
:10558000B8020020B400002034010020D0ED000A51
:1055900011B130EE800A01E030EEC00A0A4A10EE86
:1055A000101A80ED000A914203DD9FED080A80ED9C
:1055B000000AB5EEC00AF1EE10FA03D29FED040A1C
:1055C00080ED000A704700000000254400002544DB
:1055D00000000000FBF7B0FE064C00BF94F824006A
:1055E00018B9FBF737FFFCF763F9012004F08EFAD6
:1055F000F4E7000034010020012004F087FAFBE703
:10560000FCF75AFC0F4E104D104C00BF96F82400CA
:1056100098B92878012810D16079012801D1FEF7C6
:105620006BFE2079012801D1FFF734F9A079012818
:1056300001D1FCF779F9FCF767FC012004F066FA68
:10564000E4E70000340100206A050020684F0020D4
:105650002DED028B86B0FBF7C5FB264E9FED268A0B
:10566000B51EAF1EDFED258AA5F10408A5F10609D8
:10567000BC1F204BCDE900561B1F9A1E911E881E91
:10568000FBF78CFBCDF800901A4BCDE903560A3B93
:1056900003F11402CDE90187111F081FFBF750F930
:1056A000B4F90400D4ED060A00EE100AB8EEC00A00
:1056B00020EE080A00EEA80A84ED060ABDEEC00A34
:1056C00010EE100AA080B4F90200D4ED070A00EE33
:1056D000100AB8EEC00A20EE080A00EEA80A84ED0F
:1056E000070ABDEEC00A10EE100A6080012004F027
:1056F0000DFABEE752050020CDCC4C3ECDCC4C3F40
:10570000044C04486169884706F032FE012004F029
:10571000FDF9F6E7D0040020084C00BF94F82400FF
:1057200040B960688079012801D1FEF723FE216A23
:1057300002488847012004F0E9F9EFE7340100202E
:10574000144C2046E16888470125134E0027A169C3
:1057500010488847FEF7FAFD94F8250028B9FFF7AE
:1057600027FB10B184F82550B57094F8240048B197
:10577000FCF7D4F8FFF70EFDFBF77CFD012004F0E9
:10578000C5F9E4E7FCF7B8F8616902488847776033
:10579000F4E700003401002068050020FFF710FE48
:1057A000064C00BF94F8240018B9FFF7C5FDFFF7B9
:1057B00075FE012004F0AAF9F4E70000340100208E
:1057C000044C04486169884700F06EFC012004F035
:1057D0009DF9F6E7F0030020012004F097F9FBE7BC
:1057E00010B5502080F31188BFF34F8FBFF36F8F38
:1057F00007F0BCFA18B104494FF08050086000204F
:1058000080F3118810BD000004ED00E030B593B0C6
:1058100030216846FAF712FF14210CA8FAF70EFFA0
:105820001D480025016841F080510160006800F0CA
:10583000805011901948016841F48041016000686E
:10584000022400F480401190012003901020049065
:10585000009406940820CDE90750A820CDE909045A
:1058600004200B906846FDF7E7FB08B172B6FEE72F
:105870000CA90F2081E831004FF4A0500F904FF495
:105880008050109005210CA8FDF7CAFA002801D01D
:1058900072B6FEE713B030BD4038024000700040E1
:1058A0000248016841F470010160704788ED00E032
:1058B0000148FDF7DCBE0000000C0020F0B50268D6
:1058C000254C264D264E274F274B4FF0804CA042AB
:1058D00009D0604507D0A84205D0B04203D0B842F5
:1058E00001D0984204D122F0700E4A6842EA0E02BA
:1058F000A0421BD0604519D0A84217D0B04215D0A5
:10590000B84213D0984211D0184DA8420ED0184D6D
:10591000A8420BD0174DA84208D0174DA84205D079
:10592000164DA84202D0164DA84203D122F440756C
:10593000CA682A434D6922F080022A4302608A68BD
:10594000C2620A688262A04201D0984201D109690C
:10595000016301214161F0BD0000014000040040ED
:1059600000080040000C00400004014000400140DD
:10597000004401400048014000180040001C004065
:105980000020004010B501F01F030121046A994076
:105990008C430462016A9A401143016210BD10B544
:1059A000846842EA032224F47F440A43224382604B
:1059B00010BD826822F070020A4342F00701816044
:1059C00070470000F0B5026A22F001020262036A29
:1059D00042688469124E24F073050C682C4323F04E
:1059E00002058B682B430D4DA84201D0B04205D172
:1059F00023F00807CB683B4323F00403A84201D0FF
:105A0000B04205D14D6922F4407215438A692A4398
:105A100042608461496841630362F0BD0000014057
:105A200000040140F0B5026A22F010020262026A2C
:105A3000436884690D6824F4E64444EA05248D68CB
:105A400022F0200242EA05120F4D104EA84201D06A
:105A5000B04206D1CF6822F0800242EA071222F05B
:105A60004002A84201D0B04207D14D6923F44063FF
:105A700043EA85038D6943EA85034360846149688D
:105A800081630262F0BD000000000140000401409B
:105A9000F0B5026A22F480720262026A4368C46945
:105AA00022F4007224F073050C68124E2C438D68AA
:105AB00042EA05220E4DA84201D0B04206D1CF687D
:105AC00022F4006242EA072222F48062A84201D056
:105AD000B04207D14D6923F4405343EA05138D6961
